:020000040800F2
:10000000B859002011020008C9440008F502000890
:10001000C5440008591A00087D4B00080000000084
:1000200000000000000000000000000023020008A3
:100030008D1A0008000000007F02000881470008B8
:100040002B0200082B0200082B0200082B020008DC
:100050002B0200082B0200082B0200082B020008CC
:100060002B0200082B0200082B0200082B020008BC
:100070005D1A0008691A00082B0200082B0200080C
:10008000751A00082B0200082B0200082B0200083A
:100090002B0200082B0200082B0200082B0200088C
:1000A0002B0200082B0200082B0200082B0200087C
:1000B0002B0200086D4800082B0200082B020008E4
:1000C0002B0200082B0200082B0200082B0200085C
:1000D0002B0200082B0200082B020008714B0008BD
:1000E0002B0200082B0200082B0200082B0200083C
:1000F0002B0200082B0200082B0200082B0200082C
:100100002B0200082B0200082B0200082B0200081B
:100110002B0200082B0200082B0200082B0200080B
:100120002B0200082B0200082B020008811A00088D
:1001300000F002F800F05DF80AA090E8000C82449C
:100140008344AAF10107DA4501D100F052F8AFF279
:10015000090EBAE80F0013F0010F18BFFB1A43F0A5
:100160000103184790300100B0300100103A24BF5D
:1001700078C878C1FAD8520724BF30C830C144BF0C
:1001800004680C607047000000230024002500264E
:10019000103A28BF78C1FBD8520728BF30C148BFEA
:1001A0000B607047662911F0AC86652911F0A986AD
:1001B000642900F08981752900F08681782900F092
:1001C000BF81002070471FB59DE8030000F020FDAF
:1001D00001F0A8F804000020002110F06BFD401C85
:1001E00060600020002110F07BFDE0601FBD10B5B5
:1001F00010BD01F085FB1146FFF7E5FF01F002FCA1
:1002000001F0A3FB03B4FFF7F2FF03BC01F0D4FB42
:100210000948804709480047FEE7FEE7FEE7FEE79A
:10022000FEE7FEE7FEE7FEE7FEE7FEE704480549D6
:10023000054A064B70470000694800083101000874
:10024000B8460020B8590020B8550020B855002005
:10025000EFF3108072B6704780F310887047324A0F
:100260001368012B04D04FF0010313602F4A106074
:100270002F4A11602F484FF0805101607047EFF313
:10028000108272B62848016891B14FF000010160F8
:100290002648016829B1EFF3098121E9F00F0068D0
:1002A0000160234909680968B1E8F00F81F3098802
:1002B00082F310884EF0040E70471D4908601B49F8
:1002C0004FF00000086018494FF0010008601A481C
:1002D0001A49D0F8002041EA0201016015484FF0A8
:1002E0008051016016480068006880F3088861B694
:1002F00062B670471EF0040F0CBFEFF30880EFF3F7
:10030000098020E9F00F40F804ED1EF0040F0CBF47
:1003100080F3088880F3098800B50CF0FDFD5DF8D6
:1003200004EB4EF0040E704778450020EC420020AC
:10033000F442002004ED00E020ED00E00000FFFFAB
:1003400008ED00E070B5064600F042FC056806F1D5
:100350000B0020F00704B4429CBF002070BD2B4668
:100360006A68BAB11068A04210D304F1080188424B
:100370003CBF5068586007D351681019416011683C
:10038000091B016058601460101D70BD134652684F
:10039000002AE7D12146284600F026FC0028DED1BD
:1003A00070BD70B50446051F00F012FC0068002CFB
:1003B00014BF446870BD002C18BFAC423CBF20463F
:1003C0006468F8D301680A18AA4218BF456003D1CF
:1003D0002A6805461144016028684119A1421CBFE2
:1003E0006C6070BD6168696021680844286070BDF8
:1003F00010B5044600F0E4FB0068005DC00602D5BD
:1004000004F1200010BD204610BD00000FB41CB543
:10041000084B06AA7B4469460090059800F0A5FEAB
:1004200004460020694600F0B3FE20461CBC5DF87F
:1004300014FB0000790D00000FB41CB50C0007AAD6
:10044000009007D04142A14202D32044401E01E067
:100450004FF0FF30074B7B4469460190069800F04F
:1004600084FE0021002C01D0009A11701CBC5DF8A4
:1004700014FB0000410D000070B50446856900685A
:10048000C10601D5302600E02026C00707D070BD88
:10049000D4E9012130469047206A401C20626D1E3D
:1004A000F6D570BD70B5044685690078C00707D1E0
:1004B00070BDD4E9012120209047206A401C2062B1
:1004C0006D1EF6D570BD00002DE9F04106460024F2
:1004D00010687529314616A510D0AFF300800028AA
:1004E00002DA404213A507E031688A0701D512A558
:1004F00002E0490704D511A5012401E0AFF3008013
:1005000000210A2206F1240709E0B0FBF2FCB0FB4F
:10051000F2F302FB1C00303078541846491C0028C6
:10052000F3D123462A463046BDE8F04100F0B1BB86
:10053000000000002D0000002B0000002000000043
:1005400070B504460D4621461068AFF3008021883F
:10055000090502D50F4A7A4402E00E4A7A440E3267
:10056000002104F1240305E000F00F060009965D68
:100570005E54491C0028F7D120780023000704D5D9
:10058000702D02D009B1022311322046BDE870401F
:1005900000F07FBB9C1A01002DE9F05F89460446FC
:1005A0004FF0000ADFF824B1FB44C0F820A0204639
:1005B000E168884700287DD0252806D0D4E90121AC
:1005C0009047206A401C2062F1E700255F462046E4
:1005D000E16888472028064607DB312E05D2B81986
:1005E00010F8200C08B10543F1E7A80701D525F064
:1005F0000405C4F81CA00027C4F818A02A2E09D0AE
:1006000030460FF0C5FD38B304EB8708303EC8F81C
:10061000186019E059F8041B204604EB8702916129
:10062000E1688847012F064618D1E069002820DAE2
:1006300025F020051DE0D8F8180000EB800006EB3F
:1006400040003038C8F818002046E1688847064660
:100650000FF09EFD0028EED1012F0AD02E2E08D1DA
:100660002046E16888477F1C0646022F45F020059A
:10067000C4DBA069002803DA404245F00105A0610F
:10068000E80701D025F01005A6B1A6F14100192810
:1006900002D8203645F400654A463146204625609A
:1006A0004D46FFF77FFD60B1012807D0ED1D25F015
:1006B000070000E007E000F1080978E705F1040908
:1006C00075E730467AE7206ABDE8F09F721A0100AC
:1006D0000FB400B58DB010A9099000910B904FF0A8
:1006E000FF300A9000200C90064878440690064897
:1006F00078446A4607900F9909A800F05DFD0DB097
:100700005DF814FBEB0A0000030B00002DE9FF5F0E
:100710004FF000089946144646469169D2E901A770
:10072000DDF838B001988847054659EA0B0005D036
:1007300009E0A1690198761C88470546216A284688
:1007400088470028F5D1681C03D05FEACA7005D03D
:1007500015E04FF0FF3004B0BDE8F09F2068011DA8
:100760002160D0F800800AE05FEACA7001D108F881
:10077000015BA169761C01987F1E88470546002F02
:100780001ADD681C18D0B9F1000F0DD0E81705EB81
:10079000D060421120F01F0059F822102A1A0120BF
:1007A00090400142E0D107E0BBF1000FDCD12846C8
:1007B000216A88470028D7D0E16901988847BBF1B2
:1007C000000F07D1002E05DD5FEACA7002D10021BB
:1007D00088F80010A068B84203DDBBF1000F03D019
:1007E00017B16FF00100B6E73046B4E770B50646C2
:1007F00000F0F2F90468054630460A22002100F0B4
:1008000002F82C6070BD2DE9F04791460F468046F6
:100810000446002614F8015B2DB100F0D1F9006800
:10082000405DC007F6D12B2D02D02D2D18D0641EAF
:100830004A463946204600F0EFFC27B13968A1420C
:1008400001D1C7F800804FF0020471050BD540427A
:10085000002803DD00F0C0F90460A007BDE8F087C0
:1008600046F48066E4E70028F8DA00F0B5F90460A1
:100870006FF00040F2E740EA0103024630B59B0703
:1008800010D14FF0013400E008C208C91D1B9D4380
:1008900015EAC41FF8D013F0FF0102F8011B0DD0B8
:1008A0001B0AF8E711F8013B002B02F8013B05D0C9
:1008B00011F8013B002B02F8013BF3D130BD10B51C
:1008C000431C02E010F8011B71B18107FAD14FF00F
:1008D000013202C88C1A8C4314EAC211F9D0C01A32
:1008E0000A0603D0C01E10BDC01A10BD0A0401D0F4
:1008F000801E10BD0902FCD0401E10BDCBB22AB133
:1009000001788B4203D0401C521EF9D10020704761
:1009100040EA010370B59B072ED14FF00136042A3F
:100920002AD308C810C99D1B9D43121F15EAC6157E
:1009300017D0D8B2E1B2401A50EA056110D198B28E
:10094000A1B2401A50EA05410AD123F07F4024F0B9
:100950007F41401A50EA052102D1180EA0EB146025
:1009600070BDA342DBD018BA21BA884201D9012058
:1009700070BD4FF0FF3070BD0AB9002070BD10F897
:10098000013B11F8014B63B1A3420AD1521E08D0BA
:1009900010F8013B11F8014B1BB1A34201D1521ECB
:1009A000EDD1181B70BD032A40F2308010F0030C0B
:1009B00000F0158011F8013BBCF1020F624498BFB2
:1009C00011F801CB00F8013B38BF11F8013BA2F14F
:1009D000040298BF00F801CB38BF00F8013B11F0CA
:1009E000030300F06884083AC0F0088051F8043B23
:1009F000083A51F804CBA0E80810F5E7121D5CBFD7
:100A000051F8043B40F8043BAFF30080D20724BF09
:100A100011F8013B11F801CB48BF11F8012B24BF9D
:100A200000F8013B00F801CB48BF00F8012B7047EC
:100A300002F0FF0343EA032242EA024200F00AB84E
:100A400002F0FF0343EA032242EA024200F024B824
:100A50004FF000020429C0F0128010F0030C00F0E7
:100A60001B80CCF1040CBCF1020F18BF00F8012B65
:100A7000A8BF20F8022BA1EB0C0100F00DB85FEA33
:100A8000C17C24BF00F8012B00F8012B48BF00F8FF
:100A9000012B70474FF0000200B51346944696466E
:100AA000203922BFA0E80C50A0E80C50B1F1200181
:100AB000BFF4F7AF090728BFA0E80C5048BF0CC02F
:100AC0005DF804EB890028BF40F8042B08BF70478D
:100AD00048BF20F8022B11F0804F18BF00F8012BFF
:100AE000704710B5044610F0030F08BF11F0030F54
:100AF00040F015804FF0013E121FC0F20E8051F8F9
:100B0000043BA3EB0E0C2CEA030C1CEACE1C08BF22
:100B100040F8043BF0D0A1F1040102F10402521E9E
:100B200008DB11F8013B00F8013B002BF7D111461F
:100B3000FFF78EFF204610BD4FF0013C50F8042B0C
:100B400051F8043B9A4221D1A2EB0C03934313EAE0
:100B5000CC1317D150F8042B51F8043B9A4215D10D
:100B6000A2EB0C03934313EACC130BD150F8042BE4
:100B700051F8043B9A4209D1A2EB0C03934313EAC8
:100B8000CC13DBD04FF00000704700BFD01A01BA81
:100B9000B1FA81F101F0180122FA01F0CB40DBB289
:100BA000C0B2C01AC1F120012CFA01F3D11A91434D
:100BB00011EAC311E6D170477047704770470000D3
:100BC00010B500F0AFFB001D10BD00BFE900010033
:100BD00000487047900000200048704788000020BF
:100BE000704770477047704738B504460A46002082
:100BF0006946AFF30080002808BF38BD024600995F
:100C0000204600F093FB012038BD012000F070BEAB
:100C1000F8B5AFF30080054600200C46102000BF59
:100C20000646A819A0420DD9324669460020AFF306
:100C30000080070008BF00F05BFE0098A04218BFCC
:100C40000546C419FFF7C4FF05600746F01D20F0F4
:100C500007004619284600F00AF8B44208BFF8BD5C
:100C6000A21B31463868BDE8F84000F05FBB0021A8
:100C70000160C0E9011070471020704710B5FFF700
:100C8000ABFF006810BD10B50446FFF7A5FF046078
:100C900010BD2DE9F0470D4699469246044600F1F5
:100CA00024080168880604D5E06921F0100121605C
:100CB00000E00120A84201DD471B00E00027A169F8
:100CC0007A1902EB0900081AA0612078C00602D444
:100CD0002046FFF7D1FB002608E0D4E901211AF8ED
:100CE00006009047206A401C761C20624E45F4DBCB
:100CF0002078C0060AD52046FFF7BEFB06E0D4E9FF
:100D0000012130209047206A401C2062381EA7F144
:100D10000107F4DC07E0D4E9012118F80500904749
:100D2000206A401C2062281EA5F10105F3DC204644
:100D3000FFF7B8FB2078000602D50220BDE8F08757
:100D40000120FBE72DE9FF4F0C461E464FF0FF3711
:100D50008BB0D2E90001DDF860800A908A46C1F3C9
:100D60000A5505B93D46002108464FF00000BAF18A
:100D7000000F00F4400005DA00EB80004FF4400162
:100D800001EA50004FEA9059B9F1010F00DDB94670
:100D90000A9850EA4A000ED044F61050A5F2FF35EA
:100DA00045432F14B8F1000F1ED07542291E1EDDD9
:100DB000C9F100021CE0B8F1010F4FF0000001D0B2
:100DC000302103E0F24305E02154401CB042FBDB3C
:100DD00030460022002121540B99C1F80880C1E956
:100DE00000200FB0BDE8F08FBD1B6D1CDEE74A464A
:100DF00000DA694206A800F009FD06AB93E8070097
:100E000003AB83E8070050460A990EF06FFD8DE8AA
:100E10000700A0F500501F3800900398002D0ADD50
:100E200042F21F014A460844002303A90390684682
:100E30000EF0D8FF09E0A0F500504A461F38002305
:100E400003A9039068460EF0E2FF8DE80700000456
:100E5000000C03D04FF0FF30410800E01046B8F11D
:100E6000000F03D00022009215461EE0751E05D427
:100E700000F076FA303262556D1EF9D5B346012284
:100E8000084302D000227F1C04E02078302801D1E2
:100E900000227F1E002A099784D01DE0112D07DA59
:100EA00000F05EFA303262556D1C50EA0102F5D155
:100EB000084302D00098C8B10EE00021681E05E08A
:100EC000235C625C63542254401E491C8142F7DB60
:100ED000AB46A81B401E0990002004F80B000B989D
:100EE000099AC0F80880C0E9002B7AE711264FF074
:100EF000000857E72DE9F04F88460446D21D22F03E
:100F0000070191B0D1E90001CDE90A010FF0B6F86F
:100F100002460B98C00F01D02D2007E02068810702
:100F200001D52B2002E0202101EAC000032A09900C
:100F300001D0072A05DB03464146204600F05EFA51
:100F40000BE12078800601D5E06900E00620B8F1C9
:100F5000650F814606D0B8F1660F18D0B8F1670F5B
:100F600070D131E00020B9F1110F009001DB1123A5
:100F700001E009F101030AAA01A90CA8FFF7E2FEAA
:100F8000DDE90C70002609F10105834647E00120E8
:100F90004B4600904FF000470AAA01A90CA8FFF7A2
:100FA000D1FEDDE90DB00C995D46002610B909F1BE
:100FB00001000D18B9EB050003D4C0F1FF3609F1AB
:100FC0000105A5EB09002BE0B9F1010F01DA4FF0A3
:100FD00001090020B9F1110F0090484601DD1123ED
:100FE00000E003460AAA01A90CA8FFF7ABFEDDE961
:100FF0000C704D4600268346207800070AD4AB4586
:1010000000DA5D4601A8012D04DD411911F8011C2B
:10101000302907D04F4502DA17F1040F04DA012016
:1010200082460FE06D1EEEE7002F02DCED1B3E4412
:1010300003E0781CA84200DD7D1CB81B00F1010A0A
:101040004FF000472078000703D4AA4501DB4FF09A
:10105000FF3A0021B7F1004F0DF143088DF843101E
:1010600024D002202B23002F01DA7F422D230A21D6
:10107000021EA0F1010000DC5FB197FBF1FC97FBC1
:10108000F1F201FB1C7C17460CF1300C08F801CD85
:10109000EEE7A8F1010003702188090501D545217B
:1010A00000E06521A0F1010800F8011C09980FA9D2
:1010B000A1EB0807FF1D00B10120411901EBEA7007
:1010C000A1693844081A401EA0612078C00602D4E5
:1010D0002046FFF7D1F9099828B1D4E901219047BA
:1010E000206A401C20622078C00622D52046FFF7E7
:1010F000C3F91EE0002E04DBB34502DD01A8805DCC
:1011000000E03020D4E901219047206A401C206291
:10111000761CAAF101005FEA000A0AD100F002F988
:10112000C0680168405CD4E901219047206A401CF6
:101130002062281EA5F10105DCDC07E0D4E90121CD
:1011400018F8010B9047206A401C2062381EA7F156
:101150000107F3DC2046FFF7A5F9032011B041E6B3
:1011600001694A1C02610878704700B58FB0CDE96B
:1011700001310021059105497944CDE9031011465B
:101180006846FFF709FA0FB000BD0000E5FFFFFF5A
:101190000A6802F8010B0A607047D1E900239A42FD
:1011A00002D2531C0B60107070470000026811449B
:1011B0001378016018467047D16005497944516140
:1011C00004497944116200211161114600F064B9AB
:1011D000EDFFFFFF25020000426842B1016811F8EF
:1011E000013B23B1521EC0E900121846704701218D
:1011F000C160881E704742685AB1C368016843B92C
:1012000083688B4205D0491E521CC0E900120020A1
:1012100070474FF0FF3070472DE9F05F824615466A
:101220008B4600270AF10104B9460078302801D026
:101230009DB113E014F8010B0127782803D058283A
:1012400001D045B10AE00DB1102D07D1002714F8E7
:10125000010B102502E0082500E00A250026B04613
:101260000EE005FB080005FB06F101271FFA80F8D8
:1012700001EB1046B6F5803F00D3B94614F8010BD8
:10128000294600F0FBF80028EBDABBF1000F05D08F
:101290000FB1641E00E05446CBF80040B9F1000FD6
:1012A00006D0FFF799FC02210160C81EBDE8F09F3F
:1012B00048EA0640FAE710B5203AC0F00B80B1E8E2
:1012C0001850A0E81850B1E81850A0E81850203A7B
:1012D000BFF4F5AF5FEA027C24BFB1E81850A0E884
:1012E000185044BF18C918C0BDE810405FEA827C9E
:1012F00024BF51F8043B40F8043B08BF7047D207B5
:1013000028BF31F8023B48BF11F8012B28BF20F855
:10131000023B48BF00F8012B7047000000487047AF
:101320008800002000487047A8000020034640685D
:101330008C46002818BF88423CBF03464068F8D35B
:1013400018681844884207D00CF1030020F0070009
:10135000001D411A521A0146081D0A60FFF721B804
:1013600030B5B0F10A0271F100034FEA900E4EEA77
:10137000817EB0EB0E0061EB91014FEA101E4EEA48
:10138000017E10EB0E0041EB11114FEA102E4EEAD8
:10139000016E10EB0E0041EB11214FEA104E4EEAA8
:1013A000014E10EB0E0041EB1141401841F10001DC
:1013B0004FEAD00040EA41704FEAD1014FEA810480
:1013C00044EA907410EB800544EB01046D1944EB82
:1013D0000404521BA3414FF0000348BF0A3200D55A
:1013E00030BD401C41F1000130BD10B50446FFF78F
:1013F000E7FB0068005D00F0010010BD2DE9F04141
:101400001F46044603260168072A01F4006004DB36
:1014100008B116A505E016A503E008B115A500E082
:1014200015A521F010002060A069C01EA0610FB1B9
:10143000401EA0612046FFF71FF84FB1D4E90121FB
:1014400038469047206A401C2062C01C206206E09B
:10145000206AFAE7D4E9012115F8010B9047761EBE
:10146000F8D22046FFF71EF8BDE8F0814E414E004D
:101470006E616E00494E4600696E66003A2800D2E1
:10148000303820F02002412A01D3A2F137008842EF
:1014900001D34FF0FF3070472DE9F34F4FF0000AB2
:1014A0000C4656468DB001200C9001F10C000B90BB
:1014B00062690B9801219047051E2DD0252D2CD057
:1014C000216A8847C0B162690B9801219047216A5F
:1014D00088470028F7D16269411E0B98904700E0C9
:1014E000761CA1690D988847216A88470028F7D1A2
:1014F000E1690D988847DBE7A1690D988847A84204
:10150000074601D1761CD3E7E1690D9888477F1C17
:1015100002D1BAF1000F6FD06BE162690B9800271E
:101520003D46394690472A2804D162690B9801212B
:1015300090470125DFF8D08262690B98012190471E
:10154000A0F130010A290AD24745E5DC07EB870103
:1015500000EB4107303FDFD445F01005ECE7E9062A
:1015600001D46FF000476C280AD04C2814D06828AA
:1015700015D06A280DD074281CD07A281AD01DE006
:1015800062690B98012190476C2802D045F0040550
:1015900014E045F002050DE045F020050AE062691F
:1015A0000B9801219047682802D045F0080505E016
:1015B00045F4006562690B9801219047C4E9015721
:1015C00065283DD019DC58287AD00CDC452837D066
:1015D00004DC252826D041289ED131E046282FD092
:1015E000472899D12CE05B2877D0612828D0632840
:1015F0007CD0642823D15AE0F6E06F2848D008DC7C
:1016000066281DD067281BD0692821D06E2816D1E6
:1016100027E0702845D0732868D0752847D07828EF
:101620000DD14DE0A1690D988847252805463FF466
:1016300069AFE1690D9888476D1C3FF46AAFD8E047
:101640000D9923466A466FF00100AFF30080C5E0B4
:1016500045F0400023464FF000026060A80736D4F2
:101660003EE0E8077FF447AF2068011D2160006875
:10167000290501D506701BE7290701D5068017E764
:10168000A90703D5F117C0E9006111E706600FE76C
:1016900045F0400023464FF008026060A80716D4CA
:1016A0001EE040F60E0125EA0100606016E045F0FC
:1016B000400023464FF00A026060A80707D40FE0FD
:1016C00045F040006060A80708D5234610220D9918
:1016D0006FF00100AFF3008080E007E010222346A6
:1016E0000D996FF00100AFF3008077E04FF0000933
:1016F00063284F46C8464B46CB4602D05B2806D0EF
:1017000038E0E80601D40120A060012732E06269D8
:10171000D4F80CB00B98012190475E2807D14FF008
:10172000010949466269D4F80CB00B9890472169C9
:1017300039B900210A4603AB43F82120491C082986
:10174000FADBD8B3216949B308F1010862690B9843
:10175000012190475D28F4D1B9F1000F09D0002094
:1017600003A951F82020D24341F82020401C08282A
:10177000F7DB03AB2069002820794FEA40701ED0C8
:101780005B462246CDF80080CDE901970D990028EF
:101790006FF0010020DAAFF300801FE0C11703AA49
:1017A00000EBD1614B1121F01F0102EB8302411AC2
:1017B00013680120884003431360C7E719E00D99BF
:1017C000224600286FF00100009702DAAFF3008094
:1017D00004E0FEF79BFF01E0AFF3008000280ADA87
:1017E000401C06D10C9820B14FF0FF300FB0BDE87F
:1017F000F08F5046FAE7E90701D10AF1010A0644E1
:1018000000200C9054E60000CCCCCC0C2DE9F04725
:10181000814616468AB0354878440DC88DE80D00DB
:1018200032487844801C03AC0DC884E80D0041F6B2
:101830009B300844372190FBF1F290FBF1F5A5F1C4
:10184000800501FB12041B3C02D56442012000E02C
:101850000020DFF898A080460027FA44AAF1BE0ACB
:101860000EE0E0070AD03246684607EB4701012345
:101870000AEB81010EF0CBFA8DE8070064107F1CA3
:10188000002CEED1194F7F44AE3F19E0E80715D088
:1018900007EB04100DF1180A90E80E008AE80E001C
:1018A000C068F04201D1981908903246012306A978
:1018B00003A80EF0ACFA03AB83E807006D10641CBC
:1018C000002DE3D14FF0010332466946B8F1000F15
:1018D00003A802D00EF086FA01E00EF098FAC9E9EA
:1018E0000001C9F808200AB0BDE8F087200901000E
:1018F00010B500F039F8BDE8104000F02FB870477F
:101900007546FFF70BFDAE4605006946534620F0CD
:101910000700854618B020B5FEF788FCBDE82040DA
:101920004FF000064FF000074FF000084FF0000B9B
:10193000AC46ACE8C009ACE8C009ACE8C009ACE80A
:10194000C00921F007018D46704710B50446AFF37A
:1019500000802046BDE81040FEF754BC002801D0AE
:1019600000F02AB87047000010B5012805D000210A
:1019700003A000F027F8012010BD09A1F8E700003E
:1019800053494752544D454D3A204F7574206F6668
:101990002068656170206D656D6F727900000000D0
:1019A0003A2048656170206D656D6F727920636FB4
:1019B000727275707465640001491820ABBEFEE751
:1019C0002600020070B505460C460A2000E06D1C9A
:1019D00000F011F835B128780028F8D102E0641C35
:1019E00000F009F814B120780028F8D1BDE8704063
:1019F0000A20AFF3008008B569468DF80000032087
:101A0000ABBE08BD80B582B0FEF722FC0BF020FA19
:101A10000CF0C4F80CF032FB0CF082FA0A200090B3
:101A200042F6283049F20D114FF0140CC0F60100B7
:101A3000C0F6000100224FF48063CDF804C00CF022
:101A400027FB0CF0B9FC0CF021FB0CF0D7FB0CF0E1
:101A5000FDFA002002B080BDFEE7000040F2D83061
:101A6000C2F2000000F046B940F21C40C2F2000091
:101A700000F040B940F26040C2F2000000F03AB914
:101A800040F2A440C2F2000000F034B970470000F8
:101A9000EFF3108072B600BFFEE7000070B542F2AF
:101AA0000C060446C4F2020600F004FD3168C907C2
:101AB00018D13068800644BF202030603068C006EE
:101AC00007D43069C00704D1306840075CBF0020EC
:101AD00070BD3068C00623D40020316849072BD47C
:101AE00034E000BF002C47D00546601C0ED13068A2
:101AF000C007DED03068C0071CBF30685FEAC07026
:101B0000D7D03068C007F2D1D3E700BF00F0D2FCD5
:101B1000401BA04230D83068C007F7D1C9E700BFEA
:101B200040F2C860C2F20000C16941F00201C16127
:101B300010203168490709D540F2C861C2F200019E
:101B4000CA6940F0040042F00102CA613169C90764
:101B500002D13060012070BD40F2C861C2F20001C4
:101B6000CA6942F00402CA61316921F001013161A0
:101B70003060012070BD00BF032070BD014690F8A9
:101B80002100022816D10868D1E90FC3026822F0AB
:101B90000E020260026822F001020260012000FAD7
:101BA00003F2CCF8042081F821000020002281F803
:101BB00020207047042088630120002281F8202023
:101BC0007047000080B590F82110022928D10268E2
:101BD00040F2040C1368C4F2020C23F00E031360ED
:101BE00013680CF17C018A4223F0010111601BD9BA
:101BF00040F20841C4F202018A4249D040F21C413D
:101C0000C4F202018A4247D040F23041C4F20201DC
:101C10008A4245D14FF48073CCF800345DE000BFB8
:101C200004218163012080BD4321C4F202018A4264
:101C30000EDD6B21C4F202018A421BDC4421C4F296
:101C400002018A423CD05821C4F202018A4233E0A8
:101C50000821C4F202018A4236D01C21C4F20201DA
:101C60008A4237D03021C4F202018A4224D14FF493
:101C7000807230E06C21C4F202018A4226D08021B9
:101C8000C4F202018A4217D14FF0807223E000BFF4
:101C90000123CCF8003420E01023CCF800341CE001
:101CA0000CF588614FF480338A4208BF4FF48053AB
:101CB000CCF8003411E000BF4FF480320BE000BFDD
:101CC0004FF4805207E000BF012204E04FF480127D
:101CD00001E000BF1022CCF80020012180F8211083
:101CE000426B002180F820100AB19047002108467D
:101CF00080BD000010B5D0E90FE3D0F800C0DEF8D9
:101D00000020DCF80010DA4054072DD511F004044F
:101D10002AD0DCF80010890605D4DCF8001021F088
:101D20000401CCF800100422C4F2020202F17C018A
:101D30008C454DD940F20841C4F202018C4500F0B7
:101D4000B18040F21C41C4F202018C4500F0AE802B
:101D500040F23041C4F202018C4540F0AB804FF4B8
:101D60008061C2F80014F9E0940747D511F002042D
:101D700044D0DCF80010890608D4DCF8001021F00B
:101D80000A01CCF80010012180F821100422C4F2CD
:101D9000020202F17C018C454ED940F20841C4F2A6
:101DA00002018C4500F0B68040F21C41C4F20201F1
:101DB0008C4500F0B38040F23041C4F202018C4502
:101DC00040F0B0804FF40071C2F80014D8E000BFBA
:101DD0004321C4F202018C4544DD6B21C4F20201AF
:101DE0008C4551DC4421C4F202018C4500F0A680F0
:101DF0005821C4F202018C4568E000BF120740F18F
:101E0000C58011F0080108BF10BDDCF8001021F0FA
:101E10000E01CCF80010012101FA03F2CEF80420E3
:101E2000816380F82110016B0022002980F82020B6
:101E300040F09680AAE000BF4321C4F202018C4525
:101E400048DD6B21C4F202018C4555DC4421C4F20B
:101E500002018C4500F088805821C4F202018C45B3
:101E600076E000BF0821C4F202018C456AD01C2133
:101E7000C4F202018C456FD03021C4F202018C45BE
:101E800024D14FF4806168E06C21C4F202018C45DA
:101E90005AD08021C4F202018C4517D14FF08061E5
:101EA0005BE000BF0421C2F8001457E04021C2F8F3
:101EB000001453E002F588634FF480219C4508BF6D
:101EC0004FF48041C2F8001448E000BF4FF4802175
:101ED00043E000BF0821C4F202018C4548D01C2118
:101EE000C4F202018C4549D03021C4F202018C4574
:101EF0002ED14FF4007142E06C21C4F202018C45F6
:101F000038D08021C4F202018C4521D14FF00071FC
:101F100035E000BF0221C2F8001431E02021C2F8F0
:101F200000142DE002F588634FF400319C4508BF92
:101F30004FF40051C2F8001422E000BF4FF480417A
:101F40000BE000BF042108E04FF4800105E000BF72
:101F50004FF4003113E000BF40211160C16AA9B104
:101F6000BDE81040084700BF4FF4005107E000BF34
:101F7000022104E04FF4001101E000BF20211160B4
:101F8000816A0022002980F82020E9D110BD0000DC
:101F9000014600284FF0010008BF70472DE9F047C7
:101FA00040F2000CC4F2020C0A684FF6F8330CF54C
:101FB000816ECBF6FD73724538BF03F5806303EB8A
:101FC000020E4CF6CD43CCF6CC43AEFB033E6FF095
:101FD00003060CF5806506EA9E06D1E901A9D1F851
:101FE0000C803CBF0025C4F20205C1E90F56022651
:101FF00081F82160166843F6F075AE4346EA0A069A
:10200000D1E9045746EA090646EA0806D1E906433B
:102010002E43374327433B43136000228A6381F8F2
:10202000210081F820200020BDE8F0477047000023
:10203000F0B590F820C0BCF1010F32D04FF0010E86
:1020400080F820E090F821C0BCF1010F26D14FF0BC
:10205000020C80F821C04FF0000CC0F838C0D0E965
:1020600000C4C56AC66BDCF80070102C27F00107AD
:10207000CCF80070006C0EFA00F070600846CCF8E6
:10208000043004BF10460A46CCF80800CCF80C20F7
:10209000DCF8000045B140F00E000DE0002180F8B2
:1020A00020100220F0BD00BF20F00400CCF800009A
:1020B000DCF8000040F00A00CCF80000DCF800007A
:1020C00040F00100CCF800000020F0BD2DE9F04305
:1020D00081B040F2C866C2F20006327E012A03D106
:1020E000022001B0BDE8F083054601202C6830765F
:1020F0004CF250308846FFF7D1FC022C1CD100284E
:102100004ED1002042F21004F061C4F202042068B3
:1021100040F004002060206840F0400020604CF255
:102120005030FFF7BBFC216821F004012160002141
:10213000317601B0BDE8F08390BB4FF0FF30C8F8B6
:102140000000D5E9027007EBC020874228D242F296
:102150001004C4F202044FF0000900BFC6F81C903E
:10216000206840F0020020606760206840F0400076
:1021700020604CF25030FFF791FC216821F0020101
:10218000216098B9D5E9020107F5006700EBC1208D
:102190008742E3D300200021317601B0BDE8F0830F
:1021A00001200021317601B0BDE8F083C8F800704D
:1021B0000021317601B0BDE8F083000042F2100149
:1021C000C4F20201086840F0800200200A607047F3
:1021D0002DE9F04F81B040F2C869C2F20009924681
:1021E00099F81820012A03D1022001B0BDE8F08F30
:1021F0008046012089F818004CF250309B460E466C
:10220000FFF74CFCA0BB404642F21007B8F1020FAA
:1022100018BF0420C4F20207B8F1010F08BF4046FE
:1022200045424FF000080024C4F12001C9F81C8089
:102230002AFA04F00BFA01F13A680843B4F12001DC
:1022400058BF2BFA01F042F00101396026F8020B69
:102250004CF25030FFF722FC3968013521F00102C1
:1022600048F100013A6018B9002904F11004DBD0EC
:10227000002189F8181001B0BDE8F08F42F2040087
:10228000C4F20200C16809065CBF0020704740F23A
:102290002311C4F26751016048F6AB11CCF6EF513F
:1022A0000160C068C0B2C009704700002DE9F04F5E
:1022B00082B041F60043C4F201030E680622984240
:1022C00008BF0522002E009200F0F080A0F18043AC
:1022D000A3F5843340F200484FF6FF754FEAB32769
:1022E000C4F20108009A4FF0000E0123C1F210055C
:1022F0004FF00F0C4FF0000A4FF0000B052F38BFC6
:102300003A46009209E000BF0E680AF1010A36FA67
:102310000AF20EF1040E00F0C98003FA0AF916EA77
:10232000090FF1D04E68AE4212DC122E56D8DFE80B
:1023300006F0350B45495555555555555555555587
:102340005555554D510000BFD1F80CB046E000BFC7
:102350004FF6FF72C1F2210296420FDC0022C1F259
:10236000110296421AD00022C1F21202964215D0F2
:102370000022C1F22102964210D02FE00022C1F2C9
:10238000220296420AD00022C1F23102964205D0C2
:102390000022C1F23202964220D100BF8E684EB1B7
:1023A000012E14BFC0F81490C0F810904FF0080B25
:1023B00014E000BF4FF0040B10E000BFCF6807F13E
:1023C000080B0BE04FF0000B08E000BFCF6807F1EF
:1023D000040B03E0CF6807F10C0B00BF74460746FF
:1023E000BAF1080F24BF203C04373E680CFA04F20F
:1023F00026EA02020BFA04F632433A60CA79D206A0
:102400007FF582AF41F21807C4F202073A684FF62F
:10241000084342F001023A603A68CFF6FF7302F0D7
:1024200001020192019A2AF003024244D7580EF0A9
:102430000C060CFA06F4A743009C04FA06F6374390
:10244000D750D1F804C040F20C445FEACC22D8F84F
:10245000082054BF22EA090642EA0906C4F2010430
:102460005FEA8C22C8F80860226854BF22EA090695
:1024700042EA09065FEA8C322660D8F8042054BF8D
:1024800022EA090642EA09065FEACC32C8F804608B
:102490004FF00F0C4FF00103D8F8002054BF22EA90
:1024A000090642EA0906C8F800602DE702B0BDE857
:1024B000F08F000044F2B460C2F200000068704780
:1024C00040F2240044F2B461C2F20000C2F2000102
:1024D00000780A68104408607047000080B542F236
:1024E0000000C4F20200016841F010010160032005
:1024F00000F0C4F80F2000F005F800F061F80020AB
:1025000080BD0000B0B586B041F21C01C4F20201EA
:102510000A68044642F002020A60096801A801F054
:10252000020101910199694600F098F9049D002D7E
:1025300018BF012500F0BAF94DF68361A840C4F236
:102540001B31A0FB01014FF0FF3000EB914140F245
:10255000305040F20042C2F20000C4F2000240F2E9
:10256000E7330025C0E90021C0E902530561856118
:1025700000F028FC054618B1284606B0B0BD00BFE3
:1025800040F23050C2F2000000F04CFC054600283A
:10259000F2D11D2000F036F80F2C0DD81D20214659
:1025A0000022002500F03EF840F22800C2F20000B0
:1025B0000460284606B0B0BD0125284606B0B0BD6F
:1025C00082B041F21800C4F202000168022241F018
:1025D00001010160016801F0010101910199416867
:1025E00041F080514160406800F0805000900098B8
:1025F0000420C4F20100016862F31A61016002B0B4
:1026000070470000002848BF704700F01F010122FA
:1026100002FA01F14EF200124009CEF2000242F835
:102620002010704710B54EF60C5CCEF2000CDCF8B2
:102630000030C3F3022E8EF00704042C28BF0424BC
:10264000BEF103034FF0FF3E0EFA04F438BF00233F
:10265000A14399400EFA03F39A43114300F00F028D
:10266000043A624409010C3200F16043B0F1FF3FCB
:10267000C8BF03F56442117010BD00004EF60C5146
:10268000CEF200010A684FF6FF031A4060F30A22F7
:1026900042F0806040F0FD70086070472DE9F04323
:1026A00081B0002800F0858042F20008C4F20208E0
:1026B0000446D8F800000D4600F0070088420CD20E
:1026C000D8F8000020F007002843C8F80000D8F828
:1026D000000000F00700A8426BD1206841F2040915
:1026E0008107C4F2020917D5410705D5D9F80010B2
:1026F00041F4E061C9F80010010705D5D9F80010D0
:1027000041F46051C9F80010D9F80010A26821F016
:10271000F0011143C9F80010C00741D1D8F80000FA
:1027200000F00700A8420CD9D8F8000020F00700FC
:102730002843C8F80000D8F8000000F00700A842BD
:1027400037D12068410707D5D9F80010E26821F495
:10275000E0611143C9F80010000708D5D9F800005E
:10276000216920F4605040EAC100C9F80000D9F89E
:10277000002002F00C00082841F20020C0F27A008C
:1027800050D142F2AC63C2F38341C0F60103595CFD
:10279000D2033BD440F60010C0F23D00484341E074
:1027A000606802280AD001282AD159F8041C89033C
:1027B00008D4012001B0BDE8F08300BF59F8041C23
:1027C0008901F6D5D9F8001021F003010843C9F8B2
:1027D0000000FFF76FFE064641F28837D9F8000087
:1027E000616800F00C00B0EB810F97D0FFF762FE3C
:1027F000801BB842F2D9032001B0BDE8F08300BFCE
:1028000059F8041C8907D4D5DCE700BFD9F80020AB
:1028100042F2A813C2F34042C0F601039A5C484357
:10282000B0FBF2F0D9F8001042F29012C1F303119C
:10283000C0F60102515C40F2340220FA01F140F28C
:102840002800C2F200000068C2F200021160FFF727
:1028500059FE002001B0BDE8F08300000F220260A5
:1028600041F20402C4F20202136803F0030343605E
:10287000136803F0F0038360136803F4E063C3603C
:1028800012684FF4E06303EAD202026142F20000F0
:10289000C4F20200006800F0070008607047000002
:1028A00040F23400C2F200000068704740F2340089
:1028B00041F20401C2F20000C4F20201006809689A
:1028C00042F2A012C1F30221C0F60102515CC840DD
:1028D0007047000040F2340041F20401C2F20000EF
:1028E000C4F202010068096842F2A012C1F3C221D9
:1028F000C0F60102515CC840704700002DE9F0416C
:1029000082B0002868D00446007841F20006C00773
:10291000C4F2020625D0706800F00C0004281BD019
:10292000706800F00C00082802D17068C00313D44E
:102930006068002800F06881B0F5A02F00F07C816D
:10294000B0F5803F00F07C81306820F4803030604A
:10295000306820F4802076E13068800301D560681B
:10296000D0B32078800718D5706810F00C0F07D00E
:10297000706800F00C0008286ED17068C0036BD43A
:102980003068800702D52069012825D13068616947
:1029900020F0F80040EAC1003060207800071FD422
:1029A0002078400732D4E56995B1706800F00C00DA
:1029B000082840F08F80012D0ED07068216A00F445
:1029C00080328A4208D1616A00F47010884203D1D3
:1029D000002002B0BDE8F081012002B0BDE8F08126
:1029E000A069002862D00020C4F242200121C0F872
:1029F0008014FFF75FFD0546706A800700F18C8048
:102A0000FFF758FD401B0228F6D92AE1F06910F0C3
:102A1000805808D1F06940F08050F061F06900F012
:102A200080500090009847F20007C4F20007386811
:102A3000C00529D4386840F480703860FFF73AFD4B
:102A4000054600BF3868C0051ED4FFF733FD401BA4
:102A50006428F7D905E100BF2069002840F2000092
:102A6000C4F2422000F0828001210160FFF722FDC4
:102A7000054600BF306880073FF588AFFFF71AFDB5
:102A8000401B0228F6D9ECE0E068002800F08080C6
:102A9000052800F09780012800F09880306A20F027
:102AA00001003062306A20F0040092E00020C4F29D
:102AB00042200021C0F88014FFF7FCFC054600BF4F
:102AC000706A80077FF56CAFFFF7F4FC401B0228AB
:102AD000F6D9C6E00027C4F2422700203866FFF787
:102AE000E9FC022D05460BD13068800140F1BE8023
:102AF000FFF7E0FC401B02284FF00300F4D968E721
:102B0000306880017FF564AFFFF7D4FC401B0228DA
:102B10004FF00300F4D95CE740F23400C2F2000049
:102B2000006844F6D351C1F26201A0FB0101480ADA
:102B3000019000BF00BF0198411E002801913FF4A1
:102B40002FAF00BF0198411E002801913FF428AF2C
:102B500000BF0198411E002801913FF421AF00BF42
:102B60000198411E00280191E4D119E7002101607C
:102B7000FFF7A0FC054600BF306880077FF50DAF6A
:102B8000FFF798FC401B02284FF00300F4D920E720
:102B9000306A20F001003062306A20F004003062B8
:102BA000FFF788FC054641F2883700BF306A80078E
:102BB00020D5FFF77FFC401BB8424FF00300F5D94A
:102BC00007E700BF306A40F004003062306A40F02E
:102BD00001003062FFF76EFC054641F2883700BF06
:102BE000306A800706D4FFF765FC401BB842F7D96E
:102BF00037E000BFB8F1000F7FF4D5AEF06920F0E8
:102C00008050F061CFE600BF306820F48030306043
:102C1000306820F480203060FFF74CFC054600BF90
:102C2000306880037FF59DAEFFF744FC401B6428AD
:102C30004FF00300F4D9CCE6306840F480203060D7
:102C4000306840F480303060FFF734FC054600BF48
:102C5000306880033FF585AEFFF72CFC401B6428ED
:102C6000F6D9032002B0BDE8F08100BF206AB0F5BC
:102C7000803F05D17168A26821F400311143716071
:102C80007168626A21F47411104308437060012076
:102C90003866FFF70FFC0446306880013FF598AEB8
:102CA000FFF708FC001B02284FF00300F4D990E660
:102CB000411E0020B0EB116F1CBF012070474EF287
:102CC0001002CEF2000251604EF62351CEF2000106
:102CD000F0230B700721906011607047704700006F
:102CE00070470000B0B590F83C20012A04BF0220D4
:102CF000B0BD01F108053CCDD1E900CE23F47C53F1
:102D000022F470521A432EF4F0431A432CF4E04399
:102D10001A4324F4C0431A432A43C96922F4804267
:102D2000036811435964002180F83C100846B0BD87
:102D300010B590F83C20012A4FF002023FD080F8F5
:102D40003D200268D2F804E0D2F808C00C682EF0EA
:102D50007003234340F6FF34C4F20004A2425360E0
:102D600010DCB2F1804F1FD040F20043C4F20003E8
:102D70009A4219D040F60003C4F200039A4213D0DD
:102D800017E000BF40F60043C4F200039A420BD0A4
:102D900043F20043C4F201039A4205D042F60043D5
:102DA000C4F201039A4204D149682CF0800319430C
:102DB00091600121002280F83D1080F83C201046EF
:102DC00010BD0000002804BF0120704710B5044664
:102DD00090F83D0028B9002084F83C00204600F01F
:102DE0001FF8022084F83D002068211D01F044FDF9
:102DF000012084F8460084F83E0084F83F0084F8FF
:102E0000400084F8410084F8420084F8430084F8CC
:102E1000440084F8450084F83D00002010BD000007
:102E20007047000090F83D1001291CBF0120704739
:102E3000022180F83D10006840F6FF32C168C4F2FC
:102E40000002904241F00101C1600FDCB0F1804FFF
:102E50001ED040F20041C4F20001884218D040F672
:102E60000001C4F20001884212D018E040F600418F
:102E7000C4F2000188420BD043F20041C4F20101C8
:102E8000884205D042F60041C4F20101884206D1D1
:102E9000816801F00701062904BF0020704701681E
:102EA00041F0010101600020704700007047000000
:102EB0007047000070B504460068C5680669B10730
:102EC00016D515F0020113D06FF002010161012146
:102ED00021778069800703D02046FFF7E9FF05E0EE
:102EE000204600F08FF8204600F092FA002020776C
:102EF000700719D515F0040016D020686FF0040192
:102F0000016102212177806910F4407F04D02046BE
:102F1000FFF7CEFF06E000BF204600F073F8204622
:102F200000F076FA00202077300717D515F008005A
:102F300014D020686FF00801016104212177C06975
:102F4000800703D02046FFF7B3FF05E0204600F0DE
:102F500059F8204600F05CFA00202077F00619D5D9
:102F600015F0100016D020686FF0100101610821E3
:102F70002177C06910F4407F04D02046FFF798FF06
:102F800006E000BF204600F03DF8204600F040FA81
:102F900000202077F00718BF15F0010002D130069D
:102FA00009D412E020686FF001010161204600F0B1
:102FB000EBFB300609D515F0800006D020686FF0D5
:102FC000800101612046FFF789FE700609D515F0E2
:102FD000400006D020686FF040010161204600F0FB
:102FE000DDFBB00658BF70BD15F0200008D0216889
:102FF0006FF0200220460A61BDE87040FFF770BE06
:1030000070BD0000704700002DE9F04190F83C30A1
:10301000012B04BF0220BDE8F0814FEAB202032A6F
:1030200000F21A81DFE802F002468ED8036843F20C
:1030300000461D6A1A6A25F0020522F001021A6292
:103040001A465C6852F818EF8F68D1F800C0C4F2D5
:103050000106B34245EA070505D042F60047C4F22F
:103060000107BB4205D1CF6825F00C0527F0040706
:103070003D43B34205D042F60046C4F20106B342D6
:1030800005D1D1E9056724F4407434433C432EF064
:10309000730747EA0C075C609F614F6809695F63CB
:1030A0001D629F6947F008079F619F6927F0040729
:1030B0009F61C7E0036843F200481D6A1A6A25F061
:1030C000200522F010021A621A465C6852F818EFC6
:1030D0008F68D1F800C0C4F20108434545EA0715DE
:1030E00005D042F60047C4F20107BB4207D1CF68C2
:1030F0006FF0400625F0C00506EA07163543434544
:1031000005D042F60046C4F20106B34207D1D1E928
:10311000056724F4406444EA860444EA87042EF4F4
:10312000E64747EA0C275C609F614F6809699F6327
:103130001D629F6947F400679F619F6927F480675C
:103140009F617EE0036843F200481D6A1A6A25F415
:10315000007522F480721A621A465C6852F81CCF1D
:103160008F68D1F800E0C4F20108434545EA07251D
:1031700005D042F60047C4F20107BB4208D1CF6830
:1031800040F2FF463F0225F4406527EA0606354334
:10319000434505D042F60046C4F20106B34207D1CA
:1031A000D1E9056724F4405444EA061444EA0714BC
:1031B0002CF0730747EA0E075C60DF614F6809690E
:1031C000DF631D62DF6947F00807DF61DF6927F011
:1031D0000407DF6136E000BF036843F20047D3F81D
:1031E00020C01A6AC4F2010722F480521A621A46F9
:1031F0005C6852F81C5FD1F800E08E68BB4205D0D5
:1032000042F60047C4F20107BB4204D14F6924F4DF
:10321000804444EA87142CF4005747EA063725F423
:10322000E64646EA0E265C60DE614E6809691E6469
:103230001F62DF6947F40067DF61DF6927F4806799
:10324000DF6109021368194311600021002280F830
:103250003C200846BDE8F0810121002280F83C2096
:103260000846BDE8F0810000002804BF0120704737
:1032700010B5044690F83D0028B9002084F83C00C1
:10328000204600F01FF8022084F83D002068211D30
:1032900001F0F2FA012084F8460084F83E0084F838
:1032A0003F0084F8400084F8410084F8420084F82C
:1032B000430084F8440084F8450084F83D00002071
:1032C00010BD00002DE9F04F83B00446006840F6C1
:1032D0000041C4F20001884266D042F60041C4F2C7
:1032E0000101884240F0908041F21800C4F20200CF
:1032F000016840F2D83541F40061016000681C218A
:1033000000F4006002900298C2F20005C4F20201CB
:1033100000274FF02008284610264FF080094FF470
:10332000807A4FF4806B85E8C20EC5E90687FEF708
:103330002FFE002818BFFEF7ABFB1C2065626C62F5
:10334000C4F2020040F260455030C2F2000585E848
:10335000C10E2846C5E90687FEF71AFE002818BFE9
:10336000FEF796FB1C20E5626C62C4F2020040F29C
:103370001C451430C2F200051021002280234FF4B6
:1033800080774FF480664FF0200C85E88F00284648
:10339000C5E9056CEA61FEF7FBFD002818BFFEF7E2
:1033A00077FBA5622DE000BF41F21C00C4F20200D1
:1033B000016840F2A44541F0080101600068C2F2D2
:1033C000000500F008000190019841F21800C4F2D5
:1033D0000200A0F53C601021002280234FF480778A
:1033E0004FF480664FF0200C85E88F002846C5E931
:1033F000056CEA61FEF7CCFD002818BFFEF748FB1C
:10340000656205F12400046003B0BDE8F08F0000A0
:1034100040F26811C2F2000149684A68824218BF4E
:103420007047896800F030B970470000B0B50C46AD
:10343000054649B1082C15D0042C14BF05F14100F4
:1034400005F13F0010E000BF95F83E00022804BFE0
:103450000220B0BD05F13E000078012840F0C48094
:103460001AE000BF05F140000078022804BF0220E6
:10347000B0BD082C0AD0042C14BF05F1410005F1A1
:103480003F000078012840F0AF8005E005F14000E2
:103490000078012840F0A880002A4FF0010018BFF2
:1034A000002B01D1B0BD00BF02206CB1082C13D09D
:1034B000042C14BF85F8410085F83F004FEAB400A2
:1034C000032810D990E000BF85F83E004FEAB40011
:1034D000032808D988E000BF85F840004FEAB4000F
:1034E000032800F28180DFE800F00323436300BF7C
:1034F000686A44F66111C0F600018162686A44F6A8
:10350000CD11C0F60001C162686A44F60521D5F804
:1035100000C0C0F600010163686A0CF1340C11466A
:103520006246FEF785FD00285ED14FF400715FE032
:10353000A86A44F66111C0F600018162A86A44F6E7
:10354000CD11C0F60001C162A86A44F60521D5F884
:1035500000C0C0F600010163A86A0CF1380C1146E6
:103560006246FEF765FD00283ED14FF480613FE0E2
:10357000E86A44F66111C0F600018162E86A44F627
:10358000CD11C0F60001C162E86A44F60521D5F804
:1035900000C0C0F600010163E86A0CF13C0C114662
:1035A0006246FEF745FDF8B94FF4006120E000BF28
:1035B000286B44F66111C0F600018162286B44F665
:1035C000CD11C0F60001C162286B44F60521D5F883
:1035D00000C0C0F600010163286B0CF1400C1146DD
:1035E0006246FEF725FD08B10120B0BD4FF48051C1
:1035F0002868C2681143C16004F01F010122036AF8
:1036000002FA01F123EA01020262026A114340F662
:10361000FF32C4F20002904201620DDCB0F1804F33
:1036200024D040F20041C4F2000188421ED040F68E
:103630000001C4F2000117E040F60041C4F20001AD
:10364000884213D043F20042C4F2010242F6004124
:103650009042C4F2010101D088420ED1436C9042E5
:1036600043F40043436401D0884206D1816801F0ED
:103670000701062904BF0020B0BD016841F0010127
:1036800001600020B0BD0000B0B50D464FEAB101A9
:1036900003290DD80446DFE801F0030D151D00BF16
:1036A000204650F8241BCA6822F4007218E000BFBC
:1036B0000120B0BD204650F8281BCA6822F4806261
:1036C0000EE000BF204650F82C1BCA6822F40062AE
:1036D00006E000BF204650F8301BCA6822F4805232
:1036E000CA600068FEF76EFA206805F01F0101222B
:1036F000036A02FA01F123EA0101016243F2004286
:10370000016AC4F201029042016205D042F6004112
:10371000C4F20101884209D1016A41F21112114239
:1037200004D1016A40F2444211420FD0016A41F2D1
:103730001112114213D1016A40F2444211420ED1DA
:10374000016821F00101016009E000BF416C21F432
:1037500000414164016A41F211121142EBD0012093
:10376000082D09D0042D0BD0002D14BF84F8410082
:1037700084F83E000020B0BD84F840000020B0BDB9
:1037800084F83F000020B0BD006840F20041C4F260
:103790000001884208BFFEF793BE704770470000E3
:1037A0007047000070470000B0B582B00446006862
:1037B0000168C368426901F02F05202D03F0200540
:1037C00006D12DB1204602B0BDE8B04001F050B99D
:1037D0005FEA017C1EBF02F0010E03F4907212EB4F
:1037E0000E0255D1226B012A05D111F0100218BF2B
:1037F00013F0100236D10A0622D513F080021FD032
:1038000094F84110212941D1A168B1F5805F03D11D
:103810002169002900F07282216A4A1C226209781B
:103820004160E18C01390A04E1842FD1C16821F0A3
:103830008001C160C16841F04001C16002B0B0BD0B
:10384000490623D513F0400120D0C16821F0400182
:10385000C1602021204684F8411002B0BDE8B0408C
:1038600000F062BC00210191016801914168019161
:1038700001994169490600F18F80A18DE28DE38DA8
:10388000002B1CBF891A5FEA01420CD102B0B0BD07
:10389000CA0718BF13F4807240F038814A0700F15C
:1038A0003B8140E1206850E8030F226820F49070CB
:1038B00042E80303DBB1206850E8030F226820F4DC
:1038C000907042E8030393B1206850E8030F226828
:1038D00020F4907042E803034BB1206850E8030FD6
:1038E000226820F4907042E80303002BDAD12068AC
:1038F00050E8050F226820F0010042E80503DBB123
:10390000206850E8050F226820F0010042E8050316
:1039100093B1206850E8050F226820F0010042E8CA
:1039200005034BB1206850E8050F226820F0010024
:1039300042E80503002BDAD1202084F84200002061
:103940002063206850E8030F226820F0100042E84E
:103950000303DBB1206850E8030F226820F0100059
:1039600042E8030393B1206850E8030F226820F077
:10397000100042E803034BB1206850E8030F2268AF
:1039800020F0100042E80303002BDAD1022289B2B2
:1039900020466263B4E000BFE16B0A68526893B2EC
:1039A000002B3FF473AFA58DAB42BFF46FAFE28540
:1039B0008969202900F09D8050E8030F216820F4D8
:1039C000807041E80302EAB1206850E8030F2168E3
:1039D00020F4807041E80302A2B1206850E8030F90
:1039E000216820F4807041E803025AB1206850E851
:1039F000030F216820F4807041E8030212B12068AF
:103A0000DAE700BF206850E8050F216820F00100C8
:103A100041E80502DAB1206850E8050F216820F07E
:103A2000010041E8050292B1206850E8050F2168C5
:103A300020F0010041E805024AB1206850E8050F76
:103A4000216820F0010041E80502002ADAD120684F
:103A500050E8050F216820F0400041E80502DAB186
:103A6000206850E8050F216820F0400041E8050279
:103A700092B1206850E8050F216820F0400041E82D
:103A800005024AB1206850E8050F216820F0400087
:103A900041E80502002ADAD1202084F84200002003
:103AA0002063206850E8030F216820F0100041E8EF
:103AB0000302DAB1206850E8030F216820F01000FB
:103AC00041E8030292B1206850E8030F216820F01A
:103AD000100041E803024AB1206850E8030F216852
:103AE00020F0100041E80302002ADAD1E06BFEF773
:103AF00045F802206063A08DE18D401A81B2204616
:103B000002B0BDE8B040FFF74BBE00BF626C42F0B0
:103B1000010262644A0706D5BEF1000F03D0626C51
:103B200042F0020262648A0706D5BEF1000F03D09C
:103B3000626C42F004026264BCF1000F06D555EAE3
:103B40000E0203D0626C42F008026264626C002ACA
:103B50003FF49CAE11F0200118BF002D03D0204689
:103B600000F086FF20684169626C01F0400102F0BC
:103B70000802891800F0A28050E8030F216820F4A1
:103B8000907041E80302C2B3206850E8030F216837
:103B900020F4907041E803027AB3206850E8030FE4
:103BA000216820F4907041E8030232B3206850E8A5
:103BB000030F216820F4907041E80302EAB1206805
:103BC000DAE700BF206850E8050F216820F0010007
:103BD00041E80502DAB1206850E8050F216820F0BD
:103BE000010041E8050292B1206850E8050F216804
:103BF00020F0010041E805024AB1206850E8050FB5
:103C0000216820F0010041E80502002ADAD1206B8A
:103C1000012824D1206850E8030F216820F010000B
:103C200041E80302DAB1206850E8030F216820F070
:103C3000100041E8030292B1206850E8030F2168A8
:103C400020F0100041E803024AB1206850E8030F59
:103C5000216820F0100041E80302002ADAD1202078
:103C600084F84200002020632068416949063FD55E
:103C700050E8050F216820F0400041E805022AB312
:103C8000206850E8050F216820F0400041E8050257
:103C9000E2B1206850E8050F216820F0400041E8BB
:103CA00005029AB1206850E8050F216820F0400015
:103CB00041E8050252B12068DAE700BF2046FFF76D
:103CC00071FD0020606402B0B0BD00BFE06B78B150
:103CD00044F66521C0F600014163FDF773FF00283B
:103CE0003FF4D4ADE06B416B02B0BDE8B040084793
:103CF000204602B0BDE8B040FFF754BD216A31F85C
:103D0000022B6FF35F22426021628AE5002804BF24
:103D10000120704710B5044690F8410028B90020F2
:103D200084F84000204600F061F8242084F8410027
:103D30002068D4E90212C36823F40053C360036906
:103D400023F440531A430261D4E904231143C268A7
:103D5000194341F20C639A431143C1604169A2695E
:103D600021F44071114343F60002C4F20102904273
:103D7000416103D0FEF79AFD02E000BFFEF7AAFD05
:103D80006268192148439100B0FBF1F048F21F51DD
:103D9000C5F2EB11A0FB01235A096FF0630302FB8C
:103DA0000300322303EB0010A0FB0101F02303EA20
:103DB0005113206803EB0212C1F3431111448160D7
:103DC000016921F490410161416921F02A014161B9
:103DD000C16841F40051C16000202021606484F872
:103DE000411084F84210606310BD000070B586B0C9
:103DF000006844F60001C4F20001002688420596DE
:103E0000CDE90366029635D044F20041C4F20001C8
:103E1000884268D141F21800C4F20200416840F6BD
:103E2000000441F4003141604168C4F2010401F42E
:103E3000003101910199016802AD41F00401016076
:103E40000068294600F004000190019804200290C7
:103E500002200390032005902046FEF727FA082051
:103E600002900020CDE9030020462946FEF71EFA05
:103E700006B070BD41F21800C4F20200416802AD04
:103E800041F480214160416801F480210191019950
:103E9000016841F0080101600068294600F008004F
:103EA000019001984FF4806002900220039003205B
:103EB000059040F60000C4F2010000F58064204641
:103EC000FEF7F4F94FF40060CDE9020620462946DA
:103ED0000496FEF7EBF9272000210022FEF7A2FB53
:103EE0002720FEF78FFB06B070BD000090F842302F
:103EF000202B1CBF0220704700294FF0010318BF80
:103F0000002A01D1184670470023036381622221F1
:103F10008285C285436480F842100169006819B146
:103F2000C16841F48071C1604169002341F0010121
:103F30004161C16841F02001C1601846704700002E
:103F400040F20861C2F20001884218BF704710B504
:103F500040F2D014C2F20004A0780A280CD02B281A
:103F600014D144F2B850C2F20000FA21FCF792FDDD
:103F70000020206112E000BF44F2B8510CA0C2F250
:103F8000000109F019FA0120A06007E021694A1C2C
:103F9000226144F2B852C2F20002505440F208606A
:103FA000A11CC2F200000122BDE81040FFF79EBF35
:103FB000E694B6E588B0E68C87E4BBA425730A00D6
:103FC0002DE9F041044690F8410020281CBF022052
:103FD000BDE8F0810F4600294FF0010000F082801B
:103FE0001646002A08BFBDE8F0814FF000082120E6
:103FF0001D46C4F8448084F84100FEF75BFAA684AD
:10400000E684A1680646B1F5805F05D120690028E5
:1040100014BF3846B8460746E08CC8B1681C19D0B2
:10402000002D61D1216807E017F8010B4860E08C92
:104030000138E084E08C68B3086800064CD5002F96
:10404000F2D138F8020B00276FF35F20EEE700BFD4
:1040500021681FE0216802E00868000609D40868AA
:10406000000606D4086800065CBF08685FEA0060C6
:10407000F2D51FB117F8010B05E000BF38F8020BAD
:1040800000276FF35F204860E08C0138E084E08C0B
:104090000028E4D1086840061CD4EDB1681C0FD19B
:1040A0000868400616D40868400613D4086840061D
:1040B00010D4086840064FF00000F1D50FE000BFB3
:1040C000FEF7F8F9801BA84208D82068C16800688C
:1040D0004006F5D5002002E0FEF7ECF90320202190
:1040E00084F84110BDE8F081216800BF086800062F
:1040F00008D4FEF7DFF9801BA842EFD82168C86812
:10410000F4E700BF17B117F8010B04E038F8020B11
:1041100000276FF35F204860E08C0138E084E08C7A
:104120000028E3D1B6E700007047000080B582B0F8
:1041300041F21400C4F202000168002241F00101C2
:104140000160016801F0010101910199016841F0EC
:10415000020101600068002100F002000090009858
:104160000C20FEF75FFA0C20FEF74CFA0D20002120
:104170000022FEF757FA0D20FEF744FA1020002126
:104180000022FEF74FFA1020FEF73CFA3B200021F8
:104190000022FEF747FA3B2002B0BDE88040FEF760
:1041A00031BA000080B586B0002041F218010590B8
:1041B000C4F202010A6842F020020A600A6802F0B2
:1041C00020020192019A0A6842F004020A600A6819
:1041D00002F004020192019A0A6842F008020A60A1
:1041E000096801F00801019101991021CDE902103F
:1041F000049040F60000C4F2010002A9FEF756F850
:1042000006B080BD70B598B040F60004C4F2010459
:1042100040F2E840002104F51052C2F20000592398
:104220001191CDE90F11CDE90D11CDE90B11CDE9BA
:104230000911CDE90711CDE90511CDE90311CDE94A
:104240000111C0E90021C0E90213C0E90411816134
:10425000FFF70AF8002818BFFDF71AFC40F2E84003
:10426000C2F2000010A9FEF763FD002818BFFDF799
:104270000FFC602009900020CDE90A00CDE90C0078
:10428000CDE90E0040F2E840C2F2000009A9002288
:10429000FEF7BAFE002818BFFDF7FAFB40F2E8402F
:1042A000C2F2000009A90422FEF7AEFE002818BFE2
:1042B000FDF7EEFB40F2E840C2F2000009A9082237
:1042C000FEF7A2FE002818BFFDF7E2FB40F2E8452A
:1042D0004FF40050C2F200050026069001A92846BE
:1042E0000596CDE90366CDE901660896FEF7FAFC6E
:1042F000002818BFFDF7CCFB286840F60041C4F247
:1043000000018842CDE91566149615D042F60041A9
:10431000C4F20101884225D141F21800C4F2020022
:10432000016841F004010160006800F0040013908E
:1043300013984FF4E0600DE041F21800C4F202005F
:10434000016841F004010160006800F0040013906E
:1043500013980120149002201590179014A920465C
:10436000FDF7A4FF18B070BD70B590B040F60045E1
:1043700040F27850C4F200050021C2F20000592238
:10438000CDE90811CDE90611CDE90411C0E90051CC
:10439000C0E9021201618161FEF766FF002818BFC3
:1043A000FDF776FB40F27850C2F2000008A9FEF754
:1043B000BFFC002818BFFDF76BFB40F2785460206B
:1043C000C2F200040190002601A920460022CDE996
:1043D00002660596FEF718FE002818BFFDF758FB89
:1043E00020680E96A8420D960C9615D042F6004114
:1043F000C4F20101884226D141F21800C4F2020041
:10440000016841F004010160006800F004000B90B5
:104410000B984FF4E0600DE041F21800C4F2020086
:10442000016841F004010160006800F004000B9095
:104430000B9801200C9002200D900F9005F57C4008
:104440000CA9FDF733FF10B070BD000080B540F23D
:10445000C05044F20041C2F20000C4F20001002347
:104460004FF00C0C4FF4E13280E80E00C0E903334A
:10447000C0E905C3C361FFF749FC002808BF80BD40
:10448000BDE88040FDF704BB80B540F2086044F60B
:104490000001C2F20000C4F2000100234FF00C0C36
:1044A0004FF4E13280E80E00C0E90333C0E905C3F0
:1044B000C361FFF72BFC002808BF80BDBDE880402A
:1044C000FDF7E6BAFEE70000FEE700002DE9F04345
:1044D00081B0E8B181460EC087A0884608F06CFF25
:1044E00008EB48006E2101EB001685A0314608F06C
:1044F00063FFB6F5205F11D942F60550C0F6010002
:1045000031464FF4205201B0BDE8F04308F054BFEB
:1045100091A001B0BDE8F04308F04EBF3046FBF774
:1045200011FFC9F80C007EA008F046FFB8F1010F9A
:10453000C0F2CC80D9F80C00A8F101016E3003293B
:1045400008F0030C02D200227BE000BF28F0030336
:1045500000224FF6FC7E4FF01C111C2602EA0E07CB
:1045600007EB470500EB0514A680C4F80610C4F855
:104570000A10C4F80E10C4F81210C4F81610C4F8CB
:104580001A10C4F81E10C4F82210C4F82610C4F87B
:104590002A10E6857C1C2D0104EB4404415100EBFC
:1045A000041524010653BC1C04EB44046E80AE8049
:1045B000C5F806106E81AE81EE812E826E82AE82CB
:1045C000C5F816106E83AE83EE832E846E84AE849F
:1045D000EE842E856E85AE85EE8500EB04152401F4
:1045E0000653FC1C04EB440404326E80AE80EE8063
:1045F0002E816E81AE81EE812E826E82AE82EE823F
:104600002E836E83AE83EE832E84C5F82210EE8453
:10461000A962E96200EB0415240193420653C5F830
:104620000210EE80A960E9602E82C5F81210EE82B9
:10463000A961E9612E84C5F82210EE84A962E962BD
:104640008CD1BCF1000F41D091B201EB410100EBE4
:1046500001130F014FF01C11BCF1010FC151596042
:104660009960D960196159619961D961196259627A
:104670009962D9622AD0531C9BB203EB430300EB2F
:1046800003171B01BCF1020FC1507960B960F960DA
:1046900039617961B961F96139627962B962F96246
:1046A00014D0911C89B201EB410100EB0112090108
:1046B0004FF01C13435053609360D36013615361F8
:1046C0009361D361136253629362D36216A008F0C0
:1046D00073FE40F26810C2F2000001684A1C0260DA
:1046E00000EB810212A04146C2F8049001B0BDE87F
:1046F000F04308F061BE00BF7374657020320A0099
:10470000E9A284E8AEA1E4BDBFE794A8E5A0863A9B
:1047100020256C7520E5AD97E88A820A000000002C
:104720007374657020330A007374657020340A0056
:10473000E5889DE5A78BE58C96575332383132E5F5
:10474000AE8CE688903A0AE781AFE78FA0E695B095
:104750003A25640A00000000506F696E746572208B
:10476000746F205247425F4C4544207374727563E6
:1047700074757265206973204E554C4C2E0A0000EA
:1047800080B508F0FDFD09F0CDFEBDE8804008F0E1
:1047900005BE0000B0B590B000240120CDE90B4467
:1047A000CDE9094406900A904FF4E0104FF48031AF
:1047B00002250F9006A8CDE90714CDE90D51FEF7AB
:1047C0009DF828B1EFF3108072B600BFFEE700BF7E
:1047D0000F20CDE901054FF48060CDE9040401A864
:1047E00002210394FDF75AFF20B1EFF3108072B657
:1047F000FEE700BF10B0B0BD41F20400C4F20200F9
:10480000016801F00C01082941F20021C0F27A018F
:1048100019D102680368C2F38342DB0302F102028A
:1048200006D440F60011C0F23D0151430BE000BF39
:1048300003689B0302D4514305E000BF40F600111A
:10484000C0F23D01514340F23402C2F20002116055
:10485000006842F29013C0F30310C0F60103185C25
:1048600021FA00F0106070477047000040F23050AD
:10487000C2F20000FEF71EBB10B540F6FF3E036813
:10488000C4F2000E43F2004C7045C4F2010C21DC6E
:10489000B0F1804F2CD040F20042C4F200029042AE
:1048A00026D040F60002C4F20002904220D07045AB
:1048B00024DCB0F1804F2FD040F20042C4F200025D
:1048C000904229D040F60002C4F20002904223D068
:1048D00026E000BF40F60042C4F20002904207D03A
:1048E000604505D042F60042C4F201029042DED19A
:1048F0004A6823F0700313437045DADD40F6004246
:10490000C4F20002904207D0604505D042F6004252
:10491000C4F20102904203D1CA6823F440731343E6
:1049200023F080024B69D1F800E08C681A4360459F
:104930000260C462C0F828E005D042F60042C4F22A
:104940000102904201D109690163012141610169BC
:10495000C90708BF10BD016921F00101016110BD47
:1049600010B5446A616A814212D0A16A814217D0AF
:10497000E16A81421CD0216B814220D180690821EB
:104980000028217704BF012084F8410017E000BF10
:10499000816901200029207708BF84F83E000EE0DD
:1049A00080690221217750B9012084F83F0006E098
:1049B00080690421217710B9012084F84000204645
:1049C000FEF726FD0020207710BD000010B5446AD8
:1049D000616A81420AD0A16A814209D0E16A8142BA
:1049E00008D0216B814207D1082004E0012002E0B9
:1049F000022000E0042020772046FEF715FD00206D
:104A0000207710BD10B5446A616A81420CD0A16A5A
:104A100081420FD0E16A814212D0216B814215D0D0
:104A2000012084F83D0016E00120207784F83E0044
:104A300011E000BF02202077012084F83F000AE047
:104A400004202077012084F8400004E0082020772B
:104A5000012084F841002046FEF728FA0020207744
:104A600010BD0000406A0021C185C184FEF79ABED6
:104A700081B090F84210222920D18368B3F5805F7D
:104A800008D10169002965D000F128010A6803688E
:104A90005B680AE0014651F8282F13B90369002B1F
:104AA000F5D003685B6803F07F0313700A68013276
:104AB0000A60C18D01390A04C18501D001B0704777
:104AC0000168CA6822F02002CA60CA6822F48072B3
:104AD000CA604A6922F001024A61202280F842201D
:104AE00000224263036B012B3ED1026351E8031F96
:104AF000026821F0100142E803130168DBB151E8BC
:104B0000031F026821F0100142E80313016893B10A
:104B100051E8031F026821F0100142E80313016805
:104B20004BB151E8031F026821F0100142E8031362
:104B30000168002BDAD10A68D20606D5002200925D
:104B40000A680092496800910099818D01B0FEF7D2
:104B500027BE00BF0168826A49686FF35F2122F8AF
:104B6000021B8262A5E700BF01B0FFF7E9B90000B0
:104B700040F20860C2F20000FEF716BEFEE7000039
:104B8000C06802EB42023A2300EB02100A0458BF4D
:104B90001C23A0F86E304B044FF03A0358BF1C237F
:104BA000A0F870308B044FF03A0358BF1C23A0F8D4
:104BB0007230CB044FF03A0358BF1C23A0F8743076
:104BC0000B054FF03A0358BF1C23A0F876304B0575
:104BD0004FF03A0358BF1C23A0F878308B054FF0F4
:104BE0003A0358BF1C23A0F87A30CB054FF03A03A4
:104BF00058BF1C23A0F87C300B024FF03A0358BF7B
:104C00001C23A0F87E304B024FF03A0358BF1C2300
:104C1000A0F880308B024FF03A0358BF1C23A0F855
:104C20008230CB024FF03A0358BF1C23A0F88430E7
:104C30000B034FF03A0358BF1C23A0F886304B03F8
:104C40004FF03A0358BF1C23A0F888308B034FF075
:104C50003A0358BF1C23A0F88A30CB034FF03A0325
:104C600058BF1C23A0F88C300B064FF03A0358BFF6
:104C70001C23A0F88E304B064FF03A0358BF1C237C
:104C8000A0F890308B064FF03A0358BF1C23A0F8D1
:104C90009230CB064FF03A0358BF1C23A0F8943053
:104CA0000B074FF03A0358BF1C23A0F896304B0770
:104CB0004FF03A0358BF1C23A0F898308B074FF0F1
:104CC0003A024FF03A0358BF1C23A0F89A30C907A4
:104CD00008BF1C22A0F89C207047000060B1038828
:104CE000D0E901C1C26803EB4300372303EBC000E6
:104CF00083B26046FEF79ABB42F6E140C0F601007F
:104D000008F05ABB002804BF00207047C1B209B1A7
:104D100001200CE010F47F4102D0090A092006E0CE
:104D200010F47F0107BF010E1920090C112042F277
:104D3000AA12C0F60102515C08447047F0B587B072
:104D400000210022064607F05DFE42F27C10C0F60C
:104D5000010090E83E0002A81EC040F2EC04C2F23E
:104D600000042068069506F0D5F92268052502AFF3
:104D7000304600214FF4FA630097019500F0A2FC41
:104D80002168304600224FF4FA630097019500F045
:104D900099FC4FF4FA7009F0A1FA07B0F0BD0000D9
:104DA0002DE9F04F8DB0044600250FF2A440CDE967
:104DB0000255019108F000FB40F270184FF0FF3BE4
:104DC000C2F2000804AE4FF0010A4FF0FF37C4F8FA
:104DD00004B002E02570C4F80CB0781C18D0E0686C
:104DE000C102013008BF4FF400610F4448F20001D6
:104DF00098F80400C0F6020101F5805900284846E1
:104E000008BF4FF48050874272D278050BD057E02C
:104E100098F8047048F20000002FC0F6020018BF96
:104E2000074678054CD138463146242202F004F971
:104E30000A9844F24561C3F2340188426760A06079
:104E4000C8D19DF818000B9984F800A0E16068B102
:104E50009DF81400E0B19DF81000B0FA80F0400910
:104E60009DF82410607031B918E000BF03209DF850
:104E70002410607091B19DF82010B9B19DF81C10FC
:104E8000B1FA81F149090128A1700BD112E000BFEC
:104E900002209DF8241060700029ECD10321012824
:104EA000A17007D0022898D102A804E002210128AD
:104EB000A170F7D103A80168013101608DE700BF3F
:104EC00042F6E77742F6FD7042F6866242F6CF730D
:104ED000C0F60107C0F60100C0F60102C0F60103EA
:104EE00040F24921009702F06FF800BFFEE700BFD3
:104EF000DDE9025BDFA059462A4608F05DFA002D85
:104F00004FF0FF3600F09E800FF2903008F054FA18
:104F1000DDF804A004AF4FF0FF30666005E000BF8D
:104F2000012800F0898000BF6068411C14D0E1684E
:104F3000CA02013108BF4FF4006298F80410151836
:104F40000029484608BF4FF48050854280F0988081
:104F500068050CD07CE000BF98F8045048F20000CF
:104F6000002DC0F6020018BF0546680570D128461E
:104F70003946242202F060F80A9844F24561C3F2EF
:104F8000340188426560A06014D1012020709DF832
:104F900018000B99E160A8B19DF8140020B39DF8AA
:104FA0001000B0FA80F040099DF82410607071B9CB
:104FB00020E000BF002020706078E6600228B3D1B6
:104FC00024E000BF03209DF82410607091B19DF88B
:104FD0002010A9B19DF81C10B1FA81F14909A17006
:104FE0000228A1D112E000BF02209DF824106070B9
:104FF0000029ECD10321A17002287FF495AF05E0D0
:105000000221A17002287FF48FAF00BF28462146FD
:10501000012207F0D3FB207800283FF485AF2069F8
:1050200050457FF681AFA07802287FF479AF98F8D9
:10503000060000287FF478AF6669BBF1000F25D128
:10504000CBE000BFDDF804A0BBF1000F1ED1C4E02F
:1050500042F6E77742F6FD7042F6866242F6CF737B
:10506000C0F60107C0F60100C0F60102C0F6010358
:1050700040F24921009701F0A7FF00BFFEE700BF03
:105080004FF0FF36BBF1000F00F0A780701C40F01E
:10509000A480BBF1010F04D898F80600012840F065
:1050A000C18042F6F150C0F6010008F085F94FF0DA
:1050B000FF3504AE4FF0010B4FF0FF30656006E0A6
:1050C00098F80600002800F0878000BF6068411C47
:1050D00014D0E168CA02013108BF4FF4006298F8A9
:1050E000041017180029484608BF4FF48050874223
:1050F00080F0A18078050CD07CE000BF98F80470A7
:1051000048F20000002FC0F6020018BF07467805DD
:1051100070D138463146242201F08EFF0A9844F2BD
:105120004561C3F2340188426760A06014D19DF8E4
:1051300018000B9984F800B0E160A8B19DF8140044
:1051400020B39DF81000B0FA80F040099DF82410BB
:10515000607071B920E000BF002020706078E560C9
:105160000128B3D124E000BF03209DF82410607013
:1051700091B19DF82010A9B19DF81C10B1FA81F1F0
:105180004909A1700128A1D112E000BF02209DF8B9
:10519000241060700029ECD10321A17001287FF454
:1051A00095AF05E00221A17001287FF48FAF00BF09
:1051B00038462146012207F001FB207800283FF401
:1051C00085AF206950457FF681AFA07802283FF473
:1051D00077AF01287FF47AAF6669701C2BD042F656
:1051E0008D70C0F60100314608F0E6F830460DB08B
:1051F000BDE8F08F42F6E77742F6FD7042F6866230
:1052000042F6CF73C0F60107C0F60100C0F60102F6
:10521000C0F6010340F24921009701F0D5FE00BF1E
:10522000FEE700BF42F64A60C0F6010008F0C4F88D
:10523000012088F8060042F63160C0F6010008F04F
:10524000BBF84FF0FF3630460DB0BDE8F08F00BF21
:10525000616C6C6F635F656E762063616C6C656416
:10526000207769746820656E765F73697A653A2085
:1052700025750A00456D70747920736563746F72CB
:10528000733A2025752C205573696E67207365630A
:10529000746F72733A2025750A00000041747465BA
:1052A0006D7074696E6720746F20616C6C6F6361E0
:1052B000746520454E562066726F6D207573696E59
:1052C0006720736563746F72732E2E2E0A000000C0
:1052D0002DE9F041002A08BFBDE8F0818046106A40
:1052E00040F22C0514460E46C2F2000508B169686A
:1052F00088473046FBF7E3FA2968451C284688476B
:10530000074620B1384631462A46FBF74CFBD8F811
:105310000800276290B100BF026801464AB11068D8
:10532000114630B1026801461AB1106811460028D2
:10533000F2D10C606160BDE8F08100BFC8F80840A0
:10534000BDE8F08170B50C4640F22C01C2F20001BC
:105350000968064628208847054660B12846282166
:10536000FBF798FB0320E86030462146C5E9066458
:105370000BF01EFF6861284670BD000010B540F2BA
:105380002C00C2F20000016828208847044628B19A
:1053900020462821FBF77EFB0620E060204610BD5A
:1053A000F0B581B040F22C06C2F200063168054625
:1053B000282088470446A0B120462821FBF76AFB35
:1053C0000420E0602846FBF77AFA3168461C304634
:1053D0008847074620B1384629463246FBF7E3FAAC
:1053E0002761204601B0F0BD70B5002808BF70BD30
:1053F00040F22C060446C2F2000603E0716828461B
:105400008847CCB1E16825462468C80504D4A8685B
:1054100010B1FFF7E9FFE968C80504D4286910B1A5
:1054200071688847E9688805E8D4286A0028E5D0CB
:1054300071688847E2E700BF70BD00002DE9F04FBA
:1054400081B0D0F808B00029884618BF4FF0010895
:10545000BBF1000F56D08A46002941D00AF101095C
:10546000DBF820404046E4B126783046FAF7C0FF2A
:105470009AF8001007460846FAF7BAFF87420FD19C
:10548000651C4C46AEB115F8016B3046FAF7B0FF1B
:1054900014F8011B07460846FAF7AAFF8742F1D025
:1054A000381A30B1DBF800B0BBF1000FD8D14FF0A3
:1054B000000B584601B0BDE8F08F00BFDBF82000BC
:1054C0000028F6D0DBF800B0BBF1000F1AD0DBF8F3
:1054D00020000028EDD0DBF800B0BBF1000F11D0A8
:1054E000DBF820000028E4D0DBF800B0BBF1000FAF
:1054F00008D0DBF820000028DBD0DBF800B0BBF1DF
:10550000000FDBD14FF0000B584601B0BDE8F08F23
:10551000B0B540F22C01C2F200010968054628200E
:105520008847F8B128210446FBF7B4FA40F250301E
:10553000C2F2000000210160E5B100BF2878013807
:105540001F281CD8687801381F2815D8A87801387A
:105550001F2813D8E878043501382028EED3013D00
:105560000DE000BF40F25030C2F2000000240460A1
:105570002046B0BD002502E0013500E0023520469E
:10558000294605F079F808B12046B0BD2046FFF75E
:105590002BFF00242046B0BD00210022002306F08E
:1055A0007BBE000010B586B0417804460078F9B1A2
:1055B00003281DD1A17842F6A56004F11002C0F6BF
:1055C000010001F003FD204603F0BAFD40B3A368DB
:1055D00042F6FD7042F63E72C0F60100C0F60102CE
:1055E00040F2D16101F0F0FC012006B010BD00BF17
:1055F00001284FF0000011D1226B4FF0FF310591CF
:10560000CDE90111CDE9031101A910318DF8140084
:1056100002F11000042201F03BFD012006B010BD94
:1056200042F6FD70C0F6010003A240F2CF6101F026
:10563000CBFC002006B010BD5265636F76657279B1
:105640002074686520454E562073756363657373D7
:1056500066756C2E0A000000F0B583B000210022B0
:10566000044607F0CFF940F2E806C2F200063068BF
:105670000125029505F04EFD326802AF204600215B
:105680004FF4FA630097019500F01CF8316820464A
:1056900000224FF4FA630097019500F013F84FF4DD
:1056A000FA7008F01BFE03B0F0BD000080B502F0F8
:1056B000D3FE002080BD000080B503F039F8002043
:1056C00080BD00002DE9F04F9DB08146C2F3074038
:1056D000C1F30746A0EB060AC2F30720C1F307286F
:1056E000A0EB08001C90D0B25FFA81FBA0EB0B0589
:1056F0004CF6CD4003FB00F1012000EBD140B3FBA1
:10570000F0F2269F0092CC0C0CF0A6FA08903046DE
:105710000CF0A2FA079050460CF086FA069040462C
:105720000CF09AFA05901C980CF07EFA04905846FA
:105730000CF092FA039028460CF076FA00260290BC
:10574000CDF82490019405E0A74206F101062F460A
:1057500000F21E81B0B20B960A900CF07DFA089907
:105760000CF084F90646069831460CF089FA079940
:105770000CF0F0F80CF03CFA0546049831460CF0B9
:105780007FFA05990CF0E6F80CF032FA044602981C
:1057900031460CF075FA03990CF0DCF80CF028FA9D
:1057A000034620064FF03A0058BF1C201C906006AC
:1057B0004FF03A0058BF1C201B90A0064FF03A0053
:1057C00058BF1C201A90E0064FF03A0058BF1C202A
:1057D000199020074FF03A0058BF1C20189060071E
:1057E0004FF03A0058BF1C201790A0074FF03A0026
:1057F00058BF1C201690E0074FF03A0008BF1C204D
:10580000159028064FF03A0058BF1C2014906806E7
:105810004FF03A0058BF1C201390A8064FF03A00F2
:1058200058BF1C201290E8064FF03A0058BF1C20C9
:10583000119028074FF03A0058BF1C2010906807BD
:105840004FF03A0058BF1C200F90A8074FF03A00C5
:1058500058BF1C200E903A20E90708BF1C200D906D
:1058600019064FF03A0058BF1C2059064FF03A086D
:105870000C9058BF4FF01C0899064FF03A0A58BFD9
:105880004FF01C0AD9064FF03A0B58BF4FF01C0BD3
:1058900019074FF03A0958BF4FF01C0959074FF04C
:1058A0003A0158BF1C219A074FF03A0258BF1C22F8
:1058B000DB0727984FF03A03BE4608BF1C23012898
:1058C00040DB09984FF0000CC66800246E3600BF1C
:1058D0003EF82C501C9F05EB450006EB001500011F
:1058E00037521B98013468801A981FFA84FCA880EC
:1058F0001998A5F82280E8801898A5F824A0288196
:105900001798A5F826B068811698A5F82890A88160
:1059100015986985E8811498AA8528821398EB85E3
:1059200068821298A8821198E882109828830F98AC
:1059300068830E98A8830D98E8830C98288427988C
:105940008445C5DBDDF824907746B9F1000F0DD012
:10595000B9F8003009F1040203EB4303372607CA04
:1059600006EBC3039BB2FDF761FD05E042F6E140A3
:10597000C0F6010007F020FD3D46019CDDE90A76F6
:10598000A7423FF6E1AE009808F0A8FCDCE600BFB5
:105990001DB0BDE8F08F00009AB042F25411C0F67D
:1059A00001010A6840F2D0150A924A68C2F2000565
:1059B00009928A68A8680892CA6844F2B8560792A1
:1059C0000A6946F2675906924A6940F2000B05924D
:1059D0008A69C2F200060492CA69C0F2740903928D
:1059E0000A6A496AC2F2000B0DF12C0A14240DF167
:1059F000610802920191012806D000BF0A2008F038
:105A00006DFCA8680128F9D1304607F0D5FC306854
:105A100048455BD03046514604F068F8002800F055
:105A2000FD800B990FF2D05007F0C6FCDDE90C1297
:105A30000FF2D45007F0C0FCDDE90E120FF2E45073
:105A400007F0BAFC0C990E98CBF804100139042920
:105A50004FF0010268608BF8002000F2C881DFE897
:105A600011F00500E10011014101710142F6FC1045
:105A70000D9FC0F6010007F09FFC42F670213846EA
:105A8000C0F601014246FAF723FE012840F0A88142
:105A9000404600211022FAF7B6FE42F6B62701462C
:105AA000169042F6D110C0F60107C0F601003A4642
:105AB00007F082FC384616A9042201F06BFB169809
:105AC00040F2E801C2F2000108608FE1FFF756FCE6
:105AD000DBF80410804608460BF099FBFFF732FC18
