:020000040800F2
:100000008047002035020008051600085503000847
:1000100001160008350700082D190008000000002F
:10002000000000000000000000000000470200087F
:100030003907000800000000A302000809160008A4
:100040004F0200084F0200084F0200084F0200084C
:100050004F0200084F0200084F0200084F0200083C
:100060004F0200084F0200084F0200084F0200082C
:100070004F0200084F0200084F0200084F0200081C
:100080004F0200084F0200084F0200080000000065
:100090000000000000000000000000004F02000807
:1000A0004F0200084F0200084F0200084F020008EC
:1000B0004F0200083D1700084F0200084F020008D9
:1000C0004F0200084F0200084F0200084F020008CC
:1000D0004F0200084F0200084F0200080000000015
:1000E0004F0200084F0200084F0200080000000005
:1000F0000000000000000000000000004F020008A7
:10010000000000004F0200084F0200084F020008E4
:1001100000000000000000000000000000000000DF
:100120004F0200084F0200084F0200084F0200086B
:100130004F02000800000000000000000000000066
:100140000000000000000000000000004F02000856
:100150004F0200084F0200084F0200084F0200083B
:100160004F0200084F0200080000000000000000DD
:10017000000000000000000000000000000000007F
:10018000000000004F020008000000000000000016
:100190004F02000800F002F800F03CF80AA090E8D6
:1001A000000C82448344AAF10107DA4501D100F032
:1001B00031F8AFF2090EBAE80F0013F0010F18BFC3
:1001C000FB1A43F001031847605E0000805E0000E8
:1001D000103A24BF78C878C1FAD8520724BF30C873
:1001E00030C144BF04680C60704700000023002445
:1001F00000250026103A28BF78C1FBD8520728BF37
:1002000030C148BF0B6070471FB505F0D2FB1FBD62
:1002100010B510BD00F029FA1146FFF7F5FF00F008
:100220005FFA00F047FA03B4FFF7F2FF03BC00F0F7
:100230004FFA00000948804709480047FEE7FEE7FB
:10024000FEE7FEE7FEE7FEE7FEE7FEE7FEE7FEE786
:1002500004480549054A064B704700002917000865
:100260009501000880410020804700208043002045
:1002700080430020EFF3108072B6704780F310883F
:100280007047424A1368012B04D04FF001031360FA
:100290003F4A10603F4A11603F484FF08051016073
:1002A0007047EFF3108272B63848016851B34FF0CF
:1002B000000101603648016891B1EFF309811EF039
:1002C000100F08BF21ED108B21E9F00F4FF0000453
:1002D0001EF0100F08BF012441F8044D00680160B2
:1002E0002C490968096808C9B1E8F00F002B18BF4C
:1002F000B1EC108B81F309884EF0100E002B18BF63
:100300002EF0100E82F310884EF0040E7047214933
:100310000860EFF3148222F0040282F314881C496F
:100320004FF00000086019494FF0010008601B48B9
:100330001B49D0F8002041EA0201016016484FF045
:100340008051016017480068006880F3088861B632
:1003500062B670471EF0040F0CBFEFF30880EFF396
:10036000098020E9F00F40F804ED40F804ED1EF09C
:10037000040F0CBF80F3088880F3098800B503F0F0
:10038000BFFA5DF804EB4EF0040E70477441002094
:10039000E83E0020F03E002004ED00E020ED00E00B
:1003A0000000FFFF08ED00E053EA020C00F0698056
:1003B0002DE9F04B4FF00006002B1FBFB3FA83F579
:1003C00003FA05F424FA05F65E4012BF1643B2FAAA
:1003D00082F502FA05F4C5F120051EBF22FA05FCDC
:1003E00044EA0C04203556EA044C4FEA144418BF82
:1003F000641C4FF000084FF00009904271EB030CB1
:1004000039D3002919BFB1FA81F701FA07F6B0FA1A
:1004100080F700FA07F6C7F120071EBF20FA07FC95
:1004200046EA0C062037B6FBF4FCA7EB0507103FA5
:1004300007F01F0BCBF120062CFA06F60CFA0BFB8B
:1004400044BFB3460026202FA4BF5E464FF0000BEA
:100450005BEA060C08BF4FF0010B19EB0B0948EBE8
:100460000608ABFB027C06FB02CC0BFB03CCC01BDB
:1004700071EB0C01C1E70B46024641464846BDE818
:10048000F08B13B5084318BF4FF0FF300146AFF3B0
:100490000080BDE81C40704710B5431C02E010F816
:1004A000011B71B18107FAD14FF0013202C88C1AD9
:1004B0008C4314EAC211F9D0C01A0A0603D0C01E38
:1004C00010BDC01A10BD0A0401D0801E10BD090263
:1004D000FCD0401E10BD40EA010370B59B072ED131
:1004E0004FF00136042A2AD308C810C99D1B9D432A
:1004F000121F15EAC61517D0D8B2E1B2401A50EA59
:10050000056110D198B2A1B2401A50EA05410AD152
:1005100023F07F4024F07F41401A50EA052102D1A8
:10052000180EA0EB146070BDA342DBD018BA21BA3C
:10053000884201D9012070BD4FF0FF3070BD0AB96B
:10054000002070BD10F8013B11F8014B63B1A342CC
:100550000AD1521E08D010F8013B11F8014B1BB113
:10056000A34201D1521EEDD1181B70BD02F0FF0352
:1005700043EA032242EA024200F002B84FF00002CE
:100580000429C0F0128010F0030C00F01B80CCF1A5
:10059000040CBCF1020F18BF00F8012BA8BF20F813
:1005A000022BA1EB0C0100F00DB85FEAC17C24BF67
:1005B00000F8012B00F8012B48BF00F8012B704711
:1005C0004FF0000200B5134694469646203922BFEC
:1005D000A0E80C50A0E80C50B1F12001BFF4F7AF37
:1005E000090728BFA0E80C5048BF0CC05DF804EB19
:1005F000890028BF40F8042B08BF704748BF20F887
:10060000022B11F0804F18BF00F8012B704710B576
:10061000044610F0030F08BF11F0030F40F01580DF
:100620004FF0013E121FC0F20E8051F8043BA3EBC5
:100630000E0C2CEA030C1CEACE1C08BF40F8043B4D
:10064000F0D0A1F1040102F10402521E08DB11F8FE
:10065000013B00F8013B002BF7D11146FFF78EFF5D
:10066000204610BD704770477047754600F02CF863
:10067000AE4605006946534620F00700854618B08F
:1006800020B5FFF7E5FDBDE820404FF000064FF034
:1006900000074FF000084FF0000BAC46ACE8C00973
:1006A000ACE8C009ACE8C009ACE8C00921F007011A
:1006B0008D46704710B50446AFF300802046BDE874
:1006C0001040FFF7B0BD0000004870474000002018
:1006D00001491820ABBEFEE726000200704700006B
:1006E00080B582B0FFF7C6FD03F0A6F803F05CFF0B
:1006F00004F020F904F070F80A20009045F6D84084
:1007000042F691214FF0140CC0F60000C0F6000133
:1007100000224FF48063CDF804C004F015F904F012
:10072000A7FA04F00FF904F0C5F904F0EBF8002083
:1007300002B080BDFEE700007047000072B600BF47
:10074000FEE700002DE9F04F82B000F13E4241F299
:10075000000502F1FF77C4F2020507224FEAB7262F
:10076000A84208BF0422042E38BF4FEAB7224FF038
:10077000010A002400274FF00008009208E000BFA3
:10078000023708F10108202F04F1040400F0B480BE
:100790000E680AFA08F916EA090FF1D0D1F804A098
:1007A0000AF0030BABF10106012E17D8032286686D
:1007B00002FA07FECA6826EA0E06BA403243826091
:1007C0004268CAF3001522EA090205FA08F54FEA61
:1007D000480C6FEA0E062A4342600BE00322BA403F
:1007E000D643BBF1030FBC4604D1BC464FF0030B0C
:1007F00022E000BFC2688D68324005FA0CF52A433A
:10080000BBF1020FC26017D16FF0030202EA580277
:10081000024404F01C030F25D2F820E005FA03FA85
:100820000D692EEA0A0E05FA03F343EA0E0313627A
:10083000D1F804A00AF0030B02680BFA0CF3324063
:100840001A431AF4403F4FF0010A026098D0002288
:1008500043F644030192C4F202031A6843F6004EC1
:1008600042F480421A601A68C4F2010E02F4804217
:100870000192019A28F003024FF6084C7244CFF619
:10088000FF7C52F80C3004F00C060F25B540AB434A
:10089000009D05FA06F6334342F80C30DEF80820D6
:1008A0004B6842EA090643F60C4CDD0258BF22EAC7
:1008B0000906CEF80860C4F2010CDCF800209D02A5
:1008C00042EA090658BF22EA0906CCF80060DEF8C1
:1008D00004209D0342EA090658BF22EA0906CEF821
:1008E0000460DEF80020DB0342EA090658BF22EA72
:1008F0000906CEF8006043E702B0BDE8F08F0000C3
:1009000044F27C10C2F200000068704740F2000020
:1009100044F27C11C2F20000C2F2000100780A68C1
:10092000104408607047000080B543F60040C4F2F0
:100930000200016841F400710160016841F48061C6
:100940000160016841F480710160032000F0BEF88D
:100950000F2000F005F800F061F8002080BD0000D5
:1009600070B586B0002543F640010195C4F202013E
:100970000A68044642F002020A60096801A801F010
:10098000020101910199694600F060F9049E002E70
:1009900018BF012600F080F94DF68361B040C4F223
:1009A0001B31A0FB01014FF0FF3000EB914140F201
:1009B000DC1040F20042C2F20000C4F2000240F239
:1009C000E733C0E90021C0E902530561856100F009
:1009D00097FB054610B1284606B070BD40F2DC100A
:1009E000C2F2000000F0BCFB05460028F3D11D2038
:1009F00000F030F80F2C0DD81D20214600220025D4
:100A000000F038F840F20400C2F20000046028460A
:100A100006B070BD0125284606B070BD82B000202A
:100A200043F640010190C4F202014A6842F4804258
:100A30004A604A6802F480420192019A0090086874
:100A400040F080500860086800F0805000900098E6
:100A500002B07047002848BF704700F01F01012214
:100A600002FA01F14EF200124009CEF2000242F801
:100A70002010704710B54EF60C5CCEF2000CDCF87E
:100A80000030C3F3022E8EF00704042C28BF042488
:100A9000BEF103034FF0FF3E0EFA04F438BF00230B
:100AA000A14399400EFA03F39A43114300F00F0259
:100AB000043A624409010C3200F16043B0F1FF3F97
:100AC000C8BF03F56442117010BD00004EF60C5112
:100AD000CEF200010A684FF6FF031A4060F30A22C3
:100AE00042F0806040F0FD70086070472DE9F041F1
:100AF000002800F08B8043F60808C4F20208044680
:100B0000D8F8F8030D4600F00700884207D288F8AD
:100B1000F853D8F8F80300F00700A84276D120680F
:100B2000810717D5410705D5D8F8001041F4E051E9
:100B3000C8F80010010705D5D8F8001041F460414D
:100B4000C8F80010D8F80010A26821F0F001114395
:100B5000C8F80010C0073FD1D8F8F80300F007002C
:100B6000A84207D988F8F853D8F8F80300F007002E
:100B7000A8424BD12068410707D5D8F80010E26899
:100B800021F4E0511143C8F80010000708D5D8F847
:100B90000000216920F4604040EAC100C8F800006C
:100BA00000F0A2F8D8F8001045F6CC12C1F30311FA
:100BB000C0F60002515C40F2080220FA01F140F256
:100BC0000400C2F200000068C2F200021160FFF7E8
:100BD000C7FE0020BDE8F0816068811E022907D2AF
:100BE00058F8081C89015CBF0120BDE8F08111E0C4
:100BF000012807D158F8081C89035CBF0120BDE813
:100C0000F08107E058F8081C890703D40120BDE8EB
:100C1000F08100BFD8F8001021F003010843C8F8A4
:100C20000000FFF76DFE064641F28837D8F8000055
:100C3000616800F00C00B0EB810F8DD0FFF760FE13
:100C4000801BB842F2D90320BDE8F0810F22026078
:100C500043F60802C4F20202136803F00303436080
:100C6000136803F0F0038360136803F4E053C36078
:100C7000D2F800C04FF4E05303EADC030361D2F87A
:100C8000F80300F0070008607047000040F2080019
:100C9000C2F200000068704740F2080043F6080105
:100CA000C2F20000C4F202010068096845F6DC12D5
:100CB000C1F38221C0F60002515CC84070470000B9
:100CC00040F2080043F60801C2F20000C4F202013B
:100CD0000068096845F6DC12C1F34231C0F6000233
:100CE000515CC8407047000010B543F60404C4F2DC
:100CF0000204606800F00C0008280BD0042819BF1B
:100D000042F20040C0F2F40047F64000C0F27D100D
:100D100010BD00BF206821682368490247F64001E2
:100D2000C0F27D1100F03F02C3F388105CBF42F2B5
:100D30000041C0F2F401A1FB00010023FFF734FBE6
:100D400021680222C1F3014102EB4101B0FBF1F045
:100D500010BD00002DE9F04182B000286AD00446A1
:100D6000007843F60006C007C4F202060BD0B06854
:100D700000F00C00042840F0A1803068800302D508
:100D80006068002856D0207880071AD5B06810F027
:100D90000C0F09D0B06800F00C00082840F0A880C3
:100DA0007068400200F1A4803068800702D5E068D6
:100DB00001283FD13068216920F0F80040EAC100E5
:100DC00030602078000739D4207840074ED4A569D8
:100DD0005DB3B06800F00C00082840F0BD80012D24
:100DE00028D07068E16900F480028A4222D1216A29
:100DF00000F03F028A421DD147F6C071626A01408D
:100E0000B1EB821F16D1A26A0023CFF6FF7303EB6A
:100E1000C23200F440316FF30F0291420AD1E16A0D
:100E200000F07060B0EB016F04D1002002B0BDE8AB
:100E3000F08100BF012002B0BDE8F08160690028A8
:100E400040F20000C4F2472076D00121C0F8801E95
:100E5000FFF756FD054600BF706F8007B4D4FFF75B
:100E60004FFD401B0228F7D9DDE000BF306C10F0C9
:100E700080580AD100200190306C40F080503064DE
:100E8000306C00F080500190019847F20007C4F2E6
:100E900000073868C00541D4386840F48070386075
:100EA000FFF72EFD054600BF3868C00536D4FFF7B2
:100EB00027FD401B0228F7D9B5E000BFB06800F05D
:100EC0000C00082803D1706840023FF556AF6068F7
:100ED000B0F5803F07D0B0F5A02F40F08D8030688E
:100EE00040F480203060306840F4803030608DE025
:100EF000E068002852D00020C4F2472001210160A0
:100F0000FFF7FEFC054600BF306880073FF552AF93
:100F1000FFF7F6FC401B0228F6D984E0A068012800
:100F200005D005284ED1306F40F004003067306F97
:100F300040F0010030674FE00021C0F8801EFFF74D
:100F4000DFFC0546706F80077FF53EAFFFF7D8FCEA
:100F5000401B0228F6D966E00027C4F2472700208C
:100F60003866FFF7CDFC022D05460BD130688001B5
:100F70005ED5FFF7C5FC401B02284FF00300F5D9F2
:100F800054E700BF306880017FF54FAFFFF7B8FC32
:100F9000401B02284FF00300F4D947E70020C4F2B9
:100FA000472000210160FFF7ABFC05463068800751
:100FB0007FF507AFFFF7A4FC401B02284FF00300AA
:100FC000F4D933E7316F002821F001013167316F27
:100FD00021F0040131674DD0FFF792FC054641F244
:100FE000883700BF306F800756D4FFF789FC401B5D
:100FF000B842F7D917E000BF3168002821F48031EA
:101000003160316821F4802131604FD0FFF778FCE6
:10101000054600BF306880033FF5B5AEFFF770FCB2
:10102000401B6428F6D9032002B0BDE8F08100BF60
:1010300004F11C052FCD08430021CFF6FF7140EAD3
:10104000821001EBC3316FF30F0140EA05600843E2
:10105000706001203866FFF753FC04463068800159
:101060003FF5E3AEFFF74CFC001B02284FF00300F6
:10107000F4D9DBE6FFF744FC054641F2883700BFB0
:10108000306F800708D5FFF73BFC401BB8424FF09C
:101090000300F5D9CAE600BFB8F1000F7FF497AEA0
:1010A000306C20F08050306491E600BFFFF728FCE0
:1010B000054600BF306880037FF565AEFFF720FC72
:1010C000401B64284FF00300F4D9AFE6411E002016
:1010D000B0EB116F1CBF012070474EF21002CEF230
:1010E000000251604EF62351CEF20001F0230B7046
:1010F0000721906011607047704700007047000042
:10110000002804BF0120704710B5044690F83D0048
:1011100028B9002084F83C00204600F01FF8022087
:1011200084F83D002068211D00F00EFB012084F8AA
:10113000460084F83E0084F83F0084F8400084F8BC
:10114000410084F8420084F8430084F8440084F8A5
:10115000450084F83D00002010BD000070470000ED
:1011600090F83D1001291CBF01207047022180F832
:101170003D10006840F6FF32C168C4F200029042A0
:1011800041F00101C1600FDCB0F1804F1DD040F291
:101190000041C4F20001884217D040F60001C4F2B9
:1011A0000001884211D017E040F60041C4F200016E
:1011B00088420AD044F20001C4F20101884204D0FE
:1011C0000021C4F20101884206D1816801F00701C3
:1011D000062904BF00207047016841F00101016049
:1011E000002070477047000070B504460068C5686D
:1011F0000669B10716D515F0020113D06FF0020190
:101200000161012121778069800703D02046FFF723
:10121000E9FF05E0204600F08FF8204600F08EF848
:1012200000202077700719D515F0040016D020682B
:101230006FF00401016102212177806910F4407F81
:1012400004D02046FFF7CEFF06E000BF204600F0A6
:1012500073F8204600F072F800202077300717D589
:1012600015F0080014D020686FF008010161042116
:101270002177C069800703D02046FFF7B3FF05E060
:10128000204600F059F8204600F058F8002020775A
:10129000F00619D515F0100016D020686FF0100177
:1012A000016108212177C06910F4407F04D02046F5
:1012B000FFF798FF06E000BF204600F03DF820460B
:1012C00000F03CF800202077F00718BF15F001006F
:1012D00002D1300609D412E020686FF001010161EB
:1012E000204600F02DF8300609D515F0800006D014
:1012F00020686FF0800101612046FFF7FDFE700657
:1013000009D515F0400006D020686FF0400101615A
:10131000204600F01FF8B00658BF70BD15F0200041
:1013200008D021686FF0200220460A61BDE87040B5
:10133000FFF7E4BE70BD000070470000704700007A
:10134000006840F20041C4F20001884208BFFFF784
:10135000DDBA704770470000002804BF01207047C5
:1013600010B5044690F8410028B9002084F84000E8
:10137000204600F021F8242084F841002068C1684C
:1013800021F40051C160204600F05EFA2068016936
:1013900021F490410161416921F02A014161C16854
:1013A00041F40051C16000202021606484F84110A4
:1013B00084F84210606310BD80B586B0016844F2C5
:1013C0000040C4F20000814202D006B080BD00BFE0
:1013D000002143F630020191C4F20202136900F5C4
:1013E000DE3043F400331361136903F400330193D7
:1013F000019B0191136843F001031360126802F02E
:1014000001020192019A0C2201920222CDE90221ED
:10141000032104910721059101A9FFF793F906B073
:1014200080BD00002DE9F041044690F841002028DD
:101430001CBF0220BDE8F0810F4600294FF00100DB
:1014400000F082801646002A08BFBDE8F0814FF008
:10145000000821201D46C4F8448084F84100FFF7AD
:101460004FFAA684E684A1680646B1F5805F05D1EF
:101470002069002814BF3846B8460746E08CC8B13A
:10148000681C19D0002D61D1216807E017F8010B05
:101490004860E08C0138E084E08C68B3086800069E
:1014A0004CD5002FF2D138F8020B00276FF35F20E4
:1014B000EEE700BF21681FE0216802E0086800062F
:1014C00009D40868000606D4086800065CBF0868EE
:1014D0005FEA0060F2D51FB117F8010B05E000BF0D
:1014E00038F8020B00276FF35F204860E08C01386A
:1014F000E084E08C0028E4D1086840061CD4EDB1FB
:10150000681C0FD10868400616D40868400613D43A
:101510000868400610D4086840064FF00000F1D576
:101520000FE000BFFFF7ECF9801BA84208D8206845
:10153000C16800684006F5D5002002E0FFF7E0F939
:101540000320202184F84110BDE8F081216800BF0C
:101550000868000608D4FFF7D3F9801BA842EFD82B
:101560002168C868F4E700BF17B117F8010B04E061
:1015700038F8020B00276FF35F204860E08C0138D9
:10158000E084E08C0028E3D1B6E7000082B00020C0
:1015900043F630010190C4F202010A6842F0800271
:1015A0000A600A6802F080020192019A00900868BD
:1015B00040F001000860086800F001000090009809
:1015C00002B0704780B540F2242044F20041C2F2DC
:1015D0000000C4F2000100234FF00C0C4FF4E13284
:1015E00080E80E00C0E90333C0E905C3C361FFF71B
:1015F000B3FE002808BF80BDBDE88040FFF79EB85D
:10160000FEE70000FEE7000080B502F0BFFB03F03C
:10161000E5FBBDE8804002F0C7BB0000B0B592B06A
:1016200006AC201D2C21FEF7CBFF002543F6400021
:101630000595CDE90355CDE901550095C4F20200A9
:101640000168022241F080510160006800F0805082
:101650000090009847F200000095C4F20000016875
:1016600062F38F310160006800F440400090009800
:101670000120099010200A90204606920C95FFF751
:1016800069FB18B172B600BFFEE700BF0F20CDE9BD
:10169000010501A80021CDE903550595FFF726FABC
:1016A00010B172B6FEE700BF12B0B0BD43F6040041
:1016B000C4F20200416801F00C0242F20041082A23
:1016C000C0F2F40106D0042A1DD147F64001C0F251
:1016D0007D1118E002680368520247F64002C0F22A
:1016E0007D1203F03F0358BF0A460168B2FBF3F2D4
:1016F0000368C1F388115143C3F30142022303EB92
:101700004202B1FBF2F140F20802C2F200021160A3
:10171000406845F6CC13C0F30310C0F60003185C14
:1017200021FA00F0106070474EF68850CEF20000AB
:10173000016841F4700101607047000040F2DC1064
:10174000C2F20000FFF750BD10B540F2FF7E036803
:10175000C4F2000E40F2000C7045C4F2010C1DDD15
:1017600040F60002C4F20002904220D060451ED034
:1017700040F60042C4F20002904218D04FF6FF72C9
:10178000C4F2000290421CDC704525DCB0F1804FB1
:101790003AD040F20042C4F2000233E0B0F1804F90
:1017A00005D040F20042C4F200029042E6D14A68FD
:1017B00023F0700313434FF6FF72C4F2000290420D
:1017C000E2DD44F2FF32C4F20102904210DC6045D7
:1017D0001AD044F2000213E040F60002C4F2000204
:1017E000904211D040F60042C4F200020AE000BF6D
:1017F00044F60002C4F20102904205D044F20042D5
:10180000C4F20102904203D1CA6823F44073134327
:1018100023F080024B69D1F800E08C681A436045E0
:101820000260C462C0F828E002D10969CCF8301027
:10183000012141610169C90708BF10BD016921F09B
:101840000101016110BD000010B504460068D4E933
:1018500002C22369016921F44051114301616269A7
:1018600043EA0C01E3691143C268194349F20C636E
:101870009A431143C1604169A26921F4407141F268
:101880000043114340F48062C4F201039A42416173
:1018900002D1FFF715FA01E0FFF7FEF9E16963688D
:1018A0001922B1F5004FA0FB02011FD15A00DB0F36
:1018B000FEF77AFD48F21F51C5F2EB11A0FB0123A0
:1018C0005A096FF0630302FB0300322303EBC000ED
:1018D000A0FB01014FF4F87000EA111000EB0210B8
:1018E000C1F3421108442168886010BD9A009B0F23
:1018F000FEF75AFD48F21F51C5F2EB11A0FB012380
:101900005A096FF0630302FB0300322303EB00105C
:10191000A0FB0101F02000EA511000EB0210C1F31E
:10192000431108442168886010BD0000FEE70000F4
:10193000002804BF00207047C1B209B101200CE0AB
:1019400010F47F4102D0090A092006E010F47F015B
:1019500007BF010E1920090C112045F6E412C0F64C
:101960000002515C0844704780B500F007FB00207E
:1019700080BD000080B500F06DFC002080BD00003F
:1019800070B582B040F2F80645F6807046F2280144
:10199000C2F20006C0F60000C0F60001C6E9000170
:1019A0000120782101F028FE706128B30A2015215A
:1019B000CDE9001041F6312113A0C0F6000100224C
:1019C0004FF48063002402F0BFFF7269054610A146
:1019D00010460022002302F02FFD706990F82110BC
:1019E00041F0020180F821101DB1284603F040F9B2
:1019F0000024204602B070BD07A002F0E3F94FF0CA
:101A0000FF34204602B070BD747368656C6C0000D2
:101A100073687278000000006E6F206D656D6F72E4
:101A20007920666F72207368656C6C0A0000000094
:101A300040F2F80AC2F2000ADAF8140040F2581430
:101A400090F82110C2F2000441F0010280F8212038
:101A5000880703D40020207026E000BFDAF81010B9
:101A600041B140F25810C2F200008022FEF7CFFDD3
:101A70001AE000BF01F03AFB30B10020207147F2BC
:101A80006D30C2F2680009E046F67300C0F2200033
:101A9000C4F8030046F66610C7F26E302060204698
:101AA000FEF7FAFC3E212152204602F08BF945F662
:101AB00063764FF0010B4FF00008C0F600060227D6
:101AC00002E000BF80F820B001F0D6FE8146DAF8CF
:101AD0001400B9F11B0FF5D090F82010022909D09D
:101AE000012940F07580B9F15B0F40F06F8080F8FC
:101AF0002070E9E7A9F14101022980F82080E3D3B1
:101B0000B9F1440F00F29280DFE819F04600970027
:101B1000970097009700970097009700A000E000BB
:101B2000700097009700700097009700970097004B
:101B300097009700970097009700970097009700ED
:101B400097009700970097009700970097009700DD
:101B500097009700970097009700970097009700CD
:101B600097009700970097009700970097009700BD
:101B700097009700970097009700970097009700AD
:101B8000970097009700970097009700970097009D
:101B900097004800840100BF96E700BFB0F87410BA
:101BA000B0F872209142BFF48FAF084490F8221031
:101BB00045F66570C0F6000002F004F9DAF814008A
:101BC000B0F874100131A0F874107DE780F820801F
:101BD000B9F10D0F2AD8DFE809F007303030303086
:101BE00030303979093030096EE700BF01F07EFAF4
:101BF000012812D1DAF8140090F82110C90707D093
:101C000045F6E450C0F6000002F0DCF8DAF8140003
:101C1000B0F87210223001F017F8DAF8140090F8DA
:101C20002100800778D484F800801DE1B9F17F0F8E
:101C30000CD0B9F1FF0F3FF447AFB0F87220502A33
:101C400074D30022A0F87220A4E000BFB0F8741092
:101C500000293FF439AFB0F872200139531E9AB20F
:101C6000A0F872308BB29A42A0F8741040F2B4809F
:101C7000C11801F122002331D21A02F09FF9DAF8DB
:101C80001400B0F87210084480F82280DAF81400CA
:101C9000B0F87410084400F1220189A002F092F813
:101CA000DAF81410B1F87400B1F8721088423FF6F7
:101CB0000BAF451E304602F085F8DAF81400013506
:101CC000B0F872008542F5D3FEE600BFB0F874109C
:101CD00051B10025304602F075F8DAF814000135EC
:101CE000B0F874108D42F5D300F1220545F6E450AA
:101CF000C0F6000002F066F801F0F8F9012802D100
:101D0000284600F0DFFEDAF8140090F82100800782
:101D10006ED484F80080C1E0DAF8101000296FD08A
:101D200020468022FEF773FC9EE000BFB0F87430BE
:101D30009A422FD9C11801F123002231D21A02F0A0
:101D40003DF9DAF81400B0F87410084480F82290D5
:101D5000DAF8140090F82110C90709D0B0F874100F
:101D6000084400F122015AA002F02CF8DAF814001D
:101D7000B0F87450B0F872108D421DD2304602F0A7
:101D800021F8DAF814000135B0F872108D42F5D35D
:101D900012E000BF104480F82290DAF8140090F8A6
:101DA0002110C90708D045F66570C0F60000494605
:101DB00002F008F8DAF81400B0F87210B0F87420E5
:101DC0000131A0F8721089B201325029A0F87420B4
:101DD00028BFC0F8728077E638A001F0F3FFDAF888
:101DE0001400B0F87210084480F822806CE600BF3E
:101DF000DAF81010F1B120468022FEF708FC4DE021
:101E000001F074F900B347F26D3084F80480C2F237
:101E1000680023E0B0F8740000283FF455AE304667
:101E200001F0D0FFDAF81400B0F874100139A0F80E
:101E3000741049E601F05AF900B347F26D3084F8A6
:101E40000480C2F2680023E046F67300C0F220006E
:101E5000C4F8030046F66610C7F26E3020602046D4
:101E6000FEF71AFB3E212152204601F0ABFFDAF8C3
:101E7000140054212230FEF781FB25E646F673005C
:101E8000C0F22000C4F8030046F66610C7F26E30B8
:101E900020602046FEF700FB3E2121520AA0214689
:101EA0002A4601F08FFFDAF8145005F12200FEF700
:101EB000F3FAA5F87200A5F8740005E608200800FA
:101EC00008257320200800002573257300000000FA
:101ED0002573000080B502A001F074FF002080BDD2
:101EE00048656C6C6F2052542D5468726561642192
:101EF0000A0000002DE9F04381B016A001F062FF56
:101F000040F2F80040F2FC09C2F20000C2F20009FF
:101F10000768D9F80050AF4218D213A40FF24C084A
:101F200003E000BF0C37AF4210D23E682146304676
:101F30000222FEF7D0FA0028F4D07A6840463146F3
:101F400001F040FFD9F80050ECE700BF002001B0DD
:101F5000BDE8F0832D2D46756E6374696F6E204C5D
:101F60006973743A0A0000005F5F0000252D313666
:101F700073202D2D2025730A0000000010B540F2BB
:101F8000A004C2F20004216806A001F01BFF216931
:101F900009A001F017FF61690CA0BDE8104001F035
:101FA00011BF00BF746F74616C206D656D6F7279C5
:101FB0003A2025640A00000075736564206D656D24
:101FC0006F7279203A2025640A0000006D617869FB
:101FD0006D756D20616C6C6F6361746564206D65F7
:101FE0006D6F72793A2025640A0000002DE9F04FE8
:101FF0008DB0022002F036F900F104087AA081A227
:10200000082101F0DFFE45F62174C0F600042046E9
:1020100001F0D8FE204601F0D5FE204601F0D2FEA8
:10202000204601F0CFFE204601F0CCFE204601F014
:10203000C9FE204601F0C6FE204601F0C3FE74A092
:1020400001F0C0FE00260DF1140B7BA77BA4CDF898
:102050000C8005E0049EDDF80C80002E00F0C080AE
:102060003546002E08BF4546FEF704F936B115F88F
:10207000041C01F07F01022940F0B080296841452D
:1020800000F0AC800A68059142451DD011680692A7
:1020900041451DD00A68079142451DD0116808923C
:1020A00041451DD00A68099142451DD011680A9228
:1020B00041451DD00A680B9142451DD04FF00808DC
:1020C000114604920C921BE04FF0010816E000BF8D
:1020D0004FF0020812E000BF4FF003080EE000BF0F
:1020E0004FF004080AE000BF4FF0050806E000BF0B
:1020F0004FF0060802E000BF4FF0070800210491EE
:1021000050A5FEF7BBF84FF0000905E0FEF7B6F862
:1021100009F10109C1459DD05BF829A0FEF7AAF895
:102120001AF8041C01F07F010229EFD1FEF7A6F88E
:102130005AF8081F0026BAF808005145AAF11403FE
:1021400051460FD0096851451FD00968514519D033
:102150000968514518D0096804365145F2D1013E4D
:1021600013E000BF096851452FD00968514529D0B7
:102170000968514528D0096804365145F2D1013E1D
:1021800023E000BF013600E00236009026A00821BF
:102190000822019601F016FEDAF8006056450DD0CF
:1021A000A6F11401384601F00DFE3068504505D007
:1021B000204601F007FE36685645F1D120A001F017
:1021C00001FEA5E7013600E002360090284608210E
:1021D0000822019601F0F6FD9AE700BFFEF74EF8DF
:1021E00000200DB0BDE8F08F252D2A2E732076201B
:1021F000202073757370656E642074687265616405
:102200000A00000073656D6170686F726500000000
:10221000202D2D2D202D2D2D2D2D2D2D2D2D2D2D08
:102220002D2D2D0A00000000252D2A2E2A73202591
:102230003033642025643A00257300002F0000002D
:102240000A000000252D2A2E2A7320253033642011
:1022500025640A002DE9F04F8DB0012002F002F84C
:10226000051D45F6AC60C0F6000073A2082101F020
:10227000A9FD45F62174C0F60004204601F0A2FD38
:10228000204601F09FFD204601F09CFD204601F014
:1022900099FD204601F096FD204601F093FD204671
:1022A00001F090FD204601F08DFD65A001F08AFD52
:1022B00000240DF1140A039505E000BF049C039D62
:1022C000002C00F0B5802646002C08BF2E46FDF7F6
:1022D000D1FF34B116F8041C01F07F01012940F050
:1022E000A5803168A94200F0A1800A680591AA4240
:1022F0001ED011680692A9421ED00A680791AA4210
:102300001ED011680892A9421ED00A680991AA42FB
:102310001ED011680A92A9421ED00A680B91AA42E7
:102320001ED04FF00808114604920C921CE000BF2A
:102330004FF0010816E000BF4FF0020812E000BFA6
:102340004FF003080EE000BF4FF004080AE000BFA2
:102350004FF0050806E000BF4FF0060802E000BF9E
:102360004FF0070800210491FDF788FF4FF00009A6
:1023700006E000BFFDF782FF09F10109C1459DD0CC
:102380005AF829B0FDF776FF1BF8041C01F07F0115
:102390000129EFD1ABF10C06FDF770FF9BF8294046
:1023A00037A0082108223346009401F00BFD9BF86A
:1023B000280000F00F00042804D834A151F82000B0
:1023C00001F000FDDBF81C00C11C00BF11F8032C5C
:1023D000232A0DD111F8022C232A0BD111F8012C3C
:1023E000232A09D111F8042B232AEFD0043904E061
:1023F000033902E0023900E00139DBE90824DBF8A7
:1024000010601718401A104464214843DBF8345018
:10241000B0FBF2F3B91B22A00095019401F0D2FCAD
:1024200009F10109C145ABD148E700BFFDF726FF1F
:1024300000200DB0BDE8F08F746872656164000023
:10244000202D2D2D20202D2D2D2D2D2D2D202D2DF0
:102450002D2D2D2D2D2D2D2D202D2D2D2D2D2D2DB9
:102460002D2D2D20202D2D2D2D2D2D20202D2D2DD0
:102470002D2D2D2D2D2D2D202D2D2D0A0000000070
:10248000252D2A2E2A73202533642000F05E0008B3
:10249000025F0008235F00082C5F0008F95E000857
:1024A0002030782530387820307825303878202052
:1024B0002020253032642525202020307825303812
:1024C0007820253033640A002DE9F04F8FB00A20C0
:1024D00001F0C8FE00F104090FF2B0400FF2D4423F
:1024E000082101F06FFC45F62174C0F60004204677
:1024F00001F068FC204601F065FC204601F062FC1A
:10250000204601F05FFC204601F05CFC204601F013
:1025100059FC204601F056FC204601F053FC0FF216
:102520009C4001F04FFC002623E000BFA4F10C0703
:10253000FDF7A4FED4E906050821009045F60B70CE
:10254000C0F6000008223B46019501F03BFC14F860
:10255000030CC00707BF45F69F60C0F6000045F6B4
:10256000A160C0F6000001F02DFC00BF002E00F0BD
:1025700003823446002E08BF4C46FDF77BFE36B181
:1025800014F8041C01F07F010A2940F0F38121684E
:10259000494500F0EF810A6807914A4520D011684B
:1025A0000892494522D00A6809914A4500F0C28044
:1025B00011680A92494500F0F9800A680B914A4572
:1025C00000F0328111680C92494500F039810E68A3
:1025D0000D914E4500F0768100240E9602E000BF7A
:1025E000002601244FF0000B04E000BF4FF0010B68
:1025F000002600244FF0000A0021069100210591D9
:102600000021049100210391FDF738FEDDF81C80C4
:10261000FDF730FE18F8041C01F07F010A2923D1D0
:10262000A8F10C07FDF72AFED8E90605082100905D
:1026300045F60B70C0F6000008223B46019501F0FC
:10264000C1FB18F8030CC00707BF45F69F60C0F632
:10265000000045F6A160C0F6000001F0B3FB002CBD
:102660007FF484AF05E000BFFDF708FE002C7FF487
:102670007DAF089CFDF7FEFD14F8041C01F07F01FE
:102680000A2923D1A4F10C07FDF7F8FDD4E90605CA
:102690000821009045F60B70C0F6000008223B466A
:1026A000019501F08FFB14F8030CC00707BF45F636
:1026B0009F60C0F6000045F6A160C0F6000001F082
:1026C00081FBBBF1000F7FF451AF05E0FDF7D6FDB4
:1026D000BBF1000F7FF44AAF099CFDF7CBFD14F866
:1026E000041C01F07F010A292CD1A4F10C07FDF78D
:1026F000C5FDD4E906050821009045F60B70C0F62B
:10270000000008223B46019501F05CFB14F8030C25
:10271000C00707BF45F69F60C0F6000045F6A16000
:10272000C0F6000001F04EFBBAF1000F7FF41EAFBF
:102730000EE000BF4FF0010A002600244FF0000B0E
:102740005AE700BFFDF79AFDBAF1000F7FF40EAF14
:102750000A9CFDF78FFD14F8041C01F07F010A2983
:102760002ED1A4F10C07FDF789FDD4E90605082157
:10277000009045F60B70C0F6000008223B4601951C
:1027800001F020FB14F8030CC00707BF45F69F605B
:10279000C0F6000045F6A160C0F6000001F012FB93
:1027A000069800287FF4E2AE10E000BF01210691F8
:1027B000002600244FF0000B4FF0000A1EE700BF78
:1027C000FDF75CFD069800287FF4D0AE0B9CFDF76A
:1027D00051FD14F8041C01F07F010A293ED1A4F137
:1027E0000C07FDF74BFDD4E906050821009045F6DE
:1027F0000B70C0F6000008223B46019501F0E2FA9A
:1028000014F8030CC00707BF45F69F60C0F6000030
:1028100045F6A160C0F6000001F0D4FA0598002842
:102820007FF4A4AE20E000BF012105910021002625
:1028300000244FF0000B4FF0000A0691E0E600BFC5
:1028400001210491002106910021002600244FF06F
:10285000000B4FF0000A0591D4E600BFFDF70EFD16
:10286000059800287FF482AE0C9CFDF703FD14F858
:10287000041C01F07F010A2934D1A4F10C07FDF7F3
:10288000FDFCD4E906050821009045F60B70C0F662
:10289000000008223B46019501F094FA14F8030C5D
:1028A000C00707BF45F69F60C0F6000045F6A1606F
:1028B000C0F6000001F086FA049800287FF456AEB6
:1028C00016E000BF0121039100210691002105912E
:1028D0000021002600244FF0000B4FF0000A049165
:1028E00092E600BFFDF7CAFC049800287FF43EAED4
:1028F0000D9CFDF7BFFC14F8041C01F07F010A29B0
:1029000024D1A4F10C07FDF7B9FCD4E90605082190
:10291000009045F60B70C0F6000008223B4601957A
:1029200001F050FA14F8030CC00707BF45F69F608A
:10293000C0F6000045F6A160C0F6000001F042FAC2
:10294000039800287FF412AE06E000BFFDF796FC66
:10295000039800287FF40AAE0E9CFDF78BFC14F858
:10296000041C01F07F010A293FF4E0ADFDF786FC6D
:10297000FCE500BFFDF782FC02F02AFA014618A030
:1029800001F020FA00200FB0BDE8F08F252D2A2E8F
:10299000732020706572696F6469632020207469F8
:1029A0006D656F757420202020202020666C616783
:1029B0000A00000074696D6572000000202D2D2D45
:1029C0002D2D2D2D2D2D2D202D2D2D2D2D2D2D2D44
:1029D0002D2D202D2D2D2D2D2D2D2D2D2D2D0A0084
:1029E00063757272656E74207469636B3A30782512
:1029F0003038780A0000000092B0FDF795FF06AC71
:102A0000201D2C21FDF7DCFD002543F64000059537
:102A1000CDE90355CDE901550095C4F202000168E6
:102A2000022241F080510160006800F08050009067
:102A3000009847F200000095C4F20000016862F3BC
:102A40008F310160006800F4404000900098012040
:102A5000099010200A90204606920C95FEF77AF90C
:102A600010B172B6FEE700BF0F20CDE9010501A845
:102A70000021CDE903550595FEF738F810B172B67F
:102A8000FEE700BFFEF782FDFEF79CFDFEE70000BB
:102A9000B0B545F67C7445F67470C0F60004C0F617
:102AA0000000A04209D245F67475C0F6000500BFCB
:102AB00055F8040B8047A542FAD3BDE8B040FFF7B4
:102AC0009BBF00002DE9F04F81B083460078A8B18C
:102AD00040F2F800C2F20000056840F2FC00C2F2C9
:102AE0000000D0F80080454580F0A88045F65C796C
:102AF0004FF0000AC0F6000900264CE045F635709C
:102B0000C0F6000001F05EF940F2F80040F2FC0966
:102B1000C2F20000C2F200090768D9F80050AF42C3
:102B20001CD245F65C7445F65078C0F60004C0F639
:102B3000000802E00C37AF4210D23E682146304612
:102B40000622FDF7C8FC0028F4D17A68B11D404682
:102B500001F038F9D9F80050ECE700BF45F6E45031
:102B6000C0F6000001B0BDE8F04F01F02BB900BF86
:102B7000481C801B5045B8BF824632A0394601F040
:102B800021F940F2FC00C2F20000D0F8008000BF42
:102B90000C35454548D22F68494638460622FDF790
:102BA0009AFC0028F4D158460637FDF775FC02461A
:102BB00058463946FDF78FFC0028E9D1BAF1000FDD
:102BC00004D03178304651B9D3E700BF3846FDF71D
:102BD00063FC82463E46317830460029C9D0002049
:102BE0003A5CDAB1914219D131184B78002BBFD041
:102BF0003A185478002CBBD0A342B9D18B787BB162
:102C000094786CB1A3420BD1CB785BB1D2784AB146
:102C1000934207D1097904300029E1D13044A8E773
:102C2000881CA6E7C81CA4E746B158463146524660
:102C300001B0BDE8F04F01F031BD00BF01B0BDE80B
:102C4000F08F00BF25730A002DE9F04F8BB069B3F8
:102C50000D464A420023834607E000BF04330BF1D0
:102C6000040BD118A5F1040520D0C15C202901D0A6
:102C7000092926D1D618711C18D2C71879782029AD
:102C800001D0092916D1B11C10D0B978202901D062
:102C9000092913D1F11C09D0F9782029DED009299E
:102CA000DCD0033D07F1030B0BE000BF00200BB0AD
:102CB000BDE8F08F0BF1010B013D02E00BF1020BBF
:102CC000023D68426A1E4FF00009C9B2092933D09B
:102CD000202931D04D4521D00BEB09014B78092B30
:102CE00022D0202B20D04A4518D08B78092B21D018
:102CF000202B1FD000EB09039F1C0FD0CF78092F8A
:102D000000F04281202F00F03F81033306D0097983
:102D100009F10409C9B20929DAD10DE0A946B9F1CE
:102D2000000F0DD136E100BF09F10109B9F1000F23
:102D300006D12FE109F10209B9F1000F00F02A8153
:102D400040F2F800C2F20000066840F2FC00C2F255
:102D500000000468A64280F01D8145F65C7809F108
:102D6000060AC0F6000803E00C36A64280F0128185
:102D70003768414638460622FDF7ADFB0028F3D1FF
:102D8000B81D59464A46FDF7A6FB0028ECD117F8B6
:102D90000A000028E8D1B0680028009000F0FA800E
:102DA0004FF0000C4FF0000800275A46CDE909CC3F
:102DB000CDE907CCCDE905CCCDE903CC2946CDF84A
:102DC0000880AF4288BF39467B1A03F10108002012
:102DD00096460197165C202E01D0092E46D113EBA2
:102DE000000A2FD002EB000999F8016002F800C038
:102DF000202E01D0092E3BD118EB000C26D099F8DB
:102E000002604FF0000C202E89F801C001D0092E7D
:102E100032D11AF1020421D099F8036089F802C076
:102E2000202E01D0092E2BD11AF103041AD089F8D3
:102E300003C00EF1040E04370430165C202ECCD1F2
:102E4000CDE700BF02EB000E1FE000BFDDF80880F9
:102E500009F1010E4FF0000C19E000BF09F1020E5C
:102E600013E000BF0EF1030E0FE000BF39460CE087
:102E70000EF1010E791C08E00EF1020EB91C04E0FF
:102E8000019909F1030E0844C11CDDF80880B8F16E
:102E9000080F80F0B180A94280F0C280222E21D19B
:102EA0000EF1010203A840F828209EF80170481C8A
:102EB00004E000BF12F8017F01460130A8424FF044
:102EC000000338BF0123222F44D0A84242D25C2FF6
:102ED000F0D1134613F8017F222F04BF1A46881C35
:102EE000E8E700BF03A840F828E02846A94288BFC9
:102EF00008460A1A08F10108541C00201EF8007048
:102F0000092F22D0202F20D0171800F08C800EEB34
:102F100000067378092B25D0202B23D0231800F02E
:102F20008280B378092B21D0202B1FD0BB1C00F04E
:102F30007A80F378092B1DD0202B1BD0FB1C72D07C
:102F400004301EF80070092FDCD10EEB00020F18C0
:102F500013E000BF002B08F1010864D002F801CB98
:102F60008F1C0CE00844721C471C06E00844B21C8D
:102F7000871C02E00844F21CC71CAF4253D2AF4288
:102F8000FFF41CAF4FE000BF09F10309B9F1000FD6
:102F90007FF4D6AE00201BF8001041F0200120295C
:102FA00017D00BEB00014A7842F02002202A13D000
:102FB0008A7842F02002202A10D0CA7842F02002FB
:102FC000202A0DD004301BF8001041F020012029E8
:102FD000E7D1584405E000BF481C02E0881C00E02F
:102FE000C81C002101701CA0594600F0EBFE4FF0F8
:102FF000FF300BB0BDE8F08F0EA000F0E3FE03A899
:10300000041F14A5464654F8041F284600F0DAFEB3
:10301000013EF8D145F6E450C0F6000000F0D2FEC3
:10302000B8F1000FB6D0009A03A9404690470BB004
:10303000BDE8F08F546F6F206D616E79206172670B
:10304000732021205765206F6E6C79205573653A87
:103050000A0000002573200025733A20636F6D6D10
:10306000616E64206E6F7420666F756E642E0A0048
:103070002DE9F04381B045F63570C0F6000000F050
:10308000A1FE40F2F80040F2FC09C2F20000C2F2D8
:1030900000090768D9F80050AF421DD245F65C74AC
:1030A00045F65078C0F60004C0F6000803E000BF03
:1030B0000C37AF4210D23E68214630460622FDF75B
:1030C0000AFA0028F4D17A68B11D404600F07AFE71
:1030D000D9F80050ECE700BF45F6E450C0F6000018
:1030E00000F070FE002001B0BDE8F08301207047C1
:1030F0002DE9F04F8AB0059115990FF2D4464F068D
:103100000FF2E04858BFB046CE06DDE9134948BF8C
:1031100021F00101CE074FF0300A08BF4FF0200A1E
:103120008E070DD400270197002701250097002A5C
:1031300000F09A80CDE90251CDF810A013E000BF55
:10314000B2F1FF3F06DD4E0700F186800E07E9D59C
:10315000202782E001270197002702972D27CDE93C
:10316000031A524200974CF6CD494FF0000BCCF6B3
:10317000CC490DF1180A00BFA2FB09561409F50845
:1031800002F00F0705EB850C25460A2B04BFF50856
:10319000A2EB4C0718F80770002D0AF80B7049D005
:1031A000A5FB097C04F00F07140ACE464FEADC06A3
:1031B000A14606EB86060A2B04BF4FEADC09A5EB05
:1031C000460718F807500AEB0B0CB9F1000F5946E7
:1031D0008CF8015032D0A9FB0E5604F00F05140BE9
:1031E0005146F708A24607EB87070A2B04BF4FEAB0
:1031F000D60AA9EB470518F80550BAF1000F8CF86C
:1032000002501FD0AAFB0E5604F00F04120CF50852
:1032100005EB85050A2B04BFF208AAEB450418F854
:103220000440F1460BF1040B002A8A468CF8034057
:10323000A2D109E00BF1010B06E000BF0BF1020B7C
:1032400002E000BF0BF1030BDDF810A0DDE9025135
:10325000DDE913490DE000BF2B270097002501276A
:103260000197002A7FF466AF30228DF818204FF0C6
:10327000010BDDF814E0CB454B46C8BF5B4611F0AF
:10328000110FA4EB03025FD006462DB976453CBF73
:1032900000983070013A0136C80631D4551EC0F28C
:1032A0008D8012F0030700F09580764538BF86F8D0
:1032B00000A0012F06F1010040F09680023A064678
:1032C000032DC0F08B80101D764506F1010238BF3A
:1032D00086F800A0724538BF82F800A0B21C724583
:1032E00038BF82F800A0F21C7245A0F1040038BF7C
:1032F00082F800A0032806F10406E5DC4FF0FF3257
:103300003046CB455EDAA3EB0B076FEA0B0617F0EE
:10331000030703EB060C57D070453CBF3024047004
:103320005D1E012F00F1010409D07445A3F10205CF
:103330003CBF30262670022F00F102046CD12046DB
:10334000BCF1030F73D28BE00027002AC8BF01270E
:10335000019E3740D71B7A1E96DB17F0030C51D025
:1033600070453CBF20240470BCF1010F00F1010640
:1033700040F00481023F3046032A46D33A1D2026FE
:10338000704500F1010738BF0670774538BF3E70C1
:10339000871C774538BF3E70C71C7745A2F10402F1
:1033A00038BF3E70032A00F10400E9DC4FF0FF3221
:1033B0000646002D3FF46AAF6EE700BF30462A464E
:1033C000CB45A0DB04464BE01D46BCF1030F2ED2DB
:1033D00046E000BF2A46032DBFF475AF4FF0FF3221
:1033E000CB45FFF690AFEDE7704538BF80F800A001
:1033F000022F06F1020040F0D180033A0646032D69
:10340000ECD360E71746032AB8D24FF0FF32002D05
:103410003FF43CAF40E700BF03307445A3F1030520
:103420003CBF302323700446BCF1030F18D3302374
:10343000044600BF744504F1010038BF2370704595
:1034400038BF0370A01C704538BF0370E01C704586
:10345000A5F1040538BF0370AB4504F10404E9DBB2
:10346000B9F1000F35D006A8023807E0ABF1040B24
:103470000BF10403042B04F104042AD9744503D28C
:1034800000EB0B035B782370BBF1020F04F1010327
:103490001EDB73453CBF10F80B701F70BBF1030FB0
:1034A00004F1020314D3734504D200EB0B0717F8A1
:1034B000017C1F70BBF1040F04F1030308D37345B3
:1034C000D4D200EB0B0717F8027C1F70CEE700BFC9
:1034D0001C46012A12DB12F00307A2F1010311D0EE
:1034E00074453CBF20202070012F04F101000DD154
:1034F0001A460446032B3ED322E000BF20460AB002
:10350000BDE8F08F032B36D31AE000BF7045A2F15F
:1035100002063CBF20250570022F04F1020005D1F0
:1035200032460446032B26D30AE000BF033470451D
:10353000A2F103023CBF202707702046032B1AD3B9
:10354000013A2023204600BF704500F1010738BF33
:103550000370774538BF3B70871C774538BF3B7099
:10356000C71C7745A2F1040238BF3B7012F1020F6D
:1035700000F10400E8D30AB0BDE8F08F76453CBF07
:1035800020243470BCF1020F00F1020612D1033F77
:103590003046032AFFF439AFF0E600BF033670452A
:1035A00038BF80F800A0043A3046032DBFF48BAE3C
:1035B00014E700BF764503D22C46202535702546FA
:1035C0000330043F0646032ABFF4D8AE1DE700BF10
:1035D0003031323334353637383961626364656689
:1035E000000000003031323334353637383941424B
:1035F0004344454600000000B0B501FB00F42046FE
:1036000000F0FAFB054620B128460021224600F0D2
:103610004BFD2846B0BD0000B0B545F6747445F6C4
:103620006C70C0F60004C0F60000A04228BFB0BD18
:1036300045F66C75C0F6000555F8040B8047A542A9
:10364000FAD3B0BD80B5FCF715FE40F2D801C2F246
:1036500000014A8801324A80BDE88040FCF70EBE76
:10366000B0B5FCF707FE40F2D805C2F20005698844
:103670000446481E01B20029688005DD2046BDE8E9
:10368000B040FCF7FBBD00BF002068802046FCF77F
:10369000F5FD6868002808BFB0BDFCF7EBFD698840
:1036A00004460029EAD1A868FEF742F9421E43F613
:1036B0007470C2F2000050F832106868A1F114036F
:1036C0009842DBD02A7043F6EC626B60C2F20002D3
:1036D00012781C3001F1080132B1FCF7D2FD20460E
:1036E000BDE8B040FCF7CABDFCF7CBFD2046BDE805
:1036F000B040FCF7C3BD00002DE9F041002857D0D1
:1037000040F2A007C2F2000704467868A0424FD8F2
:10371000B868A04298BFBDE8F08107F1180840469C
:103720004FF0FF31A4F10C0600F0C0FE34F80A0C93
:1037300018B13088B0F5F55F0AD025A000F042FB43
:1037400034F80A2C34F80C3C28A0314600F03AFB3F
:103750004FF4F55044F80C0CD7F80CC0B44584BFB6
:10376000FE60B44654F8082C78683D691318F11AC5
:10377000294439610FD0598869B9B9688B420AD098
:103780009C4504BFFE60B4465A6844F8082C59684A
:10379000331A01448B6054F8043CC518B54201D07B
:1037A000698839B14046BDE8F04100F055BE00BF20
:1037B000BDE8F081B44508BFFD606A6054F8081C9C
:1037C000084483604046BDE8F04100F045BE00BFBC
:1037D000746F206672656520612062616420646197
:1037E000746120626C6F636B3A0A00006D656D3A1C
:1037F000203078253038782C207573656420666C0D
:1038000061673A2025642C206D6167696320636FCE
:1038100064653A203078253034780A0040F2E82098
:10382000C2F200007047000040F2E820C2F200003F
:1038300000F570507047000010B5FDF775F8FDF702
:10384000EDFEFDF733FFFDF721FA44F6D351C1F247
:103850006201A0FB01018809FDF738FCFFF7DCFEDF
:10386000FFF7DCFF0446FFF7DFFF01462046BDE817
:10387000104000F057BF000080B540F21010C2F2B7
:10388000000000680168890606D40A2001F082F968
:10389000FF20C0B280BD00BF4068C0B280BD000044
:1038A000F0B581B004460D208DF8030040F21010F1
:1038B000C2F20000002180F84010204600F0D0FE47
:1038C000E0B140F210160546C2F200060DF1030702
:1038D0000AE000BF3046214601220123FDF7A2FD88
:1038E000013D04F1010409D020780A28F2D13046C4
:1038F000394601220123FDF795FDEBE701B0F0BD4C
:1039000010B540F2E421C2F200010968044629B171
:1039100004F128008847002808BF10BD616C45F6F7
:10392000D950C0F6000000F04DFAA16A45F6985053
:10393000C0F6000000F046FAE16A45F6A550C0F670
:10394000000000F03FFA216B45F6B250C0F60000CF
:1039500000F038FA616B45F6BF50C0F6000000F089
:1039600031FAA16845F6CC50C0F6000000F02AFA02
:10397000E168CBA000F026FA2169CDA000F022FA80
:103980006169CFA000F01EFAA169D1A000F01AFA77
:10399000E169D3A000F016FA216AD5A000F012FA6E
:1039A000616AD7A000F00EFAA16BD9A000F00AFA64
:1039B000E16BDBA000F006FA216CDDA000F002FA5A
:1039C000207840070AD445F6E440C0F6000000F035
:1039D000F9F92078C0060FD514E000BF01F006F910
:1039E000014645F6FE40C0F6000000F0EBF9FEF798
:1039F00031FC2078C00605D445F61B50C0F6000007
:103A000000F0E0F94EF62954CEF20004D4F8030099
:103A1000800705D545F67650C0F6000000F0D2F9D3
:103A2000D4F80300400040F1F980207830B345F627
:103A30004A50C0F6000000F0C5F9217845F65D60F7
:103A4000C0F6000000F0BEF92078C00746D120780B
:103A500080074CD42078400752D42078000758D4EF
:103A60002078C0065ED494F90000B0F1FF3F61DD1C
:103A700045F6E450C0F6000000F0A4F914F8010C7B
:103A8000002800F0968045F62950C0F6000000F0AE
:103A900099F914F8011C45F67360C0F6000000F0B7
:103AA00091F914F8010CC00752D114F8010C8007E9
:103AB00058D414F8010C00075ED414F8010CC006A9
:103AC00064D414F9010CB0F1FF3F6ADD45F6E4500F
:103AD000C0F6000000F076F96BE000BF45F64860E4
:103AE000C0F6000000F06EF920788007B2D545F6E8
:103AF0003D60C0F6000000F065F920784007ACD5C5
:103B000045F63B60C0F6000000F05CF92078000745
:103B1000A6D545F63160C0F6000000F053F92078D4
:103B2000C006A0D586A000F04DF994F90000B0F1D0
:103B3000FF3F9DDCD4F80F1045F65650C0F600004C
:103B400000F040F914F8010C00289CD131E000BFCE
:103B500045F60C60C0F6000000F034F914F8010CD2
:103B60008007A6D545F60260C0F6000000F02AF9ED
:103B700014F8010C0007A0D545F63060C0F600002F
:103B800000F020F914F8010CC0069AD545F627601C
:103B9000C0F6000000F016F914F9010CB0F1FF3F77
:103BA00094DCD4F80B1045F66650C0F6000000F027
:103BB00009F9B4F8010088B345F63C50C0F600009E
:103BC00000F000F9B4F8011045F68960C0F6000075
:103BD00000F0F8F8B4F80100C0072DD1B4F80100E6
:103BE000800733D4B4F80100400739D4B4F8010099
:103BF00000073FD4B4F80100C00545D4B4F8010073
:103C0000800505D545F61660C0F6000000F0DAF82C
:103C100045F6E450C0F6000000F0D4F8D4F80300F4
:103C2000B0F1FF3F06DC45F68B50C0F6000000F017
:103C3000C9F800BFFEE700BF45F65160C0F60000BE
:103C400000F0C0F8B4F801008007CBD545F6F85075
:103C5000C0F6000000F0B6F8B4F801004007C5D582
:103C600045F6E650C0F6000000F0ACF8B4F80100EC
:103C70000007BFD545F62160C0F6000000F0A2F8AD
:103C8000B4F80100C005B9D545F6ED50C0F6000006
:103C900000F098F8B4F801008005B3D4B8E700BF8D
:103CA0007230353A203078253038780A000000002C
:103CB0007230363A203078253038780A000000001B
:103CC0007230373A203078253038780A000000000A
:103CD0007230383A203078253038780A00000000F9
:103CE0007230393A203078253038780A00000000E8
:103CF0007231303A203078253038780A00000000E0
:103D00007231313A203078253038780A00000000CE
:103D10007231323A203078253038780A00000000BD
:103D2000206C723A203078253038780A0000000084
:103D30002070633A203078253038780A000000007F
:103D400053544B455252200080B5043222F00702F2
:103D50004FF0000C4BF6EF6E42F844CDCDF6AD6E51
:103D6000C2E901EEC2E903EEC2E905EEC2E907EEDF
:103D70004FF0807ED0631046C2E9091CC2E90BCC2B
:103D8000C2E90DC3C2F840E080BD000080B5FCF779
:103D900071FA43F6EC61C2F200010A7801320A704E
:103DA000BDE88040FCF76ABA80B5FCF763FA43F6D9
:103DB000EC61C2F200010A78013A0A70BDE8804065
:103DC000FCF75CBA83B010B581B043F6F464844666
:103DD00003A8C2F200040EC003AB20467F21624656
:103DE000009301F0A9F92046FFF75AFD01B0BDE8A4
:103DF000104003B0704700002DE9F04F81B000285B
:103E000000F0838040F2A009C2F200090330D9F823
:103E1000001020F00308884577D809F1180B5846A0
:103E20004FF0FF31B8F10C0F98BF4FF00C0800F0C5
:103E30003DFBD9F80CE0D9E900CAAEEB0A02ACEBC5
:103E40000807BA425ED20AEB02052B4633F8020F8E
:103E50002E4656F8044F20B902F10C00211A4145B4
:103E600058D2BC424ED20AEB04052B4633F8020F5F
:103E70002E4656F8042F20B904F10C00111A4145C2
:103E800020D2BA423ED20AEB02052B4633F8020F8B
:103E90002E4656F8044F20B902F10C00211A414574
:103EA00038D2BC422ED20AEB04052B4633F8020F5F
:103EB0002E4656F8042F0028C3D104F10C00111A25
:103EC0004145BED3CDF800B0A346144608F1180210
:103ED000914226D340440AEB00024FF4F5574AF8CA
:103EE0000070C2E9014B3060526801240CF10C07EC
:103EF000BA421C801CBF52449060D9F8100008F1EF
:103F00000C0114E0584600F0A7FA002001B0BDE80B
:103F1000F08F00BFCDF800B0934608F1180291422F
:103F2000D8D20120D9F810101880A4EB0B00D9F8D2
:103F3000142001448A420098C9F8101038BFC9F80B
:103F400014104FF4F551AE45298030D1BEF802105F
:103F500069B3D9F80820724529D0DEF804100AEBBD
:103F6000010EBEF80210002918BF72451DD0DEF800
:103F700004100AEB010EBEF80210002918BF7245AA
:103F800013D0DEF804100AEB010EBEF8021000296F
:103F900018BF724509D0DEF804100AEB010EBEF816
:103FA0000210002918BF7245D7D1C9F80CE000F003
:103FB00053FA05F10C0001B0BDE8F08FB0B58142B5
:103FC00014D28B18834211D9002A47D000EB020E7D
:103FD00012F00301A2F1010C4FD013F8014D012999
:103FE0000EF8014D3CD1624647E000BFB2B312F07B
:103FF0000304A2F1010C09D08E461EF8015B0346B2
:10400000012C03F8015B05D1624613E08E4603469E
:1040100010E000BF4B78022C437005D1023A01F149
:10402000020E831C06E000BF01F1030E8978033AFB
:10403000C31C8170BCF1030F38BFB0BDAEF10401E9
:10404000043B00BF11F8045F043A03F8045F4D78A5
:104050005D708D789D70CD78DD70F3D1B0BD00BFFF
:1040600013F8014D02290EF8014D01D1023A04E086
:1040700013F8011D033A0EF8011DBCF1030FEDD337
:10408000AEF10401023B00BF5C78043ACC701C78AE
:104090008C7013F8014C4C7013F8024CA3F104031C
:1040A00001F80449F0D1D9E770B5042A06461BD3BC
:1040B00016F0030018D1C8B24FF00133102A00FBEC
:1040C00003F313D3A2F1100C012000EB1C1010F02D
:1040D00003000DD00128C6E90033B360F36009D1B5
:1040E00006F11000624616E0304650E030462EE001
:1040F000304610E00228C6E90433B361F36103D10E
:1041000006F12000203A06E006F13000303AC6E918
:104110000833C6E90A33BCF1300F16D300F140046E
:10412000403AC0E90033C0E90233C0E90433C0E9D2
:104130000633C0E90833C0E90A33C0E90C33C0E9EB
:104140000E330F2A2046E9D82046042A1FD30446FE
:10415000151F042D40F8043B18D3A2F10805042DC7
:1041600063600DD3A2F10C05042DA3600CD304F100
:104170001000103AE360032A0446E9D807E000BFC4
:1041800004F1080002E000BF04F10C002A4622B14D
:10419000CBB211461A46FCF7E9F9304670BD000073
:1041A0002DE9F041884640F20C01C2F200010A7884
:1041B000054682420C460AD00C4614F8100FA8425D
:1041C00005D011F8200FA84218BF00210C46E06866
:1041D000FFF712FE4FF00007C0B1E268002106466B
:1041E000FFF762FF3046414608223572777200F0D1
:1041F00055FAFCF73FF854F8041F324642F80C1FFA
:104200004A6022603461FCF739F837463846BDE829
:10421000F081000010B5044600202072FCF72AF857
:104220002246216952F80C3F5960216922610B60D6
:104230001260FCF723F82046BDE81040FFF75CBA97
:1042400010B5044600202072FCF714F854F80C1F37
:1042500062684A6062681160C4E90044BDE81040C9
:10426000FCF70CB840F20C02C2F200021178814255
:1042700011460AD0114611F8103F834205D012F8BA
:10428000201F814218BF00221146084670470000D7
:10429000F0B581B00E4640F20C01C2F200011546A5
:1042A0000A780446B2420F460AD00F4617F8100F9C
:1042B000B04205D011F8200FB04218BF00210F46C0
:1042C000FFF7C0F9043738460068B84208D00068E4
:1042D000B84205D00068B84202D00068B842F3D1B5
:1042E000FFF7BEF946F080002072204629460822DA
:1042F00000F0D4F9FBF7BEFF396844F80C1F4C609E
:104300003C60676001B0BDE8F040FBF7B7BF00005C
:10431000007AC00970470000B0B5FBF7ABFF40F270
:10432000D805C2F200056988044629B12046BDE8D7
:10433000B040FBF7A3BF00BFA868FDF7F9FA43F64A
:1043400074710138C2F2000151F830106A68A1F1AD
:1043500014039A42EAD0287043F6EC606B60C2F214
:104360000000037802F11C0001F1080133B1FBF7F2
:1043700088FF2046BDE8B040FBF780BFFBF781FF18
:104380002046BDE8B040FBF779BF000010B50446F9
:10439000FBF770FF94F8341094F8352001F0F00129
:1043A000013184F8341043F67471C2F2000101EB5C
:1043B000C2014A6840F2D80C04F11403C2F2000CA6
:1043C0001360A2614B60A26BDCF80830616143EAC4
:1043D0000201CCF80810BDE81040FBF74FBF000009
:1043E000B0B50546FBF746FF294651F8142F4B6838
:1043F00053604B6849601A6091F8212043F674734A
:104400000960C2F2000353F8324003EBC202944247
:1044100004D0BDE8B040FBF731BF00BF40F2D80286
:10442000C2F20002A96B936823EA01019160BDE822
:10443000B040FBF723BF000070B515460A460221C5
:104440001C460646FFF724FF06F11400C6E90500E6
:104450000020B583747270BDB0B50546FBF70AFF46
:104460002A4652F8141F044691420BD0A1F11400C1
:1044700000F098FB2046FBF701FFFFF74DFF0020FF
:10448000B0BD00BFA88B4FF6FF71884206D1204611
:10449000FBF7F4FE6FF00200B0BD00BF0130A8834F
:1044A0002046FBF7EBFE0020B0BD00002DE9F043F5
:1044B00081B0894607460091FBF7DCFEB98B804648
:1044C00041B1481EB8834046FBF7D8FE002001B03A
:1044D000BDE8F083B9F1000F3ED000F087FB054640
:1044E000002028637E7A284607F1140400F0EEFBD2
:1044F000D6B3012E3FD120460068A04234D095F8B3
:10450000351090F8212091421AD30068A0422BD098
:1045100095F8351090F82120914211D30068A042FF
:1045200022D095F8351090F82120914208D30068E8
:10453000A04219D095F8351090F821209142DBD295
:104540001438826900F1140105F114031360AA61A3
:10455000836169610FE000BF4046FBF78FFE6FF09B
:10456000010001B0BDE8F083B86905F114010160F4
:10457000A861B9616C61B9F1010F09DB05F144066D
:104580006A463046002100F0EFFC304600F052FD54
:104590004046FBF773FEFFF7BFFE286B002808BFFD
:1045A000002001B0BDE8F08380B582B00AA0FFF71B
:1045B00009FC0CA0FFF706FC0FF24C0C15A0032120
:1045C00001220523CDF800C0FFF7FCFB19A002B0C3
:1045D000BDE88040FFF7F6BB0A205C207C202F0A54
:1045E000000000002D205254202D20202020205497
:1045F0006872656164204F7065726174696E6720CE
:1046000053797374656D0A0053657020313320321D
:1046100030323400202F207C205C202020202025D8
:10462000642E25642E2564206275696C64202573D0
:104630000A0000002032303036202D203230323057
:1046400020436F7079726967687420627920727490
:104650002D746872656164207465616D0A000000E4
:10466000C11C00BF11F8032C62B111F8022C6AB111
:1046700011F8012C72B111F8042B002AF2D104397F
:10468000081A70470339081A704700BF0239081A20
:10469000704700BF0139081A704700002DE9F0414A
:1046A0008046DAB3C2F1000C00234446CF5C08F820
:1046B0000370DFB10CEB0306771C2FD2CF1878788C
:1046C00008EB03056870A8B1B01C27D0B878A870B3
:1046D000B0B1F01C22D0F878E870D8B104330434BB
:1046E0001CEB0300A2F10402E0D117E0601C511E94
:1046F0000AD113E0A01C013A511E05D10EE000BF03
:10470000E01C023A511E09D0FBF738FF4046BDE8D5
:10471000F08100BF033A281D511EF5D14046BDE887
:10472000F081000021F003038C46192B01462DD3A4
:10473000C81C20F00300A3F11802824226D310B552
:10474000191A40F2A004A1F11802C2F20004C4E94F
:1047500000204FF4F5520C394FF0000CC0E9002155
:10476000C0F808C041F6A060C0F201001A4642F845
:104770000C0DA26043E9021104F1180005A1012209
:104780000023FFF759FE6068E06010BD03A0624699
:10479000FFF718BB68656170000000006D656D2053
:1047A000696E69742C206572726F72206265676928
:1047B0006E206164647265737320307825782C20D4
:1047C000616E6420656E6420616464726573732039
:1047D000307825780A00000010B543F67472C2F2F2
:1047E000000202F11800C2E9060002F1200002F105
:1047F000080302F11001C2E9080002F14000C2E919
:104800000233C2E9041102F1280102F1300302F17E
:104810003804C2E9100002F16000C2E90A11C2E9DD
:104820000C33C2E90E4402F1480102F1500302F1D7
:104830005804C2E9180002F18000C2E91211C2E96D
:104840001433C2E9164402F1680102F1700302F167
:104850007804C2E9200002F1A000C2E91A11C2E9FD
:104860001C33C2E91E4402F1880102F1900302F1F7
:104870009804C2E9280002F1C00040F2D80EC2E953
:104880002211C2E92433C2E9264402F1A80102F14F
:10489000B00302F1B804C2E9300002F1E000C2F254
:1048A000000EC2E92A11C2E92C33C2E92E4402F1FA
:1048B000C80102F1D00302F1D804C2E938001F2078
:1048C0004FF0000CC2E93211C2E93433C2E9364478
:1048D00002F1E80102F1F00302F1F8048EF80000A1
:1048E0000EF10C00AEF802C0C2E90022C2E93A1192
:1048F000C2E93C33C2E93E44CEE901CCCEE9030033
:1049000010BD000010B540F2D804C2F20004A06847
:10491000FDF70EF843F67471C2F2000101EBC0001E
:1049200050F8080CA0F1140108306160BDE8104097
:10493000FBF7EDBC40F2EC00C2F20000011DC0E943
:1049400001117047704700002DE9F04383B00F4616
:10495000014601201D461646FFF722FC00283DD0E7
:1049600004462846FFF748FA00283DD004F1140118
:10497000DDE90A98C4E9051123212A46C4E908762D
:10498000C4E90A05FFF790FB04F120030FCB1A449A
:1049900044F6F913043AC0F60003FFF7D5F944F6DC
:1049A0001152E061002704F14400C0F600022146E4
:1049B000234684F8369084F83590C4E90E78C4F81C
:1049C0004080276384F83470C4E91C77009701970E
:1049D00000F016FB204603B0BDE8F083002420461B
:1049E00003B0BDE8F08300BF2046FFF713FC0024AE
:1049F000204603B0BDE8F08370B540F2DC00C2F29F
:104A000000000568FBF736FC0446FBF733FC296F12
:104A1000064609B1284688473046FBF72FFC284652
:104A2000FFF7DEFC042085F8340005F1440000F0B7
:104A3000CFFA2846FFF76CFC012809D12846FFF77A
:104A4000FFFBFFF769FC2046BDE87040FBF716BC92
:104A500040F2E400C2F20000016845F8141F4D6006
:104A600005606860FFF758FC2046BDE87040FBF722
:104A700005BC000040F2E406C2F2000603E000BFFD
:104A80002046FBF7FBFBFBF7F5FB31680446B14220
:104A9000F6D0D1E90020A1F1140550604B684869B7
:104AA0001A60C1E90011FEF727FE2846FFF7B2FBA6
:104AB000E6E7000010B584B044F274024FF4807150
:104AC000C2F2000240F26C241F20CDE90021C2F2A4
:104AD000000444F675224FF0200C029007A1C0F6A6
:104AE000000220460023CDF80CC000F00BF8204651
:104AF00004B0BDE8104000F0BBB800BF7469646C3E
:104B0000650000002DE9F04782B00DF1280A164635
:104B10000A46DDF834909AE8800501211D460446D6
:104B2000FFF7B6FB04F11400C4E905003846232161
:104B30004246C4E90865C4E90A78FFF7B5FA04F10A
:104B400020030FCB1A4444F6F913043AC0F60003CD
:104B5000FFF7FAF844F61152E061002704F144002F
:104B6000C0F600022146234684F836A084F835A01A
:104B7000C4E90E79C4F84090276384F83470C4E91E
:104B80001C770097019700F03BFA002002B0BDE8C7
:104B9000F087000080B500F001F900F02DF800204A
:104BA00080BD0000B0B5044690F8340000F00F005E
:104BB00002281CBF4FF0FF30B0BDFBF75BFB224665
:104BC000A16952F8143F05465960A16904F14400F7
:104BD0000B60A261126000F093FA2846FBF74EFBCF
:104BE0002046FFF7D3FB0020B0BD000040F2DC0000
:104BF000C2F2000000687047F0B581B00090FBF78A
:104C000039FB40F2DC01C2F200010C68054694F861
:104C1000341001F00F01012913D1FBF72BFB0646DD
:104C20002046FFF7DDFB94F8340000F0F00002307E
:104C300084F8340004F1440000F062FA3046FBF7D7
:104C40001DFB04F144066A4630460021002700F0AF
:104C50008BF9304600F0EEF92846FBF70FFBFFF723
:104C60005BFB206B023008BF2763002001B0F0BD62
:104C7000B0B5044690F83600012184F8350001FAF9
:104C800000F0A063022084F83400FBF7F3FA224618
:104C9000A16952F8143F05465960A16904F1440026
:104CA0000B60A261126000F02BFA2846FBF7E6FACF
:104CB0002046FFF76BFB40F2DC00C2F20000006808
:104CC000002818BFFFF728FB0020B0BDB0B5044690
:104CD00090F8340000F00F0001281CBF4FF0FF30A7
:104CE000B0BDFBF7C7FA05462046FFF779FB94F8FD
:104CF000340000F0F000023084F8340004F1440085
:104D000000F0FEF92846FBF7B9FA0020B0BD00001C
:104D100080B50246816952F8143F6FF0010C59606A
:104D20008169C0F830C00B6082611260FFF72EFB12
:104D3000BDE88040FFF7F0BA10B5FBF79BFA40F2F0
:104D4000DC01C2F20001096891F8342002F00F0280
:104D5000012A1FD10A4652F814CF53689C4519D036
:104D6000CCF8043091F835E043F67473C2F20003D6
:104D700003EBCE03D1F818E08A615C68CEF800C07E
:104D800022608C615A604B61FBF778FAFFF7C4FA36
:104D9000002010BDFBF772FA002010BD002844BFB0
:104DA0004FF0FF30704744F6D351C1F26201A0FBCF
:104DB00001239A094FF47A7302FB1300584300F25F
:104DC000E730A0FB010102FB03F000EB91107047FC
:104DD00044F27810C2F200000068704780B544F2D7
:104DE0007810C2F20000016801310160FFF7FEFE99
:104DF000016C0139016403D0BDE8804000F008B8BF
:104E0000C16B0164FFF798FFBDE88040AFF30080FD
:104E10002DE9F04F83B00DF1040BCDE901BBFFF795
:104E2000D7FF0546FBF726FA40F2EC08C2F200086D
:104E3000414651F8047F00908F4200F08F804FF67A
:104E4000FE76C7F6FF7608F1040A18E05046D8F857
:104E5000001002680131C8F8001017F80B1C5760E9
:104E60003A600760786041F0010007F80B0C484693
:104E7000FBF704FA404650F8047F87426ED0786909
:104E8000281AB0426AD8D7E9001048607A6817F843
:104E90000B0C116081073F605CBF00F0FE0007F85B
:104EA0000B0C019847603860D7E902100197C7F8EA
:104EB00004B08847FFF78CFF019905465945D9D0C2
:104EC000D7E90001416079687F60086017F80B0C32
:104ED0003F6000F003010329CCD100F0FE0007F889
:104EE0000B0CFBF7C7F9D7E9001281464A6017F8A7
:104EF0000B0C7A6800F0FE0011603F607F6007F8DD
:104F00000B0CFFF765FF3A69D8F8081010445145BB
:104F100078619BD0C243504603685C691444B44234
:104F200095D3994215D0186844691444B44213D3F8
:104F300081420ED003685C691444B442FFF487AF29
:104F4000994206D0186844691444B44204D381429B
:104F5000E2D108467BE700BF184678E70098FBF7E8
:104F60008DF903B0BDE8F08F70B514460E460546C6
:104F7000FBF780F9042E07D8DFE806F0040A1018C2
:104F8000200000BF21686962FBF778F9002070BD3E
:104F9000696A2160FBF772F9002070BD697A01F03F
:104FA000FD016972FBF76AF9002070BD697A41F072
:104FB00002016972FBF762F9002070BD697AC907C6
:104FC0000CBF002101212160FBF758F9002070BDC2
:104FD00010B50446FBF74EF92246A16952F8143F7A
:104FE0005960A169A2610B60617A126001F0FE0153
:104FF0006172FBF743F92046FFF722F9002010BD4C
:105000002DE9F04115460A46DDE906870A211C46CE
:105010000646FFF73DF907F0FE007072002006F12A
:105020001401C6E90511C6E90754C6E90980BDE8BF
:10503000F08100002DE9F0410446FBF71BF92646FC
:1050400056F8141F8046726816F80B0C4A60726896
:1050500000F0FE0011603660766006F80B0CFFF77A
:10506000B7FE40F2EC0CC2F2000C3169DCF80870BB
:105070000CF104020144974271612CD04FF6FE7589
:10508000CB43C7F6FF75116848691844A84222D37C
:105090008F4217D00A6850691844A84214D3974227
:1050A00014D0116848691844A84214D38F420FD015
:1050B0000A6850691844A8420CD39742E3D13A4693
:1050C00009E000BF3A4606E00A4604E03A4602E03C
:1050D0003A4600E00A46DCF8000011680130CCF8DE
:1050E0000000607A4E6040F00100607240466161ED
:1050F0001660A261FBF7C2F80020BDE8F081000055
:1051000010B50446407AC00704BF4FF0FF3010BD11
:10511000FBF7B0F854F8141F62684A606268646074
:10512000116014F80B1C246001F0FE0104F80B1C44
:10513000FBF7A4F8002010BD2DE9F04F85B09B4689
:10514000144600EB010A4FF020090391002948BFE3
:105150004FF0FF3A049002E0411C013408462178E8
:10516000252907D0002900F0E983504538BF017098
:10517000F2E700BF0234002114F8012CA2F120074D
:10518000102F00F26D801023DFE807F00A6A6A0C26
:105190006A6A6A6A6A6A6A0E6A126A6A100000BFFC
:1051A000082305E0202303E0042301E0012300BFDE
:1051B00022781943A2F12007102F00F28D801023CE
:1051C000DFE807F00A8A8A0C8A8A8A8A8A8A8A0E23
:1051D0008A128A8A100000BF082305E0202303E01A
:1051E000042301E0012300BF62781943A2F12007E4
:1051F000102F00F299801023DFE807F00A96960C32
:10520000969696969696960E96129696100000BFD3
:10521000082305E0202303E0042301E0012300BF6D
:10522000A2781943A2F12007102F00F285801023E5
:10523000DFE807F010828212828282828282820EEE
:10524000820A8282140000BF1943043494E700BF2D
:105250000423F9E70823F7E72023F5E70123F3E721
:10526000A31E013CA2F13007092F3AD802340026D0
:1052700006EB860302EB430314F8012CA3F130067E
:10528000A2F13007092F5FD806EB860302EB430338
:105290002278A3F13006A2F13007092F56D806EB89
:1052A000860302EB43036278A3F13006A2F13007D4
:1052B000092F00F2A38006EB860302EB4303A278DA
:1052C000A3F13006A2F130030A2B04F10404CFD37A
:1052D000023C2E2A3CD018E0631EA2F13007092FB1
:1052E000C4D92A2A0CD15BF8046B9C1CB6F1FF3F91
:1052F000DCBF764241F0100122782E2A28D004E04B
:1053000022784FF0FF362E2A22D04FF0FF3E42F097
:1053100004036C2B40F07E8014F801CFACF125051E
:10532000532D40F27E80E5E023460134A2F13007A0
:10533000092FD6D89AE700BF631C0234A2F13007C8
:10534000092F93D9CDE700BF013C00BF2E2ADCD145
:10535000234613F8012FA2F13007092F36D8023463
:10536000002300BF03EB830302EB43032278303BAF
:10537000A2F13007092F46D803EB830302EB430366
:105380006278303BA2F13007092F3BD803EB83034F
:1053900002EB4303A278303BA2F13007092F00F261
:1053A0002F8103EB830302EB4303E278303BA2F14E
:1053B00030070A2F04F10404D4D3013C23EAE37E2E
:1053C00042F004036C2BA7D024E000BF2A2A0BD1A3
:1053D00014F8022F5BF8043B23EAE37E42F0040357
:1053E0006C2B99D016E000BF4FF0000E1C4642F027
:1053F00004036C2B3FF490AF0CE000BF01342E2A65
:10540000A6D082E7013423EAE37E42F004036C2B4A
:105410003FF482AF94460022ACF12505532D00F2F3
:1054200069800A23DFE815F0540066006600660014
:10543000660066006600660066006600660066003C
:10544000660066006600660066006600660066002C
:10545000660066006600660066006600660066001C
:10546000660066006600660066006600660066000C
:1054700066006600660066006600660066006600FC
:1054800066006600660066006600660066007800DA
:1054900066006600660066006600660066006600DC
:1054A000660066008C005A006600660066006600B2
:1054B0005A0066006600660066006600A800AC0040
:1054C00066006600BE0066007B00660066007A002B
:1054D00050453CBF252101703EE600BF41F002016E
:1054E0000A23682A1DD1BBF800208F0748BF12B2DB
:1054F0001AE000BF504503D22521017094F800C086
:10550000BCF1000F00F1010100F08680514538BF69
:1055100081F800C0811C20E641F040011023682A78
:10552000E1D06C2ADBF800200BF1040BCFB251461E
:10553000CDE9006E0297FDF7DBFD01460DE600BFE9
:10554000C90667D4022EA6F10103C0F28D8013F0C4
:105550000307A6F1020200F0E780504538BF80F84B
:105560000090012F00F1010140F0EA801346032A68
:1055700080F010812AE100BF0823682AD1D1B2E768
:10558000721CB2FA82F24FEA521241EA020108BFDB
:1055900008265BF8042BCFB2CDE9006E51461023EC
:1055A000C8E700BF5BF8048B45F6DD42B8F1000F99
:1055B000C0F6000208BF904686B3C6F1000C002278
:1055C00018F802305BB30CEB02035D1C15D008EB3E
:1055D00002077D78002D00F0BF809D1C0DD0BD78A6
:1055E000002D00F0BB80033307D0FB78002B00F0C8
:1055F000C78004321CEB0203E2D132460FE000BF49
:10560000023423EAE37E42F004036C2B3FF484AEC1
:1056100000E700BF0146DAE0013C9EE5002272454A
:105620009446C8BFF446BEF1000FD8BF9446C906E1
:105630001FD46645A6F101021ADDA6EB0C0111F09C
:10564000030775D0504538BF80F80090012F00F156
:10565000010140F08580B21E6FEA0C00304403283F
:1056600080F0FD8016E100BF01461E46AFE000BF9E
:105670001646BCF1010FC0F21481ACF101010329FF
:1056800004D21CF0030234D10CE100BF2CF0030261
:10569000002102E004318A4224D0471857453CBF1C
:1056A00018F801303B707B1C53450BD208EB010509
:1056B0006D781D70BB1C534507D3FB1C5345E9D2C5
:1056C0000AE000BFBB1C5345F7D208EB0105AD78DB
:1056D0001D70FB1C5345DDD208EB0107FF781F70DE
:1056E000D8E700BF8844014408461CF0030200F0DC
:1056F000D98050453CBF98F800100170012A00F194
:10570000010100F0CF8051453CBF98F801300B708B
:10571000022A00F1020100F0C58051453CBF98F813
:1057200002200A70C11CBDE00146032A32D24DE0BE
:1057300001466FEA0C003044032880F09080A9E015
:10574000514538BF81F80090022F00F1020119D1B4
:10575000F31E032A1ED239E0013260E702325EE70F
:10576000514538BF81F80090022F00F102016BD142
:10577000F21E6FEA0C003044032870D28AE000BFAA
:1057800003324CE7514538BF81F80090C11C331FEC
:10579000032A1BD3181D00BF514501F1010238BF78
:1057A00081F80090524538BF82F800908A1C52451B
:1057B00038BF82F80090CA1C5245A0F1040038BFDF
:1057C00082F80090042801F10401E5DC002651452F
:1057D0003CBFDBF800000870022E0BF1040B2FDB3E
:1057E000043100BFC81E504538BF01F8039C032E8A
:1057F000A1F10200FFF4A1AE5045A6F1040038BFAC
:1058000001F8029C10F1040FA1F1010276D8524573
:10581000A0F1010038BF01F8019C10F1040F3FF620
:105820009CAC5145A0F1010238BF81F800900431D1
:1058300012F1030F00F10106D4D30339FFF78DBC39
:105840000131FFF78ABC00BF514538BF81F8009095
:10585000C11C321F6FEA0C00304403281AD3501CBD
:10586000514501F1010238BF81F80090524538BF1F
:1058700082F800908A1C524538BF82F80090CA1CFA
:105880005245A0F1040038BF82F80090844501F130
:105890000401E5DBACF101060846BCF1010FBFF6DF
:1058A000ECAE014666457FF758ACA6EB0C0010F055
:1058B000030009D0514538BF81F80090012801F15B
:1058C000010205D1701E13E030460A4610E000BF09
:1058D000524538BF82F80090022801F1020201D13E
:1058E000B01E05E0524538BF82F80090F01ECA1C79
:1058F0006FEA0C0131440329114603D21146FFF728
:105900002CBC00BF514501F1010238BF81F8009065
:10591000524538BF82F800908A1C524538BF82F841
:105920000090CA1C5245A0F1040038BF82F80090D4
:10593000844501F10401E5DBFFF70FBC0399049BEB
:10594000002948BFD94331B101460022504528BF44
:10595000AAF101010A70C01A05B0BDE8F08F00007D
:1059600000207047002070470020704700207047DB
:1059700080B540F2101044F20041C2F20000C4F2BF
:10598000000100234FF00C0C4FF4E13280E80E00D0
:10599000C0E90333C0E905C3C361FBF7DDFC08B10F
:1059A000FEE700BF002080BD80B5FEF7FDFD0020B2
:1059B00080BDF1EE100A4FF6FF71C0F2C03120EA4F
:1059C000010040F04070E1EE100A70470000000056
:1059D000000000000102030406070809000000009F
:1059E00001020304000001000200010003000100A5
:1059F0000200010004000100020001000300010098
:105A00000200010005000100020001000300010086
:105A10000200010004000100020001000300010077
:105A20000200010006000100020001000300010065
:105A30000200010004000100020001000300010057
:105A40000200010005000100020001000300010046
:105A50000200010004000100020001000300010037
:105A60000200010007000100020001000300010024
:105A70000200010004000100020001000300010017
:105A80000200010005000100020001000300010006
:105A900002000100040001000200010003000100F7
:105AA00002000100060001000200010003000100E5
:105AB00002000100040001000200010003000100D7
:105AC00002000100050001000200010003000100C6
:105AD00002000100040001000200010003000100B7
