:020000040800F2
:10000000B8730020750200083D4000089503000801
:1000100039400008CD1800085148000800000000D1
:10002000000000000000000000000000870200083F
:10003000F518000800000000E30200080143000872
:100040008F0200088F0200088F0200088F0200084C
:100050008F0200088F0200088F0200088F0200083C
:100060008F0200088F0200088F0200088F0200082C
:100070008F0200088F0200088F0200088F0200081C
:100080008F0200088F0200088F02000800000000A5
:100090000000000000000000000000008F020008C7
:1000A0008F0200088F0200088F0200088F020008EC
:1000B0008F020008454400088F0200088F020008E4
:1000C0008F0200088F0200088F0200088F020008CC
:1000D0008F0200088F0200088F0200080000000055
:1000E0008F0200088F0200088F0200080000000045
:1000F0000000000000000000000000008F02000867
:10010000000000008F0200088F0200088F02000824
:1001100000000000000000000000000000000000DF
:100120008F020008D1180008DD1800088F020008AF
:100130008F02000800000000000000000000000026
:100140000000000000000000000000008F02000816
:100150008F020008E91800088F02000845480008CF
:100160008F0200088F02000800000000000000005D
:10017000000000000000000000000000000000007F
:10018000000000008F0200080000000000000000D6
:100190008F02000800F002F800F05CF80AA090E876
:1001A000000C82448344AAF10107DA4501D100F032
:1001B00051F8AFF2090EBAE80F0013F0010F18BFA3
:1001C000FB1A43F00103184788FE0000A8FE000058
:1001D000103A24BF78C878C1FAD8520724BF30C873
:1001E00030C144BF04680C60704700000023002445
:1001F00000250026103A28BF78C1FBD8520728BF37
:1002000030C148BF0B60704766290EF0C086652973
:100210000EF0BD86642900F0E981782900F0228281
:10022000002070471FB50EF0A5FE9DE8030000F00A
:1002300041FC00F071FF0400002000210EF0D0F816
:10024000401C6060002000210EF0E0F8E0601FBD5F
:1002500010B510BD01F04EFA1146FFF7E3FF01F0B3
:100260000BFB01F06CFA03B4FFF7F2FF03BC01F0E3
:10027000DDFA00000948804709480047FEE7FEE72D
:10028000FEE7FEE7FEE7FEE7FEE7FEE7FEE7FEE746
:1002900004480549054A064B7047000031440008F0
:1002A00095010008B86D0020B8730020B86F0020D9
:1002B000B86F0020EFF3108072B6704780F310889B
:1002C0007047424A1368012B04D04FF001031360BA
:1002D0003F4A10603F4A11603F484FF08051016033
:1002E0007047EFF3108272B63848016851B34FF08F
:1002F000000101603648016891B1EFF309811EF0F9
:10030000100F08BF21ED108B21E9F00F4FF0000412
:100310001EF0100F08BF012441F8044D0068016071
:100320002C490968096808C9B1E8F00F002B18BF0B
:10033000B1EC108B81F309884EF0100E002B18BF22
:100340002EF0100E82F310884EF0040E70472149F3
:100350000860EFF3148222F0040282F314881C492F
:100360004FF00000086019494FF0010008601B4879
:100370001B49D0F8002041EA0201016016484FF005
:100380008051016017480068006880F3088861B6F2
:1003900062B670471EF0040F0CBFEFF30880EFF356
:1003A000098020E9F00F40F804ED40F804ED1EF05C
:1003B000040F0CBF80F3088880F3098800B50AF0A9
:1003C000B1F95DF804EB4EF0040E70477444002060
:1003D000E8410020F041002004ED00E020ED00E0C5
:1003E0000000FFFF08ED00E070B5064600F042FB9C
:1003F000056806F10B0020F00704B4429CBF002002
:1004000070BD2B466A68BAB11068A04210D304F1DF
:10041000080188423CBF5068586007D351681019E2
:1004200041601168091B016058601460101D70BDA7
:1004300013465268002AE7D12146284600F026FBE1
:100440000028DED170BD70B50446051F00F012FB18
:100450000068002C14BF446870BD002C18BFAC426B
:100460003CBF20466468F8D301680A18AA4218BF46
:10047000456003D12A680546114401602868411986
:10048000A1421CBF6C6070BD61686960216808444E
:10049000286070BD53EA020C00F069802DE9F04B32
:1004A0004FF00006002B1FBFB3FA83F503FA05F4E3
:1004B00024FA05F65E4012BF1643B2FA82F502FA3C
:1004C00005F4C5F120051EBF22FA05FC44EA0C0420
:1004D000203556EA044C4FEA144418BF641C4FF010
:1004E00000084FF00009904271EB030C39D300294A
:1004F00019BFB1FA81F701FA07F6B0FA80F700FAEE
:1005000007F6C7F120071EBF20FA07FC46EA0C06D3
:100510002037B6FBF4FCA7EB0507103F07F01F0BD5
:10052000CBF120062CFA06F60CFA0BFB44BFB346BF
:100530000026202FA4BF5E464FF0000B5BEA060C9E
:1005400008BF4FF0010B19EB0B0948EB0608ABFB9A
:10055000027C06FB02CC0BFB03CCC01B71EB0C0135
:10056000C1E70B46024641464846BDE8F08B13B54D
:10057000084318BF4FF0FF300146AFF30080BDE8DD
:100580001C40704710B5044600F06CFA0068005D2E
:10059000C00602D504F1200010BD204610BD70B584
:1005A000044685690068C10601D5302600E0202692
:1005B000C00707D070BDD4E9012130469047206ABA
:1005C000401C20626D1EF6D570BD70B5044685696D
:1005D0000078C00707D170BDD4E9012120209047E1
:1005E000206A401C20626D1EF6D570BD2DE9F041D9
:1005F0000646002410687529314616A510D0AFF3C1
:100600000080002802DA404213A507E031688A071B
:1006100001D512A502E0490704D511A5012401E086
:10062000AFF3008000210A2206F1240709E0B0FBA5
:10063000F2FCB0FBF2F302FB1C0030307854184699
:10064000491C0028F3D123462A463046BDE8F04134
:1006500000F071BA000000002D0000002B00000027
:100660002000000070B504460D4621461068AFF327
:1006700000802188090502D50F4A7A4402E00E4A1B
:100680007A440E32002104F1240305E000F00F0645
:100690000009965D5E54491C0028F7D1207800239C
:1006A000000704D5702D02D009B102231132204673
:1006B000BDE8704000F03FBA04EA00000FB400B596
:1006C0008DB010A9099000910B904FF0FF300A9067
:1006D00000200C90064878440690064878446A4604
:1006E00007900F9909A800F093FC0DB05DF814FB7A
:1006F000570900006F0900002DE9FF5F4FF0000867
:100700009946144646469169D2E901A7DDF838B00A
:1007100001988847054659EA0B0005D009E0A16910
:100720000198761C88470546216A28468847002894
:10073000F5D1681C03D05FEACA7005D015E04FF010
:10074000FF3004B0BDE8F09F2068011D2160D0F8A3
:1007500000800AE05FEACA7001D108F8015BA16974
:10076000761C01987F1E88470546002F1ADD681CFD
:1007700018D0B9F1000F0DD0E81705EBD060421189
:1007800020F01F0059F822102A1A0120904001423F
:10079000E0D107E0BBF1000FDCD12846216A884791
:1007A0000028D7D0E16901988847BBF1000F07D135
:1007B000002E05DD5FEACA7002D1002188F8001022
:1007C000A068B84203DDBBF1000F03D017B16FF092
:1007D0000100B6E73046B4E72DE9F04791460F46F1
:1007E00080460446002614F8015B2DB100F03AF96A
:1007F0000068405DC007F6D12B2D02D02D2D18D0FA
:10080000641E4A463946204600F032FC27B139685A
:10081000A14201D1C7F800804FF0020471050BD549
:100820004042002803DD00F029F90460A007BDE87C
:10083000F08746F48066E4E70028F8DA00F01EF955
:1008400004606FF00040F2E740EA0103024630B571
:100850009B0710D14FF0013400E008C208C91D1BEE
:100860009D4315EAC41FF8D013F0FF0102F8011BE5
:100870000DD01B0AF8E711F8013B002B02F8013BF1
:1008800005D011F8013B002B02F8013BF3D130BD3C
:1008900010B5431C02E010F8011B71B18107FAD1B9
:1008A0004FF0013202C88C1A8C4314EAC211F9D0FD
:1008B000C01A0A0603D0C01E10BDC01A10BD0A041B
:1008C00001D0801E10BD0902FCD0401E10BD40EAC0
:1008D000010370B59B072ED14FF00136042A2AD3AD
:1008E00008C810C99D1B9D43121F15EAC61517D0D5
:1008F000D8B2E1B2401A50EA056110D198B2A1B263
:10090000401A50EA05410AD123F07F4024F07F418C
:10091000401A50EA052102D1180EA0EB146070BDF8
:10092000A342DBD018BA21BA884201D9012070BD98
:100930004FF0FF3070BD0AB9002070BD10F8013BC8
:1009400011F8014B63B1A3420AD1521E08D010F82E
:10095000013B11F8014B1BB1A34201D1521EEDD155
:10096000181B70BD02F0FF0343EA032242EA024271
:1009700000F002B84FF000020429C0F0128010F01D
:10098000030C00F01B80CCF1040CBCF1020F18BF6B
:1009900000F8012BA8BF20F8022BA1EB0C0100F0FE
:1009A0000DB85FEAC17C24BF00F8012B00F8012BD1
:1009B00048BF00F8012B70474FF0000200B5134606
:1009C00094469646203922BFA0E80C50A0E80C506F
:1009D000B1F12001BFF4F7AF090728BFA0E80C5020
:1009E00048BF0CC05DF804EB890028BF40F8042B19
:1009F00008BF704748BF20F8022B11F0804F18BF86
:100A000000F8012B704710B5044610F0030F08BF23
:100A100011F0030F40F015804FF0013E121FC0F29D
:100A20000E8051F8043BA3EB0E0C2CEA030C1CEADD
:100A3000CE1C08BF40F8043BF0D0A1F1040102F144
:100A40000402521E08DB11F8013B00F8013B002BA9
:100A5000F7D11146FFF78EFF204610BD7047704753
:100A60007047000010B500F057FB001D10BD00BF1F
:100A700071D900000048704770000020004870479E
:100A800068000020704770477047704738B50446CB
:100A90000A4600206946AFF30080002808BF38BD31
:100AA00002460099204600F03BFB012038BD0120A2
:100AB00000F018BEF8B5AFF30080054600200C46E4
:100AC000102000BF0646A819A0420DD9324669463B
:100AD0000020AFF30080070008BF00F003FE00987D
:100AE000A04218BF0546C419FFF7C4FF05600746BA
:100AF000F01D20F007004619284600F00AF8B4421D
:100B000008BFF8BDA21B31463868BDE8F84000F0C8
:100B100007BB00210160C0E9011070471020704739
:100B200010B5FFF7ABFF006810BD10B50446FFF726
:100B3000A5FF046010BD2DE9F0470D469946924689
:100B4000044600F124080168880604D5E06921F014
:100B50001001216000E00120A84201DD471B00E0F8
:100B60000027A1697A1902EB0900081AA061207810
:100B7000C00602D42046FFF712FD002608E0D4E9A3
:100B800001211AF806009047206A401C761C20625A
:100B90004E45F4DB2078C0060AD52046FFF7FFFC5F
:100BA00006E0D4E9012130209047206A401C2062F1
:100BB000381EA7F10107F4DC07E0D4E9012118F899
:100BC00005009047206A401C2062281EA5F10105FF
:100BD000F3DC2046FFF7F9FC2078000602D502205E
:100BE000BDE8F0870120FBE72DE9FF4F0C461E46CC
:100BF0004FF0FF378BB0D2E90001DDF860800A903A
:100C00008A46C1F30A5505B93D46002108464FF012
:100C10000000BAF1000F00F4400005DA00EB80009C
:100C20004FF4400101EA50004FEA9059B9F1010F29
:100C300000DDB9460A9850EA4A000ED044F610503A
:100C4000A5F2FF3545432F14B8F1000F1ED07542B1
:100C5000291E1EDDC9F100021CE0B8F1010F4FF0A2
:100C6000000001D0302103E0F24305E02154401C94
:100C7000B042FBDB30460022002121540B99C1F821
:100C80000880C1E900200FB0BDE8F08FBD1B6D1CCE
:100C9000DEE74A4600DA694206A800F0B1FC06AB7E
:100CA00093E8070003AB83E8070050460A990CF06D
:100CB00073F88DE80700A0F500501F3800900398E6
:100CC000002D0ADD42F21F014A460844002303A911
:100CD000039068460CF0DCFA09E0A0F500504A46A3
:100CE0001F38002303A9039068460CF0E6FA8DE84C
:100CF00007000004000C03D04FF0FF30410800E073
:100D00001046B8F1000F03D00022009215461EE0F5
:100D1000751E05D400F01EFA303262556D1EF9D5ED
:100D2000B3460122084302D000227F1C04E0207851
:100D3000302801D100227F1E002A099784D01DE0AF
:100D4000112D07DA00F006FA303262556D1C50EAB8
:100D50000102F5D1084302D00098C8B10EE000218D
:100D6000681E05E0235C625C63542254401E491CEB
:100D70008142F7DBAB46A81B401E0990002004F817
:100D80000B000B98099AC0F80880C0E9002B7AE79D
:100D900011264FF0000857E72DE9F04F884604462A
:100DA000D21D22F0070191B0D1E90001CDE90A017D
:100DB0000CF0BAFB02460B98C00F01D02D2007E0C3
:100DC0002068810701D52B2002E0202101EAC00024
:100DD000032A099001D0072A05DB03464146204635
:100DE00000F006FA0BE12078800601D5E06900E00A
:100DF0000620B8F1650F814606D0B8F1660F18D00D
:100E0000B8F1670F70D131E00020B9F1110F0090F7
:100E100001DB112301E009F101030AAA01A90CA8D1
:100E2000FFF7E2FEDDE90C70002609F101058346BB
:100E300047E001204B4600904FF000470AAA01A965
:100E40000CA8FFF7D1FEDDE90DB00C995D46002638
:100E500010B909F101000D18B9EB050003D4C0F178
:100E6000FF3609F10105A5EB09002BE0B9F1010FEF
:100E700001DA4FF001090020B9F1110F0090484646
:100E800001DD112300E003460AAA01A90CA8FFF71F
:100E9000ABFEDDE90C704D46002683462078000746
:100EA0000AD4AB4500DA5D4601A8012D04DD4119E5
:100EB00011F8011C302907D04F4502DA17F1040F51
:100EC00004DA012082460FE06D1EEEE7002F02DCFF
:100ED000ED1B3E4403E0781CA84200DD7D1CB81BDE
:100EE00000F1010A4FF000472078000703D4AA451B
:100EF00001DB4FF0FF3A0021B7F1004F0DF143083D
:100F00008DF8431024D002202B23002F01DA7F42DA
:100F10002D230A21021EA0F1010000DC5FB197FB26
:100F2000F1FC97FBF1F201FB1C7C17460CF1300C35
:100F300008F801CDEEE7A8F101000370218809054A
:100F400001D5452100E06521A0F1010800F8011C50
:100F500009980FA9A1EB0807FF1D00B10120411955
:100F600001EBEA70A1693844081A401EA06120789C
:100F7000C00602D42046FFF712FB099828B1D4E935
:100F800001219047206A401C20622078C00622D5AB
:100F90002046FFF704FB1EE0002E04DBB34502DD14
:100FA00001A8805D00E03020D4E901219047206A4B
:100FB000401C2062761CAAF101005FEA000A0AD1F7
:100FC00000F0AAF8C0680168405CD4E901219047AC
:100FD000206A401C2062281EA5F10105DCDC07E028
:100FE000D4E9012118F8010B9047206A401C2062C7
:100FF000381EA7F10107F3DC2046FFF7E6FA0320CD
:1010000011B041E602681144137801601846704738
:10101000D160054979445161044979441162002144
:101020001161114600F032B9EDFFFFFFC101000070
:10103000426842B1016811F8013B23B1521EC0E978
:101040000012184670470121C160881E704742682F
:101050005AB1C368016843B983688B4205D0491E01
:10106000521CC0E90012002070474FF0FF3070475B
:101070002DE9F05F824615468B4600270AF10104F0
:10108000B9460078302801D09DB113E014F8010B67
:101090000127782803D0582801D045B10AE00DB1C6
:1010A000102D07D1002714F8010B102502E00825A8
:1010B00000E00A250026B0460EE005FB080005FB0F
:1010C00006F101271FFA80F801EB1046B6F5803FC4
:1010D00000D3B94614F8010B294600F0C9F80028DE
:1010E000EBDABBF1000F05D00FB1641E00E05446EF
:1010F000CBF80040B9F1000F06D0FFF7BFFC02218A
:101100000160C81EBDE8F09F48EA0640FAE700000B
:1011100000487047680000200048704788000020A1
:10112000034640688C46002818BF88423CBF0346EF
:101130004068F8D318681844884207D00CF10300BF
:1011400020F00700001D411A521A0146081D0A60CE
:10115000FFF779B930B5B0F10A0271F100034FEA37
:10116000900E4EEA817EB0EB0E0061EB91014FEAEA
:10117000101E4EEA017E10EB0E0041EB11114FEAFA
:10118000102E4EEA016E10EB0E0041EB11214FEADA
:10119000104E4EEA014E10EB0E0041EB114140188B
:1011A00041F100014FEAD00040EA41704FEAD1011D
:1011B0004FEA810444EA907410EB800544EB01048B
:1011C0006D1944EB0404521BA3414FF0000348BFC8
:1011D0000A3200D530BD401C41F1000130BD10B5D0
:1011E0000446FFF73FFC0068005D00F0010010BD01
:1011F0002DE9F0411F46044603260168072A01F441
:10120000006004DB08B116A505E016A503E008B1EF
:1012100015A500E015A521F010002060A069C01EF2
:10122000A0610FB1401EA0612046FFF7B8F94FB191
:10123000D4E9012138469047206A401C2062C01C36
:10124000206206E0206AFAE7D4E9012115F8010BD3
:101250009047761EF8D22046FFF7B7F9BDE8F08137
:101260004E414E006E616E00494E4600696E66004A
:101270003A2800D2303820F02002412A01D3A2F1CE
:101280003700884201D34FF0FF3070472DE9F34F0C
:101290004FF0000A0C4656468DB001200C9001F12B
:1012A0000C000B9062690B9801219047051E2DD010
:1012B000252D2CD0216A8847C0B162690B98012185
:1012C0009047216A88470028F7D16269411E0B9830
:1012D000904700E0761CA1690D988847216A8847ED
:1012E0000028F7D1E1690D988847DBE7A1690D98DF
:1012F0008847A842074601D1761CD3E7E1690D98DB
:1013000088477F1C02D1BAF1000F6FD06BE1626990
:101310000B9800273D46394690472A2804D1626938
:101320000B98012190470125DFF8D08262690B9864
:1013300001219047A0F130010A290AD24745E5DC96
:1013400007EB870100EB4107303FDFD445F0100584
:10135000ECE7E90601D46FF000476C280AD04C286E
:1013600014D0682815D06A280DD074281CD07A288B
:101370001AD01DE062690B98012190476C2802D0B9
:1013800045F0040514E045F002050DE045F02005A8
:101390000AE062690B9801219047682802D045F065
:1013A000080505E045F4006562690B980121904746
:1013B000C4E9015765283DD019DC58287AD00CDCE7
:1013C000452837D004DC252826D041289ED131E09D
:1013D00046282FD0472899D12CE05B2877D0612868
:1013E00028D063287CD0642823D15AE0F6E06F2807
:1013F00048D008DC66281DD067281BD0692821D07A
:101400006E2816D127E0702845D0732868D075283B
:1014100047D078280DD14DE0A1690D98884725283F
:1014200005463FF469AFE1690D9888476D1C3FF4AC
:101430006AAFD8E00D9923466A466FF00100AFF31A
:101440000080C5E045F0400023464FF00002606098
:10145000A80736D43EE0E8077FF447AF2068011DB7
:1014600021600068290501D506701BE7290701D511
:10147000068017E7A90703D5F117C0E9006111E756
:1014800006600FE745F0400023464FF00802606019
:10149000A80716D41EE040F60E0125EA01006060A0
:1014A00016E045F0400023464FF00A026060A807AE
:1014B00007D40FE045F040006060A80708D5234638
:1014C00010220D996FF00100AFF3008080E007E07B
:1014D000102223460D996FF00100AFF3008077E0F2
:1014E0004FF0000963284F46C8464B46CB4602D012
:1014F0005B2806D038E0E80601D40120A06001276F
:1015000032E06269D4F80CB00B98012190475E2854
:1015100007D14FF0010949466269D4F80CB00B9825
:101520009047216939B900210A4603AB43F82120CD
:10153000491C0829FADBD8B3216949B308F101082D
:1015400062690B98012190475D28F4D1B9F1000F31
:1015500009D0002003A951F82020D24341F82020CF
:10156000401C0828F7DB03AB2069002820794FEAEC
:1015700040701ED05B462246CDF80080CDE9019731
:101580000D9900286FF0010020DAAFF300801FE012
:10159000C11703AA00EBD1614B1121F01F0102EB2F
:1015A0008302411A13680120884003431360C7E790
:1015B00019E00D99224600286FF00100009702DA29
:1015C000AFF3008004E0FFF797F801E0AFF300808D
:1015D00000280ADA401C06D10C9820B14FF0FF30E9
:1015E0000FB0BDE8F08F5046FAE7E90701D10AF1E4
:1015F000010A064400200C9054E60000CCCCCC0C30
:101600002DE9F047814616468AB0354878440DC822
:101610008DE80D0032487844801C03AC0DC884E886
:101620000D0041F69B300844372190FBF1F290FB0E
:10163000F1F5A5F1800501FB12041B3C02D56442C3
:10164000012000E00020DFF898A080460027FA443F
:10165000AAF1BE0A0EE0E0070AD03246684607EB60
:10166000470101230AEB81010BF027FE8DE80700FB
:1016700064107F1C002CEED1194F7F44AE3F19E05F
:10168000E80715D007EB04100DF1180A90E80E00DA
:101690008AE80E00C068F04201D1981908903246DD
:1016A000012306A903A80BF008FE03AB83E807009B
:1016B0006D10641C002DE3D14FF0010332466946E2
:1016C000B8F1000F03A802D00BF0E2FD01E00BF02F
:1016D000F4FDC9E90001C9F808200AB0BDE8F087A7
:1016E000ACDB000010B500F039F8BDE8104000F0A8
:1016F0002FB870477546FFF70BFDAE4605006946EB
:10170000534620F00700854618B020B5FEF7C0FD0F
:10171000BDE820404FF000064FF000074FF00008F2
:101720004FF0000BAC46ACE8C009ACE8C009ACE82F
:10173000C009ACE8C00921F007018D46704710B51B
:101740000446AFF300802046BDE81040FEF78BBD95
:10175000002801D000F06AB87047000010B50128D9
:1017600005D0002103A000F067F8012010BD09A1F9
:10177000F8E7000053494752544D454D3A204F7504
:1017800074206F662068656170206D656D6F727979
:10179000000000003A2048656170206D656D6F7231
:1017A0007920636F727275707465640000000000C8
:1017B00030B44FF0013C50F8042B51F8043BCCFA04
:1017C00052F4D51A20D1FCB950F8042B51F8043B3F
:1017D000CCFA52F4D51A17D1B4B950F8042B51F8F9
:1017E000043BCCFA52F4D51A0ED16CB950F8042B44
:1017F00051F8043BCCFA52F4D51A05D1002CDAD0BA
:1018000030BC4FF00000704729BAB1FA81F111F0F5
:101810001801D1F120008440F2D1CA40CB4012F02F
:10182000FF0213F0FF0330BCD01A704701491820A3
:10183000ABBEFEE72600020070B505460C460A2046
:1018400000E06D1C00F011F835B128780028F8D1BF
:1018500002E0641C00F009F814B120780028F8D1E7
:10186000BDE870400A20AFF3008008B569468DF8E6
:1018700000000320ABBE08BD80B582B0FEF71AFDA4
:1018800008F0ECFE09F0A2FD09F066FF09F0B6FED3
:101890000A2000904FF6F01047F669714FF0140CD3
:1018A000C0F60000C0F6000100224FF48063CDF8BE
:1018B00004C009F05BFF0AF0EDF809F055FF0AF0EB
:1018C0000BF809F031FF002002B080BDFEE70000F8
:1018D00040F20C30C2F2000000F0FAB840F26C3076
:1018E000C2F2000000F0F4B840F2CC30C2F20000C6
:1018F00000F0EEB87047000072B600BFFEE70000CF
:10190000F0B581B040F2C457044643F60C46C2F22B
:1019100000070020C4F20206F86100F011FD3168F2
:10192000C9031DD43068C0071CBF01203060306877
:1019300010F4F97F30D03068C00635D430688006A6
:101940003BD43068400641D43068000647D4306844
:10195000C0054DD43068800754D4012001B0F0BDDB
:10196000F4B10546601C0DD13068C003DAD530688B
:10197000C00344BF30685FEAC030D3D53068C003CD
:10198000F2D4CFE700F0DCFC401BA04208D830685E
:10199000C003F7D4C6E700BF002001B0F0BD00BF10
:1019A000032001B0F0BD00BFF86940F01000F861FD
:1019B0001020306030688006C3D5F86940F0080018
:1019C000F8612020306030684006BDD5F86940F0ED
:1019D0000400F8614020306030680006B7D5F8692F
:1019E00040F00200F861802030603068C005B1D559
:1019F000F86940F00100F8614FF4807030603068A1
:101A00008007AAD5F86940F02000F8610220306014
:101A1000012001B0F0BD000070B5866D044600F0F5
:101A20008FFC94F8351002292ED105462068216CD0
:101A3000026822F016020260426922F080024261CE
:101A400009B9A16C19B1016821F0080101600168B0
:101A500021F0010101600068C00708D000F070FCAF
:101A6000401B052818D820680068C007F6D1E06D33
:101A70003F2101FA00F0B060012084F83500002019
:101A8000002184F8341070BD8020606501200021A1
:101A900084F8341070BD00BF20206065032084F8F6
:101AA0003500002184F8341070BD000090F8351026
:101AB000022909D1052180F835100068016821F05C
:101AC00001010160002070478021416501207047BD
:101AD000F0B581B004460020009040F21000C2F240
:101AE00000000268D4E9166048F2B513376808218F
:101AF000C1F64E3381403942A2FB03250CD0226847
:101B000013685B0708D5136823F004031360B16002
:101B1000616D41F00101616501218140394208D0C8
:101B200022685269120604D5B160616D41F002016C
:101B3000616504218140394208D022681268920709
:101B400004D5B160616D41F00401616510218140EF
:101B5000394217D020680268120713D5B1600268B5
:101B60000168520308D4C90508D4016821F00801AE
:101B70000160216C21B905E008033FD4216C09B153
:101B800020468847E16D202000FA01F23A4241D018
:101B900020680368DB063DD5B26094F835300268F2
:101BA000052B1BD122F016020260426922F080024E
:101BB0004261226C0AB9A26C1AB1026822F00802D2
:101BC00002603F208840B060012084F83500216D1C
:101BD0000020002984F8340052D157E001685203F4
:101BE00010D4C90512D4016821F010010160012050
:101BF00084F83500002084F8340007E0A16C002947
:101C0000BED1BFE7080301D4616C00E0E16B09B10C
:101C100020468847606DC8B3606DC0072ED0052090
:101C200084F835002068A90A026822F001020260E7
:101C3000009A01328A4200921AD80268D20717D05D
:101C4000009A01328A42009212D80268D2070FD05D
:101C5000009A01328A4200920AD80268D20707D05D
:101C6000009A01328A42009202D80268D207DFD17C
:101C7000012084F83500002084F83400E16C29B19B
:101C8000204601B0BDE8F040084700BF01B0F0BDFC
:101C90002DE9F041044600F053FB002C4ED00546E0
:101CA000022084F835000020216884F83400086898
:101CB00020F0010008600868C00708D000F040FB71
:101CC000401B05286CD821680868C007F6D1086851
:101CD00048F23F02CFF21002D4E90135024004F18C
:101CE0000C0E9EE8C1511A432A4310433043384337
:101CF00040EA0800626A40EA0C00042A40EA0E0347
:101D000020D1D4E90A5E206B4EEA0302104308603A
:101D10004869BEF1000F20F0030040EA050040F0E2
:101D2000040C15D0B8F5005F42D0B8F1000F51D1C6
:101D3000022D52D0012D47D055B94EE00120BDE80B
:101D4000F08100BF0B60486920F0070040EA020CF8
:101D50006FF00F004AF6AB2250FA81F0CAF6AA22C1
:101D6000A0FB02231A094FF20473C0F600039A5C29
:101D700040F2FF335F284FF03F00C1F814C021EA62
:101D8000030100FA02F088BF0431C4E9161288602A
:101D9000002301220020636584F83520BDE8F0812E
:101DA000032220230320636584F83520BDE8F081F9
:101DB000032DCDD8012240230120DFE805F0030EDA
:101DC000030500BFE7E700BFAEF1C070B0FA80F0D6
:101DD000400904E0032D04D3BAD1CEF300600028FB
:101DE000B6D0012240230120636584F83520BDE888
:101DF000F081000070B590F834C0BCF1010F46D0FE
:101E00004FF0010C80F834C0D0F858E090F835C09D
:101E1000BCF1010F38D14FF0020C80F835C04FF003
:101E2000000CC0F854C0D0F800C08468056CC06DC8
:101E3000DCF80060402C26F48026CCF80060CCF85A
:101E400004300B4604BF13460A463F2101FA00F056
:101E5000CCF80830CCF80C20CEF80800DCF80000F4
:101E600040F01600CCF800002DB1DCF8000040F086
:101E70000800CCF80000DCF8000040F00100CCF8CD
:101E80000000002070BD00BF002180F83410022047
:101E900070BD00002DE9F04381B040F2C458C2F299
:101EA000000898F81820012A04D1022001B0BDE8EA
:101EB000F08300BF0546012088F818004CF250302E
:101EC0008946FFF71DFD28B1002188F8181001B0E0
:101ED000BDE8F0834FF0FF30C9F80000286843F6F2
:101EE00010470128C4F202071CD128693968000292
:101EF00021F440713960396880B241F004013960E1
:101F00003968084340F4803038604CF25030FFF7B5
:101F1000F7FC396821F00401396057F8101C890575
:101F20003BD452E0D5E902603044864230D2F00022
:101F3000841C00BF28694FF44072C1B2032939687C
:101F40004FEA002021F440713960396838BF82B20D
:101F500041EA02003860386820F0F80038603868DC
:101F600020433860386840F4803038604CF250309C
:101F7000FFF7C6FC3968002821F0FA01396047D123
:101F8000D5E9020101360844864204F10804D1D3A0
:101F9000002057F8101C890517D557F8101C21F49C
:101FA000007147F8101C57F8101C41F4006147F805
:101FB000101C57F8101C21F4006147F8101C57F84A
:101FC000101C41F4007147F8101C57F8101C49050B
:101FD0007FF57AAF57F8101C21F4806147F8101C88
:101FE00057F8101C41F4805147F8101C57F8101C8A
:101FF00021F4805147F8101C57F8101C41F48061FF
:1020000047F8101C002188F8181001B0BDE8F083D3
:10201000C9F8006057F8101C8905BED4D5E7000048
:1020200043F61041C4F20201086840F0004200206B
:102030000A6070472DE9F04381B040F2C454C2F207
:1020400000049046227E012A04D1022001B0BDE89E
:10205000F08300BF0746012020764CF250301E4628
:102060000D46FFF74DFC28B10021217601B0BDE8F7
:10207000F08300BF43F61049022FC4F2020917D0C3
:10208000012F2BD0002F3FD1D9F8000020F4407051
:10209000C9F80000D9F80000C9F80000D9F800001C
:1020A00040F00100C9F8000085F8008043E000BF5F
:1020B000D9F8000020F44070C9F80000D9F80000F9
:1020C00040F40070C9F80000D9F8000040F00100A9
:1020D000C9F80000C5F800802DE000BFD9F8000065
:1020E00020F44070C9F80000D9F8000040F4807076
:1020F000C9F80000D9F8000040F00100C9F800005C
:10210000A5F8008017E000BFD9F8000020F4407067
:10211000C9F80000D9F8000040F44070C9F8000088
:10212000D9F8000040F00100C9F80000C5F80080AF
:10213000BFF36F8F6E604CF25030FFF7E1FBD9F8C0
:10214000001021F00101C9F800100021217601B032
:10215000BDE8F08343F60440C4F20200C168B1F167
:10216000FF3FC4BF0020704740F22311C4F2675103
:10217000016048F6AB11CCF6EF510160C068C00FAA
:10218000704700002DE9F04F82B000F13E4241F26D
:10219000000502F1FF77C4F2020507224FEAB726D5
:1021A000A84208BF0422042E38BF4FEAB7224FF0DE
:1021B000010A002400274FF00008009208E000BF49
:1021C000023708F10108202F04F1040400F0B48064
:1021D0000E680AFA08F916EA090FF1D0D1F804A03E
:1021E0000AF0030BABF10106012E17D80322866813
:1021F00002FA07FECA6826EA0E06BA403243826037
:102200004268CAF3001522EA090205FA08F54FEA06
:10221000480C6FEA0E062A4342600BE00322BA40E4
:10222000D643BBF1030FBC4604D1BC464FF0030BB1
:1022300022E000BFC2688D68324005FA0CF52A43DF
:10224000BBF1020FC26017D16FF0030202EA58021D
:10225000024404F01C030F25D2F820E005FA03FA2B
:102260000D692EEA0A0E05FA03F343EA0E03136220
:10227000D1F804A00AF0030B02680BFA0CF3324009
:102280001A431AF4403F4FF0010A026098D000222E
:1022900043F644030192C4F202031A6843F6004E67
:1022A00042F480421A601A68C4F2010E02F48042BD
:1022B0000192019A28F003024FF6084C7244CFF6BF
:1022C000FF7C52F80C3004F00C060F25B540AB43F0
:1022D000009D05FA06F6334342F80C30DEF808207C
:1022E0004B6842EA090643F60C4CDD0258BF22EA6D
:1022F0000906CEF80860C4F2010CDCF800209D024B
:1023000042EA090658BF22EA0906CCF80060DEF866
:1023100004209D0342EA090658BF22EA0906CEF8C6
:102320000460DEF80020DB0342EA090658BF22EA17
:102330000906CEF8006043E702B0BDE8F08F000068
:1023400046F6B050C2F200000068704740F200004C
:1023500046F6B051C2F20000C2F2000100780A68ED
:10236000104408607047000080B543F60040C4F296
:102370000200016841F400710160016841F480616C
:102380000160016841F480710160032000F0BEF833
:102390000F2000F005F800F061F8002080BD00007B
:1023A00070B586B0002543F640010195C4F20201E4
:1023B0000A68044642F002020A60096801A801F0B6
:1023C000020101910199694600F060F9049E002E16
:1023D00018BF012600F080F94DF68361B040C4F2C9
:1023E0001B31A0FB01014FF0FF3000EB914140F2A7
:1023F000744040F20042C2F20000C4F2000240F217
:10240000E733C0E90021C0E902530561856100F0AE
:1024100005FC054610B1284606B070BD40F2744078
:10242000C2F2000000F02AFC05460028F3D11D206E
:1024300000F030F80F2C0DD81D2021460022002579
:1024400000F038F840F20400C2F2000004602846B0
:1024500006B070BD0125284606B070BD82B00020D0
:1024600043F640010190C4F202014A6842F48042FE
:102470004A604A6802F480420192019A009008681A
:1024800040F080500860086800F08050009000988C
:1024900002B07047002848BF704700F01F010122BA
:1024A00002FA01F14EF200124009CEF2000242F8A7
:1024B0002010704710B54EF60C5CCEF2000CDCF824
:1024C0000030C3F3022E8EF00704042C28BF04242E
:1024D000BEF103034FF0FF3E0EFA04F438BF0023B1
:1024E000A14399400EFA03F39A43114300F00F02FF
:1024F000043A624409010C3200F16043B0F1FF3F3D
:10250000C8BF03F56442117010BD00004EF60C51B7
:10251000CEF200010A684FF6FF031A4060F30A2268
:1025200042F0806040F0FD70086070472DE9F04196
:10253000002800F08B8043F60808C4F20208044625
:10254000D8F8F8030D4600F00700884207D288F853
:10255000F853D8F8F80300F00700A84276D12068B5
:10256000810717D5410705D5D8F8001041F4E0518F
:10257000C8F80010010705D5D8F8001041F46041F3
:10258000C8F80010D8F80010A26821F0F00111433B
:10259000C8F80010C0073FD1D8F8F80300F00700D2
:1025A000A84207D988F8F853D8F8F80300F00700D4
:1025B000A8424BD12068410707D5D8F80010E2683F
:1025C00021F4E0511143C8F80010000708D5D8F8ED
:1025D0000000216920F4604040EAC100C8F8000012
:1025E00000F0A2F8D8F800104FF2EC12C1F303117A
:1025F000C0F60002515C40F2100220FA01F140F2F4
:102600000400C2F200000068C2F200021160FFF78D
:10261000C7FE0020BDE8F0816068811E022907D254
:1026200058F8081C89015CBF0120BDE8F08111E069
:10263000012807D158F8081C89035CBF0120BDE8B8
:10264000F08107E058F8081C890703D40120BDE891
:10265000F08100BFD8F8001021F003010843C8F84A
:102660000000FFF76DFE064641F28837D8F80000FB
:10267000616800F00C00B0EB810F8DD0FFF760FEB9
:10268000801BB842F2D90320BDE8F0810F2202601E
:1026900043F60802C4F20202136803F00303436026
:1026A000136803F0F0038360136803F4E053C3601E
:1026B000D2F800C04FF4E05303EADC030361D2F820
:1026C000F80300F0070008607047000040F21000B7
:1026D000C2F200000068704740F2100043F60801A3
:1026E000C2F20000C4F20201006809684FF2FC1255
:1026F000C1F38221C0F60002515CC840704700005F
:1027000040F2100043F60801C2F20000C4F20201D8
:10271000006809684FF2FC12C1F34231C0F60002B2
:10272000515CC8407047000010B543F60404C4F281
:102730000204606800F00C0142F200400829C0F277
:10274000F40007D0042918BF10BD41F20020C0F2E8
:102750007A0010BD216801F03F0221682368490218
:10276000C3F3881106D4A1FB00010023FDF792FEFC
:1027700007E000BF41F20020C0F27A004843B0FBFE
:10278000F2F021680222C1F3014102EB4101B0FBEA
:10279000F1F010BD2DE9F04182B000286AD0044666
:1027A000007843F60006C007C4F202060BD0B068FA
:1027B00000F00C00042840F0A1803068800302D5AE
:1027C0006068002856D0207880071AD5B06810F0CD
:1027D0000C0F09D0B06800F00C00082840F0A88069
:1027E0007068400200F1A4803068800702D5E0687C
:1027F00001283FD13068216920F0F80040EAC1008B
:1028000030602078000739D4207840074ED4A5697D
:102810005DB3B06800F00C00082840F0BD80012DC9
:1028200028D07068E16900F480028A4222D1216ACE
:1028300000F03F028A421DD147F6C071626A014032
:10284000B1EB821F16D1A26A0023CFF6FF7303EB10
:10285000C23200F440316FF30F0291420AD1E16AB3
:1028600000F07060B0EB016F04D1002002B0BDE851
:10287000F08100BF012002B0BDE8F081606900284E
:1028800040F20000C4F2472076D00121C0F8801E3B
:10289000FFF756FD054600BF706F8007B4D4FFF701
:1028A0004FFD401B0228F7D9DDE000BF306C10F06F
:1028B00080580AD100200190306C40F08050306484
:1028C000306C00F080500190019847F20007C4F28C
:1028D00000073868C00541D4386840F4807038601B
:1028E000FFF72EFD054600BF3868C00536D4FFF758
:1028F00027FD401B0228F7D9B5E000BFB06800F003
:102900000C00082803D1706840023FF556AF60689C
:10291000B0F5803F07D0B0F5A02F40F08D80306833
:1029200040F480203060306840F4803030608DE0CA
:10293000E068002852D00020C4F247200121016045
:10294000FFF7FEFC054600BF306880073FF552AF39
:10295000FFF7F6FC401B0228F6D984E0A0680128A6
:1029600005D005284ED1306F40F004003067306F3D
:1029700040F0010030674FE00021C0F8801EFFF7F3
:10298000DFFC0546706F80077FF53EAFFFF7D8FC90
:10299000401B0228F6D966E00027C4F24727002032
:1029A0003866FFF7CDFC022D05460BD1306880015B
:1029B0005ED5FFF7C5FC401B02284FF00300F5D998
:1029C00054E700BF306880017FF54FAFFFF7B8FCD8
:1029D000401B02284FF00300F4D947E70020C4F25F
:1029E000472000210160FFF7ABFC054630688007F7
:1029F0007FF507AFFFF7A4FC401B02284FF0030050
:102A0000F4D933E7316F002821F001013167316FCC
:102A100021F0040131674DD0FFF792FC054641F2E9
:102A2000883700BF306F800756D4FFF789FC401B02
:102A3000B842F7D917E000BF3168002821F480318F
:102A40003160316821F4802131604FD0FFF778FC8C
:102A5000054600BF306880033FF5B5AEFFF770FC58
:102A6000401B6428F6D9032002B0BDE8F08100BF06
:102A700004F11C052FCD08430021CFF6FF7140EA79
:102A8000821001EBC3316FF30F0140EA0560084388
:102A9000706001203866FFF753FC044630688001FF
:102AA0003FF5E3AEFFF74CFC001B02284FF003009C
:102AB000F4D9DBE6FFF744FC054641F2883700BF56
:102AC000306F800708D5FFF73BFC401BB8424FF042
:102AD0000300F5D9CAE600BFB8F1000F7FF497AE46
:102AE000306C20F08050306491E600BFFFF728FC86
:102AF000054600BF306880037FF565AEFFF720FC18
:102B0000401B64284FF00300F4D9AFE6411E0020BB
:102B1000B0EB116F1CBF012070474EF21002CEF2D5
:102B2000000251604EF62351CEF20001F0230B70EB
:102B300007219060116070477047000070470000E7
:102B4000B0B590F83C20012A04BF0220B0BD01F1CD
:102B500008053CCDD1E900CE23F47C5322F4705219
:102B60001A432EF4F0431A432CF4E0431A4324F49E
:102B7000C0431A432A43C96922F4804203681143BF
:102B80005964002180F83C100846B0BD10B590F89B
:102B90003C20012A4FF002023ED080F83D2002681E
:102BA000D2F804E0D2F808C00C682EF0700323437A
:102BB00040F6FF34C4F20004A242536010DCB2F1CC
:102BC000804F1ED040F20043C4F200039A4218D056
:102BD00040F60003C4F200039A4212D016E000BF90
:102BE00040F60043C4F200039A420AD044F20003C4
:102BF000C4F201039A4204D00023C4F201039A42B2
:102C000004D149682CF0800319439160012100220E
:102C100080F83D1080F83C20104610BD002804BF0D
:102C20000120704710B5044690F83D0028B90020F7
:102C300084F83C00204600F01FF8022084F83D0094
:102C40002068211D01F004FC012084F8460084F86E
:102C50003E0084F83F0084F8400084F8410084F886
:102C6000420084F8430084F8440084F8450084F866
:102C70003D00002010BD00007047000090F83D109E
:102C800001291CBF01207047022180F83D10006817
:102C900040F6FF32C168C4F20002904241F00101E7
:102CA000C1600FDCB0F1804F1DD040F20041C4F292
:102CB0000001884217D040F60001C4F200018842AA
:102CC00011D017E040F60041C4F2000188420AD05A
:102CD00044F20001C4F20101884204D00021C4F290
:102CE0000101884206D1816801F00701062904BF6D
:102CF00000207047016841F0010101600020704729
:102D0000704700007047000070B504460068C56851
:102D10000669B10716D515F0020113D06FF0020154
:102D20000161012121778069800703D02046FFF7E8
:102D3000E9FF05E0204600F08FF8204600F046FA53
:102D400000202077700719D515F0040016D02068F0
:102D50006FF00401016102212177806910F4407F46
:102D600004D02046FFF7CEFF06E000BF204600F06B
:102D700073F8204600F02AFA00202077300717D594
:102D800015F0080014D020686FF0080101610421DB
:102D90002177C069800703D02046FFF7B3FF05E025
:102DA000204600F059F8204600F010FA0020207765
:102DB000F00619D515F0100016D020686FF010013C
:102DC000016108212177C06910F4407F04D02046BA
:102DD000FFF798FF06E000BF204600F03DF82046D0
:102DE00000F0F4F900202077F00718BF15F001007B
:102DF00002D1300609D412E020686FF001010161B0
:102E0000204600F099FB300609D515F0800006D069
:102E100020686FF0800101612046FFF78DFE70068B
:102E200009D515F0400006D020686FF0400101611F
:102E3000204600F08BFBB00658BF70BD15F0200097
:102E400008D021686FF0200220460A61BDE870407A
:102E5000FFF774BE70BD0000704700002DE9F0431D
:102E600090F83C30012B04BF0220BDE8F0834FEA0C
:102E7000B202032A3AD8DFE802F003417DB700BF6F
:102E8000036800261D6A1A6AC4F2010622F00102D4
:102E90001A621A465C6852F818CFB3428E68D1F8AD
:102EA00000E025F0020545EA06050CD1CE68D1E91F
:102EB000057824F4407425F00C0526F004063C4304
:102EC000354344EA08042CF0730747EA0E075C60B8
:102ED0009F614F6809695F631D629F6947F008073A
:102EE0009F619F6927F004079F61ACE001210022E8
:102EF00080F83C200846BDE8F08300BF0368002648
:102F00001D6A1A6AC4F2010622F010021A621A46F9
:102F1000D3F804C052F8184FB3428E68D1F800E0DD
:102F200025F0200545EA06150FD1CE68D1E90598B0
:102F30006FF0400707EA06162CF4406725F0C0053D
:102F400047EA8907354347EA880C24F4E64444EA13
:102F50000E27C3F804C09F614F6809699F631D6213
:102F60009F6947F400679F619F6927F480679F61AD
:102F700068E000BF036800261D6A1A6AC4F20106F1
:102F800022F480721A621A46D3F804C052F81CEF79
:102F9000B3428E680C6825F4007545EA06250FD10A
:102FA000CE68D1E90598360240F2FF47BE432CF4C3
:102FB000405725F4406547EA0917354347EA081C9E
:102FC0002EF073072743C3F804C0DF614F68096917
:102FD000DF631D62DF6947F00807DF61DF6927F003
:102FE0000407DF612FE000BF03680027D3F820C08B
:102FF0001A6AC4F2010722F480521A621A465C6807
:1030000052F81C5FD1F800E08E68BB4204D14F69D2
:1030100024F4804444EA87142CF4005747EA063726
:1030200025F4E64646EA0E265C60DE614E680969D4
:103030001E641F62DF6947F40067DF61DF6927F400
:103040008067DF61090213681943116000210022C3
:1030500080F83C200846BDE8F0830000002804BF4B
:103060000120704710B5044690F83D0028B90020B3
:1030700084F83C00204600F01FF8022084F83D0050
:103080002068211D01F0E4F9012084F8460084F84D
:103090003E0084F83F0084F8400084F8410084F842
:1030A000420084F8430084F8440084F8450084F822
:1030B0003D00002010BD00002DE9F04F81B0044616
:1030C00000680021C4F20101884203D001B0BDE8CC
:1030D000F08F00BF002743F644000097C4F20200BF
:1030E000016840F20C3541F001010160006846F2D0
:1030F000284100F001000090C4F202010098C2F2E1
:1031000000054FF040684FF48060C5E9001805F1F4
:10311000100140264FF400694FF4005A4FF4807BB1
:1031200081E8010E2846C5E90267C5E90877FEF780
:10313000AFFD002818BFFEF7DFFB46F228406562AE
:10314000AC63C4F2020040F26C351830C2F20005E4
:10315000C5E900084FF4806005F1100181E8010E17
:103160002846C5E90267C5E90877FEF791FD002802
:1031700018BFFEF7C1FB46F22840A562AC63C4F25B
:10318000020040F2CC357830C2F200054FF04061C9
:10319000402200234FF480674FF4006685E88F00DB
:1031A00005F114004FF4005C4FF4807E80E840503D
:1031B0002846C5E90833FEF76BFD002818BFFEF767
:1031C0009BFBE562AC6301B0BDE8F08F40F24C11AF
:1031D000C2F2000149684A68824218BF7047896894
:1031E00000F030B970470000B0B50C46054649B153
:1031F000082C15D0042C14BF05F1410005F13F0047
:1032000010E000BF95F83E00022804BF0220B0BDC8
:1032100005F13E000078012840F0C4801AE000BFAC
:1032200005F140000078022804BF0220B0BD082C40
:103230000AD0042C14BF05F1410005F13F000078CD
:10324000012840F0AF8005E005F14000007801283A
:1032500040F0A880002A4FF0010018BF002B01D1D8
:10326000B0BD00BF02206CB1082C13D0042C14BFD9
:1032700085F8410085F83F004FEAB400032810D9D3
:1032800090E000BF85F83E004FEAB400032808D95B
:1032900088E000BF85F840004FEAB400032800F240
:1032A0008180DFE800F00323436300BF686A44F2D3
:1032B0005151C0F60001C163686A44F2BD51C0F6C5
:1032C00000010164686A44F2F551D5F800C0C0F607
:1032D0000001C164686A0CF1340C11466246FEF7C5
:1032E00089FD00285ED14FF400715FE0A86A44F2C6
:1032F0005151C0F60001C163A86A44F2BD51C0F645
:1033000000010164A86A44F2F551D5F800C0C0F686
:103310000001C164A86A0CF1380C11466246FEF740
:1033200069FD00283ED14FF480613FE0E86A44F235
:103330005151C0F60001C163E86A44F2BD51C0F6C4
:1033400000010164E86A44F2F551D5F800C0C0F606
:103350000001C164E86A0CF13C0C11466246FEF7BC
:1033600049FDF8B94FF4006120E000BF286B44F23A
:103370005151C0F60001C163286B44F2BD51C0F643
:1033800000010164286B44F2F551D5F800C0C0F685
:103390000001C164286B0CF1400C11466246FEF737
:1033A00029FD08B10120B0BD4FF480512868C268E2
:1033B0001143C16004F01F010122036A8A4023EA1D
:1033C00002010162036A4421C4F201011A43A1F11E
:1033D00044039842026203D10A6842F400420A6040
:1033E00040F6FF31C4F2000188420DDCB0F1804F9D
:1033F0001BD040F20041C4F20001884215D040F6D3
:103400000001C4F200010EE040F60041C4F20001E8
:1034100088420AD044F20001C4F20101884204D07B
:103420000021C4F20101884206D1816801F0070140
:10343000062904BF0020B0BD016841F00101016010
:103440000020B0BD70B50D464FEAB10103290DD87B
:103450000446DFE801F0030D151D00BF204650F8BB
:10346000241BCA6822F4007218E000BF012070BD5E
:10347000204650F8281BCA6822F480620EE000BF84
:10348000204650F82C1BCA6822F4006206E000BFF8
:10349000204650F8301BCA6822F48052CA60006887
:1034A0004426C4F20106FEF701FB206805F01F0167
:1034B0000122036A02FA01F123EA01010162016AB1
:1034C000A6F14402904201620ED156F8241C41F24A
:1034D0001112114208D1016A40F24442114203D153
:1034E000316821F400413160016A41F21112114248
:1034F00004D1016A40F24442114211D00120082D4A
:1035000015D0042D08D0002D14BF84F8410084F894
:103510003E00002070BD00BF84F83F00002070BD59
:10352000016821F0010101600120082DE9D184F832
:103530004000002070BD0000006840F20041C4F26D
:103540000001884208BFFEF701BF704770470000C6
:103550007047000070470000B0B582B004460068B4
:103560000168C368426901F02F05202D03F0200592
:1035700006D12DB1204602B0BDE8B04001F070B8D0
:103580005FEA017C1EBF02F0010E03F4907212EBA1
:103590000E0255D1226B012A05D111F0100218BF7D
:1035A00013F0100236D10A0622D513F080021FD084
:1035B00094F84110212941D1A168B1F5805F03D170
:1035C0002169002900F07282216A4A1C226209786E
:1035D0004160E18C01390A04E1842FD1C16821F0F6
:1035E0008001C160C16841F04001C16002B0B0BD5E
:1035F000490623D513F0400120D0C16821F04001D5
:10360000C1602021204684F8411002B0BDE8B040DE
:1036100000F0D8BB0021019101680191416801913E
:1036200001994169490600F18F80A18DE28DE38DFA
:10363000002B1CBF891A5FEA01420CD102B0B0BD59
:10364000CA0718BF13F4807240F038814A0700F1AE
:103650003B8140E1206850E8030F226820F490701D
:1036600042E80303DBB1206850E8030F226820F42E
:10367000907042E8030393B1206850E8030F22687A
:1036800020F4907042E803034BB1206850E8030F28
:10369000226820F4907042E80303002BDAD12068FE
:1036A00050E8050F226820F0010042E80503DBB175
:1036B000206850E8050F226820F0010042E8050369
:1036C00093B1206850E8050F226820F0010042E81D
:1036D00005034BB1206850E8050F226820F0010077
:1036E00042E80503002BDAD1202084F842000020B4
:1036F0002063206850E8030F226820F0100042E8A1
:103700000303DBB1206850E8030F226820F01000AB
:1037100042E8030393B1206850E8030F226820F0C9
:10372000100042E803034BB1206850E8030F226801
:1037300020F0100042E80303002BDAD1022289B204
:1037400020466263B4E000BFE16B0A68526893B23E
:10375000002B3FF473AFA58DAB42BFF46FAFE28592
:10376000C969B1F5807F00F09C8050E8030F2168A3
:1037700020F4807041E80302E2B1206850E8030FB2
:10378000216820F4807041E803029AB1206850E873
:10379000030F216820F4807041E8030252B12068D1
:1037A00050E8030F216820F4807041E803020AB159
:1037B0002068DAE7206850E8050F216820F0010052
:1037C00041E80502DAB1206850E8050F216820F0D1
:1037D000010041E8050292B1206850E8050F216818
:1037E00020F0010041E805024AB1206850E8050FC9
:1037F000216820F0010041E80502002ADAD12068A2
:1038000050E8050F216820F0400041E80502DAB1D8
:10381000206850E8050F216820F0400041E80502CB
:1038200092B1206850E8050F216820F0400041E87F
:1038300005024AB1206850E8050F216820F04000D9
:1038400041E80502002ADAD1202084F84200002055
:103850002063206850E8030F216820F0100041E841
:103860000302DAB1206850E8030F216820F010004D
:1038700041E8030292B1206850E8030F216820F06C
:10388000100041E803024AB1206850E8030F2168A4
:1038900020F0100041E80302002ADAD1E06BFEF7C5
:1038A000BBF802206063A08DE18D401A81B22046F2
:1038B00002B0BDE8B040FFF74BBE00BF626C42F003
:1038C000010262644A0706D5BEF1000F03D0626CA4
:1038D00042F0020262648A0706D5BEF1000F03D0EF
:1038E000626C42F004026264BCF1000F06D555EA36
:1038F0000E0203D0626C42F008026264626C002A1D
:103900003FF49CAE11F0200118BF002D03D02046DB
:1039100000F0A6FE20684169626C01F0400102F0EF
:103920000802891800F0A28050E8030F216820F4F3
:10393000907041E80302C2B3206850E8030F216889
:1039400020F4907041E803027AB3206850E8030F36
:10395000216820F4907041E8030232B3206850E8F7
:10396000030F216820F4907041E80302EAB1206857
:10397000DAE700BF206850E8050F216820F0010059
:1039800041E80502DAB1206850E8050F216820F00F
:10399000010041E8050292B1206850E8050F216856
:1039A00020F0010041E805024AB1206850E8050F07
:1039B000216820F0010041E80502002ADAD1206BDD
:1039C000012824D1206850E8030F216820F010005E
:1039D00041E80302DAB1206850E8030F216820F0C3
:1039E000100041E8030292B1206850E8030F2168FB
:1039F00020F0100041E803024AB1206850E8030FAC
:103A0000216820F0100041E80302002ADAD12020CA
:103A100084F84200002020632068416949063FD5B0
:103A200050E8050F216820F0400041E805022AB364
:103A3000206850E8050F216820F0400041E80502A9
:103A4000E2B1206850E8050F216820F0400041E80D
:103A500005029AB1206850E8050F216820F0400067
:103A600041E8050252B12068DAE700BF2046FFF7BF
:103A700071FD0020606402B0B0BD00BFE06B78B1A2
:103A800044F25561C0F600010165FEF70FF8002809
:103A90003FF4D4ADE06B016D02B0BDE8B040084723
:103AA000204602B0BDE8B040FFF754BD216A31F8AE
:103AB000022B6FF35F22426021628AE5002804BF77
:103AC0000120704710B5044690F8410028B9002045
:103AD00084F84000204600F021F8242084F84100BA
:103AE0002068C16821F40051C160204600F038FE12
:103AF0002068016921F490410161416921F02A01A6
:103B00004161C16841F40051C1600020202160641E
:103B100084F8411084F84210606310BD80B586B00F
:103B2000006841F20042C4F2010200219042CDE956
:103B30000411CDE90211019130D044F20041C4F2E8
:103B4000000188425BD1002043F630010090C4F2AE
:103B500002010A6942F400320A610A6902F4003281
:103B60000092009A00900A6842F001020A60096817
:103B700001F00101009100990C2101910221CDE990
:103B8000021003200490072005900020C4F20200D8
:103B900001A9FEF7F7FA06B080BD00BF43F630007A
:103BA0000091C4F20200426942F02002426142697F
:103BB00002F020020092009A0091026842F0040292
:103BC0000260006800F0040000900098C02001909E
:103BD0000220CDE902010320049008200590002076
:103BE000C4F2020000F5006001A9FEF7CBFA4720FD
:103BF00000210022FEF75EFC4720FEF74BFC06B0DA
:103C000080BD000090F84230202B1CBF022070477E
:103C100000294FF0010318BF002A01D11846704750
:103C200000230363816222218285C285436480F878
:103C300042100169006819B1C16841F48071C16026
:103C40004169002341F001014161C16841F0200157
:103C5000C160184670470000704700002DE9F04130
:103C6000044690F8410020281CBF0220BDE8F081E6
:103C70000F4600294FF0010000F082801646002A0E
:103C800008BFBDE8F0814FF0000821201D46C4F8B0
:103C9000448084F84100FEF753FBA684E684A168C3
:103CA0000646B1F5805F05D12069002814BF38466B
:103CB000B8460746E08CC8B1681C19D0002D61D108
:103CC000216807E017F8010B4860E08C0138E084B8
:103CD000E08C68B3086800064CD5002FF2D138F8A4
:103CE000020B00276FF35F20EEE700BF21681FE0A3
:103CF000216802E00868000609D40868000606D4B6
:103D0000086800065CBF08685FEA0060F2D51FB172
:103D100017F8010B05E000BF38F8020B00276FF31E
:103D20005F204860E08C0138E084E08C0028E4D11A
:103D3000086840061CD4EDB1681C0FD10868400625
:103D400016D40868400613D40868400610D40868E2
:103D500040064FF00000F1D50FE000BFFEF7F0FA8B
:103D6000801BA84208D82068C16800684006F5D5C5
:103D7000002002E0FEF7E4FA0320202184F841103D
:103D8000BDE8F081216800BF0868000608D4FEF78E
:103D9000D7FA801BA842EFD82168C868F4E700BFB3
:103DA00017B117F8010B04E038F8020B00276FF386
:103DB0005F204860E08C0138E084E08C0028E3D18B
:103DC000B6E700007047000080B582B00020019087
:103DD00043F63000C4F202000168002241F4800181
:103DE00001600068002100F48000019001983920F2
:103DF000FEF760FB3920FEF74DFB3A200021002240
:103E0000FEF758FB3A20FEF745FB45200021002233
:103E1000FEF750FB452002B0BDE88040FEF73ABBFC
:103E200080B586B0002043F63001CDE90400009053
:103E3000C4F202010A6842F080020A600A6802F0D5
:103E400080020092009A00900A6842F001020A6023
:103E50000A6802F001020092009A00900A6842F09B
:103E600004020A60096801F0040100910099102120
:103E7000CDE9011003900020C4F2020001A9FEF771
:103E800081F906B080BD0000B0B598B0002540F2C1
:103E90002C40C4F201050021C2F2000068221191F9
:103EA000CDE90F11CDE90D11CDE90B11CDE90911C6
:103EB000CDE90711CDE90511CDE90311CDE90111D6
:103EC000C0E90051C0E90212C0E904118161FFF7A5
:103ED000C5F8002818BFFDF70FFD40F22C40C2F2D4
:103EE000000010A9FEF752FE002818BFFDF704FDE0
:103EF000602009900020CDE90A00CDE90C00CDE951
:103F00000E0040F22C40C2F2000009A90022FEF788
:103F1000A5FF002818BFFDF7EFFC40F22C40C2F2CD
:103F2000000009A90422FEF799FF002818BFFDF739
:103F3000E3FC40F22C40C2F2000009A90822FEF77F
:103F40008DFF002818BFFDF7D7FC40F22C4400205D
:103F50004FF40051C2F200040590CDE90300CDE911
:103F600001000691089001A92046FEF7E9FD00280E
:103F700018BFFDF7C1FC2068A84201D018B0B0BD41
:103F8000002043F630011390C4F202010A6842F0A7
:103F900001020A60096801F00101139113994FF4BD
:103FA000E06113910221CDE91410169001201790C1
:103FB00005F5803013A9FEF7E5F818B0B0BD000094
:103FC00080B540F2BC4044F20041C2F20000C4F2AD
:103FD000000100234FF00C0C4FF4E13280E80E009A
:103FE000C0E90333C0E905C3C361FFF767FD0028DB
:103FF00008BF80BDBDE88040FDF77EBC80B540F2C3
:10400000045041F20041C2F20000C4F20101002359
:104010004FF00C0C4FF4E13280E80E00C0E903339E
:10402000C0E905C3C361FFF749FD002808BF80BD93
:10403000BDE88040FDF760BCFEE70000FEE7000041
:104040002DE9F04381B0E8B181460EC08AA08846D0
:1040500006F0CAFD08EB48006E2101EB001688A0AF
:10406000314606F0C1FDB6F5205F11D94FF6DB30C1
:10407000C0F6000031464FF4205201B0BDE8F043D5
:1040800006F0B2BD94A001B0BDE8F04306F0ACBDAF
:1040900044F2B440C2F20000C9F80C0080A006F05F
:1040A000A3FDB8F1010FC0F2D280D9F80C00A8F13D
:1040B00001016E30032908F0030C01D200227EE0DA
:1040C00028F0030300224FF6FC7E22214FF0221637
:1040D00002EA0E0707EB47052C0101537C1C00EB9D
:1040E000051504EB440469846E62AE62EE62C5F8A5
:1040F0001260C5F81660C5F81A60C5F81E60C5F8EC
:104100000260C5F80660C5F80A60C5F80E602501B2
:1041100000EB04146184A184E18421856185A1857B
:10412000E18521826182A182E18221836183A18371
:10413000C4F81E606180A180E18021816181A1813C
:10414000E181BC1C04EB44044153250100EB041441
:104150006184A184E18421856185A185E185218235
:104160006182A182E18221836183A183C4F81E6000
:104170006180A180E18021816181A181E181FC1CBC
:1041800004EB440404324153250100EB0414934230
:104190006184A184E18421856185A185E1852182F5
:1041A0006182A182E18221836183A183C4F81E60C0
:1041B0004651666021816181A181E18188D1BCF194
:1041C000000F44D091B2490011FA82F10B0100EBCB
:1041D00001174FF02211BCF1010F39627962B96207
:1041E000F96239617961B961F961C1507960B96089
:1041F000F9602CD0531C9FB27F0017FA83F31F0184
:1042000000EB0313BCF1020F196259629962D96283
:10421000196159619961D961C15159609960D96039
:1042200015D0911C8AB2520012FA81F10A0100EBFA
:1042300001114FF022130B624B628B62CB620B6158
:104240004B618B61CB6183504B608B60CB6016A060
:1042500006F0CAFC40F24C10C2F2000001684A1C91
:10426000026000EB810212A04146C2F8049001B046
:10427000BDE8F04306F0B8BC7374657020320A00E4
:10428000E9A284E8AEA1E4BDBFE794A8E5A0863A20
:1042900020256C7520E5AD97E88A820A00000000B1
:1042A0007374657020330A007374657020340A00DB
:1042B000E5889DE5A78BE58C96575332383132E57A
:1042C000AE8CE688903A0AE781AFE78FA0E695B01A
:1042D0003A25640A00000000506F696E7465722010
:1042E000746F205247425F4C45442073747275636B
:1042F00074757265206973204E554C4C2E0A00006F
:1043000080B506F055FC07F07BFCBDE8804006F068
:104310005DBC0000B0B592B0002443F640000B94A1
:10432000CDE90944CDE907440594CDE90344CDE93D
:1043300001440094C4F202000168022541F080515A
:104340000160006800F080500090009847F2000083
:104350000094C4F20000016865F38F3101600068C9
:1043600000F44040009000980120099010200A902D
:104370000E90A820CDE90F050420119006A80695FF
:10438000CDE90C54FEF706FA10B172B6FEE700BF95
:104390000F20CDE901054FF48050CDE9040401A8B8
:1043A00002210394FEF7C2F810B172B6FEE700BF17
:1043B00012B0B0BD43F60400C4F20200416801F03F
:1043C0000C0242F20041082AC0F2F40106D0042A8D
:1043D0001DD141F20021C0F27A0118E002680368A1
:1043E000520241F20022C0F27A0203F03F0358BFAA
:1043F0000A460168B2FBF3F20368C1F38811514326
:10440000C3F30142022303EB4202B1FBF2F140F29B
:104410001002C2F20002116040684FF2EC13C0F3C8
:104420000310C0F60003185C21FA00F0106070471A
:104430004EF68850CEF20000016841F47001016030
:104440007047000040F27440C2F20000FEF75CBC0E
:1044500010B540F2FF7E0368C4F2000E40F2000C7B
:104460007045C4F2010C1DDD40F60002C4F20002EA
:10447000904220D060451ED040F60042C4F20002B7
:10448000904218D04FF6FF72C4F2000290421CDC3A
:10449000704525DCB0F1804F3AD040F20042C4F2C2
:1044A000000233E0B0F1804F05D040F20042C4F288
:1044B00000029042E6D14A6823F0700313434FF69E
:1044C000FF72C4F200029042E2DD44F2FF32C4F215
:1044D0000102904210DC60451AD044F2000213E061
:1044E00040F60002C4F20002904211D040F60042B1
:1044F000C4F200020AE000BF44F60002C4F2010266
:10450000904205D044F20042C4F20102904203D12D
:10451000CA6823F44073134323F080024B69D1F837
:1045200000E08C681A4360450260C462C0F828E06D
:1045300002D10969CCF83010012141610169C90734
:1045400008BF10BD016921F00101016110BD00002B
:1045500010B5846B616A814212D0A16A814217D082
:10456000E16A81421CD0216B814220D1C0690821BF
:104570000028217704BF012084F8410017E000BF24
:10458000C16901200029207708BF84F83E000EE0B1
:10459000C0690221217750B9012084F83F0006E06C
:1045A000C0690421217710B9012084F84000204619
:1045B000FEF70CFE0020207710BD000010B5846BC4
:1045C000616A81420AD0A16A814209D0E16A8142CE
:1045D00008D0216B814207D1082004E0012002E0CD
:1045E000022000E0042020772046FEF7FBFD00209B
:1045F000207710BD10B5846B616A81420CD0A16A2E
:1046000081420FD0E16A814212D0216B814215D0E4
:10461000012084F83D0016E00120207784F83E0058
:1046200011E000BF02202077012084F83F000AE05B
:1046300004202077012084F8400004E0082020773F
:10464000012084F841002046FEF75AFB0020207725
:1046500010BD0000806B0021C185C184FEF77ABFC8
:1046600081B090F84210222920D18368B3F5805F91
:1046700008D10169002965D000F128010A680368A2
:104680005B680AE0014651F8282F13B90369002B33
:10469000F5D003685B6803F07F0313700A6801328A
:1046A0000A60C18D01390A04C18501D001B070478B
:1046B0000168CA6822F02002CA60CA6822F48072C7
:1046C000CA604A6922F001024A61202280F8422031
:1046D00000224263036B012B3ED1026351E8031FAA
:1046E000026821F0100142E803130168DBB151E8D0
:1046F000031F026821F0100142E80313016893B11F
:1047000051E8031F026821F0100142E80313016819
:104710004BB151E8031F026821F0100142E8031376
:104720000168002BDAD10A68D20606D50022009271
:104730000A680092496800910099818D01B0FEF7E6
:1047400007BF00BF0168826A49686FF35F2122F8E2
:10475000021B8262A5E700BF01B0FFF77DBA00002F
:1047600010B504460068D4E902C22369016921F446
:10477000405111430161626943EA0C01E36911434D
:10478000C268194349F20C639A431143C1604169FD
:10479000A26921F4407141F20043114340F4806268
:1047A000C4F201039A42416102D1FDF7A9FF01E081
:1047B000FDF792FFE16963681922B1F5004FA0FB94
:1047C00002011FD15A00DB0FFBF764FE48F21F51B4
:1047D000C5F2EB11A0FB01235A096FF0630302FB42
:1047E0000300322303EBC000A0FB01014FF4F8707B
:1047F00000EA111000EB0210C1F3421108442168D5
:10480000886010BD9A009B0FFBF744FE48F21F51D1
:10481000C5F2EB11A0FB01235A096FF0630302FB01
:104820000300322303EB0010A0FB0101F02000EA9B
:10483000511000EB0210C1F3431108442168886055
:1048400010BD000040F20450C2F20000FEF784BE2A
:10485000FEE70000C06802EB4202442300EB0210B6
:104860000A0258BF2223A0F88E304B024FF04403B7
:1048700058BF2223A0F890308B024FF0440358BF5A
:104880002223A0F89230CB024FF0440358BF2223DA
:10489000A0F894300B034FF0440358BF2223A0F834
:1048A00096304B034FF0440358BF2223A0F89830B2
:1048B0008B034FF0440358BF2223A0F89A30CB0358
:1048C0004FF0440358BF2223A0F89C300B044FF054
:1048D000440358BF2223A0F87E304B044FF044031A
:1048E00058BF2223A0F880308B044FF0440358BFF8
:1048F0002223A0F88230CB044FF0440358BF222378
:10490000A0F884300B054FF0440358BF2223A0F8D1
:1049100086304B054FF0440358BF2223A0F888305F
:104920008B054FF0440358BF2223A0F88A30CB05F3
:104930004FF0440358BF2223A0F88C300B064FF0F1
:10494000440358BF2223A0F86E304B064FF04403B7
:1049500058BF2223A0F870308B064FF0440358BF95
:104960002223A0F87230CB064FF0440358BF222315
:10497000A0F874300B074FF0440358BF2223A0F86F
:1049800076304B074FF0440358BF2223A0F878300D
:104990008B074FF044024FF0440358BF2223A0F886
:1049A0007A30C90708BF2222A0F87C207047000097
:1049B00060B10388D0E901C1C26803EB430037232B
:1049C00003EBC00083B26046FEF70EBC4FF6B73073
:1049D000C0F6000006F008B9002804BF00207047A8
:1049E000C1B209B101200CE010F47F4102D0090AE4
:1049F000092006E010F47F0107BF010E1920090C01
:104A000011204FF20422C0F60002515C08447047A6
:104A100070B588B005464FF2D810C0F6000090E897
:104A20001E0000690DF10C0C07904FF47F408CE8DC
:104A30001E0002900FA002A90422002301F016FB21
:104A4000029A052403AE284600214FF4FA6300962B
:104A5000019400F0D3FB0299284600224FF4FA6338
:104A60000096019400F0CAFB4FF4FA7006F0A4FF20
:104A700008B070BD626F64795F636F6C6F72000025
:104A80002DE9F04F89B040F25419044600254FF04B
:104A9000FF3BC2F2000904AE4FF0010A4FF0FF37AE
:104AA0000191CDE90255C0F804B002E02570C4F8C8
:104AB0000CB0781C18D0E0688102013008BF4FF4B8
:104AC00080610F444FF6000199F80400C0F6000120
:104AD00001F500680028404608BF4FF40060874297
:104AE00072D2B8050BD057E099F804704FF6000069
:104AF000002FC0F6000018BF0746B8054CD1384655
:104B00003146142201F060FC069844F24561C3F27C
:104B1000340188426760A060C8D19DF812000799EF
:104B200084F800A0E16068B19DF81100E0B19DF843
:104B30001000B0FA80F040099DF81510607031B98E
:104B400018E000BF03209DF81510607091B19DF82A
:104B50001410B9B19DF81310B1FA81F14909012877
:104B6000A1700BD112E000BF02209DF815106070FB
:104B70000029ECD103210128A17007D0022898D187
:104B800002A804E002210128A170F7D103A801685E
:104B9000013101608DE700BF4FF604674FF61A60E0
:104BA0004FF6E5424FF6EC53C0F60007C0F60000A2
:104BB000C0F60002C0F6000340F24921009701F060
:104BC000C1FB00BFFEE700BF02984FF0FF36002890
:104BD00000F09A80DDF804A004AF4FF0010B4FF015
:104BE000FF30666005E000BF012800F0898000BF4B
:104BF0006068411C14D0E1688A02013108BF4FF49B
:104C0000806299F8041015180029404608BF4FF437
:104C10000060854280F09880A8050CD07CE000BF41
:104C200099F804504FF60000002DC0F6000018BFA0
:104C30000546A80570D128463946142201F0C4FB68
:104C4000069844F24561C3F2340188426560A06071
:104C500014D19DF81200079984F800B0E160A8B162
:104C60009DF8110020B39DF81000B0FA80F04009C3
:104C70009DF81510607071B920E000BF0020207011
:104C80006078E6600228B3D124E000BF03209DF8DD
:104C90001510607091B19DF81410A9B19DF8131012
:104CA000B1FA81F14909A1700228A1D112E000BF37
:104CB00002209DF8151060700029ECD10321A1702D
:104CC00002287FF495AF05E00221A17002287FF44D
:104CD0008FAF00BF28462146012205F03FFA207819
:104CE00000283FF485AF206950457FF681AFA0785A
:104CF00002287FF479AF99F8060000287FF478AF96
:104D00006669039828BB03E0DDF804A0039800BBA4
:104D1000304609B0BDE8F08F4FF604674FF61A60D1
:104D20004FF6E5424FF6EC53C0F60007C0F6000020
:104D3000C0F60002C0F6000340F24921009701F0DE
:104D400001FB00BFFEE700BF4FF0FF3603980028CD
:104D5000DED0711CDCD1012804D899F806000128A6
:104D600040F0BA804FF0FF3704AE4FF0010B4FF028
:104D7000FF30676007E000BF99F80600002800F0E8
:104D8000878000BF6068411C14D0E1688A0201314D
:104D900008BF4FF4806299F80410151800294046A6
:104DA00008BF4FF40060854280F09080A8050CD0C9
:104DB00074E000BF99F804504FF60000002DC0F6D3
:104DC000000018BF0546A80568D1284631461422C0
:104DD00001F0FAFA069844F24561C3F234018842C0
:104DE0006560A06014D19DF81200079984F800B0A6
:104DF000E160A8B19DF8110020B39DF81000B0FA51
:104E000080F040099DF81510607071B920E000BF76
:104E1000002020706078E7600128B3D124E000BF53
:104E200003209DF81510607091B19DF81410A9B180
:104E30009DF81310B1FA81F14909A1700128A1D19F
:104E400012E000BF02209DF8151060700029ECD11F
:104E50000321A17001287FF495AF05E00221A17024
:104E600001287FF48FAF00BF28462146012205F0BC
:104E700075F9207800283FF485AF206950457FF60A
:104E800081AFA07802283FF477AF01287FF47AAF92
:104E90006669304609B0BDE8F08F00BF4FF6046781
:104EA0004FF61A604FF6E5424FF6EC53C0F6000796
:104EB000C0F60000C0F60002C0F6000340F249212F
:104EC000009701F03FFA00BFFEE700BF4FF0FF364A
:104ED000304609B0BDE8F08F4FF61A60C0F600000A
:104EE00006A240F2254101F02DFA01204FF0FF36D5
:104EF00089F80600304609B0BDE8F08F5472696742
:104F0000676572206120474320636865636B206199
:104F10006674657220616C6C6F6320454E56206626
:104F200061696C65642E0A0070B5002808BF70BD09
:104F300040F208060446C2F2000603E07168284603
:104F40008847CCB1E16825462468C80504D4A86820
:104F500010B1FFF7E9FFE968C80504D4286910B16A
:104F600071688847E9688805E8D4286A0028E5D090
:104F700071688847E2E700BF70BD00002DE9F04F7F
:104F800081B0D0F808B00029884618BF4FF001085A
:104F9000BBF1000F56D08A46002941D00AF1010921
:104FA000DBF820404046E4B126783046FBF7EAFAC9
:104FB0009AF8001007460846FBF7E4FA87420FD13B
:104FC000651C4C46AEB115F8016B3046FBF7DAFABA
:104FD00014F8011B07460846FBF7D4FA8742F1D0C4
:104FE000381A30B1DBF800B0BBF1000FD8D14FF068
:104FF000000B584601B0BDE8F08F00BFDBF8200081
:105000000028F6D0DBF800B0BBF1000F1AD0DBF8B7
:1050100020000028EDD0DBF800B0BBF1000F11D06C
:10502000DBF820000028E4D0DBF800B0BBF1000F73
:1050300008D0DBF820000028DBD0DBF800B0BBF1A3
:10504000000FDBD14FF0000B584601B0BDE8F08FE8
:10505000B0B540F20801C2F20001096805462820F7
:105060008847F8B128210446FBF7A6FC40F28420CB
:10507000C2F2000000210160E5B100BF28780138CC
:105080001F281CD8687801381F2815D8A87801383F
:105090001F2813D8E878043501382028EED3013DC5
:1050A0000DE000BF40F28420C2F200000024046042
:1050B0002046B0BD002502E0013500E00235204663
:1050C000294604F019F908B12046B0BD2046FFF783
:1050D0002BFF00242046B0BDB0B582B04178044615
:1050E0000078F9B103281DD1A1784FF6045004F1DE
:1050F0001002C0F6000001F027F9204602F04EFF32
:1051000020B3A3684FF61A604FF69D52C0F6000018
:10511000C0F6000240F2BF6101F014F901252846F3
:1051200002B0B0BD01284FF00005F8D1206B4FF060
:10513000FF31009169460431043001228DF804509A
:10514000012501F06DF9284602B0B0BD4FF61A6096
:10515000C0F6000004A240F2BD6101F0F3F80025A2
:10516000284602B0B0BD00BF5265636F76657279A4
:105170002074686520454E562073756363657373AC
:1051800066756C2E0A00000070B584B004464FF4BA
:105190007F400125029010A002A90422002303955C
:1051A00000F064FF029A03AE204600214FF4FA6338
:1051B0000096019500F022F80299204600224FF453
:1051C000FA630096019500F019F84FF4FA7006F0B2
:1051D000F3FB04B070BD00BF63686573745F636FF9
:1051E0006C6F720080B502F0E1F8002080BD000015
:1051F00080B502F047FA002080BD00002DE9F04F95
:1052000081B02DED0E8B98B08346C2F30740C1F3F9
:105210000749A0EB090EC2F30726C1F30720D2B25B
:10522000C9B24CF6CD44A2EB010C5C43012202EB67
:10523000D44200EE102AB8EE408A00EE109AB8EE82
:10524000409A00EE10EAA6EB000AB8EEC0AA00EE03
:10525000100AB8EE40BA00EE10AAB8EEC0CA00EECE
:10526000101ADDE93058B3FBF2F3B8EE40DA00EE85
:1052700010CAE60CB8EEC0EA00240193CDE9026B37
:1052800005E000BFB74204F1010400F23781A0B28B
:1052900000EE100AB8EE400A80EE080A0490059469
:1052A00044234424442644274FF0440CC6462AEEA7
:1052B000001A31EE091ABDEEC11A11EE100A2CEED9
:1052C000001A31EE0B1ABDEEC11A11EE101A0A06C1
:1052D0004FF0440258BF222217924A0658BF222399
:1052E0008A0658BF2224CA0658BF22260A0758BF7A
:1052F00022274A074FF0440258BF222216928A07FB
:105300004FF0440258BF2222C9074FF044011592C2
:1053100008BF2221149101064FF0440158BF2221F9
:10532000139141064FF0440158BF2221129181068A
:105330004FF0440158BF22211191C1064FF04401A2
:1053400058BF2221109101074FF0440158BF22217C
:105350000F9141074FF0440158BF22210E91810760
:105360004FF044012EEE000A58BF2221C00730EE54
:105370000D0ABDEEC00A4FF044000D9108BF222077
:1053800010EE101A0C9008064FF0440058BF22206F
:105390000B9048064FF0440058BF22200A90880620
:1053A0004FF0440058BF22200990C8064FF0440037
:1053B00058BF2220089008074FF0440058BF222011
:1053C000079048074FF0440058BF222006908807F6
:1053D00058BF4FF0220CC9074FF0440108BF2221EB
:1053E000B8F1010F5FDB039A4FF0000BD2684FF06A
:1053F000000902F16E0800BF35F82B20384602EB99
:105400004202374626461C46179B08EB021A120139
:1054100028F80230234634463E460746AAF80800DC
:10542000169809F10109AAF80A0015981FFA89FBD4
:10543000AAF80C001498F345AAF80E001398AAF8DD
:105440000230AAF810001298AAF80440AAF8120034
:105450001198AAF80660AAF814001098AAF82CC0AF
:10546000AAF816000F98AAF82E10AAF818000E989D
:10547000AAF81A000D98AAF81C000C98AAF81E00A9
:105480000B98AAF820000A98AAF822000998AAF80E
:1054900024000898AAF826000798AAF82800069879
:1054A000AAF82A00A8DBDDF80CB0F046BBF1000F2B
:1054B00014D0BBF800300BF1040203EB4303372692
:1054C00007CA06EBC3039BB2FDF78EFE029EDDE921
:1054D0000474B7423FF6D6AE0CE000BF4FF6B730CB
:1054E000C0F6000005F080FB029EDDE90474B742BF
:1054F0003FF6C8AE019806F05FFAC3E618B0BDECFF
:105500000E8B01B0BDE8F08F86B040F2FC17C2F2FE
:105510000007386846F6B44540F214081FA4C2F2EA
:10552000000501AE0FF280090FF28C0A0FF2A40BF6
:10553000C2F20008012805D00A2006F03DFA3868BA
:105540000128F9D12046294605F04EFB2846314670
:1055500003F0EAF9A0B10199484605F045FBDDE901
:105560000212504605F040FBDDE90412584605F0F2
:105570003BFB0298C8F80000304604F0ADFB02E0A7
:105580001BA005F031FB0398FAF75DFF0598FAF7C9
:105590005AFF002038600128CED1D3E73F3F3F3F7C
:1055A0003F3F25730A0000004D6F646520547970F9
:1055B000653A2025640A00004D6F64652049443A2D
:1055C0002025642C20436F6C6F72733A2025730A78
:1055D00000000000676E4D6F64652049443A202545
:1055E000642C20436F6C6F72733A2025730A00009D
:1055F0004661696C656420746F2070617273652008
:10560000746865204A534F4E20737472696E672E1A
:105610000A0000000B46884280F0BE802DE9F04F62
:1056200091B000F12001C2430DF1240901924742DB
:1056300009F1010A03910A460024834600268046A8
:10564000059302900DE000BFDDE90531DDE9072794
:105650000DF1240901342032203F9942884680F020
:1056600095804946914608979342079238BF9946DC
:105670000398A3EB080500EB4417BB4208F1200098
:1056800038BF1F460690984238BF202540462A461C
:1056900000F09AFE002DD7D00020A0EB441C01980A
:1056A000BE46604438440328049403D200200DF120
:1056B000240932E00898484420F0030200200DF14C
:1056C000240900BF19F80030594608EB0005FF2BEC
:1056D00008BF2946FF2E08BF59461AF800400F465A
:1056E0000AEB0006FF2C08BF6F1CFF2B08BF0F46FC
:1056F0007178B678FF293B4608BFAB1CFF2C08BF6A
:105700003B46FF2E9B4608BF05F1030BFF2900F126
:10571000040008BF9B468242D4D1029906AFACEB8D
:105720000101714411F0030CDDE9044386CF91D0EF
:1057300019F800E05B46BEF1FF0F08BF00EB08035D
:10574000FF2E18BF9B46BCF1010F01D176461AE02F
:10575000431C19F803605D46FF2E08BF03EB0805E4
:10576000BEF1FF0F18BFAB46BCF1020F0BD00230E9
:1057700019F800505B46FF2D08BF00EB0803FF2E11
:105780002E4618BF9B46059B64E700BFFF2E08BF4F
:105790005B4611B0BDE8F04F184670472DE9F04F59
:1057A0008BB00746456908461C4691460E46FBF7F6
:1057B0006FF8212808D3E5A0202100F0C5FD0424BE
:1057C00020460BB0BDE8F08F4FF0FF31CDE9071157
:1057D0008DF820002044CDE9031145F24B61099476
:1057E00000F11C04C3F23401B4F57B7F05910694EB
:1057F00008D9CEA000F0A8FD062420460BB0BDE8D5
:10580000F08F00BF681C07D138462146FFF738F9F2
:105810000546013000F08E807878022816D00128E5
:105820001AD178684FF0FF31ADF828108DF82A10A2
:105830000AA901314FF0000B013001228DF829B087
:1058400000F0EEFD0446002CBAD107E038693C2890
:105850003ED3001B3B283BD94FF0000B0DF10C0849
:1058600008F1140100200822002400F051FA9DF8EC
:1058700020203146079000F04BFA099A49460790DC
:1058800000F046FA07904FF0FF30CDF80D002846A3
:10589000414601228DF80C4000F0C2FD044600286C
:1058A0008ED108F1080105F10800142200F0B8FDBE
:1058B000044600287FF484AF9DF8202005F11C0ADF
:1058C000002A5BD05046314600F0AAFD044656E05F
:1058D00078684FF6FF71ADF828100AA9002202314E
:1058E0008DF82A200230012200F09AFD40F2541275
:1058F000C2F200021346796853F8284F8C420446DE
:105900000ED0134653F8300F884209D0134653F88F
:10591000380F884204D052F8400F8842134602D113
:105920004FF0FF3018604FF0010B002C7FF448AFB0
:1059300094E700BF40F25410C2F2000080790128C1
:1059400016D14FF61A604FF64F52C0F60000C0F65F
:10595000000240F2AE41234600F0F4FC01F064FA8C
:1059600038462146FFF78CF8054601307FF454AFE6
:10597000062420460BB0BDE8F08F00BF0024BBF129
:10598000000F03D09DF820106CE000BF9DF82010A0
:105990007868099A40F254170AEB0103C2F2000733
:1059A00003EB020EBB6A86450AD900F58062724598
:1059B00006D983421ED107F128024FF0000C4CE0BB
:1059C000834203D107F128020FE000BF3A4652F8A4
:1059D000303F834209D03A4652F8383F834204D0E0
:1059E00057F8402F82423A463CD14FF0FF301060CA
:1059F00038E000BF3A4652F830CFCDF808C08445B1
:105A00004FF0010C29D0B3F1FF3218BF01220192EF
:105A10005A1C019A08BF4FEA820C029A01323A4698
:105A200052F8383F0293019B18BF4FEA830C029B48
:105A3000834203D14FF0020C0FE000BF8CF0040250
:105A400062EA0302002A3A4652F8403F08BF4FF08C
:105A5000020C834244D14FF0030C106007EBCC00E2
:105A6000C0F82CE030462A4606F0B0FE002C7FF449
:105A7000A7AE099A4AB19DF820004946504400F06B
:105A8000CFFC044600287FF49BAE4FF0FF3003901C
:105A90008DF81000002008F101018DF80D00681C40
:105AA000012200F0BDFCBBF1000F04463FF488AEBC
:105AB000002C7FF485AE4FF61A60C0F6000011A2EC
:105AC00040F25E5100F03EFC40F25410C2F2000081
:105AD00001210024817120460BB0BDE8F08F00BF8A
