:020000040800F2
:10000000A87200203D020008C13200085D0300080C
:10001000BD3200082D0B0008D53A00080000000092
:100020000000000000000000000000004F02000877
:10003000550B000800000000AB02000885350008E1
:10004000570200085702000857020008570200082C
:10005000570200085702000857020008570200081C
:10006000570200085702000857020008570200080C
:1000700057020008570200085702000857020008FC
:10008000570200085702000857020008000000004D
:1000900000000000000000000000000057020008FF
:1000A00057020008570200085702000857020008CC
:1000B00057020008C9360008570200085702000816
:1000C00057020008570200085702000857020008AC
:1000D00057020008570200085702000800000000FD
:1000E00057020008570200085702000800000000ED
:1000F000000000000000000000000000570200089F
:1001000000000000570200085702000857020008CC
:1001100000000000000000000000000000000000DF
:1001200057020008310B00083D0B00085702000879
:10013000570200080000000000000000000000005E
:10014000000000000000000000000000570200084E
:1001500057020008490B000857020008C93A000876
:1001600057020008570200080000000000000000CD
:10017000000000000000000000000000000000007F
:10018000000000005702000800000000000000000E
:100190005702000800F002F800F041F80AA090E8C9
:1001A000000C82448344AAF10107DA4501D100F032
:1001B00036F8AFF2090EBAE80F0013F0010F18BFBE
:1001C000FB1A43F00103184720C1000040C10000A2
:1001D000103A24BF78C878C1FAD8520724BF30C873
:1001E00030C144BF04680C60704700000023002445
:1001F00000250026103A28BF78C1FBD8520728BF37
:1002000030C148BF0B607047782900F09181002011
:1002100070471FB50AF0D1FF1FBD10B510BD00F02B
:1002200026FC1146FFF7F5FF00F056FC00F044FCF9
:1002300003B4FFF7F2FF03BC00F048FC0948804715
:1002400009480047FEE7FEE7FEE7FEE7FEE7FEE7B8
:10025000FEE7FEE7FEE7FEE704480549054A064BD0
:1002600070470000B536000895010008A86C002012
:10027000A8720020A86E0020A86E0020EFF3108066
:1002800072B6704780F310887047424A1368012B9A
:1002900004D04FF0010313603F4A10603F4A1160E1
:1002A0003F484FF0805101607047EFF3108272B603
:1002B0003848016851B34FF00001016036480168C9
:1002C00091B1EFF309811EF0100F08BF21ED108BE3
:1002D00021E9F00F4FF000041EF0100F08BF0124B9
:1002E00041F8044D006801602C490968096808C993
:1002F000B1E8F00F002B18BFB1EC108B81F3098827
:100300004EF0100E002B18BF2EF0100E82F3108846
:100310004EF0040E704721490860EFF3148222F07A
:10032000040282F314881C494FF000000860194948
:100330004FF0010008601B481B49D0F8002041EA3B
:100340000201016016484FF08051016017480068B3
:10035000006880F3088861B662B670471EF0040F2B
:100360000CBFEFF30880EFF3098020E9F00F40F8AD
:1003700004ED40F804ED1EF0040F0CBF80F3088874
:1003800080F3098800B508F057FB5DF804EB4EF0E8
:10039000040E704760440020D4410020DC4100205E
:1003A00004ED00E020ED00E00000FFFF08ED00E0BC
:1003B00053EA020C00F069802DE9F04B4FF0000683
:1003C000002B1FBFB3FA83F503FA05F424FA05F6F0
:1003D0005E4012BF1643B2FA82F502FA05F4C5F187
:1003E00020051EBF22FA05FC44EA0C04203556EA1B
:1003F000044C4FEA144418BF641C4FF000084FF03F
:100400000009904271EB030C39D3002919BFB1FAEE
:1004100081F701FA07F6B0FA80F700FA07F6C7F19C
:1004200020071EBF20FA07FC46EA0C062037B6FB61
:10043000F4FCA7EB0507103F07F01F0BCBF12006DC
:100440002CFA06F60CFA0BFB44BFB3460026202F0D
:10045000A4BF5E464FF0000B5BEA060C08BF4FF0EE
:10046000010B19EB0B0948EB0608ABFB027C06FB02
:1004700002CC0BFB03CCC01B71EB0C01C1E70B469C
:10048000024641464846BDE8F08B13B5084318BF05
:100490004FF0FF300146AFF30080BDE81C407047CD
:1004A0000FB41CB50C0007AA009007D04142A1422E
:1004B00002D32044401E01E04FF0FF30074B7B4445
:1004C00069460190069800F0B2FA0021002C01D094
:1004D000009A11701CBC5DF814FB0000930500002D
:1004E00070B5044685690068C10601D5302600E074
:1004F0002026C00707D070BDD4E9012130469047BF
:10050000206A401C20626D1EF6D570BD70B5044691
:1005100085690078C00707D170BDD4E9012120208A
:100520009047206A401C20626D1EF6D570BD000009
:1005300070B504460D4621461068AFF3008021884F
:10054000090502D50F4A7A4402E00E4A7A440E3277
:10055000002104F1240305E000F00F060009965D78
:100560005E54491C0028F7D120780023000704D5E9
:10057000702D02D009B1022311322046BDE870402F
:1005800000F0F7B98AAC00002DE9F05F8946044617
:100590004FF0000ADFF824B1FB44C0F820A0204649
:1005A000E168884700287DD0252806D0D4E90121BC
:1005B0009047206A401C2062F1E700255F462046F4
:1005C000E16888472028064607DB312E05D2B81996
:1005D00010F8200C08B10543F1E7A80701D525F074
:1005E0000405C4F81CA00027C4F818A02A2E09D0BE
:1005F00030460AF0DBFD38B304EB8708303EC8F81C
:10060000186019E059F8041B204604EB8702916139
:10061000E1688847012F064618D1E069002820DAF2
:1006200025F020051DE0D8F8180000EB800006EB4F
:1006300040003038C8F818002046E1688847064670
:100640000AF0B4FD0028EED1012F0AD02E2E08D1D9
:100650002046E16888477F1C0646022F45F02005AA
:10066000C4DBA069002803DA404245F00105A0611F
:10067000E80701D025F01005A6B1A6F14100192820
:1006800002D8203645F400654A46314620462560AA
:100690004D46FFF7B9FD60B1012807D0ED1D25F0EB
:1006A000070000E007E000F1080978E705F1040918
:1006B00075E730467AE7206ABDE8F09F60AC00003D
:1006C0002DE9FF5F4FF000089946144646469169B0
:1006D000D2E901A7DDF838B001988847054659EA04
:1006E0000B0005D009E0A1690198761C88470546F2
:1006F000216A284688470028F5D1681C03D05FEAA4
:10070000CA7005D015E04FF0FF3004B0BDE8F09F8F
:100710002068011D2160D0F800800AE05FEACA70FD
:1007200001D108F8015BA169761C01987F1E8847FA
:100730000546002F1ADD681C18D0B9F1000F0DD046
:10074000E81705EBD060421120F01F0059F8221085
:100750002A1A012090400142E0D107E0BBF1000FCE
:10076000DCD12846216A88470028D7D0E169019862
:100770008847BBF1000F07D1002E05DD5FEACA7084
:1007800002D1002188F80010A068B84203DDBBF157
:10079000000F03D017B16FF00100B6E73046B4E7A1
:1007A00010B5431C02E010F8011B71B18107FAD1AA
:1007B0004FF0013202C88C1A8C4314EAC211F9D0EE
:1007C000C01A0A0603D0C01E10BDC01A10BD0A040C
:1007D00001D0801E10BD0902FCD0401E10BD40EAB1
:1007E000010370B59B072ED14FF00136042A2AD39E
:1007F00008C810C99D1B9D43121F15EAC61517D0C6
:10080000D8B2E1B2401A50EA056110D198B2A1B253
:10081000401A50EA05410AD123F07F4024F07F417D
:10082000401A50EA052102D1180EA0EB146070BDE9
:10083000A342DBD018BA21BA884201D9012070BD89
:100840004FF0FF3070BD0AB9002070BD10F8013BB9
:1008500011F8014B63B1A3420AD1521E08D010F81F
:10086000013B11F8014B1BB1A34201D1521EEDD146
:10087000181B70BD02F0FF0343EA032242EA024262
:1008800000F002B84FF000020429C0F0128010F00E
:10089000030C00F01B80CCF1040CBCF1020F18BF5C
:1008A00000F8012BA8BF20F8022BA1EB0C0100F0EF
:1008B0000DB85FEAC17C24BF00F8012B00F8012BC2
:1008C00048BF00F8012B70474FF0000200B51346F7
:1008D00094469646203922BFA0E80C50A0E80C5060
:1008E000B1F12001BFF4F7AF090728BFA0E80C5011
:1008F00048BF0CC05DF804EB890028BF40F8042B0A
:1009000008BF704748BF20F8022B11F0804F18BF76
:1009100000F8012B704710B5044610F0030F08BF14
:1009200011F0030F40F015804FF0013E121FC0F28E
:100930000E8051F8043BA3EB0E0C2CEA030C1CEACE
:10094000CE1C08BF40F8043BF0D0A1F1040102F135
:100950000402521E08DB11F8013B00F8013B002B9A
:10096000F7D11146FFF78EFF204610BD7047704744
:1009700070472DE9F0470D4699469246044600F12E
:1009800024080168880604D5E06921F0100121607F
:1009900000E00120A84201DD471B00E00027A1691B
:1009A0007A1902EB0900081AA0612078C00602D467
:1009B0002046FFF795FD002608E0D4E901211AF84A
:1009C00006009047206A401C761C20624E45F4DBEE
:1009D0002078C0060AD52046FFF782FD06E0D4E95C
:1009E000012130209047206A401C2062381EA7F168
:1009F0000107F4DC07E0D4E9012118F8050090476D
:100A0000206A401C2062281EA5F10105F3DC204667
:100A1000FFF77CFD2078000602D50220BDE8F087B4
:100A20000120FBE701694A1C02610878704700B5A4
:100A30008FB0CDE901310021059105497944CDE917
:100A4000031011466846FFF79FFD0FB000BD000080
:100A5000E5FFFFFFD1E900239A4202D2531C0B604D
:100A6000107070470048704760000020704775465E
:100A7000FFF7F8FFAE4605006946534620F0070031
:100A8000854618B020B5FFF7E7FBBDE820404FF0E2
:100A900000064FF000074FF000084FF0000BAC4687
:100AA000ACE8C009ACE8C009ACE8C009ACE8C009D2
:100AB00021F007018D46704710B50446AFF3008062
:100AC0002046BDE81040FFF7B3BB000001491820E5
:100AD000ABBEFEE72600020080B582B0FFF7CEFB7A
:100AE00007F046FF08F0FCFD08F0C0FF08F010FF1B
:100AF0000A2000904BF6D81047F225214FF0140C35
:100B0000C0F60000C0F6000100224FF48063CDF86B
:100B100004C008F0B5FF09F047F908F0AFFF09F08D
:100B200065F808F08BFF002002B080BDFEE70000F2
:100B300040F2F820C2F2000000F0FAB840F258305B
:100B4000C2F2000000F0F4B840F2B830C2F2000087
:100B500000F0EEB87047000072B600BFFEE700007C
:100B6000F0B581B040F2B057044643F60C46C2F2ED
:100B700000070020C4F20206F86100F023FD31688E
:100B8000C9031DD43068C0071CBF01203060306825
:100B900010F4F97F30D03068C00635D43068800654
:100BA0003BD43068400641D43068000647D43068F2
:100BB000C0054DD43068800754D4012001B0F0BD89
:100BC000F4B10546601C0DD13068C003DAD5306839
:100BD000C00344BF30685FEAC030D3D53068C0037B
:100BE000F2D4CFE700F0EEFC401BA04208D83068FA
:100BF000C003F7D4C6E700BF002001B0F0BD00BFBE
:100C0000032001B0F0BD00BFF86940F01000F861AA
:100C10001020306030688006C3D5F86940F00800C5
:100C2000F8612020306030684006BDD5F86940F09A
:100C30000400F8614020306030680006B7D5F869DC
:100C400040F00200F861802030603068C005B1D506
:100C5000F86940F00100F8614FF48070306030684E
:100C60008007AAD5F86940F02000F86102203060C2
:100C7000012001B0F0BD000070B5866D044600F0A3
:100C8000A1FC94F8351002292ED105462068216C6C
:100C9000026822F016020260426922F0800242617C
:100CA00009B9A16C19B1016821F00801016001685E
:100CB00021F0010101600068C00708D000F082FC4B
:100CC000401B052818D820680068C007F6D1E06DE1
:100CD0003F2101FA00F0B060012084F835000020C7
:100CE000002184F8341070BD80206065012000214F
:100CF00084F8341070BD00BF20206065032084F8A4
:100D00003500002184F8341070BD000090F83510D3
:100D1000022909D1052180F835100068016821F009
:100D2000010101600020704780214165012070476A
:100D3000F0B581B004460020009040F20800C2F2F5
:100D400000000268D4E9166048F2B513376808213C
:100D5000C1F64E3381403942A2FB03250CD02268F4
:100D600013685B0708D5136823F004031360B160B0
:100D7000616D41F00101616501218140394208D076
:100D800022685269120604D5B160616D41F002011A
:100D9000616504218140394208D0226812689207B7
:100DA00004D5B160616D41F004016165102181409D
:100DB000394217D020680268120713D5B160026863
:100DC0000168520308D4C90508D4016821F008015C
:100DD0000160216C21B905E008033FD4216C09B101
:100DE00020468847E16D202000FA01F23A4241D0C6
:100DF00020680368DB063DD5B26094F835300268A0
:100E0000052B1BD122F016020260426922F08002FB
:100E10004261226C0AB9A26C1AB1026822F008027F
:100E200002603F208840B060012084F83500216DC9
:100E30000020002984F8340052D157E001685203A1
:100E400010D4C90512D4016821F0100101600120FD
:100E500084F83500002084F8340007E0A16C0029F4
:100E6000BED1BFE7080301D4616C00E0E16B09B1BA
:100E700020468847606DC8B3606DC0072ED005203E
:100E800084F835002068A90A026822F00102026095
:100E9000009A01328A4200921AD80268D20717D00B
:100EA000009A01328A42009212D80268D2070FD00B
:100EB000009A01328A4200920AD80268D20707D00B
:100EC000009A01328A42009202D80268D207DFD12A
:100ED000012084F83500002084F83400E16C29B149
:100EE000204601B0BDE8F040084700BF01B0F0BDAA
:100EF0002DE9F041044600F065FB002C4ED005467C
:100F0000022084F835000020216884F83400086845
:100F100020F0010008600868C00708D000F052FB0C
:100F2000401B05286CD821680868C007F6D10868FE
:100F300048F23F02CFF21002D4E90135024004F139
:100F40000C0E9EE8C1511A432A43104330433843E4
:100F500040EA0800626A40EA0C00042A40EA0E03F4
:100F600020D1D4E90A5E206B4EEA030210430860E8
:100F70004869BEF1000F20F0030040EA050040F090
:100F8000040C15D0B8F5005F42D0B8F1000F51D174
:100F9000022D52D0012D47D055B94EE00120BDE8B9
:100FA000F08100BF0B60486920F0070040EA020CA6
:100FB0006FF00F004AF6AB2250FA81F0CAF6AA226F
:100FC000A0FB02231A094BF23C73C0F600039A5CA3
:100FD00040F2FF335F284FF03F00C1F814C021EA10
:100FE000030100FA02F088BF0431C4E916128860D8
:100FF000002301220020636584F83520BDE8F081DC
:10100000032220230320636584F83520BDE8F081A6
:10101000032DCDD8012240230120DFE805F0030E87
:10102000030500BFE7E700BFAEF1C070B0FA80F083
:10103000400904E0032D04D3BAD1CEF300600028A8
:10104000B6D0012240230120636584F83520BDE835
:10105000F081000070B590F834C0BCF1010F46D0AB
:101060004FF0010C80F834C0D0F858E090F835C04B
:10107000BCF1010F38D14FF0020C80F835C04FF0B1
:10108000000CC0F854C0D0F800C08468056CC06D76
:10109000DCF80060402C26F48026CCF80060CCF808
:1010A00004300B4604BF13460A463F2101FA00F004
:1010B000CCF80830CCF80C20CEF80800DCF80000A2
:1010C00040F01600CCF800002DB1DCF8000040F034
:1010D0000800CCF80000DCF8000040F00100CCF87B
:1010E0000000002070BD00BF002180F834100220F5
:1010F00070BD00002DE9F04381B040F2B058C2F25B
:10110000000898F81820012A04D1022001B0BDE897
:10111000F08300BF0546012088F818004CF25030DB
:101120008946FFF71DFD28B1002188F8181001B08D
:10113000BDE8F0834FF0FF30C9F80000286843F69F
:1011400010470128C4F202071CD12869396800023F
:1011500021F440713960396880B241F0040139608E
:101160003968084340F4803038604CF25030FFF763
:10117000F7FC396821F00401396057F8101C890523
:101180003BD452E0D5E902603044864230D2F000D0
:10119000841C00BF28694FF44072C1B2032939682A
:1011A0004FEA002021F440713960396838BF82B2BB
:1011B00041EA02003860386820F0F800386038688A
:1011C00020433860386840F4803038604CF250304A
:1011D000FFF7C6FC3968002821F0FA01396047D1D1
:1011E000D5E9020101360844864204F10804D1D34E
:1011F000002057F8101C890517D557F8101C21F44A
:10120000007147F8101C57F8101C41F4006147F8B2
:10121000101C57F8101C21F4006147F8101C57F8F7
:10122000101C41F4007147F8101C57F8101C4905B8
:101230007FF57AAF57F8101C21F4806147F8101C35
:1012400057F8101C41F4805147F8101C57F8101C37
:1012500021F4805147F8101C57F8101C41F48061AC
:1012600047F8101C002188F8181001B0BDE8F08381
:10127000C9F8006057F8101C8905BED4D5E70000F6
:1012800043F61041C4F20201086840F00042002019
:101290000A6070472DE9F04740F2B059C2F20009E8
:1012A000904699F81820012A04BF0220BDE8F08773
:1012B0000446012089F818004CF250301E460D46B5
:1012C000FFF74EFC07464BF6CD10C0F6000039463E
:1012D00007F014FE37B1002089F818003846BDE841
:1012E000F08700BF43F6104A022CC4F2020A17D05E
:1012F000012C2BD0002C3FD1DAF8000020F44070F4
:10130000CAF80000DAF80000CAF80000DAF80000B5
:1013100040F00100CAF8000085F8008043E000BFFB
:10132000DAF8000020F44070CAF80000DAF8000093
:1013300040F40070CAF80000DAF8000040F0010044
:10134000CAF80000C5F800802DE000BFDAF8000000
:1013500020F44070CAF80000DAF8000040F4807011
:10136000CAF80000DAF8000040F00100CAF80000F6
:10137000A5F8008017E000BFDAF8000020F4407004
:10138000CAF80000DAF8000040F44070CAF8000023
:10139000DAF8000040F00100CAF80000C5F800804B
:1013A000BFF36F8F6E604CF25030FFF7D9FB0746EA
:1013B0004BF6CD10C0F60000394607F09FFDDAF875
:1013C000000020F00100CAF80000002089F8180091
:1013D0003846BDE8F087000043F60440C4F202003E
:1013E000C168B1F1FF3FC4BF0020704740F2231134
:1013F000C4F26751016048F6AB11CCF6EF510160C1
:10140000C068C00F704700002DE9F04F82B000F1B6
:101410003E4241F2000502F1FF77C4F202050722C5
:101420004FEAB726A84208BF0422042E38BF4FEA6D
:10143000B7224FF0010A002400274FF00008009265
:1014400008E000BF023708F10108202F04F104046E
:1014500000F0B4800E680AFA08F916EA090FF1D014
:10146000D1F804A00AF0030BABF10106012E17D846
:101470000322866802FA07FECA6826EA0E06BA4008
:10148000324382604268CAF3001522EA090205FA73
:1014900008F54FEA480C6FEA0E062A4342600BE05B
:1014A0000322BA40D643BBF1030FBC4604D1BC466D
:1014B0004FF0030B22E000BFC2688D68324005FA8E
:1014C0000CF52A43BBF1020FC26017D16FF0030283
:1014D00002EA5802024404F01C030F25D2F820E06F
:1014E00005FA03FA0D692EEA0A0E05FA03F343EA38
:1014F0000E031362D1F804A00AF0030B02680BFA82
:101500000CF332401A431AF4403F4FF0010A0260D4
:1015100098D0002243F644030192C4F202031A68F1
:1015200043F6004E42F480421A601A68C4F2010E7B
:1015300002F480420192019A28F003024FF6084C0F
:101540007244CFF6FF7C52F80C3004F00C060F25E5
:10155000B540AB43009D05FA06F6334342F80C3024
:10156000DEF808204B6842EA090643F60C4CDD021F
:1015700058BF22EA0906CEF80860C4F2010CDCF874
:1015800000209D0242EA090658BF22EA0906CCF86B
:101590000060DEF804209D0342EA090658BF22EAF3
:1015A0000906CEF80460DEF80020DB0342EA0906F3
:1015B00058BF22EA0906CEF8006043E702B0BDE852
:1015C000F08F000046F6A040C2F2000000687047AD
:1015D00040F2000046F6A041C2F20000C2F2000153
:1015E00000780A68104408607047000080B543F630
:1015F0000040C4F20200016841F40071016001681A
:1016000041F480610160016841F480710160032050
:1016100000F0BEF80F2000F005F800F061F800209F
:1016200080BD000070B586B0002543F640010195ED
:10163000C4F202010A68044642F002020A60096824
:1016400001A801F0020101910199694600F060F9D9
:10165000049E002E18BF012600F080F94DF683612C
:10166000B040C4F21B31A0FB01014FF0FF3000EB92
:10167000914140F2604040F20042C2F20000C4F2E8
:10168000000240F2E733C0E90021C0E902530561DE
:10169000856100F005FC054610B1284606B070BD16
:1016A00040F26040C2F2000000F02AFC054600282B
:1016B000F3D11D2000F030F80F2C0DD81D2021464D
:1016C0000022002500F038F840F20400C2F20000C9
:1016D0000460284606B070BD0125284606B070BDDE
:1016E00082B0002043F640010190C4F202014A6832
:1016F00042F480424A604A6802F480420192019AB0
:101700000090086840F080500860086800F0805041
:101710000090009802B07047002848BF704700F062
:101720001F01012202FA01F14EF200124009CEF22D
:10173000000242F82010704710B54EF60C5CCEF255
:10174000000CDCF80030C3F3022E8EF00704042CEA
:1017500028BF0424BEF103034FF0FF3E0EFA04F449
:1017600038BF0023A14399400EFA03F39A43114373
:1017700000F00F02043A624409010C3200F16043A8
:10178000B0F1FF3FC8BF03F56442117010BD000007
:101790004EF60C51CEF200010A684FF6FF031A40D4
:1017A00060F30A2242F0806040F0FD7008607047EC
:1017B0002DE9F041002800F08B8043F60808C4F2C0
:1017C00002080446D8F8F8030D4600F007008842E6
:1017D00007D288F8F853D8F8F80300F00700A842B9
:1017E00076D12068810717D5410705D5D8F80010B4
:1017F00041F4E051C8F80010010705D5D8F80010F1
:1018000041F46041C8F80010D8F80010A26821F037
:10181000F0011143C8F80010C0073FD1D8F8F80311
:1018200000F00700A84207D988F8F853D8F8F80361
:1018300000F00700A8424BD12068410707D5D8F82F
:101840000010E26821F4E0511143C8F800100007CD
:1018500008D5D8F80000216920F4604040EAC100B2
:10186000C8F8000000F0A2F8D8F800104BF22422CB
:10187000C1F30311C0F60002515C40F2080220FAE5
:1018800001F140F20400C2F200000068C2F200025E
:101890001160FFF7C7FE0020BDE8F0816068811E7F
:1018A000022907D258F8081C89015CBF0120BDE855
:1018B000F08111E0012807D158F8081C89035CBFAA
:1018C0000120BDE8F08107E058F8081C890703D41F
:1018D0000120BDE8F08100BFD8F8001021F003011D
:1018E0000843C8F80000FFF76DFE064641F288374E
:1018F000D8F80000616800F00C00B0EB810F8DD0CB
:10190000FFF760FE801BB842F2D90320BDE8F081EA
:101910000F22026043F60802C4F20202136803F0C9
:1019200003034360136803F0F0038360136803F458
:10193000E053C360D2F800C04FF4E05303EADC0385
:101940000361D2F8F80300F0070008607047000058
:1019500040F20800C2F200000068704740F2080040
:1019600043F60801C2F20000C4F2020100680968EF
:101970004BF23422C1F38221C0F60002515CC84010
:101980007047000040F2080043F60801C2F2000070
:10199000C4F20201006809684BF23422C1F34231FB
:1019A000C0F60002515CC8407047000010B543F615
:1019B0000404C4F20204606800F00C0142F200402A
:1019C0000829C0F2F40007D0042918BF10BD41F265
:1019D0000020C0F27A0010BD216801F03F022168AA
:1019E00023684902C3F3881106D4A1FB0001002338
:1019F000FEF7DEFC07E000BF41F20020C0F27A00F3
:101A00004843B0FBF2F021680222C1F3014102EB2E
:101A10004101B0FBF1F010BD2DE9F04182B000288A
:101A20006AD00446007843F60006C007C4F20206F6
:101A30000BD0B06800F00C00042840F0A1803068A2
:101A4000800302D56068002856D0207880071AD518
:101A5000B06810F00C0F09D0B06800F00C00082836
:101A600040F0A8807068400200F1A48030688007D0
:101A700002D5E06801283FD13068216920F0F800E4
:101A800040EAC10030602078000739D42078400750
:101A90004ED4A5695DB3B06800F00C00082840F092
:101AA000BD80012D28D07068E16900F480028A426F
:101AB00022D1216A00F03F028A421DD147F6C0714F
:101AC000626A0140B1EB821F16D1A26A0023CFF6F1
:101AD000FF7303EBC23200F440316FF30F02914207
:101AE0000AD1E16A00F07060B0EB016F04D1002010
:101AF00002B0BDE8F08100BF012002B0BDE8F08176
:101B00006069002840F20000C4F2472076D001212D
:101B1000C0F8801EFFF756FD054600BF706F8007B6
:101B2000B4D4FFF74FFD401B0228F7D9DDE000BF1A
:101B3000306C10F080580AD100200190306C40F0D9
:101B400080503064306C00F080500190019847F272
:101B50000007C4F200073868C00541D4386840F473
:101B600080703860FFF72EFD054600BF3868C0055D
:101B700036D4FFF727FD401B0228F7D9B5E000BF98
:101B8000B06800F00C00082803D1706840023FF5EF
:101B900056AF6068B0F5803F07D0B0F5A02F40F099
:101BA0008D80306840F480203060306840F48030B0
:101BB00030608DE0E068002852D00020C4F2472059
:101BC00001210160FFF7FEFC054600BF3068800779
:101BD0003FF552AFFFF7F6FC401B0228F6D984E030
:101BE000A068012805D005284ED1306F40F00400D0
:101BF0003067306F40F0010030674FE00021C0F8DF
:101C0000801EFFF7DFFC0546706F80077FF53EAF53
:101C1000FFF7D8FC401B0228F6D966E00027C4F283
:101C2000472700203866FFF7CDFC022D05460BD173
:101C3000306880015ED5FFF7C5FC401B02284FF0DD
:101C40000300F5D954E700BF306880017FF54FAF3E
:101C5000FFF7B8FC401B02284FF00300F4D947E718
:101C60000020C4F2472000210160FFF7ABFC0546CD
:101C7000306880077FF507AFFFF7A4FC401B022800
:101C80004FF00300F4D933E7316F002821F0010150
:101C90003167316F21F0040131674DD0FFF792FCBD
:101CA000054641F2883700BF306F800756D4FFF7F2
:101CB00089FC401BB842F7D917E000BF3168002803
:101CC00021F480313160316821F4802131604FD0BE
:101CD000FFF778FC054600BF306880033FF5B5AEDE
:101CE000FFF770FC401B6428F6D9032002B0BDE862
:101CF000F08100BF04F11C052FCD08430021CFF671
:101D0000FF7140EA821001EBC3316FF30F0140EA2B
:101D100005600843706001203866FFF753FC0446F5
:101D2000306880013FF5E3AEFFF74CFC001B022852
:101D30004FF00300F4D9DBE6FFF744FC054641F21F
:101D4000883700BF306F800708D5FFF73BFC401B8A
:101D5000B8424FF00300F5D9CAE600BFB8F1000F52
:101D60007FF497AE306C20F08050306491E600BF75
:101D7000FFF728FC054600BF306880037FF565AE9D
:101D8000FFF720FC401B64284FF00300F4D9AFE6B6
:101D9000411E0020B0EB116F1CBF012070474EF2B6
:101DA0001002CEF2000251604EF62351CEF2000135
:101DB000F0230B700721906011607047704700009E
:101DC00070470000B0B590F83C20012A04BF022003
:101DD000B0BD01F108053CCDD1E900CE23F47C5320
:101DE00022F470521A432EF4F0431A432CF4E043C9
:101DF0001A4324F4C0431A432A43C96922F4804297
:101E0000036811435964002180F83C100846B0BDB6
:101E100010B590F83C20012A4FF002023ED080F825
:101E20003D200268D2F804E0D2F808C00C682EF019
:101E30007003234340F6FF34C4F20004A24253600F
:101E400010DCB2F1804F1ED040F20043C4F2000318
:101E50009A4218D040F60003C4F200039A4212D00E
:101E600016E000BF40F60043C4F200039A420AD0D5
:101E700044F20003C4F201039A4204D00023C4F2E6
:101E800001039A4204D149682CF080031943916000
:101E90000121002280F83D1080F83C20104610BD42
:101EA000002804BF0120704710B5044690F83D009B
:101EB00028B9002084F83C00204600F01FF80220DA
:101EC00084F83D002068211D01F004FC012084F805
:101ED000460084F83E0084F83F0084F8400084F80F
:101EE000410084F8420084F8430084F8440084F8F8
:101EF000450084F83D00002010BD00007047000040
:101F000090F83D1001291CBF01207047022180F884
:101F10003D10006840F6FF32C168C4F200029042F2
:101F200041F00101C1600FDCB0F1804F1DD040F2E3
:101F30000041C4F20001884217D040F60001C4F20B
:101F40000001884211D017E040F60041C4F20001C0
:101F500088420AD044F20001C4F20101884204D050
:101F60000021C4F20101884206D1816801F0070115
:101F7000062904BF00207047016841F0010101609B
:101F800000207047704700007047000070B504469D
:101F90000068C5680669B10716D515F0020113D0AF
:101FA0006FF002010161012121778069800703D070
:101FB0002046FFF7E9FF05E0204600F08FF82046B5
:101FC00000F046FA00202077700719D515F00400BC
:101FD00016D020686FF00401016102212177806929
:101FE00010F4407F04D02046FFF7CEFF06E000BF8C
:101FF000204600F073F8204600F02AFA00202077EF
:10200000300717D515F0080014D020686FF00801CC
:10201000016104212177C069800703D02046FFF7C2
:10202000B3FF05E0204600F059F8204600F010FA12
:1020300000202077F00619D515F0100016D0206882
:102040006FF01001016108212177C06910F4407F11
:1020500004D02046FFF798FF06E000BF204600F0BE
:102060003DF8204600F0F4F900202077F00718BF73
:1020700015F0010002D1300609D412E020686FF09B
:1020800001010161204600F099FB300609D515F0E9
:10209000800006D020686FF0800101612046FFF7C4
:1020A0008DFE700609D515F0400006D020686FF04F
:1020B00040010161204600F08BFBB00658BF70BDA7
:1020C00015F0200008D021686FF0200220460A6138
:1020D000BDE87040FFF774BE70BD0000704700009F
:1020E0002DE9F04390F83C30012B04BF0220BDE8FD
:1020F000F0834FEAB202032A3AD8DFE802F0034144
:102100007DB700BF036800261D6A1A6AC4F2010683
:1021100022F001021A621A465C6852F818CFB342E4
:102120008E68D1F800E025F0020545EA06050CD1DD
:10213000CE68D1E9057824F4407425F00C0526F02A
:1021400004063C43354344EA08042CF0730747EA8D
:102150000E075C609F614F6809695F631D629F693C
:1021600047F008079F619F6927F004079F61ACE073
:102170000121002280F83C200846BDE8F08300BF22
:10218000036800261D6A1A6AC4F2010622F01002D2
:102190001A621A46D3F804C052F8184FB3428E6838
:1021A000D1F800E025F0200545EA06150FD1CE68EC
:1021B000D1E905986FF0400707EA06162CF440674E
:1021C00025F0C00547EA8907354347EA880C24F41F
:1021D000E64444EA0E27C3F804C09F614F680969CA
:1021E0009F631D629F6947F400679F619F6927F4A1
:1021F00080679F6168E000BF036800261D6A1A6A55
:10220000C4F2010622F480721A621A46D3F804C09E
:1022100052F81CEFB3428E680C6825F4007545EA4D
:1022200006250FD1CE68D1E90598360240F2FF4766
:10223000BE432CF4405725F4406547EA091735435F
:1022400047EA081C2EF073072743C3F804C0DF6178
:102250004F680969DF631D62DF6947F00807DF61C6
:10226000DF6927F00407DF612FE000BF0368002764
:10227000D3F820C01A6AC4F2010722F480521A620D
:102280001A465C6852F81C5FD1F800E08E68BB42C9
:1022900004D14F6924F4804444EA87142CF4005795
:1022A00047EA063725F4E64646EA0E265C60DE611C
:1022B0004E6809691E641F62DF6947F40067DF61C9
:1022C000DF6927F48067DF61090213681943116031
:1022D0000021002280F83C200846BDE8F083000081
:1022E000002804BF0120704710B5044690F83D0057
:1022F00028B9002084F83C00204600F01FF8022096
:1023000084F83D002068211D01F0E4F9012084F8E3
:10231000460084F83E0084F83F0084F8400084F8CA
:10232000410084F8420084F8430084F8440084F8B3
:10233000450084F83D00002010BD00002DE9F04F5D
:1023400081B0044600680021C4F20101884203D034
:1023500001B0BDE8F08F00BF002743F644000097AE
:10236000C4F20200016840F2F82541F00101016069
:10237000006846F2284100F001000090C4F202011A
:102380000098C2F200054FF040684FF48060C5E944
:10239000001805F1100140264FF400694FF4005A6F
:1023A0004FF4807B81E8010E2846C5E90267C5E944
:1023B0000877FEF79DFD002818BFFEF7CDFB46F21B
:1023C00028406562AC63C4F2020040F25835183010
:1023D000C2F20005C5E900084FF4806005F1100164
:1023E00081E8010E2846C5E90267C5E90877FEF7CE
:1023F0007FFD002818BFFEF7AFFB46F22840A5621C
:10240000AC63C4F2020040F2B8357830C2F2000585
:102410004FF04061402200234FF480674FF4006684
:1024200085E88F0005F114004FF4005C4FF4807EC6
:1024300080E840502846C5E90833FEF759FD0028DA
:1024400018BFFEF789FBE562AC6301B0BDE8F08F11
:1024500040F24011C2F2000149684A68824218BF46
:102460007047896800F030B970470000B0B50C467D
:10247000054649B1082C15D0042C14BF05F14100C4
:1024800005F13F0010E000BF95F83E00022804BFB0
:102490000220B0BD05F13E000078012840F0C48064
:1024A0001AE000BF05F140000078022804BF0220B6
:1024B000B0BD082C0AD0042C14BF05F1410005F171
:1024C0003F000078012840F0AF8005E005F14000B2
:1024D0000078012840F0A880002A4FF0010018BFC2
:1024E000002B01D1B0BD00BF02206CB1082C13D06D
:1024F000042C14BF85F8410085F83F004FEAB40072
:10250000032810D990E000BF85F83E004FEAB400E0
:10251000032808D988E000BF85F840004FEAB400DE
:10252000032800F28180DFE800F00323436300BF4B
:10253000686A43F2D571C0F60001C163686A43F668
:102540004101C0F600010164686A43F67901D5F8DB
:1025500000C0C0F60001C164686A0CF1340C114679
:102560006246FEF777FD00285ED14FF400715FE010
:10257000A86A43F2D571C0F60001C163A86A43F6A8
:102580004101C0F600010164A86A43F67901D5F85B
:1025900000C0C0F60001C164A86A0CF1380C1146F5
:1025A0006246FEF757FD00283ED14FF480613FE0C0
:1025B000E86A43F2D571C0F60001C163E86A43F6E8
:1025C0004101C0F600010164E86A43F67901D5F8DB
:1025D00000C0C0F60001C164E86A0CF13C0C114671
:1025E0006246FEF737FDF8B94FF4006120E000BF06
:1025F000286B43F2D571C0F60001C163286B43F626
:102600004101C0F600010164286B43F67901D5F859
:1026100000C0C0F60001C164286B0CF1400C1146EB
:102620006246FEF717FD08B10120B0BD4FF480519E
:102630002868C2681143C16004F01F010122036AC7
:102640008A4023EA02010162036A4421C4F20101C3
:102650001A43A1F144039842026203D10A6842F48A
:1026600000420A6040F6FF31C4F2000188420DDCEE
:10267000B0F1804F1BD040F20041C4F2000188420B
:1026800015D040F60001C4F200010EE040F6004112
:10269000C4F2000188420AD044F20001C4F20101F0
:1026A000884204D00021C4F20101884206D1816829
:1026B00001F00701062904BF0020B0BD016841F008
:1026C000010101600020B0BD70B50D464FEAB101B7
:1026D00003290DD80446DFE801F0030D151D00BFE6
:1026E000204650F8241BCA6822F4007218E000BF8C
:1026F000012070BD204650F8281BCA6822F4806271
:102700000EE000BF204650F82C1BCA6822F400627D
:1027100006E000BF204650F8301BCA6822F4805201
:10272000CA6000684426C4F20106FEF7EFFA20688A
:1027300005F01F010122036A02FA01F123EA0101F7
:102740000162016AA6F14402904201620ED156F87C
:10275000241C41F21112114208D1016A40F2444294
:10276000114203D1316821F400413160016A41F224
:102770001112114204D1016A40F24442114211D0B7
:102780000120082D15D0042D08D0002D14BF84F889
:10279000410084F83E00002070BD00BF84F83F0077
:1027A000002070BD016821F0010101600120082DA9
:1027B000E9D184F84000002070BD0000006840F2BC
:1027C0000041C4F20001884208BFFEF701BF704714
:1027D000704700007047000070470000B0B582B03D
:1027E000044600680168C368426901F02F05202D86
:1027F00003F0200506D12DB1204602B0BDE8B0405F
:1028000001F070B85FEA017C1EBF02F0010E03F414
:10281000907212EB0E0255D1226B012A05D111F0F4
:10282000100218BF13F0100236D10A0622D513F099
:1028300080021FD094F84110212941D1A168B1F53F
:10284000805F03D12169002900F07282216A4A1C4D
:10285000226209784160E18C01390A04E1842FD1B8
:10286000C16821F08001C160C16841F04001C160D0
:1028700002B0B0BD490623D513F0400120D0C16895
:1028800021F04001C1602021204684F8411002B0AF
:10289000BDE8B04000F0D8BB002101910168019172
:1028A0004168019101994169490600F18F80A18D2C
:1028B000E28DE38D002B1CBF891A5FEA01420CD127
:1028C00002B0B0BDCA0718BF13F4807240F038815F
:1028D0004A0700F13B8140E1206850E8030F22687D
:1028E00020F4907042E80303DBB1206850E8030F46
:1028F000226820F4907042E8030393B1206850E806
:10290000030F226820F4907042E803034BB1206863
:1029100050E8030F226820F4907042E80303002B74
:10292000DAD1206850E8050F226820F0010042E863
:102930000503DBB1206850E8050F226820F0010094
:1029400042E8050393B1206850E8050F226820F0A3
:10295000010042E805034BB1206850E8050F2268EA
:1029600020F0010042E80503002BDAD1202084F892
:10297000420000202063206850E8030F226820F006
:10298000100042E80303DBB1206850E8030F22681F
:1029900020F0100042E8030393B1206850E8030FD1
:1029A000226820F0100042E803034BB1206850E891
:1029B000030F226820F0100042E80303002BDAD155
:1029C000022289B220466263B4E000BFE16B0A686C
:1029D000526893B2002B3FF473AFA58DAB42BFF4A6
:1029E0006FAFE285C969B1F5807F00F09C8050E847
:1029F000030F216820F4807041E80302E2B12068EF
:102A000050E8030F216820F4807041E803029AB176
:102A1000206850E8030F216820F4807041E8030229
:102A200052B1206850E8030F216820F4807041E81B
:102A300003020AB12068DAE7206850E8050F216830
:102A400020F0010041E80502DAB1206850E8050FE6
:102A5000216820F0010041E8050292B1206850E8A9
:102A6000050F216820F0010041E805024AB1206805
:102A700050E8050F216820F0010041E80502002A16
:102A8000DAD1206850E8050F216820F0400041E8C5
:102A90000502DAB1206850E8050F216820F04000F7
:102AA00041E8050292B1206850E8050F216820F046
:102AB000400041E805024AB1206850E8050F21684E
:102AC00020F0400041E80502002ADAD1202084F8F5
:102AD000420000202063206850E8030F216820F0A6
:102AE000100041E80302DAB1206850E8030F2168C2
:102AF00020F0100041E8030292B1206850E8030F73
:102B0000216820F0100041E803024AB1206850E833
:102B1000030F216820F0100041E80302002ADAD1F7
:102B2000E06BFEF7A9F802206063A08DE18D401AEA
:102B300081B2204602B0BDE8B040FFF74BBE00BFF7
:102B4000626C42F0010262644A0706D5BEF1000FD2
:102B500003D0626C42F0020262648A0706D5BEF1BD
:102B6000000F03D0626C42F004026264BCF1000FFB
:102B700006D555EA0E0203D0626C42F00802626488
:102B8000626C002A3FF49CAE11F0200118BF002DAA
:102B900003D0204600F0A6FE20684169626C01F077
:102BA000400102F00802891800F0A28050E8030FEB
:102BB000216820F4907041E80302C2B3206850E815
:102BC000030F216820F4907041E803027AB3206873
:102BD00050E8030F216820F4907041E8030232B3FB
:102BE000206850E8030F216820F4907041E8030248
:102BF000EAB12068DAE700BF206850E8050F2168D5
:102C000020F0010041E80502DAB1206850E8050F24
:102C1000216820F0010041E8050292B1206850E8E7
:102C2000050F216820F0010041E805024AB1206843
:102C300050E8050F216820F0010041E80502002A54
:102C4000DAD1206B012824D1206850E8030F2168D5
:102C500020F0100041E80302DAB1206850E8030FC9
:102C6000216820F0100041E8030292B1206850E88A
:102C7000030F216820F0100041E803024AB12068E8
:102C800050E8030F216820F0100041E80302002AF9
:102C9000DAD1202084F842000020206320684169B6
:102CA00049063FD550E8050F216820F0400041E873
:102CB00005022AB3206850E8050F216820F0400083
:102CC00041E80502E2B1206850E8050F216820F0D4
:102CD000400041E805029AB1206850E8050F2168DC
:102CE00020F0400041E8050252B12068DAE700BF59
:102CF0002046FFF771FD0020606402B0B0BD00BF48
:102D0000E06B78B143F6D901C0F600010165FDF72B
:102D1000FDFF00283FF4D4ADE06B016D02B0BDE8CB
:102D2000B0400847204602B0BDE8B040FFF754BDB0
:102D3000216A31F8022B6FF35F22426021628AE53B
:102D4000002804BF0120704710B5044690F84100E8
:102D500028B9002084F84000204600F021F8242003
:102D600084F841002068C16821F40051C160204608
:102D700000F038FE2068016921F490410161416949
:102D800021F02A014161C16841F40051C160002075
:102D90002021606484F8411084F84210606310BD03
:102DA00080B586B0006841F20042C4F20102002101
:102DB0009042CDE90411CDE90211019130D044F2E5
:102DC0000041C4F2000188425BD1002043F630018B
:102DD0000090C4F202010A6942F400320A610A69F1
:102DE00002F400320092009A00900A6842F0010258
:102DF0000A60096801F00101009100990C2101911C
:102E00000221CDE902100320049007200590002044
:102E1000C4F2020001A9FEF7F7FA06B080BD00BFB8
:102E200043F630000091C4F20200426942F02002F1
:102E30004261426902F020020092009A0091026809
:102E400042F004020260006800F004000090009864
:102E5000C02001900220CDE9020103200490082047
:102E600005900020C4F2020000F5006001A9FEF701
:102E7000CBFA472000210022FEF75EFC4720FEF738
:102E80004BFC06B080BD000090F84230202B1CBFE8
:102E90000220704700294FF0010318BF002A01D11A
:102EA0001846704700230363816222218285C28510
:102EB000436480F842100169006819B1C16841F4A7
:102EC0008071C1604169002341F001014161C16825
:102ED00041F02001C16018467047000070470000B3
:102EE0002DE9F041044690F8410020281CBF022043
:102EF000BDE8F0810F4600294FF0010000F082800C
:102F00001646002A08BFBDE8F0814FF000082120D6
:102F10001D46C4F8448084F84100FEF753FBA684A4
:102F2000E684A1680646B1F5805F05D120690028D6
:102F300014BF3846B8460746E08CC8B1681C19D0A3
:102F4000002D61D1216807E017F8010B4860E08C83
:102F50000138E084E08C68B3086800064CD5002F87
:102F6000F2D138F8020B00276FF35F20EEE700BFC5
:102F700021681FE0216802E00868000609D408689B
:102F8000000606D4086800065CBF08685FEA0060B7
:102F9000F2D51FB117F8010B05E000BF38F8020B9E
:102FA00000276FF35F204860E08C0138E084E08CFC
:102FB0000028E4D1086840061CD4EDB1681C0FD18C
:102FC0000868400616D40868400613D4086840060E
:102FD00010D4086840064FF00000F1D50FE000BFA4
:102FE000FEF7F0FA801BA84208D82068C168006884
:102FF0004006F5D5002002E0FEF7E4FA0320202188
:1030000084F84110BDE8F081216800BF086800061F
:1030100008D4FEF7D7FA801BA842EFD82168C86809
:10302000F4E700BF17B117F8010B04E038F8020B02
:1030300000276FF35F204860E08C0138E084E08C6B
:103040000028E3D1B6E700007047000080B582B0E9
:103050000020019043F63000C4F202000168002213
:1030600041F4800101600068002100F480000190BB
:1030700001983920FEF760FB3920FEF74DFB3A201E
:1030800000210022FEF758FB3A20FEF745FB4520C1
:1030900000210022FEF750FB452002B0BDE8804031
:1030A000FEF73ABB80B586B0002043F63001CDE98B
:1030B00004000090C4F202010A6842F080020A6033
:1030C0000A6802F080020092009A00900A6842F0BA
:1030D00001020A600A6802F001020092009A009060
:1030E0000A6842F004020A60096801F004010091D4
:1030F00000991021CDE9011003900020C4F20200D4
:1031000001A9FEF781F906B080BD0000B0B598B006
:10311000002540F21840C4F201050021C2F200006F
:1031200068221191CDE90F11CDE90D11CDE90B11F7
:10313000CDE90911CDE90711CDE90511CDE903115B
:10314000CDE90111C0E90051C0E90212C0E9041142
:103150008161FFF7C5F8002818BFFDF7FDFC40F2BC
:103160001840C2F2000010A9FEF752FE002818BF56
:10317000FDF7F2FC602009900020CDE90A00CDE9BE
:103180000C00CDE90E0040F21840C2F2000009A97F
:103190000022FEF7A5FF002818BFFDF7DDFC40F276
:1031A0001840C2F2000009A90422FEF799FF002886
:1031B00018BFFDF7D1FC40F21840C2F2000009A987
:1031C0000822FEF78DFF002818BFFDF7C5FC40F26E
:1031D000184400204FF40051C2F200040590CDE9DC
:1031E0000300CDE901000691089001A92046FEF7F1
:1031F000E9FD002818BFFDF7AFFC2068A84201D008
:1032000018B0B0BD002043F630011390C4F20201A3
:103210000A6842F001020A60096801F00101139195
:1032200013994FF4E06113910221CDE91410169027
:103230000120179005F5803013A9FEF7E5F818B0C6
:10324000B0BD000080B540F2A84044F20041C2F297
:103250000000C4F2000100234FF00C0C4FF4E132E7
:1032600080E80E00C0E90333C0E905C3C361FFF77E
:1032700067FD002808BF80BDBDE88040FDF76CBC3D
:1032800080B540F2F04041F20041C2F20000C4F2C9
:10329000010100234FF00C0C4FF4E13280E80E00E6
:1032A000C0E90333C0E905C3C361FFF749FD002846
:1032B00008BF80BDBDE88040FDF74EBCFEE70000C2
:1032C000FEE700002DE9F04381B0E8B181460EC071
:1032D0008AA0884605F012FE08EB48006E2101EB3B
:1032E000001688A0314605F009FEB6F5205F11D919
:1032F0004BF6C330C0F6000031464FF4205201B007
:10330000BDE8F04305F0FABD94A001B0BDE8F0437C
:1033100005F0F4BD44F2A040C2F20000C9F80C0070
:1033200080A005F0EBFDB8F1010FC0F2D280D9F812
:103330000C00A8F101016E30032908F0030C01D242
:1033400000227EE028F0030300224FF6FC7E2221BB
:103350004FF0221602EA0E0707EB47052C01015336
:103360007C1C00EB051504EB440469846E62AE62BC
:10337000EE62C5F81260C5F81660C5F81A60C5F8A7
:103380001E60C5F80260C5F80660C5F80A60C5F899
:103390000E60250100EB04146184A184E184218581
:1033A0006185A185E18521826182A182E1822183FB
:1033B0006183A183C4F81E606180A180E1802181C6
:1033C0006181A181E181BC1C04EB440441532501CE
:1033D00000EB04146184A184E18421856185A185C9
:1033E000E18521826182A182E18221836183A183BF
:1033F000C4F81E606180A180E18021816181A1818A
:10340000E181FC1C04EB440404324153250100EB30
:10341000041493426184A184E18421856185A1859E
:10342000E18521826182A182E18221836183A1837E
:10343000C4F81E604651666021816181A181E181ED
:1034400088D1BCF1000F44D091B2490011FA82F149
:103450000B0100EB01174FF02211BCF1010F396293
:103460007962B962F96239617961B961F961C15012
:103470007960B960F9602CD0531C9FB27F0017FAB5
:1034800083F31F0100EB0313BCF1020F19625962B1
:103490009962D962196159619961D961C1515960C3
:1034A0009960D96015D0911C8AB2520012FA81F14C
:1034B0000A0100EB01114FF022130B624B628B6289
:1034C000CB620B614B618B61CB6183504B608B6036
:1034D000CB6016A005F012FD40F24010C2F20000D1
:1034E00001684A1C026000EB810212A04146C2F84A
:1034F000049001B0BDE8F04305F000BD7374657041
:1035000020320A00E9A284E8AEA1E4BDBFE794A896
:10351000E5A0863A20256C7520E5AD97E88A820AF9
:10352000000000007374657020330A0073746570C6
:1035300020340A00E5889DE5A78BE58C9657533229
:10354000383132E5AE8CE688903A0AE781AFE78FF2
:10355000A0E695B03A25640A00000000506F696E3D
:1035600074657220746F205247425F4C454420734B
:103570007472756374757265206973204E554C4C76
:103580002E0A000080B505F09DFC06F0C3FCBDE8E6
:10359000804005F0A5BC0000B0B592B0002443F611
:1035A00040000B94CDE90944CDE907440594CDE9E9
:1035B0000344CDE901440094C4F2020001680225ED
:1035C00041F080510160006800F080500090009848
:1035D00047F200000094C4F20000016865F38F31E7
:1035E0000160006800F440400090009801200990BC
:1035F00010200A900E90A820CDE90F05042011900C
:1036000006A80695CDE90C54FEF706FA10B172B67D
:10361000FEE700BF0F20CDE901054FF48050CDE952
:10362000040401A802210394FEF7C2F810B172B697
:10363000FEE700BF12B0B0BD43F60400C4F20200C2
:10364000416801F00C0242F20041082AC0F2F40184
:1036500006D0042A1DD141F20021C0F27A0118E0FF
:1036600002680368520241F20022C0F27A0203F0BB
:103670003F0358BF0A460168B2FBF3F20368C1F387
:1036800088115143C3F30142022303EB4202B1FB11
:10369000F2F140F20802C2F20002116040684BF2FF
:1036A0002423C0F30310C0F60003185C21FA00F0D5
:1036B000106070474EF68850CEF20000016841F469
:1036C000700101607047000040F26040C2F20000EB
:1036D000FEF75CBC10B540F2FF7E0368C4F2000E3A
:1036E00040F2000C7045C4F2010C1DDD40F60002F2
:1036F000C4F20002904220D060451ED040F6004245
:10370000C4F20002904218D04FF6FF72C4F20002D9
:1037100090421CDC704525DCB0F1804F3AD040F27D
:103720000042C4F2000233E0B0F1804F05D040F215
:103730000042C4F200029042E6D14A6823F07003CE
:1037400013434FF6FF72C4F200029042E2DD44F2EE
:10375000FF32C4F20102904210DC60451AD044F2FC
:10376000000213E040F60002C4F20002904211D0C1
:1037700040F60042C4F200020AE000BF44F6000234
:10378000C4F20102904205D044F20042C4F20102A8
:10379000904203D1CA6823F44073134323F080029C
:1037A0004B69D1F800E08C681A4360450260C4623E
:1037B000C0F828E002D10969CCF83010012141613C
:1037C0000169C90708BF10BD016921F0010101614C
:1037D00010BD000010B5846B616A814212D0A16AED
:1037E000814217D0E16A81421CD0216B814220D1F5
:1037F000C06908210028217704BF012084F8410016
:1038000017E000BFC16901200029207708BF84F8B4
:103810003E000EE0C0690221217750B9012084F8F2
:103820003F0006E0C0690421217710B9012084F827
:1038300040002046FEF70CFE0020207710BD00005F
:1038400010B5846B616A81420AD0A16A814209D0B5
:10385000E16A814208D0216B814207D1082004E04F
:10386000012002E0022000E0042020772046FEF73D
:10387000FBFD0020207710BD10B5846B616A81428A
:103880000CD0A16A81420FD0E16A814212D0216B33
:10389000814215D0012084F83D0016E001202077F8
:1038A00084F83E0011E000BF02202077012084F858
:1038B0003F000AE004202077012084F8400004E063
:1038C00008202077012084F841002046FEF75AFBAB
:1038D0000020207710BD0000806B0021C185C184CD
:1038E000FEF77ABF81B090F84210222920D1836878
:1038F000B3F5805F08D10169002965D000F1280186
:103900000A6803685B680AE0014651F8282F13B97A
:103910000369002BF5D003685B6803F07F03137025
:103920000A6801320A60C18D01390A04C18501D0DB
:1039300001B070470168CA6822F02002CA60CA68F4
:1039400022F48072CA604A6922F001024A61202290
:1039500080F8422000224263036B012B3ED10263B8
:1039600051E8031F026821F0100142E803130168C7
:10397000DBB151E8031F026821F0100142E8031394
:10398000016893B151E8031F026821F0100142E879
:10399000031301684BB151E8031F026821F01001C5
:1039A00042E803130168002BDAD10A68D20606D573
:1039B000002200920A680092496800910099818D66
:1039C00001B0FEF707BF00BF0168826A49686FF364
:1039D0005F2122F8021B8262A5E700BF01B0FFF75A
:1039E0007DBA000010B504460068D4E902C223691C
:1039F000016921F4405111430161626943EA0C01FC
:103A0000E3691143C268194349F20C639A431143B5
:103A1000C1604169A26921F4407141F20043114340
:103A200040F48062C4F201039A42416102D1FDF781
:103A3000A9FF01E0FDF792FFE16963681922B1F582
:103A4000004FA0FB02011FD15A00DB0FFCF7B0FCB6
:103A500048F21F51C5F2EB11A0FB01235A096FF088
:103A6000630302FB0300322303EBC000A0FB010150
:103A70004FF4F87000EA111000EB0210C1F342118C
:103A800008442168886010BD9A009B0FFCF790FCE9
:103A900048F21F51C5F2EB11A0FB01235A096FF048
:103AA000630302FB0300322303EB0010A0FB0101C0
:103AB000F02000EA511000EB0210C1F3431108445A
:103AC0002168886010BD000040F2F040C2F20000A2
:103AD000FEF784BEFEE70000C06802EB420244230A
:103AE00000EB02100A0258BF2223A0F88E304B02CE
:103AF0004FF0440358BF2223A0F890308B024FF0C0
:103B0000440358BF2223A0F89230CB024FF0440365
:103B100058BF2223A0F894300B034FF0440358BF42
:103B20002223A0F896304B034FF0440358BF2223C2
:103B3000A0F898308B034FF0440358BF2223A0F81D
:103B40009A30CB034FF0440358BF2223A0F89C3097
:103B50000B044FF0440358BF2223A0F87E304B04DF
:103B60004FF0440358BF2223A0F880308B044FF05D
:103B7000440358BF2223A0F88230CB044FF0440303
:103B800058BF2223A0F884300B054FF0440358BFE0
:103B90002223A0F886304B054FF0440358BF222360
:103BA000A0F888308B054FF0440358BF2223A0F8BB
:103BB0008A30CB054FF0440358BF2223A0F88C3045
:103BC0000B064FF0440358BF2223A0F86E304B067B
:103BD0004FF0440358BF2223A0F870308B064FF0FB
:103BE000440358BF2223A0F87230CB064FF04403A1
:103BF00058BF2223A0F874300B074FF0440358BF7E
:103C00002223A0F876304B074FF0440358BF2223FD
:103C1000A0F878308B074FF044024FF0440358BFB0
:103C20002223A0F87A30C90708BF2222A0F87C20FE
:103C30007047000060B10388D0E901C1C26803EB9E
:103C40004300372303EBC00083B26046FEF70EBC8F
:103C50004BF69F30C0F6000005F050B9002804BFB5
:103C600000207047C1B209B101200CE010F47F417F
:103C700002D0090A092006E010F47F0107BF010EF7
:103C80001920090C11204BF23C22C0F60002515CB5
:103C90000844704770B588B005464BF21020C0F656
:103CA000000090E81E0000690DF10C0C07904FF425
:103CB0007F408CE81E0002900FA002A9042200237E
:103CC00001F02CFA029A052403AE284600214FF495
:103CD000FA630096019400F051FB029928460022F5
:103CE0004FF4FA630096019400F048FB4FF4FA7029
:103CF00005F0ECFF08B070BD626F64795F636F6CB4
:103D00006F7200002DE9F04F89B0044600250FF2D4
:103D1000AC400191CDE9025505F0F0F840F2481AA7
:103D20004FF0FF38C2F2000A04AE4FF0010B4FF023
:103D3000FF37C4F8048002E02570C4F80C80781CBA
:103D400018D0E0688102013008BF4FF480610F4451
:103D500000219AF80400C0F6010101F5006900286D
:103D6000484608BF4FF40060874271D2B8050BD0B7
:103D700056E000BF9AF804700020002FC0F6010042
:103D800018BF0746B8054BD138463146142201F01A
:103D90004FFC069844F24561C3F2340188426760E3
:103DA000A060C9D19DF81200079984F800B0E160C5
:103DB00060B19DF81100D8B19DF81000B0FA80F004
:103DC00040099DF81510607029B917E003209DF88F
:103DD0001510607091B19DF81410B9B19DF81310D1
:103DE000B1FA81F149090128A1700BD112E000BF9D
:103DF00002209DF8151060700029ECD103210128E4
:103E0000A17007D002289AD102A804E0022101285B
:103E1000A170F7D103A80168013101608FE700BFED
:103E20004CF22C074CF242004BF6D5524CF21403E4
:103E3000C0F60007C0F60000C0F60002C0F600039E
:103E400040F24B21009701F0D5FA00BFFEE700BF1A
:103E5000DDE9025B0FF2843059462A4605F04EF840
:103E6000002D4FF0FF3600F09B800FF2A43005F0DC
:103E700045F8DDF8048004AF4FF0FF30666004E0E1
:103E8000012800F0878000BF6068411C14D0E16801
:103E90008A02013108BF4FF480629AF804101518A5
:103EA0000029484608BF4FF40060854280F09680A4
:103EB000A8050BD07AE000BF9AF804500020002D2E
:103EC000C0F6010018BF0546A8056FD1284639463F
:103ED000142201F0ADFB069844F24561C3F23401AF
:103EE00088426560A06013D1012020709DF8120007
:103EF0000799E160A0B19DF8110018B39DF810007A
:103F0000B0FA80F040099DF81510607069B91FE0A3
:103F1000002020706078E6600228B5D124E000BF60
:103F200003209DF81510607091B19DF81410A9B18F
:103F30009DF81310B1FA81F14909A1700228A3D1AB
:103F400012E000BF02209DF8151060700029ECD12E
:103F50000321A170022897D106E000BF0221A170C1
:103F600002287FF491AF00BF28462146012204F0C9
:103F700077FA207800283FF487AF206940457FF624
:103F800083AFA07802287FF47BAF9AF80600002860
:103F90007FF47AAF6669BBF1000F25D103E100BF62
:103FA000DDF80480BBF1000F1ED1FCE04CF22C07C1
:103FB0004CF242004BF6D5524CF21403C0F6000707
:103FC000C0F60000C0F60002C0F6000340F24B212C
:103FD000009701F00FFA00BFFEE700BF4FF0FF3679
:103FE000BBF1000F00F0DF80701C40F0DC804BF66E
:103FF0003950C0F6000004F081FFBBF1010F04D876
:104000009AF80600012840F0B7804BF6E940C0F668
:10401000000004F073FF4FF0FF3704AE4FF0010BC8
:104020004FF0FF30676006E09AF80600002800F0C5
:10403000858000BF6068411C14D0E1688A020131AC
:1040400008BF4FF480629AF80410151800294846FA
:1040500008BF4FF40060854280F08A80A8050BD02D
:104060006EE000BF9AF804500020002DC0F6010059
:1040700018BF0546A80563D128463146142201F031
:10408000D7FA069844F24561C3F23401884265606C
:10409000A06013D19DF81200079984F800B0E16088
:1040A000A0B19DF8110018B39DF81000B0FA80F08F
:1040B00040099DF81510607069B91FE0002020705C
:1040C0006078E7600128B5D124E000BF03209DF8A7
:1040D0001510607091B19DF81410A9B19DF81310DE
:1040E000B1FA81F14909A1700128A3D112E000BF02
:1040F00002209DF8151060700029ECD10321A170F9
:10410000012897D106E000BF0221A17001287FF4A9
:1041100091AF00BF28462146012204F0A1F9207882
:1041200000283FF487AF206940457FF683AFA07831
:1041300002283FF479AF01287FF47CAF666932E052
:104140004CF22C074CF242004BF6D5524CF21403C1
:10415000C0F60007C0F60000C0F60002C0F600037B
:1041600040F24B21009701F045F900BFFEE700BF88
:104170004FF0FF3617E000BF4BF66850C0F6000066
:1041800004F0BCFE4CF242004BF6DC72C0F60000BC
:10419000C0F6000240F23A4101F02CF901204FF044
:1041A000FF368AF806004BF68E60C0F600003146F6
:1041B00004F0A4FE304609B0BDE8F08FE6ADA3E5FB
:1041C0009CA8E7BB9FE8AEA1E68987E58CBAE78AA1
:1041D000B6E680812E2E2E0A00000000E7A9BAE97B
:1041E00097B2E68987E58CBAE695B0EFBC9A256C64
:1041F00075EFBC8CE4BDBFE794A8E4B8ADE6898751
:10420000E58CBAE695B0EFBC9A256C750A00000003
:10421000E4BB8EE6ADA3E59CA8E4BDBFE794A8E7A8
:104220009A84E68987E58CBAE4B8ADE58886E985A5
:104230008DE78EAFE5A283E58F98E9878F2E2E2E2E
:104240000A00000070B582B0417804460078F9B1E8
:1042500003281DD1A1784BF6F45004F11002C0F6EA
:10426000000004F04BFE204602F0F6FF70B3A36896
:104270004CF242004BF63F62C0F60000C0F600026E
:1042800040F2F36101F0B6F80125284602B070BD96
:1042900001284FF00005F8D1266B4BF6C964C0F633
:1042A0000004204604F02AFE204604F027FE4FF0CA
:1042B000FF3000906846011D301D01228DF804502A
:1042C000012501F0D7F9284602B070BD4CF242003A
:1042D000C0F6000004A240F2F16101F08BF8002565
:1042E000284602B070BD00BF5265636F7665727973
:1042F0002074686520454E5620737563636573733B
:1043000066756C2E0A00000070B584B004464FF448
:104310007F400125029010A002A9042200230395EA
:1043200000F0FCFE029A03AE204600214FF4FA632F
:104330000096019500F022F80299204600224FF4E1
:10434000FA630096019500F019F84FF4FA7005F041
:10435000BDFC04B070BD00BF63686573745F636FBC
:104360006C6F720080B502F051F9002080BD000032
:1043700080B502F0B7FA002080BD00002DE9F04FB3
:1043800081B02DED0E8B98B08346C2F30740C1F388
:104390000749A0EB090EC2F30726C1F30720D2B2EA
:1043A000C9B24CF6CD44A2EB010C5C43012202EBF6
:1043B000D44200EE102AB8EE408A00EE109AB8EE11
:1043C000409A00EE10EAA6EB000AB8EEC0AA00EE92
:1043D000100AB8EE40BA00EE10AAB8EEC0CA00EE5D
:1043E000101ADDE93058B3FBF2F3B8EE40DA00EE14
:1043F00010CAE60CB8EEC0EA00240193CDE9026BC6
:1044000005E000BFB74204F1010400F23781A0B219
:1044100000EE100AB8EE400A80EE080A04900594F7
:1044200044234424442644274FF0440CC6462AEE35
:10443000001A31EE091ABDEEC11A11EE100A2CEE67
:10444000001A31EE0B1ABDEEC11A11EE101A0A064F
:104450004FF0440258BF222217924A0658BF222327
:104460008A0658BF2224CA0658BF22260A0758BF08
:1044700022274A074FF0440258BF222216928A0789
:104480004FF0440258BF2222C9074FF04401159251
:1044900008BF2221149101064FF0440158BF222188
:1044A000139141064FF0440158BF22211291810619
:1044B0004FF0440158BF22211191C1064FF0440131
:1044C00058BF2221109101074FF0440158BF22210B
:1044D0000F9141074FF0440158BF22210E918107EF
:1044E0004FF044012EEE000A58BF2221C00730EEE3
:1044F0000D0ABDEEC00A4FF044000D9108BF222006
:1045000010EE101A0C9008064FF0440058BF2220FD
:104510000B9048064FF0440058BF22200A908806AE
:104520004FF0440058BF22200990C8064FF04400C5
:1045300058BF2220089008074FF0440058BF22209F
:10454000079048074FF0440058BF22200690880784
:1045500058BF4FF0220CC9074FF0440108BF222179
:10456000B8F1010F5FDB039A4FF0000BD2684FF0F8
:10457000000902F16E0800BF35F82B20384602EB27
:104580004202374626461C46179B08EB021A1201C8
:1045900028F80230234634463E460746AAF808006B
:1045A000169809F10109AAF80A0015981FFA89FB63
:1045B000AAF80C001498F345AAF80E001398AAF86C
:1045C0000230AAF810001298AAF80440AAF81200C3
:1045D0001198AAF80660AAF814001098AAF82CC03E
:1045E000AAF816000F98AAF82E10AAF818000E982C
:1045F000AAF81A000D98AAF81C000C98AAF81E0038
:104600000B98AAF820000A98AAF822000998AAF89C
:1046100024000898AAF826000798AAF82800069807
:10462000AAF82A00A8DBDDF80CB0F046BBF1000FB9
:1046300014D0BBF800300BF1040203EB4303372620
:1046400007CA06EBC3039BB2FDF710FF029EDDE92C
:104650000474B7423FF6D6AE0CE000BF4BF69F3075
:10466000C0F6000004F04AFC029EDDE90474B74283
:104670003FF6C8AE019805F029FBC3E618B0BDECC3
:104680000E8B01B0BDE8F08F0B46884280F0BE80F3
:104690002DE9F04F91B000F12001C2430DF1240942
:1046A0000192474209F1010A03910A460024834618
:1046B00000268046059302900DE000BFDDE905313C
:1046C000DDE907270DF1240901342032203F99420A
:1046D000884680F095804946914608979342079214
:1046E00038BF99460398A3EB080500EB4417BB427B
:1046F00008F1200038BF1F460690984238BF202599
:1047000040462A4600F094FF002DD7D00020A0EBB1
:10471000441C0198BE46604438440328049403D2E4
:1047200000200DF1240932E00898484420F00302EB
:1047300000200DF1240900BF19F80030594608EB9C
:104740000005FF2B08BF2946FF2E08BF59461AF85F
:1047500000400F460AEB0006FF2C08BF6F1CFF2B22
:1047600008BF0F467178B678FF293B4608BFAB1CDF
:10477000FF2C08BF3B46FF2E9B4608BF05F1030BED
:10478000FF2900F1040008BF9B468242D4D1029960
:1047900006AFACEB0101714411F0030CDDE90443F9
:1047A00086CF91D019F800E05B46BEF1FF0F08BF3D
:1047B00000EB0803FF2E18BF9B46BCF1010F01D18F
:1047C00076461AE0431C19F803605D46FF2E08BFC9
:1047D00003EB0805BEF1FF0F18BFAB46BCF1020F9B
:1047E0000BD0023019F800505B46FF2D08BF00EBDC
:1047F0000803FF2E2E4618BF9B46059B64E700BFAB
:10480000FF2E08BF5B4611B0BDE8F04F1846704759
:104810002DE9F04F89B0054600206C698DF807003E
:1048200008461F4692460E46FBF7BAFF212805D3DD
:10483000E6A0202104F062FB04271EE14FF0FF31C7
:10484000CDE906118DF81C003844CDE9021145F27E
:104850004B61089700F11C07C3F23401B7F57B7F69
:104860000491059708D9D1A004F048FB06273846E3
:1048700009B0BDE8F08F00BF601C06D1284639465C
:1048800003F050F9044601307AD00DF107022846B2
:10489000394606F073FA0746002840F0EE800DF125
:1048A000080808F11401002008224FF0000900F068
:1048B00089FA9DF81C203146069000F083FA089A88
:1048C0005146069000F07EFA06904BF6BA60C0F6AC
:1048D000000004F013FB4BF6C967C0F6000738462A
:1048E00004F00CFB384604F009FB4FF0FF30CDF824
:1048F00009002046414601228DF8089000F0BAFEDA
:104900000746002840F0B9804BF6BA60C0F60000B8
:1049100008F1080704F0F2FA04F1080039461422FD
:1049200000F0A8FE0746002840F0A7809DF81C7004
:1049300004F11C094BF61370C0F6000049463A46D4
:1049400004F0DCFA4BF6D760C0F60000394604F0FC
:10495000D5FABFB14BF63770C0F6000049463A466B
:1049600004F0CCFA484631463A4600F083FE48B19E
:1049700007464BF66270C0F6000004F0BFFA09E08B
:1049800088A071E74BF6F460C0F600000021002714
:1049900004F0B4FA9DF8070010B19DF81C1067E010
:1049A0009DF81C106868089A40F2481509EB01034D
:1049B000C2F2000503EB020EAB6A86450AD900F588
:1049C0008062724506D983421ED105F128024FF05C
:1049D000000C48E0834203D105F128020FE000BF3C
:1049E0002A4652F8303F834209D02A4652F8383FCF
:1049F000834204D055F8402F82422A4638D14FF0E6
:104A0000FF30106034E000BF2A4652F830BF4FF04C
:104A1000010C834527D0CDF800B0B3F1FF3B18BFA0
:104A20004FF0010B5A1C08BF4FEA8B0C009A013261
:104A30002A4652F8383F18BF4FEA8B0C834203D105
:104A40004FF0020C0FE000BF8CF0040262EA030298
:104A5000002A2A4652F8403F08BF4FF0020C83421A
:104A60007AD14FF0030C106005EBCC00C0F82CE0BD
:104A70003046224606F034F827B1384609B0BDE882
:104A8000F08F00BF9DF81C00089D09EB00064BF657
:104A90001370C0F6000031462A4604F02FFA4BF698
:104AA000D760C0F60000294604F028FAC5B14BF6DD
:104AB0003770C0F6000031462A4604F01FFA30462F
:104AC00051462A4600F0D6FD50B107464BF66270BB
:104AD000C0F6000004F012FA384609B0BDE8F08FC5
:104AE0004BF6F460C0F60000002108F10105002734
:104AF00004F004FA4BF6C966C0F60006304604F02E
:104B0000FDF9304604F0FAF94FF0FF3002908DF8CD
:104B10000C00601C294601228DF8097000F0AAFDE6
:104B200007460028A9D19DF807000028A5D04CF21F
:104B30004200C0F6000011A240F2925100F05AFC6F
:104B400040F24810C2F2000001218171002738466E
:104B500009B0BDE8F08F00BF5A1C08BFBCF1040FBC
:104B600004D0BCF1030F3FF683AF01E04FF0030C1C
:104B700005EBCC02C2E90A0E7AE700BF54726967FE
:104B8000676572206120474320636865636B20611D
:104B900066746572206372656174656420454E5663
:104BA0002E0A000066756C6C21210A004572726F36
:104BB000723A2054686520454E562073697A652004
:104BC000697320746F6F206269670A004572726FA3
:104BD000723A2054686520454E56206E616D6520FE
:104BE0006C656E677468206973206D6F72652074E0
:104BF00068616E2025640A002DE9F0418EB01546EB
:104C00000C46804629B96946404600F001FFD8B3FA
:104C10006C464BF6C967C0F60007266B384604F0B1
:104C20006DF9384604F06AF94FF0FF3040F2F017A2
:104C30008DF804000090C2F200076846A5B1C11CBF
:104C400000208DF80300F01C012200F013FD3978DC
:104C5000012911D080B9B8F1000F23D04046FBF7ED
:104C60009FFD0146404620E0811C00208DF8020097
:104C7000B01C012200F0FEFC85F001013970D0B1BA
:104C80000EB0BDE8F08100BF4CF24200C0F600005B
:104C900024A240F25641434600F0ACFB04200EB083
:104CA000BDE8F081A17804F110004FF0FF3205F06B
:104CB00017FF00203870206B40F2FF3120EA010618
:104CC0006C46F01C2146032200F0B2FC9DF8020065
:104CD00000284FF00000D3D09DF801100029CFD05C
:104CE0009DF800100029CBD14BF6C965C0F6000530
:104CF0002846013404F002F9284604F0FFF84FF08A
:104D0000FF30ADF800008DF8020000208DF80100A2
:104D100046F004002146012200F0ACFC0EB0BDE8D4
:104D2000F08100BF4E6F7420666F756E642027257A
:104D3000732720696E20454E562E0A00B0B582B00A
:104D400040F2F115C2F20005287800240194B8B9A8
:104D5000684601A900F056FC20B9DDE9000100F029
:104D600093F888B104464BF64D40C0F6000013A1FD
:104D700000F042FB4BF60440C0F6000000F03CFBA4
:104D8000204602B0B0BD00BF01202870002401A061
:104D9000EDE700BF45617379466C61736820562565
:104DA0007320697320696E697469616C697A652022
:104DB000737563636573732E0A000000342E312E01
:104DC0003939000070B5002A6FEA00034CD04BF26D
:104DD0003C30A2F1010C12F0030EC0F600001DD011
:104DE0000C4614F8015BDEB2754050F82550BEF158
:104DF000010F85EA132305D121466246BCF1030F5A
:104E000032D30EE04C78DDB26C4050F82440BEF155
:104E1000020F84EA132329D1023A0231BCF1030FB5
:104E200022D3043911F8046FDDB26E4050F82660C9
:104E3000043A86EA13234E78DDB286EA050650F876
:104E400026608D7886EA1323DEB286EA050650F8DE
:104E50002660CD7886EA1323DEB286EA050650F88E
:104E6000266086EA1323DDD1D84370BD8E78DDB28B
:104E70006E4050F82660033A033186EA1323BCF1F2
:104E8000030FF1D3CDE70000B0B582B0D0B340F24C
:104E90004814C2F20004227882BB40F2F4134FF0AF
:104EA000FF32C2F200035A60DA605A61DA615A6274
:104EB000DA625A63DA635A64DA645A65DA655A6602
:104EC000DA665A67DA67C4E902014CF2420000234D
:104ED000A2622263A263226401254FF4006CC0F633
:104EE000000011A2C0F6010340F254712571CDF803
:104EF00000C000F07FFA00F047F92570002002B0F2
:104F0000B0BD00BF4CF242004BF6D55212A4C0F621
:104F10000000C0F6000213A340F23A71009400F0C2
:104F200069FA00BFFEE700BF454E562073746172F8
:104F3000742061646472657373206973203078250E
:104F40003038582C2073697A6520697320256420D5
:104F500062797465732E0A0065665F656E765F69B7
:104F60006E69740064656661756C745F656E760069
:104F70002DE9F04F89B040F24818C2F20008D8F885
:104F80000800002858D0D8F80C00002868D0002766
:104F9000C0F6010700F032FA98F804404FF6007AA4
:104FA00044F2456B4FF0FF35C0F2FF0AC3F2340BF9
:104FB0000DF10809002C1CBF0024C0F6010400BF3D
:104FC00020464FF4806100F01DFA00285CD1204695
:104FD00049461422CDE902A5CDE904B5069500F0B5
:104FE00049FB414651F8282F064694420AD04146D3
:104FF00051F8300F844205D0414651F8380F8442B1
:1050000010D100BF0D60002E3FD198F8040004F5C8
:10501000806400284FF4006018BF07F500608442E8
:10502000CED339E0414651F8400F844208BF0D60AD
:10503000002EEAD029E000BF4CF257074CF24200A4
:105040004BF6D552C0F60007C0F60000C0F60002CD
:105050002EA340F23D61009700F0CCF9FEE700BFBF
:105060004CF257074CF242004BF6D552C0F60007FF
:10507000C0F60000C0F600021EA340F23E61009799
:1050800000F0B8F9FEE700BF064600F0B9F9304677
:1050900009B0BDE8F08F00BFD8F80C00002600284A
:1050A000F3D04FF0FF3A0DF1080900240EE000BFE5
:1050B000CDF81CA0B95948462A46FFF7A9FBD8F8F5
:1050C0000C000134844206F10C060BD2D8F80870AB
:1050D000B819D0E90153002BEAD12846FBF760FB51
:1050E0000346E5E7002600F08BF9304609B0BDE83D
:1050F000F08F00BF64656661756C745F656E765F86
:105100007365745F73697A650000000064656661A9
:10511000756C745F656E765F73657400F0B58FB003
:10512000144640F24812C2F200021278C2B11E4682
:105130000D46074600F062F901A9384600F068FC08
:10514000C0B10498002E18BF3060A04238BF04469A
:10515000A5B10E982946224600F06AFA0EE000BF7B
:105160004BF6BB50C0F6000003F0C8FE00242046FA
:105170000FB0F0BD0024002E18BF346000F040F9DD
:1051800020460FB0F0BD00002DE9F04F91B044F281
:10519000456540F2000940F24817C3F23405C0F6F5
:1051A0000109C2F2000701204FF0000B02AC4FF0E2
:1051B000FF3678714FF0FF3A701C15D04FEA8A2005
:1051C0001AF1010108BF4FF480600644387909F5EF
:1051D00000680028404608BF4FF4006086426BD24A
:1051E000B00507D050E000BF3E79002E18BF4E46F4
:1051F000B00549D130462146142200F019FA04982E
:10520000A84205D1DDF814A0701CD7D1ECE700BF8F
:105210004BF67040C0F60000314603F06FFE30469A
:105220004FF4806100F0EEF810B10BF1010BC1E713
:105230004FF600714FF0FF30C0F2FF010390029172
:10524000CDE9045006903046214614224FF0FF3835
:1052500000F010FA384650F8281FB1420ED03846F8
:1052600050F8301FB14209D0384650F8381FB142CB
:1052700004D0384650F8401FB142D6D1C0F8008063
:105280000BF1010B96E700BF4CF22C074CF24200E9
:105290004BF6D5524CF21403C0F60007C0F60000DE
:1052A000C0F60002C0F6000340F24B21009700F068
:1052B000A1F800BFFEE700BFBBF1020F04D13DA083
:1052C00003F01CFEFFF754FE00F098F84FF0FF3497
:1052D00002AE4FF0010B01E04FF0FF3A601C13D01B
:1052E0004FEA8A201AF1010108BF4FF48060397932
:1052F00004440029404608BF4FF40060844235D280
:10530000A00507D01AE000BF3C79002C18BF4C461E
:10531000A00513D120463146142200F089F90498E3
:10532000A842D9D19DF80D00DDF814A00028D5D1F0
:1053300087F806B000F0A2FED0E700BF4CF22C07C1
:105340004CF242004BF6D5524CF21403C0F6000763
:10535000C0F60000C0F60002C0F6000340F24B2188
:10536000009700F047F800BFFEE700BF44F2452376
:10537000C0F6000302A800210022002600F094FAE3
:10538000B87901280FD144F24524C0F6000402ADDB
:1053900000F074FE284600210022234600F084FA23
:1053A000B8790028F4D17E7100F02AF8002011B0FD
:1053B000BDE8F08F5761726E696E673A20416C6C80
:1053C00020736563746F7220686561646572206321
:1053D0006865636B206661696C65642E2053657433
:1053E00020697420746F2064656661756C742E0A80
:1053F0000000000070470000704700007047000088
:105400007047000070B586B004465DA00D4603F0FD
:1054100075FD5FA0214603F071FD64A0294603F0ED
:105420006DFDA00506D068A003F068FD01242046AC
:1054300006B070BD4CF26A000026C0F60000C8F24B
:10544000200603F05BFDFBF7C7FF0021281903913D
:1054500001910121B442029108D204F17841890BF3
:10546000821EB24203910FD22BE000BF06F500115D
:105470008C4219D23119A1F58001042202EB1141AD
:10548000821EB24203911CD306F500139A424FF6D6
:10549000FE72C7F6BF7219D2104400F50010042244
:1054A00002EB104016E000BF4FF6FE71C7F6BF7169
:1054B00021440231052202EB5141821EB242039186
:1054C000E2D2A0F100600238800B03E01044052214
:1054D00002EB5040401A441C022005904CF29B0005
:1054E000C0F60000049403F009FD4CF2BE00C0F6C3
:1054F00000000021002503F001FD4CF2DD00C0F6A4
:105500000000012103F0FAFC03994CF2CF00C0F631
:10551000000003F0F3FC4CF2EA00C0F60000214664
:1055200003F0ECFC4CF2AA00C0F60000022103F0EC
:10553000E5FC4CF28A00C0F60000009503F0DEFCAA
:1055400001A86946FBF7D6FD40B100994CF2FB007B
:10555000C0F6000003F0D2FC012406E04CF21C105F
:10556000C0F6000003F0CAFC00244CF27A00C0F63A
:10557000000003F0C3FCFBF783FE204606B070BDBD
:10558000E689A7E8A18C65726173650A00000000D6
:10559000E693A6E999A4E8B5B7E5A78BE59CB0E545
:1055A0009D803A203078253038580A00E693A6E9E5
:1055B00099A4E5A4A7E5B08F3A20256C7520E5AD48
:1055C00097E88A820A000000E99499E8AFAFEFBC3F
:1055D0009AE8B5B7E5A78BE59CB0E59D80E4B88D6A
:1055E000E698AF45465F45524153455F4D494E5F92
:1055F00053495A45E79A84E5808DE695B0EFBC8122
:105600000A000000B0B5054606A00C4603F076FC83
:105610004BF24470C0F60000286006210020216093
:10562000B0BD00BFE689A7E8A18C696E69740A0065
:10563000830701D0FEE700BF930701D0FEE700BF5C
:10564000B0B5AAB1002300BF10F803C000EB030EF1
:1056500001F803C09EF801C0CD1885F801C09EF87E
:1056600002400433AC709EF803409342EC70EBD3DD
:105670000020B0BD2DE9F04F81B006464CF26A0023
:10568000C0F6000014460D4603F038FCFBF7A4FEFC
:1056900043F60C401121C4F20200C0F20101016086
:1056A00023A003F02BFC8CB34FF000080FF2A809E5
:1056B0000FF2B80A0FF2C40B23A006EB080703F0A1
:1056C0001DFC55F8080002F0BBFA4846394603F0C5
:1056D00015FC55F80820022039460023FBF7DAFDB7
:1056E00056F80870504603F009FC384602F0A8FA54
:1056F000584603F003FC55F80800874208D108F12A
:105700000408A045D8D3002406E000BF002403E02D
:105710001BA003F0F3FB03244CF27A00C0F6000058
:1057200003F0ECFBFBF7ACFD204601B0BDE8F08FC9
:10573000E5BC80E5A78BE58699E585A5E695B0E60D
:105740008DAE2E2E2E0A0000E58699E585A5E695FC
:10575000B0E68DAEEFBC9A0020E588B0E59CB0E5E0
:105760009D80203078253038580A0000E8AFBBE52E
:105770008F96E695B0E68DAEEFBC9A000A00000069
:10578000E695B0E68DAEE6A0A1E9AA8CE5A4B1E865
:10579000B4A5EFBC810A00002DE9F04381B040F2CE
:1057A0004819C2F20009154699F80020D2B30E46F6
:1057B0000446FFF723FE36A0214603F09FFBEEB31D
:1057C0002046FAF7EDFF284409F1100800F11C010A
:1057D000404602F0A7F901303CD044F26841C2F2E1
:1057E0000001204600F014F900283DD044F2684141
:1057F000C2F2000120460022FFF7FEF90746D0BBA7
:105800004046214632462B46FFF702F8074690BB3A
:1058100044F26841C2F2000120460122FFF7ECF990
:1058200028E000BF4BF6BB50C0F6000003F066FB5B
:105830000727384601B0BDE8F08300BF20460021AD
:105840000122FFF7D9F90746FFF7DAFD384601B024
:10585000BDE8F08310A003F051FB0627FFF7D0FD51
:10586000384601B0BDE8F0834046214632462B461B
:10587000FEF7CEFF074699F80600012808BF00F0A2
:10588000FDFBFFF7BDFD384601B0BDE8F08300BF6A
:105890006B65793A25730A0045465F454E565F466B
:1058A000554C4C210A0000002DE9F04F8DB040F21C
:1058B00048181C4692460E460746C2F200080DF1F3
:1058C00008094FF0FF3506E000204FF0FF3B8DF850
:1058D0000800CDF814B0681C18D04FEA8B201BF1DB
:1058E000010108BF4FF4806098F8041005440029B6
:1058F0004FF4006040F20001C0F6010118BF01F54D
:105900000060854269D2A8050AD069E098F8045081
:105910000020002DC0F6010018BF0546A8055FD184
:10592000284608A91422FFF783FE0A9844F245612D
:10593000C3F23401884203950490C5D101208DF84B
:1059400008009DF82200DDF82CB0CDF814B068B145
:105950009DF82100D0B19DF82000B0FA80F04009F8
:105960009DF825108DF8090031B916E003209DF847
:1059700025108DF8090081B19DF8241081B19DF8A2
:105980002310B1FA81F149090BE000BF02209DF814
:1059900025108DF809000029EED1032101E000BF98
:1059A0000221002C8DF80A1018BF10F002003FF4FD
:1059B00092AF4FF0FF3038634846394600F03EFD65
:1059C000411C38633FF487AF384602F055FC384637
:1059D00031465246A0470028EED00DB0BDE8F08F0A
:1059E0004CF22C074CF242004BF6D5524CF2140309
:1059F000C0F60007C0F60000C0F60002C0F60003C3
:105A000040F24B210097FFF7F5FC00BFFEE70000D6
:105A10002DE9F04F89B000918246FAF7C1FE814628
:105A2000002051464A460025FFF7CCF940F2F41712
:105A3000060C0124C2F200070DF1040B09E000BFBF
:105A40000F2D05F101054FF0000438BF0124102D82
:105A500032D007EBC508D8F80400411CF0D037F865
:105A600035108E42ECD11C3059462022FFF7E0FD64
:105A7000504659464A46FAF7B2FE0028E0D1D8F817
:105A8000040000994FF6EE730863B8F802006FF057
:105A9000110200F11001984288BF02F11101E007E4
:105AA000A8F8021008D0009802F0E6FB012738465B
:105AB00009B0BDE8F08F00BF009C45F6F123002738
:105AC000C0F6000301AA204651468DF80470FFF786
:105AD000EBFE9DF804000028E9D0226B50464946B1
