:020000040800F2
:10000000604D0020C9010008C1400008AD02000891
:10001000BD400008ED170008FD4500080000000085
:10002000000000000000000000000000DB010008EC
:10003000151800080000000037020008E942000817
:10004000E3010008E3010008E3010008E301000800
:10005000E3010008E3010008E3010008E3010008F0
:10006000E3010008E3010008E3010008E3010008E0
:10007000F1170008FD170008E3010008E30100087C
:1000800009180008E3010008E3010008E301000883
:10009000E3010008E3010008E3010008E3010008B0
:1000A000E3010008E3010008E3010008E3010008A0
:1000B000E3010008D5430008E3010008E30100085C
:1000C000E3010008E3010008E3010008E301000880
:1000D000E3010008E3010008E3010008F14500081E
:1000E000E3010008E3010008E301000800F002F862
:1000F00000F05AF80AA090E8000C82448344AAF168
:100100000107DA4501D100F04FF8AFF2090EBAE865
:100110000F0013F0010F18BFFB1A43F0010318473B
:1001200004F6000024F60000103A24BF78C878C115
:10013000FAD8520724BF30C830C144BF04680C60ED
:10014000704700000023002400250026103A28BF35
:1001500078C1FBD8520728BF30C148BF0B60704739
:1001600066290EF0DA8365290EF0D783642900F042
:100170004F81782900F08881002070471FB59DE8E5
:10018000030000F0F5FB00F057FF04000020002101
:100190000DF03EFB401C6060002000210DF04EFB86
:1001A000E0601FBD10B510BD01F034FA1146FFF735
:1001B000E5FF01F0F1FA01F052FA03B4FFF7F2FFA4
:1001C00003BC01F0C3FA0000094880470948004712
:1001D000FEE7FEE7FEE7FEE7FEE7FEE7FEE7FEE7F7
:1001E000FEE7FEE704480549054A064B7047000054
:1001F000D1430008ED00000860450020604D00205C
:100200006049002060490020EFF3108072B670470B
:1002100080F310887047324A1368012B04D04FF0E6
:10022000010313602F4A10602F4A11602F484FF0CE
:10023000805101607047EFF3108272B62848016860
:1002400091B14FF0000101602648016829B1EFF338
:10025000098121E9F00F00680160234909680968F4
:10026000B1E8F00F81F3098882F310884EF0040E94
:1002700070471D4908601B494FF00000086018498D
:100280004FF0010008601A481A49D0F8002041EAEE
:100290000201016015484FF0805101601648006866
:1002A000006880F3088861B662B670471EF0040FDC
:1002B0000CBFEFF30880EFF3098020E9F00F40F85E
:1002C00004ED1EF0040F0CBF80F3088880F309884A
:1002D00000B509F003FE5DF804EB4EF0040E704724
:1002E00020440020944100209C41002004ED00E0C7
:1002F00020ED00E00000FFFF08ED00E070B50646CD
:1003000000F016FB056806F10B0020F00704B4426C
:100310009CBF002070BD2B466A68BAB11068A0422D
:1003200010D304F1080188423CBF5068586007D3DD
:100330005168101941601168091B01605860146010
:10034000101D70BD13465268002AE7D12146284689
:1003500000F0FAFA0028DED170BD70B50446051F22
:1003600000F0E6FA0068002C14BF446870BD002C51
:1003700018BFAC423CBF20466468F8D301680A1835
:10038000AA4218BF456003D12A680546114401609E
:1003900028684119A1421CBF6C6070BD616869602A
:1003A00021680844286070BD10B5044600F0B8FA12
:1003B0000068005DC00602D504F1200010BD204693
:1003C00010BD70B5044685690068C10601D53026A8
:1003D00000E02026C00707D070BDD4E901213046D7
:1003E0009047206A401C20626D1EF6D570BD70B526
:1003F000044685690078C00707D170BDD4E90121A2
:1004000020209047206A401C20626D1EF6D570BDEA
:100410002DE9F0410646002410687529314616A5DD
:1004200010D0AFF30080002802DA404213A507E0A5
:1004300031688A0701D512A502E0490704D511A544
:10044000012401E0AFF3008000210A2206F1240715
:1004500009E0B0FBF2FCB0FBF2F302FB1C00303011
:1004600078541846491C0028F3D123462A463046C2
:10047000BDE8F04100F0BDBA000000002D00000012
:100480002B0000002000000070B504460D462146F8
:100490001068AFF300802188090502D50F4A7A441D
:1004A00002E00E4A7A440E32002104F1240305E0F2
:1004B00000F00F060009965D5E54491C0028F7D134
:1004C00020780023000704D5702D02D009B1022343
:1004D00011322046BDE8704000F08BBA6CE5000098
:1004E0000FB400B58DB010A9099000910B904FF09A
:1004F000FF300A9000200C90064878440690064889
:1005000078446A4607900F9909A800F0DFFC0DB007
:100510005DF814FBEF090000070A00002DE9FF5FFA
:100520004FF000089946144646469169D2E901A762
:10053000DDF838B001988847054659EA0B0005D028
:1005400009E0A1690198761C88470546216A28467A
:1005500088470028F5D1681C03D05FEACA7005D02F
:1005600015E04FF0FF3004B0BDE8F09F2068011D9A
:100570002160D0F800800AE05FEACA7001D108F873
:10058000015BA169761C01987F1E88470546002FF4
:100590001ADD681C18D0B9F1000F0DD0E81705EB73
:1005A000D060421120F01F0059F822102A1A0120B1
:1005B00090400142E0D107E0BBF1000FDCD12846BA
:1005C000216A88470028D7D0E16901988847BBF1A4
:1005D000000F07D1002E05DD5FEACA7002D10021AD
:1005E00088F80010A068B84203DDBBF1000F03D00B
:1005F00017B16FF00100B6E73046B4E72DE9F047D8
:1006000091460F4680460446002614F8015B2DB142
:1006100000F086F90068405DC007F6D12B2D02D0AE
:100620002D2D18D0641E4A463946204600F07EFC27
:1006300027B13968A14201D1C7F800804FF0020408
:1006400071050BD54042002803DD00F075F9046008
:10065000A007BDE8F08746F48066E4E70028F8DAF2
:1006600000F06AF904606FF00040F2E740EA01032D
:10067000024630B59B0710D14FF0013400E008C2AC
:1006800008C91D1B9D4315EAC41FF8D013F0FF01D4
:1006900002F8011B0DD01B0AF8E711F8013B002BF3
:1006A00002F8013B05D011F8013B002B02F8013B99
:1006B000F3D130BD10B5431C02E010F8011B71B13D
:1006C0008107FAD14FF0013202C88C1A8C4314EA28
:1006D000C211F9D0C01A0A0603D0C01E10BDC01A3C
:1006E00010BD0A0401D0801E10BD0902FCD0401EBE
:1006F00010BD40EA010370B59B072ED14FF00136C3
:10070000042A2AD308C810C99D1B9D43121F15EA4D
:10071000C61517D0D8B2E1B2401A50EA056110D11F
:1007200098B2A1B2401A50EA05410AD123F07F40A5
:1007300024F07F41401A50EA052102D1180EA0EBA7
:10074000146070BDA342DBD018BA21BA884201D927
:10075000012070BD4FF0FF3070BD0AB9002070BDA0
:1007600010F8013B11F8014B63B1A3420AD1521EAC
:1007700008D010F8013B11F8014B1BB1A34201D185
:10078000521EEDD1181B70BD032A40F2308010F0CC
:10079000030C00F0158011F8013BBCF1020F62441C
:1007A00098BF11F801CB00F8013B38BF11F8013BAD
:1007B000A2F1040298BF00F801CB38BF00F8013B5A
:1007C00011F0030300F00184083AC0F0088051F8EA
:1007D000043B083A51F804CBA0E80810F5E7121DD5
:1007E0005CBF51F8043B40F8043BAFF30080D207F4
:1007F00024BF11F8013B11F801CB48BF11F8012BC0
:1008000024BF00F8013B00F801CB48BF00F8012BE2
:10081000704702F0FF0343EA032242EA024200F07B
:100820000AB802F0FF0343EA032242EA024200F060
:1008300024B84FF000020429C0F0128010F0030C1D
:1008400000F01B80CCF1040CBCF1020F18BF00F8C3
:10085000012BA8BF20F8022BA1EB0C0100F00DB872
:100860005FEAC17C24BF00F8012B00F8012B48BFD0
:1008700000F8012B70474FF0000200B51346944674
:100880009646203922BFA0E80C50A0E80C50B1F1E8
:100890002001BFF4F7AF090728BFA0E80C5048BFFC
:1008A0000CC05DF804EB890028BF40F8042B08BF9A
:1008B000704748BF20F8022B11F0804F18BF00F896
:1008C000012B704710B5044610F0030F08BF11F05C
:1008D000030F40F015804FF0013E121FC0F20E8052
:1008E00051F8043BA3EB0E0C2CEA030C1CEACE1CC3
:1008F00008BF40F8043BF0D0A1F1040102F104026A
:10090000521E08DB11F8013B00F8013B002BF7D128
:100910001146FFF78EFF204610BD704770477047A5
:1009200010B500F089FB001D10BD00BFE5CE000032
:1009300000487047700000200048704768000020A1
:10094000704770477047704738B504460A46002024
:100950006946AFF30080002808BF38BD0246009901
:10096000204600F06DFB012038BD012000F04ABE9A
:10097000F8B5AFF30080054600200C46102000BFFC
:100980000646A819A0420DD9324669460020AFF3A9
:100990000080070008BF00F035FE0098A04218BF95
:1009A0000546C419FFF7C4FF05600746F01D20F097
:1009B00007004619284600F00AF8B44208BFF8BDFF
:1009C000A21B31463868BDE8F84000F039BB002171
:1009D0000160C0E9011070471020704710B5FFF7A3
:1009E000ABFF006810BD10B50446FFF7A5FF04601B
:1009F00010BD2DE9F0470D4699469246044600F198
:100A000024080168880604D5E06921F010012160FE
:100A100000E00120A84201DD471B00E00027A1699A
:100A20007A1902EB0900081AA0612078C00602D4E6
:100A30002046FFF7C6FC002608E0D4E901211AF899
:100A400006009047206A401C761C20624E45F4DB6D
:100A50002078C0060AD52046FFF7B3FC06E0D4E9AB
:100A6000012130209047206A401C2062381EA7F1E7
:100A70000107F4DC07E0D4E9012118F805009047EC
:100A8000206A401C2062281EA5F10105F3DC2046E7
:100A9000FFF7ADFC2078000602D50220BDE8F08704
:100AA0000120FBE72DE9FF4F0C461E464FF0FF37B4
:100AB0008BB0D2E90001DDF860800A908A46C1F36C
:100AC0000A5505B93D46002108464FF00000BAF12D
:100AD000000F00F4400005DA00EB80004FF4400105
:100AE00001EA50004FEA9059B9F1010F00DDB94613
:100AF0000A9850EA4A000ED044F61050A5F2FF358D
:100B000045432F14B8F1000F1ED07542291E1EDD7B
:100B1000C9F100021CE0B8F1010F4FF0000001D054
:100B2000302103E0F24305E02154401CB042FBDBDE
:100B300030460022002121540B99C1F80880C1E9F8
:100B400000200FB0BDE8F08FBD1B6D1CDEE74A46EC
:100B500000DA694206A800F0E3FC06AB93E8070060
:100B600003AB83E8070050460A990BF0E2FC8DE8DE
:100B70000700A0F500501F3800900398002D0ADDF3
:100B800042F21F014A460844002303A90390684625
:100B90000BF04CFF09E0A0F500504A461F38002337
:100BA00003A9039068460BF056FF8DE80700000488
:100BB000000C03D04FF0FF30410800E01046B8F1C0
:100BC000000F03D00022009215461EE0751E05D4CA
:100BD00000F050FA303262556D1EF9D5B34601224D
:100BE000084302D000227F1C04E02078302801D185
:100BF00000227F1E002A099784D01DE0112D07DAFC
:100C000000F038FA303262556D1C50EA0102F5D11D
:100C1000084302D00098C8B10EE00021681E05E02C
:100C2000235C625C63542254401E491C8142F7DB02
:100C3000AB46A81B401E0990002004F80B000B983F
:100C4000099AC0F80880C0E9002B7AE711264FF016
:100C5000000857E72DE9F04F88460446D21D22F0E0
:100C6000070191B0D1E90001CDE90A010CF02AF8A1
:100C700002460B98C00F01D02D2007E020688107A5
:100C800001D52B2002E0202101EAC000032A0990AF
:100C900001D0072A05DB03464146204600F038FA1A
:100CA0000BE12078800601D5E06900E00620B8F16C
:100CB000650F814606D0B8F1660F18D0B8F1670FFE
:100CC00070D131E00020B9F1110F009001DB112348
:100CD00001E009F101030AAA01A90CA8FFF7E2FE4D
:100CE000DDE90C70002609F10105834647E001208B
:100CF0004B4600904FF000470AAA01A90CA8FFF745
:100D0000D1FEDDE90DB00C995D46002610B909F160
:100D100001000D18B9EB050003D4C0F1FF3609F14D
:100D20000105A5EB09002BE0B9F1010F01DA4FF045
:100D300001090020B9F1110F0090484601DD11238F
:100D400000E003460AAA01A90CA8FFF7ABFEDDE903
:100D50000C704D4600268346207800070AD4AB4528
:100D600000DA5D4601A8012D04DD411911F8011CCE
:100D7000302907D04F4502DA17F1040F04DA0120B9
:100D800082460FE06D1EEEE7002F02DCED1B3E44B5
:100D900003E0781CA84200DD7D1CB81B00F1010AAD
:100DA0004FF000472078000703D4AA4501DB4FF03D
:100DB000FF3A0021B7F1004F0DF143088DF84310C1
:100DC00024D002202B23002F01DA7F422D230A2179
:100DD000021EA0F1010000DC5FB197FBF1FC97FB64
:100DE000F1F201FB1C7C17460CF1300C08F801CD28
:100DF000EEE7A8F1010003702188090501D545211E
:100E000000E06521A0F1010800F8011C09980FA974
:100E1000A1EB0807FF1D00B10120411901EBEA70A9
:100E2000A1693844081A401EA0612078C00602D487
:100E30002046FFF7C6FA099828B1D4E90121904766
:100E4000206A401C20622078C00622D52046FFF789
:100E5000B8FA1EE0002E04DBB34502DD01A8805D78
:100E600000E03020D4E901219047206A401C206234
:100E7000761CAAF101005FEA000A0AD100F0DCF852
:100E8000C0680168405CD4E901219047206A401C99
:100E90002062281EA5F10105DCDC07E0D4E9012170
:100EA00018F8010B9047206A401C2062381EA7F1F9
:100EB0000107F3DC2046FFF79AFA032011B041E660
:100EC000026811441378016018467047D1600549E3
:100ED000794451610449794411620021116111463C
:100EE00000F064B9EDFFFFFF25020000426842B147
:100EF000016811F8013B23B1521EC0E900121846E7
:100F000070470121C160881E704742685AB1C368AA
:100F1000016843B983688B4205D0491E521CC0E961
:100F20000012002070474FF0FF3070472DE9F05F4E
:100F3000824615468B4600270AF10104B94600781F
:100F4000302801D09DB113E014F8010B0127782857
:100F500003D0582801D045B10AE00DB1102D07D1BA
:100F6000002714F8010B102502E0082500E00A25EF
:100F70000026B0460EE005FB080005FB06F1012740
:100F80001FFA80F801EB1046B6F5803F00D3B94652
:100F900014F8010B294600F0FBF80028EBDABBF14E
:100FA000000F05D00FB1641E00E05446CBF800409E
:100FB000B9F1000F06D0FFF7BFFC02210160C81E87
:100FC000BDE8F09F48EA0640FAE710B5203AC0F0C5
:100FD0000B80B1E81850A0E81850B1E81850A0E80C
:100FE0001850203ABFF4F5AF5FEA027C24BFB1E8A5
:100FF0001850A0E8185044BF18C918C0BDE81040E8
:101000005FEA827C24BF51F8043B40F8043B08BFF0
:101010007047D20728BF31F8023B48BF11F8012BB7
:1010200028BF20F8023B48BF00F8012B70470000A2
:101030000048704768000020004870478800002082
:10104000034640688C46002818BF88423CBF0346D0
:101050004068F8D318681844884207D00CF10300A0
:1010600020F00700001D411A521A0146081D0A60AF
:10107000FFF773B930B5B0F10A0271F100034FEA1E
:10108000900E4EEA817EB0EB0E0061EB91014FEACB
:10109000101E4EEA017E10EB0E0041EB11114FEADB
:1010A000102E4EEA016E10EB0E0041EB11214FEABB
:1010B000104E4EEA014E10EB0E0041EB114140186C
:1010C00041F100014FEAD00040EA41704FEAD101FE
:1010D0004FEA810444EA907410EB800544EB01046C
:1010E0006D1944EB0404521BA3414FF0000348BFA9
:1010F0000A3200D530BD401C41F1000130BD10B5B1
:101100000446FFF70DFC0068005D00F0010010BD13
:101110002DE9F0411F46044603260168072A01F421
:10112000006004DB08B116A505E016A503E008B1D0
:1011300015A500E015A521F010002060A069C01ED3
:10114000A0610FB1401EA0612046FFF73AF94FB1F0
:10115000D4E9012138469047206A401C2062C01C17
:10116000206206E0206AFAE7D4E9012115F8010BB4
:101170009047761EF8D22046FFF739F9BDE8F08196
:101180004E414E006E616E00494E4600696E66002B
:101190003A2800D2303820F02002412A01D3A2F1AF
:1011A0003700884201D34FF0FF3070472DE9F34FED
:1011B0004FF0000A0C4656468DB001200C9001F10C
:1011C0000C000B9062690B9801219047051E2DD0F1
:1011D000252D2CD0216A8847C0B162690B98012166
:1011E0009047216A88470028F7D16269411E0B9811
:1011F000904700E0761CA1690D988847216A8847CE
:101200000028F7D1E1690D988847DBE7A1690D98BF
:101210008847A842074601D1761CD3E7E1690D98BB
:1012200088477F1C02D1BAF1000F6FD06BE1626971
:101230000B9800273D46394690472A2804D1626919
:101240000B98012190470125DFF8D08262690B9845
:1012500001219047A0F130010A290AD24745E5DC77
:1012600007EB870100EB4107303FDFD445F0100565
:10127000ECE7E90601D46FF000476C280AD04C284F
:1012800014D0682815D06A280DD074281CD07A286C
:101290001AD01DE062690B98012190476C2802D09A
:1012A00045F0040514E045F002050DE045F0200589
:1012B0000AE062690B9801219047682802D045F046
:1012C000080505E045F4006562690B980121904727
:1012D000C4E9015765283DD019DC58287AD00CDCC8
:1012E000452837D004DC252826D041289ED131E07E
:1012F00046282FD0472899D12CE05B2877D0612849
:1013000028D063287CD0642823D15AE0F6E06F28E7
:1013100048D008DC66281DD067281BD0692821D05A
:101320006E2816D127E0702845D0732868D075281C
:1013300047D078280DD14DE0A1690D988847252820
:1013400005463FF469AFE1690D9888476D1C3FF48D
:101350006AAFD8E00D9923466A466FF00100AFF3FB
:101360000080C5E045F0400023464FF00002606079
:10137000A80736D43EE0E8077FF447AF2068011D98
:1013800021600068290501D506701BE7290701D5F2
:10139000068017E7A90703D5F117C0E9006111E737
:1013A00006600FE745F0400023464FF008026060FA
:1013B000A80716D41EE040F60E0125EA0100606081
:1013C00016E045F0400023464FF00A026060A8078F
:1013D00007D40FE045F040006060A80708D5234619
:1013E00010220D996FF00100AFF3008080E007E05C
:1013F000102223460D996FF00100AFF3008077E0D3
:101400004FF0000963284F46C8464B46CB4602D0F2
:101410005B2806D038E0E80601D40120A06001274F
:1014200032E06269D4F80CB00B98012190475E2835
:1014300007D14FF0010949466269D4F80CB00B9806
:101440009047216939B900210A4603AB43F82120AE
:10145000491C0829FADBD8B3216949B308F101080E
:1014600062690B98012190475D28F4D1B9F1000F12
:1014700009D0002003A951F82020D24341F82020B0
:10148000401C0828F7DB03AB2069002820794FEACD
:1014900040701ED05B462246CDF80080CDE9019712
:1014A0000D9900286FF0010020DAAFF300801FE0F3
:1014B000C11703AA00EBD1614B1121F01F0102EB10
:1014C0008302411A13680120884003431360C7E771
:1014D00019E00D99224600286FF00100009702DA0A
:1014E000AFF3008004E0FFF719F801E0AFF30080EC
:1014F00000280ADA401C06D10C9820B14FF0FF30CA
:101500000FB0BDE8F08F5046FAE7E90701D10AF1C4
:10151000010A064400200C9054E60000CCCCCC0C10
:101520002DE9F047814616468AB0354878440DC803
:101530008DE80D0032487844801C03AC0DC884E867
:101540000D0041F69B300844372190FBF1F290FBEF
:10155000F1F5A5F1800501FB12041B3C02D56442A4
:10156000012000E00020DFF898A080460027FA4420
:10157000AAF1BE0A0EE0E0070AD03246684607EB41
:10158000470101230AEB81010BF065FA8DE80700A2
:1015900064107F1C002CEED1194F7F44AE3F19E040
:1015A000E80715D007EB04100DF1180A90E80E00BB
:1015B0008AE80E00C068F04201D1981908903246BE
:1015C000012306A903A80BF046FA03AB83E8070042
:1015D0006D10641C002DE3D14FF0010332466946C3
:1015E000B8F1000F03A802D00BF020FA01E00BF0D5
:1015F00032FAC9E90001C9F808200AB0BDE8F0874D
:1016000014D6000010B500F039F8BDE8104000F025
:101610002FB870477546FFF70BFDAE4605006946CB
:10162000534620F00700854618B020B5FEF7DAFDD6
:10163000BDE820404FF000064FF000074FF00008D3
:101640004FF0000BAC46ACE8C009ACE8C009ACE810
:10165000C009ACE8C00921F007018D46704710B5FC
:101660000446AFF300802046BDE81040FEF7A5BD5C
:10167000002801D000F06AB87047000010B50128BA
:1016800005D0002103A000F067F8012010BD09A1DA
:10169000F8E7000053494752544D454D3A204F75E5
:1016A00074206F662068656170206D656D6F72795A
:1016B000000000003A2048656170206D656D6F7212
:1016C0007920636F72727570746564004FF0013C2D
:1016D00050F8042B51F8043B9A4221D1A2EB0C03A1
:1016E000934313EACC1317D150F8042B51F8043B61
:1016F0009A4215D1A2EB0C03934313EACC130BD1FE
:1017000050F8042B51F8043B9A4209D1A2EB0C0388
:10171000934313EACC13DBD04FF00000704700BFB7
:10172000D01A01BAB1FA81F101F0180122FA01F0E0
:10173000CB40DBB2C0B2C01AC1F120012CFA01F3D8
:10174000D11A914311EAC311E6D17047014918201B
:10175000ABBEFEE72600020070B505460C460A2027
:1017600000E06D1C00F011F835B128780028F8D1A0
:1017700002E0641C00F009F814B120780028F8D1C8
:10178000BDE870400A20AFF3008008B569468DF8C7
:1017900000000320ABBE08BD80B582B0FEF734FD6B
:1017A00008F038FB09F0DCF909F0A0FB09F0F0FAC9
:1017B0000A2000904FF2F02047F275714FF0140CA0
:1017C000C0F60000C0F6000100224FF48063CDF89F
:1017D00004C009F095FB09F027FD09F08FFB09F023
:1017E00045FC09F06BFB002002B080BDFEE7000065
:1017F00040F20C30C2F2000000F002B940F250306A
:10180000C2F2000000F0FCB840F29430C2F20000D6
:1018100000F0F6B870470000EFF3108072B600BF1A
:10182000FEE7000070B542F20C060446C4F2020660
:1018300000F042FC3168C90718D13068800644BF07
:10184000202030603068C00607D43069C00704D15A
:10185000306840075CBF002070BD3068C00623D4EC
:101860000020316849072BD434E000BF002C47D05A
:101870000546601C0ED13068C007DED03068C00756
:101880001CBF30685FEAC070D7D03068C007F2D1A3
:10189000D3E700BF00F010FC401BA04230D83068F6
:1018A000C007F7D1C9E700BF40F27050C2F2000094
:1018B000C16941F00201C16110203168490709D5B1
:1018C00040F27051C2F20001CA6940F0040042F0D7
:1018D0000102CA613169C90702D13060012070BDBF
:1018E00040F27051C2F20001CA6942F00402CA61BA
:1018F000316921F0010131613060012070BD00BF0C
:10190000032070BD014690F82100022816D1086816
:10191000D1E90FC3026822F00E020260026822F0D1
:1019200001020260012000FA03F2CCF8042081F8E1
:1019300021000020002281F82020704704208863C5
:101940000120002281F820207047000080B590F827
:101950002110022924D10268116821F00E011160C2
:101960002F211368C4F202018A4240F20401C4F23A
:10197000020123F00103136016DD3023C4F20203D9
:101980009A421DD04423C4F202039A421CD0582329
:10199000C4F202039A421DD14FF4803322E000BF0B
:1019A00004218163012080BD0823C4F202039A420E
:1019B0000ED01C23C4F202039A420BD1102311E073
:1019C0004FF480730EE000BF4FF480530AE000BF75
:1019D000012307E001F1680C4FF08073624508BFF6
:1019E0004FF480130B60012180F82110426B00211D
:1019F00080F820100AB190470021084680BD000001
:101A000010B5D0E90FCE0168DCF800300A6823FA7F
:101A10000EF35C072AD512F0040427D00A68920658
:101A200003D40A6822F004020A602F22C4F20202E0
:101A3000914240F20402C4F202025BDD3023C4F2A0
:101A40000203994272D04423C4F20203994273D034
:101A50005823C4F20203994240F07A804FF4802365
:101A60001360C16A002940F098806FE09C0727D579
:101A700012F0020424D00A68920606D40A6822F002
:101A80000A020A60012280F821202F22C4F20202F9
:101A9000914240F20402C4F202023BDD3023C4F260
:101AA0000203994260D04423C4F2020399425FD0FA
:101AB0005823C4F20203994260D14FF4003365E029
:101AC0001B0743D512F0080208BF10BD0A6822F0B8
:101AD0000E020A60012101FA0EF2CCF804208163A3
:101AE00080F82110016B0022002980F8202054D1B9
:101AF0002CE000BF0823C4F20203994222D01C2329
:101B0000C4F20203994223D140231360C16A002921
:101B100043D11BE00823C4F2020399422CD01C23BA
:101B2000C4F20203994229D120232FE04FF48063AD
:101B30001360C16A89BB09E04FF480431360C16A36
:101B400059BB03E004231360C16A31BB10BD00BF61
:101B500002F168044FF08063A14208BF4FF4800394
:101B60001360C16AC9B9F1E74FF400730EE000BF1A
:101B70004FF400530AE000BF022307E002F16804BB
:101B80004FF00073A14208BF4FF400131360816A45
:101B90000022002980F82020D8D0BDE81040084756
:101BA000014600284FF0010008BF70472DE9F043BF
:101BB000D1F800C04FF6F873CBF6FD734CF6CD426A
:101BC0006344CCF6CC42A3FB02236FF0030707EA81
:101BD00093030027C4F2020701F10C09C1E90F7356
:101BE0000223D1E9012E99E87002D1F81C8081F816
:101BF0002130DCF8003043F6F077BB431A4342EA69
:101C00000E0222432A43324342EA090242EA080210
:101C1000CCF8002000228A6381F8210081F820207E
:101C20000020BDE8F0437047F0B590F820C0BCF14B
:101C3000010F32D04FF0010E80F820E090F821C063
:101C4000BCF1010F26D14FF0020C80F821C04FF0FB
:101C5000000CC0F838C0D0E900C4C56AC66BDCF817
:101C60000070102C27F00107CCF80070006C0EFA01
:101C700000F070600846CCF8043004BF10460A46F5
:101C8000CCF80800CCF80C20DCF8000045B140F09E
:101C90000E000DE0002180F820100220F0BD00BFF2
:101CA00020F00400CCF80000DCF8000040F00A004E
:101CB000CCF80000DCF8000040F00100CCF8000097
:101CC0000020F0BD2DE9F04381B040F27056C2F221
:101CD0000006327E012A03D1022001B0BDE8F08364
:101CE000054601202C6830764CF250308846FFF7CC
:101CF00099FD022C1CD100284ED1002042F2100484
:101D0000F061C4F20204206840F004002060206802
:101D100040F0400020604CF25030FFF783FD216816
:101D200021F0040121600021317601B0BDE8F0838B
:101D300090BB4FF0FF30C8F80000D5E9027007EB08
:101D40008020874228D242F21004C4F202044FF0ED
:101D5000000900BFC6F81C90206840F00200206017
:101D60006760206840F0400020604CF25030FFF780
:101D700059FD216821F00201216098B9D5E90201DD
:101D800007F5806700EB81208742E3D30020002124
:101D9000317601B0BDE8F08301200021317601B039
:101DA000BDE8F083C8F800700021317601B0BDE8CD
:101DB000F083000042F21001C4F20201086840F012
:101DC000800200200A6070472DE9F04F81B040F298
:101DD0007059C2F20009924699F81820012A03D1DD
:101DE000022001B0BDE8F08F8046012089F818007C
:101DF0004CF250309B460E46FFF714FDA0BB404608
:101E000042F21007B8F1020F18BF0420C4F2020713
:101E1000B8F1010F08BF404645424FF000080024CA
:101E2000C4F12001C9F81C802AFA04F00BFA01F170
:101E30003A680843B4F1200158BF2BFA01F042F090
:101E40000101396026F8020B4CF25030FFF7EAFC32
:101E50003968013521F0010248F100013A6018B9F2
:101E6000002904F11004DBD0002189F8181001B01A
:101E7000BDE8F08F42F20400C4F20200C168090616
:101E80005CBF0020704740F22311C4F2675101602B
:101E900048F6AB11CCF6EF510160C068C0B2C00982
:101EA000704700002DE9F04F82B041F20042C4F2C9
:101EB00001020E680423904208BF0323002E009302
:101EC00000F0F68040F2004C4FF6FF7E0022C4F294
:101ED000010C0124C1F2100E4FF0000A4FF000096E
:101EE00047E000BF012502F00C040F27A7402BEAB2
:101EF000070705FA04F43C4343F82640D1F804B040
:101F000040F20C455FEACB23DCF8083054BF23EAEB
:101F1000080343EA0803C4F20105CCF808302B6833
:101F20005FEA8B2454BF23EA080343EA08032B60CB
:101F30005FEA8B34DCF8043054BF23EA080343EA39
:101F400008035FEACB34CCF80430DCF800304FF003
:101F5000010454BF23EA080343EA0803CCF8003025
:101F60000E680AF1010A36FA0AF302F1040200F0DF
:101F70009F8004FA0AF816EA080FF1D04B687345FF
:101F800012DC122B56D8DFE803F0350B45495555C6
:101F900055555555555555555555554D510000BF3D
:101FA000D1F80C9046E000BF4FF6FF75C1F2210555
:101FB000AB420FDC0025C1F21105AB421AD000255F
:101FC000C1F21205AB4215D00025C1F22105AB428A
:101FD00010D02FE00025C1F22205AB420AD0002527
:101FE000C1F23105AB4205D00025C1F23205AB424A
:101FF00020D100BF8B684BB1012B14BFC0F81480F7
:10200000C0F810804FF0080914E000BF4FF0040939
:1020100010E000BFCB6803F108090BE04FF00009A6
:1020200008E000BFCB6803F1040903E0CB6803F1CB
:102030000C0900BF13460546BAF1080F24BF203B28
:1020400004352E680F279F40BE4309FA03F333433C
:102050002B60CB79DB067FF583AF41F21804C4F225
:10206000020423684FEA9A0643F0010323602368C1
:1020700040F6000403F001030193019BACF57E736D
:1020800053F826B0C4F20104A0420FD040F6004439
:10209000C4F20104A0423FF425AF41F20004C4F2AF
:1020A0000104009DA04208BF02251CE700251AE795
:1020B00002B0BDE8F08F000044F25C50C2F20000B4
:1020C0000068704740F2000044F25C51C2F2000028
:1020D000C2F2000100780A681044086070470000EE
:1020E00080B542F20000C4F20200016841F0100124
:1020F0000160032000F0C4F80F2000F005F800F0A4
:1021000061F8002080BD0000B0B586B041F21C012E
:10211000C4F202010A68044642F002020A60096839
:1021200001A801F0020101910199694600F098F9B6
:10213000049D002D18BF012500F0BAF94DF683610A
:10214000A840C4F21B31A0FB01014FF0FF3000EBAF
:10215000914140F2204040F20042C2F20000C4F23D
:10216000000240F2E7330025C0E90021C0E9025334
:102170000561856100F01CFC054618B1284606B0D3
:10218000B0BD00BF40F22040C2F2000000F088FC69
:1021900005460028F2D11D2000F036F80F2C0DD88E
:1021A0001D2021460022002500F03EF840F20400E8
:1021B000C2F200000460284606B0B0BD01252846E2
:1021C00006B0B0BD82B041F21800C4F2020001684E
:1021D000022241F001010160016801F00101019159
:1021E0000199416841F080514160406800F08050A1
:1021F000009000980420C4F20100016862F31A61A3
:10220000016002B070470000002848BF704700F02E
:102210001F01012202FA01F14EF200124009CEF232
:10222000000242F82010704710B54EF60C5CCEF25A
:10223000000CDCF80030C3F3022E8EF00704042CEF
:1022400028BF0424BEF103034FF0FF3E0EFA04F44E
:1022500038BF0023A14399400EFA03F39A43114378
:1022600000F00F02043A624409010C3200F16043AD
:10227000B0F1FF3FC8BF03F56442117010BD00000C
:102280004EF60C51CEF200010A684FF6FF031A40D9
:1022900060F30A2242F0806040F0FD7008607047F1
:1022A0002DE9F04381B0002800F0858042F200085B
:1022B000C4F202080446D8F800000D4600F00700FA
:1022C00088420CD2D8F8000020F007002843C8F854
:1022D0000000D8F8000000F00700A8426BD1206889
:1022E00041F204098107C4F2020917D5410705D557
:1022F000D9F8001041F4E061C9F80010010705D5D4
:10230000D9F8001041F46051C9F80010D9F8001054
:10231000A26821F0F0011143C9F80010C00741D1B3
:10232000D8F8000000F00700A8420CD9D8F8000047
:1023300020F007002843C8F80000D8F8000000F09B
:102340000700A84237D12068410707D5D9F8001007
:10235000E26821F4E0611143C9F80010000708D5D4
:10236000D9F80000216920F4605040EAC100C9F8A2
:102370000000D9F8002002F00C00082841F20020EB
:10238000C0F27A0050D14FF28C03C2F38341C0F601
:102390000003595CD2033BD440F60010C0F23D006C
:1023A000484341E0606802280AD001282AD159F840
:1023B000041C890308D4012001B0BDE8F08300BFEC
:1023C00059F8041C8901F6D5D9F8001021F0030151
:1023D0000843C9F80000FFF76FFE064641F2883750
:1023E000D9F80000616800F00C00B0EB810F97D0C5
:1023F000FFF762FE801BB842F2D9032001B0BDE8AE
:10240000F08300BF59F8041C8907D4D5DCE700BF6E
:10241000D9F800204EF68833C2F34042C0F60003DC
:102420009A5C4843B0FBF2F0D9F800104EF67032D7
:10243000C1F30311C0F60002515C40F2100220FA11
:1024400001F140F20400C2F200000068C2F2000292
:102450001160FFF759FE002001B0BDE8F0830000D5
:102460000F22026041F20402C4F20202136803F078
:1024700003034360136803F0F0038360136803F4FD
:10248000E063C36012684FF4E06303EAD2020261C2
:1024900042F20000C4F20200006800F00700086089
:1024A0007047000040F21000C2F200000068704760
:1024B00040F2100041F20401C2F20000C4F2020135
:1024C000006809684EF68032C1F30221C0F60002AE
:1024D000515CC8407047000040F2100041F2040116
:1024E000C2F20000C4F20201006809684EF68032B0
:1024F000C1F3C221C0F60002515CC8407047000021
:102500002DE9F04182B0002868D00446007841F2FD
:102510000006C007C4F2020625D0706800F00C0067
:1025200004281BD0706800F00C00082802D17068E5
:10253000C00313D46068002800F06881B0F5A02FB4
:1025400000F07C81B0F5803F00F07C81306820F4A1
:1025500080303060306820F4802076E1306880037D
:1025600001D56068D0B32078800718D5706810F066
:102570000C0F07D0706800F00C0008286ED170684E
:10258000C0036BD43068800702D52069012825D1AB
:102590003068616920F0F80040EAC10030602078BE
:1025A00000071FD42078400732D4E56995B17068E0
:1025B00000F00C00082840F08F80012D0ED07068CC
:1025C000216A00F480328A4208D1616A00F47010F6
:1025D000884203D1002002B0BDE8F081012002B0A2
:1025E000BDE8F081A069002862D00020C4F242203A
:1025F0000121C0F88014FFF75FFD0546706A80076F
:1026000000F18C80FFF758FD401B0228F6D92AE123
:10261000F06910F0805808D1F06940F08050F06106
:10262000F06900F080500090009847F20007C4F273
:1026300000073868C00529D4386840F480703860D5
:10264000FFF73AFD054600BF3868C0051ED4FFF706
:1026500033FD401B6428F7D905E100BF206900283D
:1026600040F20000C4F2422000F0828001210160AB
:10267000FFF722FD054600BF306880073FF588AFB1
:10268000FFF71AFD401B0228F6D9ECE0E0680028AD
:1026900000F08080052800F09780012800F09880E5
:1026A000306A20F001003062306A20F0040092E0CD
:1026B0000020C4F242200021C0F88014FFF7FCFC87
:1026C000054600BF706A80077FF56CAFFFF7F4FC2A
:1026D000401B0228F6D9C6E00027C4F2422700209A
:1026E0003866FFF7E9FC022D05460BD13068800102
:1026F00040F1BE80FFF7E0FC401B02284FF00300D2
:10270000F4D968E7306880017FF564AFFFF7D4FC47
:10271000401B02284FF00300F4D95CE740F21000A0
:10272000C2F20000006844F6D351C1F26201A0FB7E
:102730000101480A019000BF00BF0198411E002816
:1027400001913FF42FAF00BF0198411E0028019175
:102750003FF428AF00BF0198411E002801913FF4CB
:1027600021AF00BF0198411E00280191E4D119E773
:1027700000210160FFF7A0FC054600BF306880071C
:102780007FF50DAFFFF798FC401B02284FF00300C8
:10279000F4D920E7306A20F001003062306A20F07E
:1027A00004003062FFF788FC054641F2883700BF1D
:1027B000306A800720D5FFF77FFC401BB8424FF0FE
:1027C0000300F5D907E700BF306A40F0040030622B
:1027D000306A40F001003062FFF76EFC054641F2BE
:1027E000883700BF306A800706D4FFF765FC401BBE
:1027F000B842F7D937E000BFB8F1000F7FF4D5AE8B
:10280000F06920F08050F061CFE600BF306820F41E
:1028100080303060306820F480203060FFF74CFC5E
:10282000054600BF306880037FF59DAEFFF744FC8E
:10283000401B64284FF00300F4D9CCE6306840F424
:1028400080203060306840F480303060FFF734FC26
:10285000054600BF306880033FF585AEFFF72CFCCE
:10286000401B6428F6D9032002B0BDE8F08100BF08
:10287000206AB0F5803F05D17168A26821F400316B
:10288000114371607168626A21F474111043084346
:10289000706001203866FFF70FFC04463068800145
:1028A0003FF598AEFFF708FC001B02284FF003002D
:1028B000F4D990E6411E0020B0EB116F1CBF01203F
:1028C00070474EF21002CEF2000251604EF62351D4
:1028D000CEF20001F0230B70072190601160704769
:1028E0007047000070470000B0B590F83C20012A06
:1028F00004BF0220B0BD01F108053CCDD1E900CEF6
:1029000023F47C5322F470521A432EF4F0431A43FA
:102910002CF4E0431A4324F4C0431A432A43C96900
:1029200022F48042036811435964002180F83C106E
:102930000846B0BD10B590F83C20012A4FF00202C5
:1029400033D080F83D200268D2F804E0D2F808C005
:102950000C682EF07003234340F2FF74C4F20004AD
:10296000A24253600ADCB2F1804F13D040F2004320
:10297000C4F200039A420DD011E000BF42F60043BA
:10298000C4F201039A4205D040F60003C4F20003EA
:102990009A4204D149682CF08003194391600121C7
:1029A000002280F83D1080F83C20104610BD000049
:1029B000002804BF0120704710B5044690F83D0080
:1029C00028B9002084F83C00204600F067F8022077
:1029D00084F83D00206840F2FF730268C4F20003EF
:1029E00042F6004C9842C4F2010C15DCB0F1804F65
:1029F0001AD040F20041C4F20001884214D098423B
:102A000018DCB0F1804F1DD040F20041C4F200014B
:102A1000884217D01AE000BF604505D040F600019B
:102A2000C4F200018842EAD1A16822F070020A4390
:102A30009842E6DD604505D040F60001C4F2000191
:102A4000884203D1216922F440720A43A36922F02B
:102A50008001D4F804E0E268194360450160C26275
:102A6000C0F828E002D16169CCF830100121416141
:102A7000002084F8461084F83E1084F83F1084F853
:102A8000401084F8411084F8421084F8431084F810
:102A9000441084F8451084F83D1010BD70470000C4
:102AA00090F83D1001291CBF01207047022180F8D9
:102AB0003D10006840F2FF72C168C4F2000290420B
:102AC00041F00101C16009DCB0F1804F12D040F249
:102AD0000041C4F2000188420CD012E042F60041ED
:102AE000C4F20101884205D040F60001C4F20001A1
:102AF000884206D1816801F00701062904BF002041
:102B00007047016841F0010101600020704700003A
:102B1000704700007047000010B50168044608695E
:102B2000800744BFC8685FEA807039D408694007ED
:102B300044BFC8685FEA40703ED40869000744BFDC
:102B4000C8685FEA007045D40869C00644BFC86819
:102B50005FEAC0604AD40869C0071CBFC8685FEA62
:102B6000C07051D10869000644BFC8685FEA0060C0
:102B700052D40869400644BFC8685FEA406053D435
:102B80000869800646BFC8685FEA806010BD6FF0C4
:102B9000200220460A61BDE81040FFF7A3BE00BF37
:102BA0006FF002000861012020778869800743D018
:102BB0002046FFF7AFFF45E06FF0040008610220F8
:102BC0002077886910F4407F40D02046FFF7A2FFAD
:102BD00042E000BF6FF00800086104202077C86958
:102BE00080073DD02046FFF795FF3FE06FF01000D3
:102BF000086108202077C86910F4407F3AD0204649
:102C0000FFF788FF3CE000BF6FF00100086120463D
:102C100000F0D0FB2168A5E76FF080000861204636
:102C2000FFF75EFE2168A4E76FF0400008612046D0
:102C300000F0CAFB2168A3E7204600F025F82046F3
:102C400000F00CFA2168002020776FE7204600F0A2
:102C50001BF8204600F002FA2168002020776CE77C
:102C6000204600F011F8204600F0F8F92168002015
:102C7000207769E7204600F007F8204600F0EEF9DB
:102C800021680020207766E7704700002DE9F043B7
:102C900090F83C30012B04BF0220BDE8F0834FEADE
:102CA000B202032A3CD8DFE802F003437FB900BF39
:102CB000036842F600461D6A1A6AC4F2010622F051
:102CC00001021A621A465C6852F818CFB3428E6845
:102CD000D1F800E025F0020545EA06050CD1CE68E2
:102CE000D1E9057824F4407425F00C0526F004069B
:102CF0003C43354344EA08042CF0730747EA0E07C7
:102D00005C609F614F6809695F631D629F6947F05E
:102D100008079F619F6927F004079F61AEE000BF2D
:102D20000121002280F83C200846BDE8F08300BF66
:102D3000036842F600461D6A1A6AC4F2010622F0D0
:102D400010021A621A46D3F804C052F8184FB34260
:102D50008E68D1F800E025F0200545EA06150FD170
:102D6000CE68D1E905986FF0400707EA06162CF403
:102D7000406725F0C00547EA8907354347EA880CD4
:102D800024F4E64444EA0E27C3F804C09F614F6868
:102D900009699F631D629F6947F400679F619F698E
:102DA00027F480679F6168E0036842F600461D6A69
:102DB0001A6AC4F2010622F480721A621A46D3F823
:102DC00004C052F81CEFB3428E680C6825F40075FD
:102DD00045EA06250FD1CE68D1E90598360240F2C2
:102DE000FF47BE432CF4405725F4406547EA0917D6
:102DF000354347EA081C2EF073072743C3F804C085
:102E0000DF614F680969DF631D62DF6947F008070A
:102E1000DF61DF6927F00407DF612FE0036842F616
:102E20000047D3F820C01A6AC4F2010722F4805286
:102E30001A621A465C6852F81C5FD1F800E08E688E
:102E4000BB4204D14F6924F4804444EA87142CF433
:102E5000005747EA063725F4E64646EA0E265C6048
:102E6000DE614E6809691E641F62DF6947F400670E
:102E7000DF61DF6927F48067DF61090213681943A6
:102E800011600021002280F83C200846BDE8F08354
:102E9000002804BF0120704710B5044690F83D009B
:102EA00028B9002084F83C00204600F067F8022092
:102EB00084F83D00206840F2FF730268C4F200030A
:102EC00042F6004C9842C4F2010C15DCB0F1804F80
:102ED0001AD040F20041C4F20001884214D0984256
:102EE00018DCB0F1804F1DD040F20041C4F2000167
:102EF000884217D01AE000BF604505D040F60001B7
:102F0000C4F200018842EAD1A16822F070020A43AB
:102F10009842E6DD604505D040F60001C4F20001AC
:102F2000884203D1216922F440720A43A36922F046
:102F30008001D4F804E0E268194360450160C26290
:102F4000C0F828E002D16169CCF83010012141615C
:102F5000002084F8461084F83E1084F83F1084F86E
:102F6000401084F8411084F8421084F8431084F82B
:102F7000441084F8451084F83D1010BD2DE9F04F41
:102F800081B00446006842F60041C4F20101884263
:102F900002D001B0BDE8F08F41F21800C4F2020087
:102FA000016840F20C3541F40061016000681C21A9
:102FB00000F4006000900098C2F20005C4F2020123
:102FC00000274FF02008284610264FF080094FF4C4
:102FD000807A4FF4806B85E8C20EC5E90687FEF75C
:102FE000DFFD002818BFFEF717FC1C2065626C622D
:102FF000C4F2020040F250351430C2F2000585E8F8
:10300000C10E2846C5E90687FEF7CAFD002818BF8D
:10301000FEF702FC1C20A5626C62C4F2020040F2C2
:1030200094355030C2F200051021002280234FF465
:1030300080774FF480664FF0200C85E88F0028469B
:10304000C5E9056CEA61FEF7ABFD002818BFFEF785
:10305000E3FBE5626C6201B0BDE8F08F40F26C11F9
:10306000C2F2000149684A68824218BF7047896805
:1030700000F026B970470000B0B50C46054649B1CE
:10308000082C15D0042C14BF05F1410005F13F00B8
:1030900010E000BF95F83E00022804BF0220B0BD3A
:1030A00005F13E000078012840F0C4801AE000BF1E
:1030B00005F140000078022804BF0220B0BD082CB2
:1030C0000AD0042C14BF05F1410005F13F0000783F
:1030D000012840F0AF8005E005F1400000780128AC
:1030E00040F0A880002A4FF0010018BF002B01D14A
:1030F000B0BD00BF02206CB1082C13D0042C14BF4B
:1031000085F8410085F83F004FEAB400032810D944
:1031100090E000BF85F83E004FEAB400032808D9CC
:1031200088E000BF85F840004FEAB400032800F2B1
:103130008180DFE800F00323436300BF686A44F244
:10314000E131C0F600018162686A44F24D41C0F687
:103150000001C162686A44F28541D5F800C0C0F63A
:1031600000010163686A0CF1340C11466246FEF7F7
:103170005BFD00285ED14FF400715FE0A86A44F265
:10318000E131C0F600018162A86A44F24D41C0F607
:103190000001C162A86A44F28541D5F800C0C0F6BA
:1031A00000010163A86A0CF1380C11466246FEF773
:1031B0003BFD00283ED14FF480613FE0E86A44F2D5
:1031C000E131C0F600018162E86A44F24D41C0F687
:1031D0000001C162E86A44F28541D5F800C0C0F63A
:1031E00000010163E86A0CF13C0C11466246FEF7EF
:1031F0001BFDF8B94FF4006120E000BF286B44F2DA
:10320000E131C0F600018162286B44F24D41C0F605
:103210000001C162286B44F28541D5F800C0C0F6B8
:1032200000010163286B0CF1400C11466246FEF769
:10323000FBFC08B10120B0BD4FF480512868C26882
:103240001143C16004F01F010122036A8A4023EA8E
:1032500002010162036A42F64441C4F201011A43C9
:10326000A1F144039842026203D10A6842F4004289
:103270000A6040F2FF71C4F20001884206DCB0F13E
:10328000804F0FD040F2004108E000BF42F60041FD
:10329000C4F20101884205D040F60001C4F20001E9
:1032A000884206D1816801F00701062904BF002089
:1032B000B0BD016841F0010101600020B0BD000017
:1032C00070B50D464FEAB10103290DD80446DFE879
:1032D00001F0030D151D00BF204650F8241BCA68DD
:1032E00022F4007218E000BF012070BD204650F8A3
:1032F000281BCA6822F480620EE000BF204650F806
:103300002C1BCA6822F4006206E000BF204650F879
:10331000301BCA6822F48052CA60006842F64446F4
:10332000C4F20106FEF712FB206805F01F0101221E
:10333000036A02FA01F123EA01010162016AA6F1BE
:103340004402904201620ED156F8241C41F211123F
:10335000114208D1016A40F24442114203D131685E
:1033600021F400413160016A41F21112114204D18D
:10337000016A40F24442114210D00120082D14D0BD
:10338000042D07D0002D14BF84F8410084F83E00BE
:10339000002070BD84F83F00002070BD016821F05E
:1033A000010101600120082DEAD184F840000020CD
:1033B00070BD0000006840F20041C4F20001884284
:1033C00008BFFEF77FBE70477047000070470000DF
:1033D00070470000B0B582B0044600680168C36859
:1033E000426901F02F05202D03F0200506D12DB1F3
:1033F000204602B0BDE8B04001F07AB85FEA017C37
:103400001EBF02F0010E03F4907212EB0E0255D1B2
:10341000226B012A05D111F0100218BF13F010021F
:1034200036D10A0622D513F080021FD094F841103D
:10343000212941D1A168B1F5805F03D1216900291B
:1034400000F07282216A4A1C226209784160E18C94
:1034500001390A04E1842FD1C16821F08001C160E3
:10346000C16841F04001C16002B0B0BD490623D53A
:1034700013F0400120D0C16821F04001C16020213B
:10348000204684F8411002B0BDE8B04000F0E6BC30
:1034900000210191016801914168019101994169FF
:1034A000490600F18F80A18DE28DE38D002B1CBFBA
:1034B000891A5FEA01420CD102B0B0BDCA0718BF39
:1034C00013F4807240F038814A0700F13B8140E1FB
:1034D000206850E8030F226820F4907042E803034C
:1034E000DBB1206850E8030F226820F4907042E8B6
:1034F000030393B1206850E8030F226820F4907012
:1035000042E803034BB1206850E8030F226820F41F
:10351000907042E80303002BDAD1206850E8050FD1
:10352000226820F0010042E80503DBB1206850E882
:10353000050F226820F0010042E8050393B12068DE
:1035400050E8050F226820F0010042E805034BB166
:10355000206850E8050F226820F0010042E80503CA
:10356000002BDAD1202084F842000020206320685C
:1035700050E8030F226820F0100042E80303DBB19B
:10358000206850E8030F226820F0100042E803038F
:1035900093B1206850E8030F226820F0100042E841
:1035A00003034BB1206850E8030F226820F010009D
:1035B00042E80303002BDAD1022289B2204662637B
:1035C000B4E000BFE16B0A68526893B2002B3FF48D
:1035D00073AFA58DAB42BFF46FAFE2858969202937
:1035E00000F09D8050E8030F216820F4807041E8CE
:1035F0000302EAB1206850E8030F216820F48070CC
:1036000041E80302A2B1206850E8030F216820F4CA
:10361000807041E803025AB1206850E8030F216826
:1036200020F4807041E8030212B12068DAE700BF9D
:10363000206850E8050F216820F0010041E80502EC
:10364000DAB1206850E8050F216820F0010041E858
:10365000050292B1206850E8050F216820F00100B2
:1036600041E805024AB1206850E8050F216820F0C2
:10367000010041E80502002ADAD1206850E8050F70
:10368000216820F0400041E80502DAB1206850E8E6
:10369000050F216820F0400041E8050292B1206842
:1036A00050E8050F216820F0400041E805024AB1CA
:1036B000206850E8050F216820F0400041E805022D
:1036C000002ADAD1202084F84200002020632068FC
:1036D00050E8030F216820F0100041E80302DAB13E
:1036E000206850E8030F216820F0100041E8030231
:1036F00092B1206850E8030F216820F0100041E8E3
:1037000003024AB1206850E8030F216820F010003E
:1037100041E80302002ADAD1E06BFEF7F3F8022059
:103720006063A08DE18D401A81B2204602B0BDE8F1
:10373000B040FFF74BBE00BF626C42F00102626412
:103740004A0706D5BEF1000F03D0626C42F00202B8
:1037500062648A0706D5BEF1000F03D0626C42F0A6
:1037600004026264BCF1000F06D555EA0E0203D0D4
:10377000626C42F008026264626C002A3FF49CAE04
:1037800011F0200118BF002D03D0204600F0B0FE3C
:1037900020684169626C01F0400102F0080289185A
:1037A00000F0A28050E8030F216820F4907041E8F7
:1037B0000302C2B3206850E8030F216820F4907020
:1037C00041E803027AB3206850E8030F216820F42F
:1037D000907041E8030232B3206850E8030F21687B
:1037E00020F4907041E80302EAB12068DAE700BFF4
:1037F000206850E8050F216820F0010041E805022B
:10380000DAB1206850E8050F216820F0010041E896
:10381000050292B1206850E8050F216820F00100F0
:1038200041E805024AB1206850E8050F216820F000
:10383000010041E80502002ADAD1206B012824D1D9
:10384000206850E8030F216820F0100041E80302CF
:10385000DAB1206850E8030F216820F0100041E839
:10386000030292B1206850E8030F216820F0100095
:1038700041E803024AB1206850E8030F216820F0B4
:10388000100041E80302002ADAD1202084F8420027
:10389000002020632068416949063FD550E8050FA4
:1038A000216820F0400041E805022AB3206850E872
:1038B000050F216820F0400041E80502E2B12068D0
:1038C00050E8050F216820F0400041E805029AB158
:1038D000206850E8050F216820F0400041E805020B
:1038E00052B12068DAE700BF2046FFF771FD0020E3
:1038F000606402B0B0BD00BFE06B78B144F2E54156
:10390000C0F600014163FEF721F800283FF4D4AD72
:10391000E06B416B02B0BDE8B0400847204602B002
:10392000BDE8B040FFF754BD216A31F8022B6FF3B8
:103930005F22426021628AE5002804BF01207047AF
:1039400010B5044690F8410028B9002084F84000E2
:10395000204600F061F8242084F841002068D4E972
:103960000212C36823F40053C360036923F4405375
:103970001A430261D4E904231143C268194341F296
:103980000C639A431143C1604169A26921F44071FB
:10399000114343F60002C4F201029042416103D098
:1039A000FEF786FD02E000BFFEF796FD6268192172
:1039B00048439100B0FBF1F048F21F51C5F2EB1102
:1039C000A0FB01235A096FF0630302FB03003223BB
:1039D00003EB0010A0FB0101F02303EA5113206860
:1039E00003EB0212C1F3431111448160016921F418
:1039F00090410161416921F02A014161C16841F4AE
:103A00000051C16000202021606484F8411084F8D6
:103A10004210606310BD000070B586B0006844F6C7
:103A20000001C4F20001002688420596CDE9036634
:103A3000029635D044F20041C4F20001884268D1B8
:103A400041F21800C4F20200416840F6000441F45B
:103A5000003141604168C4F2010401F40031019178
:103A60000199016802AD41F0040101600068294636
:103A700000F00400019001980420029002200390BD
:103A8000032005902046FEF70DFA08200290002042
:103A9000CDE9030020462946FEF704FA06B070BDC2
:103AA00041F21800C4F20200416802AD41F48021E5
:103AB0004160416801F4802101910199016841F060
:103AC000080101600068294600F008000190019893
:103AD0004FF480600290022003900320059040F68E
:103AE0000000C4F2010000F580642046FEF7DAF918
:103AF0004FF40060CDE90206204629460496FEF701
:103B0000D1F9272000210022FEF78EFB2720FEF7A7
:103B10007BFB06B070BD000090F84230202B1CBF2C
:103B20000220704700294FF0010318BF002A01D17D
:103B30001846704700230363816222218285C28573
:103B4000436480F842100169006819B1C16841F40A
:103B50008071C1604169002341F001014161C16888
:103B600041F02001C16018467047000040F2B041AA
:103B7000C2F20001884218BF704710B540F2C80475
:103B8000C2F2000420780A280CD02B2814D144F269
:103B90006040C2F20000FA21FCF76DFE00202061B7
:103BA00012E000BF44F260410EA0C2F2000106F034
:103BB000E5FB0120606007E021694A1C226144F2B4
:103BC0006042C2F20002505440F2B04040F2C801DC
:103BD000C2F20000C2F200010122BDE81040FFF76E
:103BE0009BBF00BFE694B6E588B0E68C87E4BBA433
:103BF00025730A002DE9F04381B0044690F8410096
:103C0000202840F0B1800F4600294FF0010000F05D
:103C1000D0801646002A00F0CC804FF0000821200A
:103C20001D46C4F8448084F84100FEF745FAA68496
:103C3000E684A1680646B1F5805F05D120690028B9
:103C400014BF3846B8460746E18C2068002900F0CA
:103C50008F8005F101090AE047B317F8011B4160A5
:103C6000E18C0139E184E18C002900F08180016858
:103C70000906F1D4B9F1000F0AD0EDB1FEF71CFA34
:103C8000801BA84218D8206801680906F6D5E3E72A
:103C900001680906E0D4016809065CBF01685FEAB3
:103CA0000161D9D401680906F2D5D5E738F8021BBD
:103CB00000276FF35F21D2E7206850E8030F2168E7
:103CC00020F4D07041E80302BAB3206850E8030F33
:103CD000216820F4D07041E8030272B3206850E8F4
:103CE000030F216820F4D07041E803022AB3206852
:103CF00050E8030F216820F4D07041E80302002A45
:103D0000DAD11AE0206850E8050F216820F00100A0
:103D100041E80502DAB1206850E8050F216820F07B
:103D2000010041E8050292B1206850E8050F2168C2
:103D300020F0010041E805024AB1206850E8050F73
:103D4000216820F0010041E80502002ADAD1202094
:103D500084F8410084F84200002084F840000320E9
:103D600001B0BDE8F08300BF022001B0BDE8F083E0
:103D70000168490619D4FDB1691C0DD101684906D5
:103D800013D4016849065CBF01685FEA41610CD445
:103D900001684906F2D508E0FEF78EF9801BA842BB
:103DA0000AD8206800684006F6D5202084F8410033
:103DB000002001B0BDE8F083206850E8030F2168BF
:103DC00020F4D07041E80302E2B3206850E8030F0A
:103DD000216820F4D07041E803029AB3206850E8CB
:103DE000030F216820F4D07041E8030252B3206829
:103DF00050E8030F216820F4D07041E80302002A44
:103E0000DAD11FE0206850E8050F216820F001009A
:103E100041E80502002A9AD0206850E8050F216881
:103E200020F0010041E80502002A3FF490AF20682D
:103E300050E8050F216820F0010041E80502002A42
:103E40003FF485AF206850E8050F216820F001009D
:103E500041E80502002AD5D179E70000704700004B
:103E600080B582B041F21400C4F202000168002261
:103E700041F0010101600068002100F001000190A3
:103E800001980C20FEF7D0F90C20FEF7BDF90D20AB
:103E900000210022FEF7C8F90D20FEF7B5F9102029
:103EA00000210022FEF7C0F9102002B0BDE88040DA
:103EB000FEF7AAB980B586B0002041F2180105903E
:103EC000C4F202010A6842F020020A600A6802F0A5
:103ED00020020192019A0A6842F004020A600A680C
:103EE00002F004020192019A0A6842F008020A6094
:103EF000096801F00801019101991021CDE9021032
:103F0000049040F60000C4F2010002A9FDF7CAFFC8
:103F100006B080BD70B598B042F6004540F2D8308A
:103F2000C4F201050021C2F2000059221191CDE92D
:103F30000F11CDE90D11CDE90B11CDE90911CDE935
:103F40000711CDE90511CDE90311CDE90111C0E952
:103F50000051C0E90212C0E904118161FEF798FF27
:103F6000002818BFFDF758FC40F2D830C2F200001C
:103F700010A9FEF7DFFC002818BFFDF74DFC6020FC
:103F800009900020CDE90A00CDE90C00CDE90E0032
:103F900040F2D830C2F2000009A90022FEF776FEF6
:103FA000002818BFFDF738FC40F2D830C2F20000FC
:103FB00009A90422FEF76AFE002818BFFDF72CFCB1
:103FC00040F2D830C2F2000009A90822FEF75EFED6
:103FD000002818BFFDF720FC40F2D8344FF4005001
:103FE000C2F200040026069001A920460596CDE9FC
:103FF0000366CDE901660896FEF776FC002818BF37
:10400000FDF70AFC20681696A84201D018B070BDD2
:1040100041F21800C4F20200016841F0040101609D
:10402000006814A900F00400139013984FF4E060A6
:104030001490022015901790A5F51050FDF732FF4F
:1040400018B070BD80B540F2684044F20041C2F241
:104050000000C4F2000100234FF00C0C4FF4E132D9
:1040600080E80E00C0E90333C0E905C3C361FFF770
:1040700063FC002808BF80BDBDE88040FDF7CCBBD5
:1040800080B540F2B04044F60001C2F20000C4F234
:10409000000100234FF00C0C4FF4E13280E80E00D9
:1040A000C0E90333C0E905C3C361FFF745FC00283D
:1040B00008BF80BDBDE88040FDF7AEBBFEE7000055
:1040C000FEE700002DE9F04381B0C8B18146884683
:1040D0000EC001EB41006E2101EB0010FCF70EF960
:1040E000C9F80C0060B1B8F1010FC0F2D680A8F198
:1040F00001016E30032908F0030C05D2002287E08D
:1041000001B0BDE8F08300BF28F0030300224FF6A2
:10411000FC7E4FF02415242602EA0E0707EB470128
:104120000C0100EB0111C1F80250C1F80650C1F8B2
:104130000A50C1F80E50C1F81250C1F81650C1F81B
:104140001A50C1F81E50C1F82250C1F82650C1F8CB
:104150002A50CE85791C01EB410106530C0100EB7E
:1041600001114E838E83CE83C1F80250C1F80650F0
:104170004E818E81C1F80E50C1F81250C1F8165010
:104180000E844E848E84CE840E854E858E85CE859B
:10419000B91C01EB410106530C0100EB01114E82E9
:1041A0008E82CE820E834E838E83CE834E808E800F
:1041B000CE800E814E818E81C1F80E500E844E84C9
:1041C0008E84CE840E854E858E85CE85F91C01EBBE
:1041D0004101043206530C0100EB011193424E825F
:1041E0008E82CE820E834E838E83CE8306534E8084
:1041F0008E80CE800E814E818E81C1F80E500E844D
:104200004E848E84CE840E854E858E85CE8583D158
:10421000BCF1000F41D091B201EB410100EB011361
:104220000F014FF02411BCF1010F1961596199611F
:10423000D961C15159609960D96019625962996216
:10424000D9622AD0531C9BB203EB430300EB031744
:104250001B01BCF1020F39617961B961F961C1508B
:104260007960B960F96039627962B962F96214D033
:10427000911C89B201EB410100EB011209014FF0E1
:104280002413136153619361D3614350536093606E
:10429000D360136253629362D36240F26C10C2F235
:1042A000000001684A1C026000EB810204A0414644
:1042B000C2F8049001B0BDE8F04306F05FB800BF5B
:1042C000E5889DE5A78BE58C96575332383132E56A
:1042D000AE8CE688903A0AE781AFE78FA0E695B00A
:1042E0003A25640A0000000080B506F02BF807F0BC
:1042F00051F8BDE8804006F033B80000B0B590B08A
:1043000000240120CDE90B44CDE9094406900A9030
:104310004FF4E0104FF4803102250F9006A8CDE94C
:104320000714CDE90D51FEF7EBF828B1EFF310803B
:1043300072B600BFFEE700BF0F20CDE901054FF4C4
:104340008060CDE9040401A802210394FDF7A8FFD1
:1043500020B1EFF3108072B6FEE700BF10B0B0BD21
:1043600041F20400C4F20200016801F00C010829C6
:1043700041F20021C0F27A0119D102680368C2F348
:104380008342DB0302F1020206D440F60011C0F2C0
:104390003D0151430BE000BF03689B0302D451432E
:1043A00005E000BF40F60011C0F23D01514340F26C
:1043B0001002C2F20002116000684EF67033C0F3C2
:1043C0000310C0F60003185C21FA00F0106070477B
:1043D0007047000040F22040C2F20000FEF79CBB94
:1043E00010B5446A616A814212D0A16A814217D035
:1043F000E16A81421CD0216B814220D18069082171
:104400000028217704BF012084F8410017E000BF95
:10441000816901200029207708BF84F83E000EE062
:1044200080690221217750B9012084F83F0006E01D
:1044300080690421217710B9012084F840002046CA
:10444000FEF70CFE0020207710BD000010B5446A76
:10445000616A81420AD0A16A814209D0E16A81423F
:1044600008D0216B814207D1082004E0012002E03E
:10447000022000E0042020772046FEF7FBFD00200C
:10448000207710BD10B5446A616A81420CD0A16AE0
:1044900081420FD0E16A814212D0216B814215D056
:1044A000012084F83D0016E00120207784F83E00CA
:1044B00011E000BF02202077012084F83F000AE0CD
:1044C00004202077012084F8400004E008202077B1
:1044D000012084F841002046FEF71AFB00202077D7
:1044E00010BD0000406A0021C185C184FEF770BF85
:1044F00081B090F84210222920D18368B3F5805F03
:1045000008D10169002965D000F128010A68036813
:104510005B680AE0014651F8282F13B90369002BA4
:10452000F5D003685B6803F07F0313700A680132FB
:104530000A60C18D01390A04C18501D001B07047FC
:104540000168CA6822F02002CA60CA6822F4807238
:10455000CA604A6922F001024A61202280F84220A2
:1045600000224263036B012B3ED1026351E8031F1B
:10457000026821F0100142E803130168DBB151E841
:10458000031F026821F0100142E80313016893B190
:1045900051E8031F026821F0100142E8031301688B
:1045A0004BB151E8031F026821F0100142E80313E8
:1045B0000168002BDAD10A68D20606D500220092E3
:1045C0000A680092496800910099818D01B0FEF758
:1045D000FDBE00BF0168826A49686FF35F2122F85F
:1045E000021B8262A5E700BF01B0FFF7BFBA00005F
:1045F00040F2B040C2F20000FEF7ECBEFEE7000061
:10460000C06802EB4202402300EB02100A0258BFCE
:104610002423A0F87E304B024FF0400358BF2423E0
:10462000A0F880308B024FF0400358BF2423A0F83D
:104630008230CB024FF0400358BF2423A0F88430CF
:104640000B034FF0400358BF2423A0F886304B03E0
:104650004FF0400358BF2423A0F888308B034FF05D
:10466000400358BF2423A0F88A30CB034FF0400307
:1046700058BF2423A0F88C300B044FF0400358BFE0
:104680002423A0F86E304B044FF0400358BF24237E
:10469000A0F870308B044FF0400358BF2423A0F8DB
:1046A0007230CB044FF0400358BF2423A0F874307D
:1046B0000B054FF0400358BF2423A0F876304B057C
:1046C0004FF0400358BF2423A0F878308B054FF0FB
:1046D000400358BF2423A0F87A30CB054FF04003A5
:1046E00058BF2423A0F87C300B064FF0400358BF7E
:1046F0002423A0F88E304B064FF0400358BF2423EC
:10470000A0F890308B064FF0400358BF2423A0F848
:104710009230CB064FF0400358BF2423A0F89430CA
:104720000B074FF0400358BF2423A0F896304B07E7
:104730004FF0400358BF2423A0F898308B074FF068
:1047400040024FF0400358BF2423A0F89A30C90715
:1047500008BF2422A0F89C2070470000D0E9013156
:10476000C2681846B023FEF787BC0000002804BFCB
:1047700000207047C1B209B101200CE010F47F4164
:1047800002D0090A092006E010F47F0107BF010EDC
:104790001920090C11204EF68A32C0F60002515C35
:1047A0000844704770B588B005464EF65C30C0F6D8
:1047B000000090E81E0000690DF10C0C07904FF40A
:1047C0007F408CE81E0002900FA002A90422002363
:1047D00001F0AEF9029A052403AE284600214FF4F9
:1047E000FA630096019400F07BFB029928460022B0
:1047F0004FF4FA630096019400F072FB4FF4FA70E4
:1048000006F0A4FC08B070BD626F64795F636F6CE2
:104810006F7200002DE9F04F8DB040F2741904461C
:1048200000254FF0FF3BC2F2000904AE4FF0010A31
:104830004FF0FF370191CDE90255C0F804B002E016
:104840002570C4F80CB0781C18D0E06881020130E3
:1048500008BF4FF480610F444FF6000199F804003F
:10486000C0F6000101F500680028404608BF4FF47B
:104870000060874272D2B8050BD057E099F80470F7
:104880004FF60000002FC0F6000018BF0746B8051D
:104890004CD138463146242201F0AEF90A9844F250
:1048A0004561C3F2340188426760A060C8D19DF8B9
:1048B00018000B9984F800A0E16068B19DF814001D
:1048C000E0B19DF81000B0FA80F040099DF8241086
:1048D000607031B918E000BF03209DF824106070AB
:1048E00091B19DF82010B9B19DF81C10B1FA81F179
:1048F00049090128A1700BD112E000BF02209DF8E8
:10490000241060700029ECD103210128A17007D088
:10491000022898D102A804E002210128A170F7D151
:1049200003A80168013101608DE700BF4FF21E67E7
:104930004FF234604FF299524FF20663C0F600070F
:10494000C0F60000C0F60002C0F6000340F24921A4
:10495000009701F023F900BFFEE700BF02984FF077
:10496000FF36002800F09A80DDF804A004AF4FF075
:10497000010B4FF0FF30666005E000BF012800F03A
:10498000898000BF6068411C14D0E1688A0201314F
:1049900008BF4FF4806299F80410151800294046AA
:1049A00008BF4FF40060854280F09880A8050CD0C5
:1049B0007CE000BF99F804504FF60000002DC0F6CF
:1049C000000018BF0546A80570D1284639462422A4
:1049D00001F012F90A9844F24561C3F234018842A9
:1049E0006560A06014D19DF818000B9984F800B0A0
:1049F000E160A8B19DF8140020B39DF81000B0FA52
:104A000080F040099DF82410607071B920E000BF6B
:104A1000002020706078E6600228B3D124E000BF57
:104A200003209DF82410607091B19DF82010A9B169
:104A30009DF81C10B1FA81F14909A1700228A1D199
:104A400012E000BF02209DF8241060700029ECD114
:104A50000321A17002287FF495AF05E00221A17027
:104A600002287FF48FAF00BF28462146012204F0C0
:104A70005DFF207800283FF485AF206950457FF620
:104A800081AFA07802287FF479AF99F8060000285A
:104A90007FF478AF6669039828BB03E0DDF804A0D3
:104AA000039800BB30460DB0BDE8F08F4FF21E6793
:104AB0004FF234604FF299524FF20663C0F600078E
:104AC000C0F60000C0F60002C0F6000340F2492123
:104AD000009701F063F800BFFEE700BF4FF0FF361C
:104AE00003980028DED0711CDCD1012804D899F885
:104AF0000600012840F0BA804FF0FF3704AE4FF0B7
:104B0000010B4FF0FF30676007E000BF99F8060027
:104B1000002800F0878000BF6068411C14D0E16865
:104B20008A02013108BF4FF4806299F80410151809
:104B30000029404608BF4FF40060854280F0908015
:104B4000A8050CD074E000BF99F804504FF600009F
:104B5000002DC0F6000018BF0546A80568D12846FC
:104B60003146242201F048F80A9844F24561C3F224
:104B7000340188426560A06014D19DF818000B993B
:104B800084F800B0E160A8B19DF8140020B39DF84E
:104B90001000B0FA80F040099DF82410607071B9DF
:104BA00020E000BF002020706078E7600128B3D1CA
:104BB00024E000BF03209DF82410607091B19DF89F
:104BC0002010A9B19DF81C10B1FA81F14909A1701A
:104BD0000128A1D112E000BF02209DF824106070CE
:104BE0000029ECD10321A17001287FF495AF05E0E5
:104BF0000221A17001287FF48FAF00BF2846214613
:104C0000012204F093FE207800283FF485AF20694C
:104C100050457FF681AFA07802283FF477AF012896
:104C20007FF47AAF666930460DB0BDE8F08F00BF03
:104C30004FF21E674FF234604FF299524FF2066303
:104C4000C0F60007C0F60000C0F60002C0F6000380
:104C500040F24921009700F0A1FF00BFFEE700BF2E
:104C60004FF0FF3630460DB0BDE8F08F4FF23460A4
:104C7000C0F6000006A240F2254100F08FFF01209F
:104C80004FF0FF3689F8060030460DB0BDE8F08FD2
:104C900054726967676572206120474320636865C5
:104CA000636B20616674657220616C6C6F63204574
:104CB0004E56206661696C65642E0A0070B5002846
:104CC00008BF70BD40F208060446C2F2000603E0C9
:104CD000716828468847CCB1E16825462468C80534
:104CE00004D4A86810B1FFF7E9FFE968C80504D447
:104CF000286910B171688847E9688805E8D4286A8E
:104D00000028E5D071688847E2E700BF70BD000069
:104D10002DE9F04F81B0D0F808B00029884618BFBF
:104D20004FF00108BBF1000F56D08A46002941D050
:104D30000AF10109DBF820404046E4B1267830460C
:104D4000FBF732FB9AF8001007460846FBF72CFBEE
:104D500087420FD1651C4C46AEB115F8016B304649
:104D6000FBF722FB14F8011B07460846FBF71CFB68
:104D70008742F1D0381A30B1DBF800B0BBF1000F38
:104D8000D8D14FF0000B584601B0BDE8F08F00BFFE
:104D9000DBF820000028F6D0DBF800B0BBF1000FF4
:104DA0001AD0DBF820000028EDD0DBF800B0BBF112
:104DB000000F11D0DBF820000028E4D0DBF800B0B1
:104DC000BBF1000F08D0DBF820000028DBD0DBF8B7
:104DD00000B0BBF1000FDBD14FF0000B584601B023
:104DE000BDE8F08FB0B540F20801C2F200010968D9
:104DF000054628208847F8B128210446FBF73BFDEB
:104E000040F28420C2F2000000210160E5B100BF41
:104E1000287801381F281CD8687801381F2815D831
:104E2000A87801381F2813D8E878043501382028DD
:104E3000EED3013D0DE000BF40F28420C2F200003D
:104E4000002404602046B0BD002502E0013500E0EA
:104E500002352046294603F067FE08B12046B0BD62
:104E60002046FFF72BFF00242046B0BD70B584B06C
:104E700004464FF47F400125029010A002A90422AD
:104E80000023039500F054FE029A03AE2046002151
:104E90004FF4FA630096019500F022F8029920463B
:104EA00000224FF4FA630096019500F019F84FF4D0
:104EB000FA7006F04BF904B070BD00BF636865730B
:104EC000745F636F6C6F720080B501F065FE002047
:104ED00080BD000080B501F0CBFF002080BD000048
:104EE0002DE9F04FA5B08146C2F30740C1F3074654
:104EF000A0EB060AC2F30720C1F30728A0EB0807BE
:104F0000D0B2CDB2A0EB050B4CF6CD4003FB00F1C7
:104F1000012000EBD140B3FBF0F2CC0C009209F081
:104F2000A7FB0890304609F0A3FB0790504609F014
:104F300087FB0690404609F09BFB0590384609F038
:104F40007FFB0490284609F093FB0390584609F034
:104F500077FB00260290CDF84C90019405E000BF4D
:104F6000A74206F1010600F23D81B0B215961490F9
:104F700009F07EFB089909F085FA06460698314645
:104F800009F08AFB079909F01BFA09F03DFB054679
:104F90000498314609F080FB059909F011FA09F0EF
:104FA00033FB04460298314609F076FB039909F079
:104FB00007FA09F029FB824620064FF0400C58BF43
:104FC0004FF0240C60064FF0400E58BF4FF0240EF7
:104FD000A0064FF0400B58BF4FF0240BE0064FF0F7
:104FE000400858BF4FF0240820074FF0400958BF31
:104FF0004FF0240960074FF0400758BF2427A0074F
:105000004FF0400358BF2423E0074FF0400608BF8D
:105010002426294628064FF0400558BF2425480677
:105020004FF0400058BF2420249088064FF04000E5
:1050300058BF24201290C8064FF0400058BF2420CB
:10504000239008074FF0400058BF242011904807D4
:105050004FF0400458BF242488074FF0400058BF49
:105060002420C9074FF0400108BF242110915FEAB6
:105070000A614FF0400158BF242122915FEA4A6142
:105080004FF0400158BF24210F915FEA8A614FF031
:10509000400158BF24210E915FEACA614FF04001E0
:1050A00058BF24210D915FEA0A714FF0400158BFAB
:1050B00024210C9140215FEA4A7258BF24210B91B0
:1050C00040215FEA8A7258BF24210A915FEACA72BE
:1050D0002F994FF0400208BF242200296EDD219055
:1050E00013981DA9C068CDE919E80DF1380E68C103
:1050F000CDE91BB7099000F16E05CDE917C9DDF8C0
:1051000048A01694119C9EE80141DDE90C91DDE96F
:105110000AB62092002200272E9B013733F8222066
:10512000179B02EB420205EB021C1201AB52199ACB
:105130002F9BACF802201B9AACF814A0ACF804200A
:105140001A9AACF81840ACF80620189AACF81EE091
:10515000ACF808201C9AACF82280ACF80A201D9A02
:10516000ACF82400ACF80C201F9AACF82610ACF870
:105170000E201E9AACF82890ACF81020249AACF8B7
:105180002A60ACF81220239AACF82CB0ACF81620A8
:10519000169AACF81A20219AACF81C20229AACF886
:1051A0002020BAB29A42209BACF82E30B4DB019C8E
:1051B000159EDDE91397099A07E000BFDDF84C90D2
:1051C000019CD9F80C20DDE91476D9E90101B0235E
:1051D000FDF752FFA7423FF6C3AE009805F0B6FFB9
:1051E000BEE600BF25B0BDE8F08F000086B040F2FB
:1051F000C807C2F20007786844F2604540F214081C
:105200001FA4C2F2000501AE0FF28C090FF2980A3A
:105210000FF2B00BC2F20008012805D00A2005F0F9
:1052200095FF78680128F9D12046294605F0A6F8AF
:105230002846314602F090FFA0B10199484605F09A
:105240009DF8DDE90212504605F098F8DDE90412F8
:10525000584605F093F80298C8F80000304604F06C
:1052600033F902E01EA005F089F80398FBF775F802
:105270000598FBF772F8002078600128CED1D3E7BB
:10528000E6ADA3E59CA8E5A484E79086E68C87E4D8
:10529000BBA425730A0000004D6F6465205479702B
:1052A000653A2025640A00004D6F64652049443A40
:1052B0002025642C20436F6C6F72733A2025730A8B
:1052C00000000000676E4D6F64652049443A202558
:1052D000642C20436F6C6F72733A2025730A0000B0
:1052E0004661696C656420746F207061727365201B
:1052F000746865204A534F4E20737472696E672E2E
:105300000A0000000B46884280F0C1802DE9F04F72
:1053100091B000F12001C2430DF1240901924742EE
:1053200009F1010A03910A460024834600268046BB
:10533000059302900DE000BFDDE90531DDE90727A7
:105340000DF1240901342032203F9942884680F033
:1053500095804946914608979342079238BF9946EF
:105360000398A3EB080500EB4417BB4208F12000AB
:1053700038BF1F460690984238BF202540462A462F
:1053800000F03AFC002DD7D00020A0EB441C01987F
:10539000BE46604438440328049403D200200DF133
:1053A000240932E00898484420F0030200200DF15F
:1053B000240900BF19F80030594608EB0005FF2BFF
:1053C00008BF2946FF2E08BF59461AF800400F466D
:1053D0000AEB0006FF2C08BF6F1CFF2B08BF0F460F
:1053E0007178B678FF293B4608BFAB1CFF2C08BF7D
:1053F0003B46FF2E9B4608BF05F1030BFF2900F13A
:10540000040008BF9B468242D4D1029906AFACEBA0
:105410000101714411F0030CDDE9044386CF91D002
:1054200019F800E05B46BEF1FF0F08BF00EB080370
:10543000FF2E18BF9B46BCF1010F01D176461AE042
:10544000431C19F803605D46FF2E08BF03EB0805F7
:10545000BEF1FF0F18BFAB46BCF1020F0BD00230FC
:1054600019F800505B46FF2D08BF00EB0803FF2E24
:105470002E4618BF9B46059B64E700BF0BF1030057
:10548000FF2E08BF20F0030311B0BDE8F04F18460F
:10549000704700002DE9F04F8FB00746D0F8148018
:1054A00008461D4691460E46FBF704F9212809D30C
:1054B0000FF27840202100F073FB042528460FB03E
:1054C000BDE8F08F0DF1080A044650462421FF2262
:1054D000FBF7A7F945F24B60C3F234000790E01CDC
:1054E00005F12B0100F4FE7021F003010B950D185E
:1054F000B5F5777F8DF82840089509D90FF20C4053
:1055000000F04EFB062528460FB0BDE8F08F00BF27
:1055100018F1010007D138462946FFF77BF980468C
:10552000013000F0B9807878022815D0012819D10F
:1055300078684FF0FF31CDE90C110E910CA90431C0
:105540004FF0000B043004228DF834B000F080FBE3
:105550000546002DB2D107E03869482870D3401BBA
:1055600047286DD94FF0000BFF200AF120018DF87C
:1055700030000020082200F079FA9DF828203146FA
:10558000099000F073FA9DF828100990CA1C22F0C7
:105590000302531A09D08C1A0CAD00BF2946012210
:1055A00000F064FA01340990F8D30B9A494600F0F0
:1055B0005DFA0B990990CA1C22F00302531A08D015
:1055C0008C1A0CAD2946012200F050FA01340990E2
:1055D000F8D34FF0FF300690CDF81500CDF811004C
:1055E000CDF80D00CDF8090000208DF8080002A9C3
:1055F0004046042200F02CFB20B1054628460FB09F
:10560000BDE8F08F0AF1140108F11400142200F033
:105610001FFB054600287FF451AF9DF82840DA466D
:1056200008F128004FF0FF3114F0FC0B0C910190B1
:1056300056D031465A4600F00BFB054651E000BFFC
:1056400078684FF0FF340CA900220E9408318DF8D1
:10565000382008300422CDE90C4400F0F9FA40F279
:105660007412C2F200021346796853F8285F8D4223
:10567000054609D0134653F8300F884204D013462C
:1056800053F8380F884265D11C604FF0010B002D94
:105690007FF414AF68E700BF40F27410C2F200005C
:1056A0008079012816D14FF234604FF2B852C0F61B
:1056B0000000C0F6000240F2AE412B4600F06EFA48
:1056C00000F0ACFF38462946FFF7A4F880460130C9
:1056D0007FF429AF062528460FB0BDE8F08F00BF44
:1056E000002514F003020DD065B90CAD06EB0B01DB
:1056F0002846FBF749F8019829465844042200F04F
:10570000A7FA05465446BAF1000F03D09DF82810B9
:1057100077E000BF9DF828107868CA1C0B9B019F9A
:1057200022F003023A44033340F2741723F00303D8
:10573000C2F2000702EB030EBB6A864516D900F5DC
:105740008062724512D983422AD107F128024FF0B4
:10575000000C50E052F8400F8842134608BF1C600E
:105760004FF0010B002D7FF4A9AEFDE6834203D17B
:1057700007F128020FE000BF3A4652F8303F83425B
:1057800009D03A4652F8383F834204D057F8402FA8
:1057900082423A4635D14FF0FF30106031E000BF11
:1057A0003A4652F830BF4FF0010C834523D0B3F195
:1057B000FF3418BF01245A1C08BF4FEA840C1BF1A8
:1057C00001023A4652F8383F18BF4FEA840C834230
:1057D00002D14FF0020C0EE08CF0040262EA0302E8
:1057E000002A3A4652F8403F08BF4FF0020C83426D
:1057F00066D14FF0030C106007EBCC00C0F82CE032
:1058000054463046424606F0ABFB002D7FF456AEC0
:105810009DF828000B9E0330019920F0030026F02C
:10582000030701EB000A4FF0FF300C9037B15046F0
:1058300049463A4600F00CFA054600E0002516F00D
:1058400003020DD065B90CAD09EB07012846FAF744
:105850009BFF0AEB07002946042200F0F9F90546F0
:10586000002D7FF42BAE4FF0FF300690CDE9040001
:10587000CDE9020002A8011D00208DF80C0008F1FE
:105880000400042200F0E4F9002C05463FF416AEB3
:10589000002D7FF413AE4FF23460C0F6000011A269
:1058A00040F25E5100F07AF940F27410C2F200004A
:1058B00001210025817128460FB0BDE8F08F00BF9F
:1058C0005A1C08BFBCF1040F04D0BCF1030F5446AE
:1058D00097D802E04FF0030C544607EBCC02C2E924
:1058E0000A0E8EE75472696767657220612047432C
:1058F00020636865636B20616674657220637265FE
:105900006174656420454E562E0A00004572726F20
:10591000723A2054686520454E562073697A652096
:10592000697320746F6F206269670A004572726F35
:10593000723A2054686520454E56206E616D652090
:105940006C656E677468206973206D6F7265207472
:1059500068616E2025640A00F0B58FB015460C46CC
:10596000064629B901A9304600F022FB80B301ACFC
:10597000206B4FF0FF3140F27417CDE90111CDE9F2
:1059800003110591C2F2000701A99DB100220C315B
:105990008DF810200C30042200F05AF9F979012911
:1059A00010D078B916B33046FAF784FE0146304677
:1059B0001FE000BF002208318DF80C2008300422BF
:1059C00000F046F985F00101F971C0B10FB0F0BDEA
:1059D0004FF23460C0F600001EA240F23F41334651
:1059E00000F0DCF804200FB0F0BD00BFA17804F196
:1059F00010004FF0FF3206F0B3FA0020F871206B70
:105A000040F2FF3120EA010501AC05F10C0021460E
:105A10000C2200F0F1F89DF80C0000284FF0000077
:105A2000D4D09DF808100029D0D09DF8041000298A
:105A3000CCD14FF0FF300390CDE901000020211DB3
:105A40008DF8080045F01000042200F001F90FB0B5
:105A5000F0BD00BF4E6F7420666F756E6420272501
:105A6000732720696E20454E562E0A0070B5002A15
:105A70006FEA00034CD04EF68C40A2F1010C12F0FC
:105A8000030EC0F600001DD00C4614F8015BDEB218
:105A9000754050F82550BEF1010F85EA132305D15A
:105AA00021466246BCF1030F32D30EE04C78DDB2E2
:105AB0006C4050F82440BEF1020F84EA132329D130
:105AC000023A0231BCF1030F22D3043911F8046FFA
:105AD000DDB26E4050F82660043A86EA13234E7811
